{
	"contracts/CCNCarnival2025.sol": {
		"CCNCarnival2025": {
			"abi": [
				{
					"anonymous": false,
					"inputs": [
						{
							"indexed": false,
							"internalType": "uint256",
							"name": "stallId",
							"type": "uint256"
						},
						{
							"indexed": false,
							"internalType": "address",
							"name": "owner",
							"type": "address"
						},
						{
							"indexed": false,
							"internalType": "uint256",
							"name": "amount",
							"type": "uint256"
						}
					],
					"name": "FundsWithdrawn",
					"type": "event"
				},
				{
					"anonymous": false,
					"inputs": [
						{
							"indexed": false,
							"internalType": "uint256",
							"name": "stallId",
							"type": "uint256"
						},
						{
							"indexed": false,
							"internalType": "address",
							"name": "payer",
							"type": "address"
						},
						{
							"indexed": false,
							"internalType": "uint256",
							"name": "amount",
							"type": "uint256"
						}
					],
					"name": "PaymentMade",
					"type": "event"
				},
				{
					"anonymous": false,
					"inputs": [
						{
							"indexed": false,
							"internalType": "uint256",
							"name": "stallId",
							"type": "uint256"
						},
						{
							"indexed": false,
							"internalType": "address",
							"name": "buyer",
							"type": "address"
						}
					],
					"name": "RefundDenied",
					"type": "event"
				},
				{
					"anonymous": false,
					"inputs": [
						{
							"indexed": false,
							"internalType": "uint256",
							"name": "stallId",
							"type": "uint256"
						},
						{
							"indexed": false,
							"internalType": "address",
							"name": "user",
							"type": "address"
						},
						{
							"indexed": false,
							"internalType": "uint256",
							"name": "amount",
							"type": "uint256"
						}
					],
					"name": "RefundIssued",
					"type": "event"
				},
				{
					"anonymous": false,
					"inputs": [
						{
							"indexed": false,
							"internalType": "uint256",
							"name": "stallId",
							"type": "uint256"
						},
						{
							"indexed": false,
							"internalType": "address",
							"name": "owner",
							"type": "address"
						},
						{
							"indexed": false,
							"internalType": "enum CCNCarnival2025.OperatingDays",
							"name": "duration",
							"type": "uint8"
						}
					],
					"name": "StallRegistered",
					"type": "event"
				},
				{
					"inputs": [
						{
							"internalType": "uint256",
							"name": "_stallId",
							"type": "uint256"
						},
						{
							"internalType": "address",
							"name": "_buyer",
							"type": "address"
						}
					],
					"name": "approveRefund",
					"outputs": [],
					"stateMutability": "nonpayable",
					"type": "function"
				},
				{
					"inputs": [
						{
							"internalType": "uint256",
							"name": "_stallId",
							"type": "uint256"
						},
						{
							"internalType": "address",
							"name": "_buyer",
							"type": "address"
						}
					],
					"name": "denyRefund",
					"outputs": [],
					"stateMutability": "nonpayable",
					"type": "function"
				},
				{
					"inputs": [
						{
							"internalType": "uint256",
							"name": "_stallId",
							"type": "uint256"
						}
					],
					"name": "getPayers",
					"outputs": [
						{
							"internalType": "address[]",
							"name": "",
							"type": "address[]"
						}
					],
					"stateMutability": "view",
					"type": "function"
				},
				{
					"inputs": [
						{
							"internalType": "enum CCNCarnival2025.OperatingDays",
							"name": "duration",
							"type": "uint8"
						}
					],
					"name": "getWithdrawalTime",
					"outputs": [
						{
							"internalType": "uint256",
							"name": "",
							"type": "uint256"
						}
					],
					"stateMutability": "pure",
					"type": "function"
				},
				{
					"inputs": [
						{
							"internalType": "uint256",
							"name": "_stallId",
							"type": "uint256"
						},
						{
							"internalType": "address",
							"name": "_user",
							"type": "address"
						}
					],
					"name": "issueRefund",
					"outputs": [],
					"stateMutability": "nonpayable",
					"type": "function"
				},
				{
					"inputs": [
						{
							"internalType": "uint256",
							"name": "_stallId",
							"type": "uint256"
						}
					],
					"name": "makePayment",
					"outputs": [],
					"stateMutability": "payable",
					"type": "function"
				},
				{
					"inputs": [
						{
							"internalType": "uint256",
							"name": "",
							"type": "uint256"
						},
						{
							"internalType": "address",
							"name": "",
							"type": "address"
						}
					],
					"name": "payments",
					"outputs": [
						{
							"internalType": "uint256",
							"name": "",
							"type": "uint256"
						}
					],
					"stateMutability": "view",
					"type": "function"
				},
				{
					"inputs": [
						{
							"internalType": "uint256",
							"name": "",
							"type": "uint256"
						},
						{
							"internalType": "address",
							"name": "",
							"type": "address"
						}
					],
					"name": "refundRequested",
					"outputs": [
						{
							"internalType": "bool",
							"name": "",
							"type": "bool"
						}
					],
					"stateMutability": "view",
					"type": "function"
				},
				{
					"inputs": [
						{
							"internalType": "enum CCNCarnival2025.OperatingDays",
							"name": "_duration",
							"type": "uint8"
						}
					],
					"name": "registerStall",
					"outputs": [],
					"stateMutability": "nonpayable",
					"type": "function"
				},
				{
					"inputs": [
						{
							"internalType": "uint256",
							"name": "_stallId",
							"type": "uint256"
						}
					],
					"name": "requestRefund",
					"outputs": [],
					"stateMutability": "nonpayable",
					"type": "function"
				},
				{
					"inputs": [],
					"name": "stallCount",
					"outputs": [
						{
							"internalType": "uint256",
							"name": "",
							"type": "uint256"
						}
					],
					"stateMutability": "view",
					"type": "function"
				},
				{
					"inputs": [
						{
							"internalType": "uint256",
							"name": "",
							"type": "uint256"
						}
					],
					"name": "stalls",
					"outputs": [
						{
							"internalType": "address payable",
							"name": "owner",
							"type": "address"
						},
						{
							"internalType": "enum CCNCarnival2025.OperatingDays",
							"name": "duration",
							"type": "uint8"
						},
						{
							"internalType": "uint256",
							"name": "balance",
							"type": "uint256"
						},
						{
							"internalType": "bool",
							"name": "registered",
							"type": "bool"
						},
						{
							"internalType": "bool",
							"name": "withdrawn",
							"type": "bool"
						}
					],
					"stateMutability": "view",
					"type": "function"
				},
				{
					"inputs": [
						{
							"internalType": "uint256",
							"name": "_stallId",
							"type": "uint256"
						}
					],
					"name": "withdrawFunds",
					"outputs": [],
					"stateMutability": "nonpayable",
					"type": "function"
				}
			],
			"devdoc": {
				"kind": "dev",
				"methods": {},
				"version": 1
			},
			"evm": {
				"assembly": "    /* \"contracts/CCNCarnival2025.sol\":60:5325  contract CCNCarnival2025 {\r... */\n  mstore(0x40, 0x80)\n  callvalue\n  dup1\n  iszero\n  tag_1\n  jumpi\n  0x00\n  dup1\n  revert\ntag_1:\n  pop\n  dataSize(sub_0)\n  dup1\n  dataOffset(sub_0)\n  0x00\n  codecopy\n  0x00\n  return\nstop\n\nsub_0: assembly {\n        /* \"contracts/CCNCarnival2025.sol\":60:5325  contract CCNCarnival2025 {\r... */\n      mstore(0x40, 0x80)\n      jumpi(tag_1, lt(calldatasize, 0x04))\n      shr(0xe0, calldataload(0x00))\n      dup1\n      0x6d0f9408\n      gt\n      tag_15\n      jumpi\n      dup1\n      0xa532db90\n      gt\n      tag_16\n      jumpi\n      dup1\n      0xa532db90\n      eq\n      tag_11\n      jumpi\n      dup1\n      0xaa8695aa\n      eq\n      tag_12\n      jumpi\n      dup1\n      0xd5f8ab89\n      eq\n      tag_13\n      jumpi\n      dup1\n      0xd8f4ee5b\n      eq\n      tag_14\n      jumpi\n      jump(tag_1)\n    tag_16:\n      dup1\n      0x6d0f9408\n      eq\n      tag_8\n      jumpi\n      dup1\n      0x99cb043a\n      eq\n      tag_9\n      jumpi\n      dup1\n      0xa4b2409e\n      eq\n      tag_10\n      jumpi\n      jump(tag_1)\n    tag_15:\n      dup1\n      0x0a3b91d9\n      eq\n      tag_2\n      jumpi\n      dup1\n      0x155dd5ee\n      eq\n      tag_3\n      jumpi\n      dup1\n      0x4b8e3a17\n      eq\n      tag_4\n      jumpi\n      dup1\n      0x5114cb52\n      eq\n      tag_5\n      jumpi\n      dup1\n      0x565834ee\n      eq\n      tag_6\n      jumpi\n      dup1\n      0x68209707\n      eq\n      tag_7\n      jumpi\n    tag_1:\n      0x00\n      dup1\n      revert\n        /* \"contracts/CCNCarnival2025.sol\":564:628  mapping(uint => mapping(address => bool)) public refundRequested */\n    tag_2:\n      callvalue\n      dup1\n      iszero\n      tag_17\n      jumpi\n      0x00\n      dup1\n      revert\n    tag_17:\n      pop\n      tag_18\n      0x04\n      dup1\n      calldatasize\n      sub\n      dup2\n      add\n      swap1\n      tag_19\n      swap2\n      swap1\n      tag_20\n      jump\t// in\n    tag_19:\n      tag_21\n      jump\t// in\n    tag_18:\n      mload(0x40)\n      tag_22\n      swap2\n      swap1\n      tag_23\n      jump\t// in\n    tag_22:\n      mload(0x40)\n      dup1\n      swap2\n      sub\n      swap1\n      return\n        /* \"contracts/CCNCarnival2025.sol\":2671:3257  function withdrawFunds(uint _stallId) external stallExists(_stallId) {\r... */\n    tag_3:\n      callvalue\n      dup1\n      iszero\n      tag_24\n      jumpi\n      0x00\n      dup1\n      revert\n    tag_24:\n      pop\n      tag_25\n      0x04\n      dup1\n      calldatasize\n      sub\n      dup2\n      add\n      swap1\n      tag_26\n      swap2\n      swap1\n      tag_27\n      jump\t// in\n    tag_26:\n      tag_28\n      jump\t// in\n    tag_25:\n      stop\n        /* \"contracts/CCNCarnival2025.sol\":4862:5322  function denyRefund(uint _stallId, address _buyer) \r... */\n    tag_4:\n      callvalue\n      dup1\n      iszero\n      tag_29\n      jumpi\n      0x00\n      dup1\n      revert\n    tag_29:\n      pop\n      tag_30\n      0x04\n      dup1\n      calldatasize\n      sub\n      dup2\n      add\n      swap1\n      tag_31\n      swap2\n      swap1\n      tag_20\n      jump\t// in\n    tag_31:\n      tag_32\n      jump\t// in\n    tag_30:\n      stop\n        /* \"contracts/CCNCarnival2025.sol\":1399:2030  function makePayment(uint _stallId) external payable stallExists(_stallId) {\r... */\n    tag_5:\n      tag_33\n      0x04\n      dup1\n      calldatasize\n      sub\n      dup2\n      add\n      swap1\n      tag_34\n      swap2\n      swap1\n      tag_27\n      jump\t// in\n    tag_34:\n      tag_35\n      jump\t// in\n    tag_33:\n      stop\n        /* \"contracts/CCNCarnival2025.sol\":370:430  mapping(uint => mapping(address => uint256)) public payments */\n    tag_6:\n      callvalue\n      dup1\n      iszero\n      tag_36\n      jumpi\n      0x00\n      dup1\n      revert\n    tag_36:\n      pop\n      tag_37\n      0x04\n      dup1\n      calldatasize\n      sub\n      dup2\n      add\n      swap1\n      tag_38\n      swap2\n      swap1\n      tag_20\n      jump\t// in\n    tag_38:\n      tag_39\n      jump\t// in\n    tag_37:\n      mload(0x40)\n      tag_40\n      swap2\n      swap1\n      tag_41\n      jump\t// in\n    tag_40:\n      mload(0x40)\n      dup1\n      swap2\n      sub\n      swap1\n      return\n        /* \"contracts/CCNCarnival2025.sol\":3507:3651  function getPayers(uint _stallId) external view stallExists(_stallId) returns (address[] memory) {\r... */\n    tag_7:\n      callvalue\n      dup1\n      iszero\n      tag_42\n      jumpi\n      0x00\n      dup1\n      revert\n    tag_42:\n      pop\n      tag_43\n      0x04\n      dup1\n      calldatasize\n      sub\n      dup2\n      add\n      swap1\n      tag_44\n      swap2\n      swap1\n      tag_27\n      jump\t// in\n    tag_44:\n      tag_45\n      jump\t// in\n    tag_43:\n      mload(0x40)\n      tag_46\n      swap2\n      swap1\n      tag_47\n      jump\t// in\n    tag_46:\n      mload(0x40)\n      dup1\n      swap2\n      sub\n      swap1\n      return\n        /* \"contracts/CCNCarnival2025.sol\":327:363  mapping(uint => Stall) public stalls */\n    tag_8:\n      callvalue\n      dup1\n      iszero\n      tag_48\n      jumpi\n      0x00\n      dup1\n      revert\n    tag_48:\n      pop\n      tag_49\n      0x04\n      dup1\n      calldatasize\n      sub\n      dup2\n      add\n      swap1\n      tag_50\n      swap2\n      swap1\n      tag_27\n      jump\t// in\n    tag_50:\n      tag_51\n      jump\t// in\n    tag_49:\n      mload(0x40)\n      tag_52\n      swap6\n      swap5\n      swap4\n      swap3\n      swap2\n      swap1\n      tag_53\n      jump\t// in\n    tag_52:\n      mload(0x40)\n      dup1\n      swap2\n      sub\n      swap1\n      return\n        /* \"contracts/CCNCarnival2025.sol\":637:659  uint public stallCount */\n    tag_9:\n      callvalue\n      dup1\n      iszero\n      tag_54\n      jumpi\n      0x00\n      dup1\n      revert\n    tag_54:\n      pop\n      tag_55\n      tag_56\n      jump\t// in\n    tag_55:\n      mload(0x40)\n      tag_57\n      swap2\n      swap1\n      tag_41\n      jump\t// in\n    tag_57:\n      mload(0x40)\n      dup1\n      swap2\n      sub\n      swap1\n      return\n        /* \"contracts/CCNCarnival2025.sol\":3659:4051  function requestRefund(uint _stallId) external stallExists(_stallId) {\r... */\n    tag_10:\n      callvalue\n      dup1\n      iszero\n      tag_58\n      jumpi\n      0x00\n      dup1\n      revert\n    tag_58:\n      pop\n      tag_59\n      0x04\n      dup1\n      calldatasize\n      sub\n      dup2\n      add\n      swap1\n      tag_60\n      swap2\n      swap1\n      tag_27\n      jump\t// in\n    tag_60:\n      tag_61\n      jump\t// in\n    tag_59:\n      stop\n        /* \"contracts/CCNCarnival2025.sol\":3265:3499  function getWithdrawalTime(OperatingDays duration) public pure returns (uint) {\r... */\n    tag_11:\n      callvalue\n      dup1\n      iszero\n      tag_62\n      jumpi\n      0x00\n      dup1\n      revert\n    tag_62:\n      pop\n      tag_63\n      0x04\n      dup1\n      calldatasize\n      sub\n      dup2\n      add\n      swap1\n      tag_64\n      swap2\n      swap1\n      tag_65\n      jump\t// in\n    tag_64:\n      tag_66\n      jump\t// in\n    tag_63:\n      mload(0x40)\n      tag_67\n      swap2\n      swap1\n      tag_41\n      jump\t// in\n    tag_67:\n      mload(0x40)\n      dup1\n      swap2\n      sub\n      swap1\n      return\n        /* \"contracts/CCNCarnival2025.sol\":2038:2663  function issueRefund(uint _stallId, address _user) external stallExists(_stallId) {\r... */\n    tag_12:\n      callvalue\n      dup1\n      iszero\n      tag_68\n      jumpi\n      0x00\n      dup1\n      revert\n    tag_68:\n      pop\n      tag_69\n      0x04\n      dup1\n      calldatasize\n      sub\n      dup2\n      add\n      swap1\n      tag_70\n      swap2\n      swap1\n      tag_20\n      jump\t// in\n    tag_70:\n      tag_71\n      jump\t// in\n    tag_69:\n      stop\n        /* \"contracts/CCNCarnival2025.sol\":4059:4854  function approveRefund(uint _stallId, address _buyer) external stallExists(_stallId) {\r... */\n    tag_13:\n      callvalue\n      dup1\n      iszero\n      tag_72\n      jumpi\n      0x00\n      dup1\n      revert\n    tag_72:\n      pop\n      tag_73\n      0x04\n      dup1\n      calldatasize\n      sub\n      dup2\n      add\n      swap1\n      tag_74\n      swap2\n      swap1\n      tag_20\n      jump\t// in\n    tag_74:\n      tag_75\n      jump\t// in\n    tag_73:\n      stop\n        /* \"contracts/CCNCarnival2025.sol\":1152:1391  function registerStall(OperatingDays _duration) external {\r... */\n    tag_14:\n      callvalue\n      dup1\n      iszero\n      tag_76\n      jumpi\n      0x00\n      dup1\n      revert\n    tag_76:\n      pop\n      tag_77\n      0x04\n      dup1\n      calldatasize\n      sub\n      dup2\n      add\n      swap1\n      tag_78\n      swap2\n      swap1\n      tag_65\n      jump\t// in\n    tag_78:\n      tag_79\n      jump\t// in\n    tag_77:\n      stop\n        /* \"contracts/CCNCarnival2025.sol\":564:628  mapping(uint => mapping(address => bool)) public refundRequested */\n    tag_21:\n      mstore(0x20, 0x04)\n      dup2\n      0x00\n      mstore\n      mstore(0x20, keccak256(0x00, 0x40))\n      dup1\n      0x00\n      mstore\n      keccak256(0x00, 0x40)\n      0x00\n      swap2\n      pop\n      swap2\n      pop\n      swap1\n      sload\n      swap1\n      0x0100\n      exp\n      swap1\n      div\n      0xff\n      and\n      dup2\n      jump\t// out\n        /* \"contracts/CCNCarnival2025.sol\":2671:3257  function withdrawFunds(uint _stallId) external stallExists(_stallId) {\r... */\n    tag_28:\n        /* \"contracts/CCNCarnival2025.sol\":2730:2738  _stallId */\n      dup1\n        /* \"contracts/CCNCarnival2025.sol\":1072:1073  0 */\n      0x00\n        /* \"contracts/CCNCarnival2025.sol\":1061:1069  _stallId */\n      dup2\n        /* \"contracts/CCNCarnival2025.sol\":1061:1073  _stallId > 0 */\n      gt\n        /* \"contracts/CCNCarnival2025.sol\":1061:1099  _stallId > 0 && _stallId <= stallCount */\n      dup1\n      iszero\n      tag_81\n      jumpi\n      pop\n        /* \"contracts/CCNCarnival2025.sol\":1089:1099  stallCount */\n      sload(0x05)\n        /* \"contracts/CCNCarnival2025.sol\":1077:1085  _stallId */\n      dup2\n        /* \"contracts/CCNCarnival2025.sol\":1077:1099  _stallId <= stallCount */\n      gt\n      iszero\n        /* \"contracts/CCNCarnival2025.sol\":1061:1099  _stallId > 0 && _stallId <= stallCount */\n    tag_81:\n        /* \"contracts/CCNCarnival2025.sol\":1053:1124  require(_stallId > 0 && _stallId <= stallCount, \"Stall does not exist\") */\n      tag_82\n      jumpi\n      mload(0x40)\n      0x08c379a000000000000000000000000000000000000000000000000000000000\n      dup2\n      mstore\n      0x04\n      add\n      tag_83\n      swap1\n      tag_84\n      jump\t// in\n    tag_83:\n      mload(0x40)\n      dup1\n      swap2\n      sub\n      swap1\n      revert\n    tag_82:\n        /* \"contracts/CCNCarnival2025.sol\":2751:2766  Stall storage s */\n      0x00\n        /* \"contracts/CCNCarnival2025.sol\":2769:2775  stalls */\n      dup1\n        /* \"contracts/CCNCarnival2025.sol\":2769:2785  stalls[_stallId] */\n      0x00\n        /* \"contracts/CCNCarnival2025.sol\":2776:2784  _stallId */\n      dup5\n        /* \"contracts/CCNCarnival2025.sol\":2769:2785  stalls[_stallId] */\n      dup2\n      mstore\n      0x20\n      add\n      swap1\n      dup2\n      mstore\n      0x20\n      add\n      0x00\n      keccak256\n        /* \"contracts/CCNCarnival2025.sol\":2751:2785  Stall storage s = stalls[_stallId] */\n      swap1\n      pop\n        /* \"contracts/CCNCarnival2025.sol\":2818:2819  s */\n      dup1\n        /* \"contracts/CCNCarnival2025.sol\":2818:2825  s.owner */\n      0x00\n      add\n      0x00\n      swap1\n      sload\n      swap1\n      0x0100\n      exp\n      swap1\n      div\n      0xffffffffffffffffffffffffffffffffffffffff\n      and\n        /* \"contracts/CCNCarnival2025.sol\":2804:2825  msg.sender == s.owner */\n      0xffffffffffffffffffffffffffffffffffffffff\n      and\n        /* \"contracts/CCNCarnival2025.sol\":2804:2814  msg.sender */\n      caller\n        /* \"contracts/CCNCarnival2025.sol\":2804:2825  msg.sender == s.owner */\n      0xffffffffffffffffffffffffffffffffffffffff\n      and\n      eq\n        /* \"contracts/CCNCarnival2025.sol\":2796:2845  require(msg.sender == s.owner, \"Not stall owner\") */\n      tag_86\n      jumpi\n      mload(0x40)\n      0x08c379a000000000000000000000000000000000000000000000000000000000\n      dup2\n      mstore\n      0x04\n      add\n      tag_87\n      swap1\n      tag_88\n      jump\t// in\n    tag_87:\n      mload(0x40)\n      dup1\n      swap2\n      sub\n      swap1\n      revert\n    tag_86:\n        /* \"contracts/CCNCarnival2025.sol\":2865:2866  s */\n      dup1\n        /* \"contracts/CCNCarnival2025.sol\":2865:2876  s.withdrawn */\n      0x02\n      add\n      0x01\n      swap1\n      sload\n      swap1\n      0x0100\n      exp\n      swap1\n      div\n      0xff\n      and\n        /* \"contracts/CCNCarnival2025.sol\":2864:2876  !s.withdrawn */\n      iszero\n        /* \"contracts/CCNCarnival2025.sol\":2856:2898  require(!s.withdrawn, \"Already withdrawn\") */\n      tag_89\n      jumpi\n      mload(0x40)\n      0x08c379a000000000000000000000000000000000000000000000000000000000\n      dup2\n      mstore\n      0x04\n      add\n      tag_90\n      swap1\n      tag_91\n      jump\t// in\n    tag_90:\n      mload(0x40)\n      dup1\n      swap2\n      sub\n      swap1\n      revert\n    tag_89:\n        /* \"contracts/CCNCarnival2025.sol\":2994:3005  uint amount */\n      0x00\n        /* \"contracts/CCNCarnival2025.sol\":3008:3009  s */\n      dup2\n        /* \"contracts/CCNCarnival2025.sol\":3008:3017  s.balance */\n      0x01\n      add\n      sload\n        /* \"contracts/CCNCarnival2025.sol\":2994:3017  uint amount = s.balance */\n      swap1\n      pop\n        /* \"contracts/CCNCarnival2025.sol\":3042:3046  true */\n      0x01\n        /* \"contracts/CCNCarnival2025.sol\":3028:3029  s */\n      dup3\n        /* \"contracts/CCNCarnival2025.sol\":3028:3039  s.withdrawn */\n      0x02\n      add\n      0x01\n        /* \"contracts/CCNCarnival2025.sol\":3028:3046  s.withdrawn = true */\n      0x0100\n      exp\n      dup2\n      sload\n      dup2\n      0xff\n      mul\n      not\n      and\n      swap1\n      dup4\n      iszero\n      iszero\n      mul\n      or\n      swap1\n      sstore\n      pop\n        /* \"contracts/CCNCarnival2025.sol\":3069:3070  0 */\n      0x00\n        /* \"contracts/CCNCarnival2025.sol\":3057:3058  s */\n      dup3\n        /* \"contracts/CCNCarnival2025.sol\":3057:3066  s.balance */\n      0x01\n      add\n        /* \"contracts/CCNCarnival2025.sol\":3057:3070  s.balance = 0 */\n      dup2\n      swap1\n      sstore\n      pop\n        /* \"contracts/CCNCarnival2025.sol\":3084:3096  bool success */\n      0x00\n        /* \"contracts/CCNCarnival2025.sol\":3102:3103  s */\n      dup3\n        /* \"contracts/CCNCarnival2025.sol\":3102:3109  s.owner */\n      0x00\n      add\n      0x00\n      swap1\n      sload\n      swap1\n      0x0100\n      exp\n      swap1\n      div\n      0xffffffffffffffffffffffffffffffffffffffff\n      and\n        /* \"contracts/CCNCarnival2025.sol\":3102:3114  s.owner.call */\n      0xffffffffffffffffffffffffffffffffffffffff\n      and\n        /* \"contracts/CCNCarnival2025.sol\":3122:3128  amount */\n      dup3\n        /* \"contracts/CCNCarnival2025.sol\":3102:3133  s.owner.call{value: amount}(\"\") */\n      mload(0x40)\n      tag_92\n      swap1\n      tag_93\n      jump\t// in\n    tag_92:\n      0x00\n      mload(0x40)\n      dup1\n      dup4\n      sub\n      dup2\n      dup6\n      dup8\n      gas\n      call\n      swap3\n      pop\n      pop\n      pop\n      returndatasize\n      dup1\n      0x00\n      dup2\n      eq\n      tag_96\n      jumpi\n      mload(0x40)\n      swap2\n      pop\n      and(add(returndatasize, 0x3f), not(0x1f))\n      dup3\n      add\n      0x40\n      mstore\n      returndatasize\n      dup3\n      mstore\n      returndatasize\n      0x00\n      0x20\n      dup5\n      add\n      returndatacopy\n      jump(tag_95)\n    tag_96:\n      0x60\n      swap2\n      pop\n    tag_95:\n      pop\n        /* \"contracts/CCNCarnival2025.sol\":3083:3133  (bool success, ) = s.owner.call{value: amount}(\"\") */\n      pop\n      swap1\n      pop\n        /* \"contracts/CCNCarnival2025.sol\":3152:3159  success */\n      dup1\n        /* \"contracts/CCNCarnival2025.sol\":3144:3190  require(success, \"Withdrawal transfer failed\") */\n      tag_97\n      jumpi\n      mload(0x40)\n      0x08c379a000000000000000000000000000000000000000000000000000000000\n      dup2\n      mstore\n      0x04\n      add\n      tag_98\n      swap1\n      tag_99\n      jump\t// in\n    tag_98:\n      mload(0x40)\n      dup1\n      swap2\n      sub\n      swap1\n      revert\n    tag_97:\n        /* \"contracts/CCNCarnival2025.sol\":3208:3249  FundsWithdrawn(_stallId, s.owner, amount) */\n      0xf440aec6b52895984d061d622e6edeba6210f7c3e059be920663140c084560d7\n        /* \"contracts/CCNCarnival2025.sol\":3223:3231  _stallId */\n      dup6\n        /* \"contracts/CCNCarnival2025.sol\":3233:3234  s */\n      dup5\n        /* \"contracts/CCNCarnival2025.sol\":3233:3240  s.owner */\n      0x00\n      add\n      0x00\n      swap1\n      sload\n      swap1\n      0x0100\n      exp\n      swap1\n      div\n      0xffffffffffffffffffffffffffffffffffffffff\n      and\n        /* \"contracts/CCNCarnival2025.sol\":3242:3248  amount */\n      dup5\n        /* \"contracts/CCNCarnival2025.sol\":3208:3249  FundsWithdrawn(_stallId, s.owner, amount) */\n      mload(0x40)\n      tag_100\n      swap4\n      swap3\n      swap2\n      swap1\n      tag_101\n      jump\t// in\n    tag_100:\n      mload(0x40)\n      dup1\n      swap2\n      sub\n      swap1\n      log1\n        /* \"contracts/CCNCarnival2025.sol\":1135:1136  _ */\n      pop\n      pop\n      pop\n        /* \"contracts/CCNCarnival2025.sol\":2671:3257  function withdrawFunds(uint _stallId) external stallExists(_stallId) {\r... */\n      pop\n      pop\n      jump\t// out\n        /* \"contracts/CCNCarnival2025.sol\":4862:5322  function denyRefund(uint _stallId, address _buyer) \r... */\n    tag_32:\n        /* \"contracts/CCNCarnival2025.sol\":4954:4962  _stallId */\n      dup2\n        /* \"contracts/CCNCarnival2025.sol\":1072:1073  0 */\n      0x00\n        /* \"contracts/CCNCarnival2025.sol\":1061:1069  _stallId */\n      dup2\n        /* \"contracts/CCNCarnival2025.sol\":1061:1073  _stallId > 0 */\n      gt\n        /* \"contracts/CCNCarnival2025.sol\":1061:1099  _stallId > 0 && _stallId <= stallCount */\n      dup1\n      iszero\n      tag_103\n      jumpi\n      pop\n        /* \"contracts/CCNCarnival2025.sol\":1089:1099  stallCount */\n      sload(0x05)\n        /* \"contracts/CCNCarnival2025.sol\":1077:1085  _stallId */\n      dup2\n        /* \"contracts/CCNCarnival2025.sol\":1077:1099  _stallId <= stallCount */\n      gt\n      iszero\n        /* \"contracts/CCNCarnival2025.sol\":1061:1099  _stallId > 0 && _stallId <= stallCount */\n    tag_103:\n        /* \"contracts/CCNCarnival2025.sol\":1053:1124  require(_stallId > 0 && _stallId <= stallCount, \"Stall does not exist\") */\n      tag_104\n      jumpi\n      mload(0x40)\n      0x08c379a000000000000000000000000000000000000000000000000000000000\n      dup2\n      mstore\n      0x04\n      add\n      tag_105\n      swap1\n      tag_84\n      jump\t// in\n    tag_105:\n      mload(0x40)\n      dup1\n      swap2\n      sub\n      swap1\n      revert\n    tag_104:\n        /* \"contracts/CCNCarnival2025.sol\":4981:4996  Stall storage s */\n      0x00\n        /* \"contracts/CCNCarnival2025.sol\":4999:5005  stalls */\n      dup1\n        /* \"contracts/CCNCarnival2025.sol\":4999:5015  stalls[_stallId] */\n      0x00\n        /* \"contracts/CCNCarnival2025.sol\":5006:5014  _stallId */\n      dup6\n        /* \"contracts/CCNCarnival2025.sol\":4999:5015  stalls[_stallId] */\n      dup2\n      mstore\n      0x20\n      add\n      swap1\n      dup2\n      mstore\n      0x20\n      add\n      0x00\n      keccak256\n        /* \"contracts/CCNCarnival2025.sol\":4981:5015  Stall storage s = stalls[_stallId] */\n      swap1\n      pop\n        /* \"contracts/CCNCarnival2025.sol\":5048:5049  s */\n      dup1\n        /* \"contracts/CCNCarnival2025.sol\":5048:5055  s.owner */\n      0x00\n      add\n      0x00\n      swap1\n      sload\n      swap1\n      0x0100\n      exp\n      swap1\n      div\n      0xffffffffffffffffffffffffffffffffffffffff\n      and\n        /* \"contracts/CCNCarnival2025.sol\":5034:5055  msg.sender == s.owner */\n      0xffffffffffffffffffffffffffffffffffffffff\n      and\n        /* \"contracts/CCNCarnival2025.sol\":5034:5044  msg.sender */\n      caller\n        /* \"contracts/CCNCarnival2025.sol\":5034:5055  msg.sender == s.owner */\n      0xffffffffffffffffffffffffffffffffffffffff\n      and\n      eq\n        /* \"contracts/CCNCarnival2025.sol\":5026:5075  require(msg.sender == s.owner, \"Not stall owner\") */\n      tag_107\n      jumpi\n      mload(0x40)\n      0x08c379a000000000000000000000000000000000000000000000000000000000\n      dup2\n      mstore\n      0x04\n      add\n      tag_108\n      swap1\n      tag_88\n      jump\t// in\n    tag_108:\n      mload(0x40)\n      dup1\n      swap2\n      sub\n      swap1\n      revert\n    tag_107:\n        /* \"contracts/CCNCarnival2025.sol\":5094:5109  refundRequested */\n      0x04\n        /* \"contracts/CCNCarnival2025.sol\":5094:5119  refundRequested[_stallId] */\n      0x00\n        /* \"contracts/CCNCarnival2025.sol\":5110:5118  _stallId */\n      dup6\n        /* \"contracts/CCNCarnival2025.sol\":5094:5119  refundRequested[_stallId] */\n      dup2\n      mstore\n      0x20\n      add\n      swap1\n      dup2\n      mstore\n      0x20\n      add\n      0x00\n      keccak256\n        /* \"contracts/CCNCarnival2025.sol\":5094:5127  refundRequested[_stallId][_buyer] */\n      0x00\n        /* \"contracts/CCNCarnival2025.sol\":5120:5126  _buyer */\n      dup5\n        /* \"contracts/CCNCarnival2025.sol\":5094:5127  refundRequested[_stallId][_buyer] */\n      0xffffffffffffffffffffffffffffffffffffffff\n      and\n      0xffffffffffffffffffffffffffffffffffffffff\n      and\n      dup2\n      mstore\n      0x20\n      add\n      swap1\n      dup2\n      mstore\n      0x20\n      add\n      0x00\n      keccak256\n      0x00\n      swap1\n      sload\n      swap1\n      0x0100\n      exp\n      swap1\n      div\n      0xff\n      and\n        /* \"contracts/CCNCarnival2025.sol\":5086:5151  require(refundRequested[_stallId][_buyer], \"No refund requested\") */\n      tag_109\n      jumpi\n      mload(0x40)\n      0x08c379a000000000000000000000000000000000000000000000000000000000\n      dup2\n      mstore\n      0x04\n      add\n      tag_110\n      swap1\n      tag_111\n      jump\t// in\n    tag_110:\n      mload(0x40)\n      dup1\n      swap2\n      sub\n      swap1\n      revert\n    tag_109:\n        /* \"contracts/CCNCarnival2025.sol\":5200:5205  false */\n      0x00\n        /* \"contracts/CCNCarnival2025.sol\":5164:5179  refundRequested */\n      0x04\n        /* \"contracts/CCNCarnival2025.sol\":5164:5189  refundRequested[_stallId] */\n      0x00\n        /* \"contracts/CCNCarnival2025.sol\":5180:5188  _stallId */\n      dup7\n        /* \"contracts/CCNCarnival2025.sol\":5164:5189  refundRequested[_stallId] */\n      dup2\n      mstore\n      0x20\n      add\n      swap1\n      dup2\n      mstore\n      0x20\n      add\n      0x00\n      keccak256\n        /* \"contracts/CCNCarnival2025.sol\":5164:5197  refundRequested[_stallId][_buyer] */\n      0x00\n        /* \"contracts/CCNCarnival2025.sol\":5190:5196  _buyer */\n      dup6\n        /* \"contracts/CCNCarnival2025.sol\":5164:5197  refundRequested[_stallId][_buyer] */\n      0xffffffffffffffffffffffffffffffffffffffff\n      and\n      0xffffffffffffffffffffffffffffffffffffffff\n      and\n      dup2\n      mstore\n      0x20\n      add\n      swap1\n      dup2\n      mstore\n      0x20\n      add\n      0x00\n      keccak256\n      0x00\n        /* \"contracts/CCNCarnival2025.sol\":5164:5205  refundRequested[_stallId][_buyer] = false */\n      0x0100\n      exp\n      dup2\n      sload\n      dup2\n      0xff\n      mul\n      not\n      and\n      swap1\n      dup4\n      iszero\n      iszero\n      mul\n      or\n      swap1\n      sstore\n      pop\n        /* \"contracts/CCNCarnival2025.sol\":5284:5314  RefundDenied(_stallId, _buyer) */\n      0x043d0d9bf4e73c0519823631bd183a34bf9a8101ec7c12629b7021972b2be8d6\n        /* \"contracts/CCNCarnival2025.sol\":5297:5305  _stallId */\n      dup5\n        /* \"contracts/CCNCarnival2025.sol\":5307:5313  _buyer */\n      dup5\n        /* \"contracts/CCNCarnival2025.sol\":5284:5314  RefundDenied(_stallId, _buyer) */\n      mload(0x40)\n      tag_112\n      swap3\n      swap2\n      swap1\n      tag_113\n      jump\t// in\n    tag_112:\n      mload(0x40)\n      dup1\n      swap2\n      sub\n      swap1\n      log1\n        /* \"contracts/CCNCarnival2025.sol\":1135:1136  _ */\n      pop\n        /* \"contracts/CCNCarnival2025.sol\":4862:5322  function denyRefund(uint _stallId, address _buyer) \r... */\n      pop\n      pop\n      pop\n      jump\t// out\n        /* \"contracts/CCNCarnival2025.sol\":1399:2030  function makePayment(uint _stallId) external payable stallExists(_stallId) {\r... */\n    tag_35:\n        /* \"contracts/CCNCarnival2025.sol\":1464:1472  _stallId */\n      dup1\n        /* \"contracts/CCNCarnival2025.sol\":1072:1073  0 */\n      0x00\n        /* \"contracts/CCNCarnival2025.sol\":1061:1069  _stallId */\n      dup2\n        /* \"contracts/CCNCarnival2025.sol\":1061:1073  _stallId > 0 */\n      gt\n        /* \"contracts/CCNCarnival2025.sol\":1061:1099  _stallId > 0 && _stallId <= stallCount */\n      dup1\n      iszero\n      tag_115\n      jumpi\n      pop\n        /* \"contracts/CCNCarnival2025.sol\":1089:1099  stallCount */\n      sload(0x05)\n        /* \"contracts/CCNCarnival2025.sol\":1077:1085  _stallId */\n      dup2\n        /* \"contracts/CCNCarnival2025.sol\":1077:1099  _stallId <= stallCount */\n      gt\n      iszero\n        /* \"contracts/CCNCarnival2025.sol\":1061:1099  _stallId > 0 && _stallId <= stallCount */\n    tag_115:\n        /* \"contracts/CCNCarnival2025.sol\":1053:1124  require(_stallId > 0 && _stallId <= stallCount, \"Stall does not exist\") */\n      tag_116\n      jumpi\n      mload(0x40)\n      0x08c379a000000000000000000000000000000000000000000000000000000000\n      dup2\n      mstore\n      0x04\n      add\n      tag_117\n      swap1\n      tag_84\n      jump\t// in\n    tag_117:\n      mload(0x40)\n      dup1\n      swap2\n      sub\n      swap1\n      revert\n    tag_116:\n        /* \"contracts/CCNCarnival2025.sol\":1485:1500  Stall storage s */\n      0x00\n        /* \"contracts/CCNCarnival2025.sol\":1503:1509  stalls */\n      dup1\n        /* \"contracts/CCNCarnival2025.sol\":1503:1519  stalls[_stallId] */\n      0x00\n        /* \"contracts/CCNCarnival2025.sol\":1510:1518  _stallId */\n      dup5\n        /* \"contracts/CCNCarnival2025.sol\":1503:1519  stalls[_stallId] */\n      dup2\n      mstore\n      0x20\n      add\n      swap1\n      dup2\n      mstore\n      0x20\n      add\n      0x00\n      keccak256\n        /* \"contracts/CCNCarnival2025.sol\":1485:1519  Stall storage s = stalls[_stallId] */\n      swap1\n      pop\n        /* \"contracts/CCNCarnival2025.sol\":1538:1539  s */\n      dup1\n        /* \"contracts/CCNCarnival2025.sol\":1538:1550  s.registered */\n      0x02\n      add\n      0x00\n      swap1\n      sload\n      swap1\n      0x0100\n      exp\n      swap1\n      div\n      0xff\n      and\n        /* \"contracts/CCNCarnival2025.sol\":1530:1570  require(s.registered, \"Stall not found\") */\n      tag_119\n      jumpi\n      mload(0x40)\n      0x08c379a000000000000000000000000000000000000000000000000000000000\n      dup2\n      mstore\n      0x04\n      add\n      tag_120\n      swap1\n      tag_121\n      jump\t// in\n    tag_120:\n      mload(0x40)\n      dup1\n      swap2\n      sub\n      swap1\n      revert\n    tag_119:\n        /* \"contracts/CCNCarnival2025.sol\":1590:1591  s */\n      dup1\n        /* \"contracts/CCNCarnival2025.sol\":1590:1601  s.withdrawn */\n      0x02\n      add\n      0x01\n      swap1\n      sload\n      swap1\n      0x0100\n      exp\n      swap1\n      div\n      0xff\n      and\n        /* \"contracts/CCNCarnival2025.sol\":1589:1601  !s.withdrawn */\n      iszero\n        /* \"contracts/CCNCarnival2025.sol\":1581:1645  require(!s.withdrawn, \"Stall funds withdrawn, no more payments\") */\n      tag_122\n      jumpi\n      mload(0x40)\n      0x08c379a000000000000000000000000000000000000000000000000000000000\n      dup2\n      mstore\n      0x04\n      add\n      tag_123\n      swap1\n      tag_124\n      jump\t// in\n    tag_123:\n      mload(0x40)\n      dup1\n      swap2\n      sub\n      swap1\n      revert\n    tag_122:\n        /* \"contracts/CCNCarnival2025.sol\":1676:1677  0 */\n      0x00\n        /* \"contracts/CCNCarnival2025.sol\":1664:1673  msg.value */\n      callvalue\n        /* \"contracts/CCNCarnival2025.sol\":1664:1677  msg.value > 0 */\n      gt\n        /* \"contracts/CCNCarnival2025.sol\":1656:1695  require(msg.value > 0, \"Must send ETH\") */\n      tag_125\n      jumpi\n      mload(0x40)\n      0x08c379a000000000000000000000000000000000000000000000000000000000\n      dup2\n      mstore\n      0x04\n      add\n      tag_126\n      swap1\n      tag_127\n      jump\t// in\n    tag_126:\n      mload(0x40)\n      dup1\n      swap2\n      sub\n      swap1\n      revert\n    tag_125:\n        /* \"contracts/CCNCarnival2025.sol\":1721:1730  msg.value */\n      callvalue\n        /* \"contracts/CCNCarnival2025.sol\":1708:1709  s */\n      dup2\n        /* \"contracts/CCNCarnival2025.sol\":1708:1717  s.balance */\n      0x01\n      add\n      0x00\n        /* \"contracts/CCNCarnival2025.sol\":1708:1730  s.balance += msg.value */\n      dup3\n      dup3\n      sload\n      tag_128\n      swap2\n      swap1\n      tag_129\n      jump\t// in\n    tag_128:\n      swap3\n      pop\n      pop\n      dup2\n      swap1\n      sstore\n      pop\n        /* \"contracts/CCNCarnival2025.sol\":1775:1784  msg.value */\n      callvalue\n        /* \"contracts/CCNCarnival2025.sol\":1741:1749  payments */\n      0x01\n        /* \"contracts/CCNCarnival2025.sol\":1741:1759  payments[_stallId] */\n      0x00\n        /* \"contracts/CCNCarnival2025.sol\":1750:1758  _stallId */\n      dup6\n        /* \"contracts/CCNCarnival2025.sol\":1741:1759  payments[_stallId] */\n      dup2\n      mstore\n      0x20\n      add\n      swap1\n      dup2\n      mstore\n      0x20\n      add\n      0x00\n      keccak256\n        /* \"contracts/CCNCarnival2025.sol\":1741:1771  payments[_stallId][msg.sender] */\n      0x00\n        /* \"contracts/CCNCarnival2025.sol\":1760:1770  msg.sender */\n      caller\n        /* \"contracts/CCNCarnival2025.sol\":1741:1771  payments[_stallId][msg.sender] */\n      0xffffffffffffffffffffffffffffffffffffffff\n      and\n      0xffffffffffffffffffffffffffffffffffffffff\n      and\n      dup2\n      mstore\n      0x20\n      add\n      swap1\n      dup2\n      mstore\n      0x20\n      add\n      0x00\n      keccak256\n      0x00\n        /* \"contracts/CCNCarnival2025.sol\":1741:1784  payments[_stallId][msg.sender] += msg.value */\n      dup3\n      dup3\n      sload\n      tag_130\n      swap2\n      swap1\n      tag_129\n      jump\t// in\n    tag_130:\n      swap3\n      pop\n      pop\n      dup2\n      swap1\n      sstore\n      pop\n        /* \"contracts/CCNCarnival2025.sol\":1802:1815  hasPaidBefore */\n      0x03\n        /* \"contracts/CCNCarnival2025.sol\":1802:1825  hasPaidBefore[_stallId] */\n      0x00\n        /* \"contracts/CCNCarnival2025.sol\":1816:1824  _stallId */\n      dup5\n        /* \"contracts/CCNCarnival2025.sol\":1802:1825  hasPaidBefore[_stallId] */\n      dup2\n      mstore\n      0x20\n      add\n      swap1\n      dup2\n      mstore\n      0x20\n      add\n      0x00\n      keccak256\n        /* \"contracts/CCNCarnival2025.sol\":1802:1837  hasPaidBefore[_stallId][msg.sender] */\n      0x00\n        /* \"contracts/CCNCarnival2025.sol\":1826:1836  msg.sender */\n      caller\n        /* \"contracts/CCNCarnival2025.sol\":1802:1837  hasPaidBefore[_stallId][msg.sender] */\n      0xffffffffffffffffffffffffffffffffffffffff\n      and\n      0xffffffffffffffffffffffffffffffffffffffff\n      and\n      dup2\n      mstore\n      0x20\n      add\n      swap1\n      dup2\n      mstore\n      0x20\n      add\n      0x00\n      keccak256\n      0x00\n      swap1\n      sload\n      swap1\n      0x0100\n      exp\n      swap1\n      div\n      0xff\n      and\n        /* \"contracts/CCNCarnival2025.sol\":1797:1961  if (!hasPaidBefore[_stallId][msg.sender]) {\r... */\n      tag_131\n      jumpi\n        /* \"contracts/CCNCarnival2025.sol\":1854:1865  stallPayers */\n      0x02\n        /* \"contracts/CCNCarnival2025.sol\":1854:1875  stallPayers[_stallId] */\n      0x00\n        /* \"contracts/CCNCarnival2025.sol\":1866:1874  _stallId */\n      dup5\n        /* \"contracts/CCNCarnival2025.sol\":1854:1875  stallPayers[_stallId] */\n      dup2\n      mstore\n      0x20\n      add\n      swap1\n      dup2\n      mstore\n      0x20\n      add\n      0x00\n      keccak256\n        /* \"contracts/CCNCarnival2025.sol\":1881:1891  msg.sender */\n      caller\n        /* \"contracts/CCNCarnival2025.sol\":1854:1892  stallPayers[_stallId].push(msg.sender) */\n      swap1\n      dup1\n      0x01\n      dup2\n      sload\n      add\n      dup1\n      dup3\n      sstore\n      dup1\n      swap2\n      pop\n      pop\n      0x01\n      swap1\n      sub\n      swap1\n      0x00\n      mstore\n      keccak256(0x00, 0x20)\n      add\n      0x00\n      swap1\n      swap2\n      swap1\n      swap2\n      swap1\n      swap2\n      0x0100\n      exp\n      dup2\n      sload\n      dup2\n      0xffffffffffffffffffffffffffffffffffffffff\n      mul\n      not\n      and\n      swap1\n      dup4\n      0xffffffffffffffffffffffffffffffffffffffff\n      and\n      mul\n      or\n      swap1\n      sstore\n      pop\n        /* \"contracts/CCNCarnival2025.sol\":1945:1949  true */\n      0x01\n        /* \"contracts/CCNCarnival2025.sol\":1907:1920  hasPaidBefore */\n      0x03\n        /* \"contracts/CCNCarnival2025.sol\":1907:1930  hasPaidBefore[_stallId] */\n      0x00\n        /* \"contracts/CCNCarnival2025.sol\":1921:1929  _stallId */\n      dup6\n        /* \"contracts/CCNCarnival2025.sol\":1907:1930  hasPaidBefore[_stallId] */\n      dup2\n      mstore\n      0x20\n      add\n      swap1\n      dup2\n      mstore\n      0x20\n      add\n      0x00\n      keccak256\n        /* \"contracts/CCNCarnival2025.sol\":1907:1942  hasPaidBefore[_stallId][msg.sender] */\n      0x00\n        /* \"contracts/CCNCarnival2025.sol\":1931:1941  msg.sender */\n      caller\n        /* \"contracts/CCNCarnival2025.sol\":1907:1942  hasPaidBefore[_stallId][msg.sender] */\n      0xffffffffffffffffffffffffffffffffffffffff\n      and\n      0xffffffffffffffffffffffffffffffffffffffff\n      and\n      dup2\n      mstore\n      0x20\n      add\n      swap1\n      dup2\n      mstore\n      0x20\n      add\n      0x00\n      keccak256\n      0x00\n        /* \"contracts/CCNCarnival2025.sol\":1907:1949  hasPaidBefore[_stallId][msg.sender] = true */\n      0x0100\n      exp\n      dup2\n      sload\n      dup2\n      0xff\n      mul\n      not\n      and\n      swap1\n      dup4\n      iszero\n      iszero\n      mul\n      or\n      swap1\n      sstore\n      pop\n        /* \"contracts/CCNCarnival2025.sol\":1797:1961  if (!hasPaidBefore[_stallId][msg.sender]) {\r... */\n    tag_131:\n        /* \"contracts/CCNCarnival2025.sol\":1978:2022  PaymentMade(_stallId, msg.sender, msg.value) */\n      0x61ac8e9b735e72d1382cbf7d35f2ff3764dae09d7faf7d90787bf7f9ae76e4c8\n        /* \"contracts/CCNCarnival2025.sol\":1990:1998  _stallId */\n      dup4\n        /* \"contracts/CCNCarnival2025.sol\":2000:2010  msg.sender */\n      caller\n        /* \"contracts/CCNCarnival2025.sol\":2012:2021  msg.value */\n      callvalue\n        /* \"contracts/CCNCarnival2025.sol\":1978:2022  PaymentMade(_stallId, msg.sender, msg.value) */\n      mload(0x40)\n      tag_133\n      swap4\n      swap3\n      swap2\n      swap1\n      tag_134\n      jump\t// in\n    tag_133:\n      mload(0x40)\n      dup1\n      swap2\n      sub\n      swap1\n      log1\n        /* \"contracts/CCNCarnival2025.sol\":1135:1136  _ */\n      pop\n        /* \"contracts/CCNCarnival2025.sol\":1399:2030  function makePayment(uint _stallId) external payable stallExists(_stallId) {\r... */\n      pop\n      pop\n      jump\t// out\n        /* \"contracts/CCNCarnival2025.sol\":370:430  mapping(uint => mapping(address => uint256)) public payments */\n    tag_39:\n      mstore(0x20, 0x01)\n      dup2\n      0x00\n      mstore\n      mstore(0x20, keccak256(0x00, 0x40))\n      dup1\n      0x00\n      mstore\n      keccak256(0x00, 0x40)\n      0x00\n      swap2\n      pop\n      swap2\n      pop\n      pop\n      sload\n      dup2\n      jump\t// out\n        /* \"contracts/CCNCarnival2025.sol\":3507:3651  function getPayers(uint _stallId) external view stallExists(_stallId) returns (address[] memory) {\r... */\n    tag_45:\n        /* \"contracts/CCNCarnival2025.sol\":3586:3602  address[] memory */\n      0x60\n        /* \"contracts/CCNCarnival2025.sol\":3567:3575  _stallId */\n      dup2\n        /* \"contracts/CCNCarnival2025.sol\":1072:1073  0 */\n      0x00\n        /* \"contracts/CCNCarnival2025.sol\":1061:1069  _stallId */\n      dup2\n        /* \"contracts/CCNCarnival2025.sol\":1061:1073  _stallId > 0 */\n      gt\n        /* \"contracts/CCNCarnival2025.sol\":1061:1099  _stallId > 0 && _stallId <= stallCount */\n      dup1\n      iszero\n      tag_136\n      jumpi\n      pop\n        /* \"contracts/CCNCarnival2025.sol\":1089:1099  stallCount */\n      sload(0x05)\n        /* \"contracts/CCNCarnival2025.sol\":1077:1085  _stallId */\n      dup2\n        /* \"contracts/CCNCarnival2025.sol\":1077:1099  _stallId <= stallCount */\n      gt\n      iszero\n        /* \"contracts/CCNCarnival2025.sol\":1061:1099  _stallId > 0 && _stallId <= stallCount */\n    tag_136:\n        /* \"contracts/CCNCarnival2025.sol\":1053:1124  require(_stallId > 0 && _stallId <= stallCount, \"Stall does not exist\") */\n      tag_137\n      jumpi\n      mload(0x40)\n      0x08c379a000000000000000000000000000000000000000000000000000000000\n      dup2\n      mstore\n      0x04\n      add\n      tag_138\n      swap1\n      tag_84\n      jump\t// in\n    tag_138:\n      mload(0x40)\n      dup1\n      swap2\n      sub\n      swap1\n      revert\n    tag_137:\n        /* \"contracts/CCNCarnival2025.sol\":3622:3633  stallPayers */\n      0x02\n        /* \"contracts/CCNCarnival2025.sol\":3622:3643  stallPayers[_stallId] */\n      0x00\n        /* \"contracts/CCNCarnival2025.sol\":3634:3642  _stallId */\n      dup5\n        /* \"contracts/CCNCarnival2025.sol\":3622:3643  stallPayers[_stallId] */\n      dup2\n      mstore\n      0x20\n      add\n      swap1\n      dup2\n      mstore\n      0x20\n      add\n      0x00\n      keccak256\n        /* \"contracts/CCNCarnival2025.sol\":3615:3643  return stallPayers[_stallId] */\n      dup1\n      sload\n      dup1\n      0x20\n      mul\n      0x20\n      add\n      mload(0x40)\n      swap1\n      dup2\n      add\n      0x40\n      mstore\n      dup1\n      swap3\n      swap2\n      swap1\n      dup2\n      dup2\n      mstore\n      0x20\n      add\n      dup3\n      dup1\n      sload\n      dup1\n      iszero\n      tag_140\n      jumpi\n      0x20\n      mul\n      dup3\n      add\n      swap2\n      swap1\n      0x00\n      mstore\n      keccak256(0x00, 0x20)\n      swap1\n    tag_141:\n      dup2\n      0x00\n      swap1\n      sload\n      swap1\n      0x0100\n      exp\n      swap1\n      div\n      0xffffffffffffffffffffffffffffffffffffffff\n      and\n      0xffffffffffffffffffffffffffffffffffffffff\n      and\n      dup2\n      mstore\n      0x20\n      add\n      swap1\n      0x01\n      add\n      swap1\n      dup1\n      dup4\n      gt\n      tag_141\n      jumpi\n    tag_140:\n      pop\n      pop\n      pop\n      pop\n      pop\n      swap2\n      pop\n        /* \"contracts/CCNCarnival2025.sol\":3507:3651  function getPayers(uint _stallId) external view stallExists(_stallId) returns (address[] memory) {\r... */\n      pop\n      swap2\n      swap1\n      pop\n      jump\t// out\n        /* \"contracts/CCNCarnival2025.sol\":327:363  mapping(uint => Stall) public stalls */\n    tag_51:\n      mstore(0x20, 0x00)\n      dup1\n      0x00\n      mstore\n      keccak256(0x00, 0x40)\n      0x00\n      swap2\n      pop\n      swap1\n      pop\n      dup1\n      0x00\n      add\n      0x00\n      swap1\n      sload\n      swap1\n      0x0100\n      exp\n      swap1\n      div\n      0xffffffffffffffffffffffffffffffffffffffff\n      and\n      swap1\n      dup1\n      0x00\n      add\n      0x14\n      swap1\n      sload\n      swap1\n      0x0100\n      exp\n      swap1\n      div\n      0xff\n      and\n      swap1\n      dup1\n      0x01\n      add\n      sload\n      swap1\n      dup1\n      0x02\n      add\n      0x00\n      swap1\n      sload\n      swap1\n      0x0100\n      exp\n      swap1\n      div\n      0xff\n      and\n      swap1\n      dup1\n      0x02\n      add\n      0x01\n      swap1\n      sload\n      swap1\n      0x0100\n      exp\n      swap1\n      div\n      0xff\n      and\n      swap1\n      pop\n      dup6\n      jump\t// out\n        /* \"contracts/CCNCarnival2025.sol\":637:659  uint public stallCount */\n    tag_56:\n      sload(0x05)\n      dup2\n      jump\t// out\n        /* \"contracts/CCNCarnival2025.sol\":3659:4051  function requestRefund(uint _stallId) external stallExists(_stallId) {\r... */\n    tag_61:\n        /* \"contracts/CCNCarnival2025.sol\":3718:3726  _stallId */\n      dup1\n        /* \"contracts/CCNCarnival2025.sol\":1072:1073  0 */\n      0x00\n        /* \"contracts/CCNCarnival2025.sol\":1061:1069  _stallId */\n      dup2\n        /* \"contracts/CCNCarnival2025.sol\":1061:1073  _stallId > 0 */\n      gt\n        /* \"contracts/CCNCarnival2025.sol\":1061:1099  _stallId > 0 && _stallId <= stallCount */\n      dup1\n      iszero\n      tag_143\n      jumpi\n      pop\n        /* \"contracts/CCNCarnival2025.sol\":1089:1099  stallCount */\n      sload(0x05)\n        /* \"contracts/CCNCarnival2025.sol\":1077:1085  _stallId */\n      dup2\n        /* \"contracts/CCNCarnival2025.sol\":1077:1099  _stallId <= stallCount */\n      gt\n      iszero\n        /* \"contracts/CCNCarnival2025.sol\":1061:1099  _stallId > 0 && _stallId <= stallCount */\n    tag_143:\n        /* \"contracts/CCNCarnival2025.sol\":1053:1124  require(_stallId > 0 && _stallId <= stallCount, \"Stall does not exist\") */\n      tag_144\n      jumpi\n      mload(0x40)\n      0x08c379a000000000000000000000000000000000000000000000000000000000\n      dup2\n      mstore\n      0x04\n      add\n      tag_145\n      swap1\n      tag_84\n      jump\t// in\n    tag_145:\n      mload(0x40)\n      dup1\n      swap2\n      sub\n      swap1\n      revert\n    tag_144:\n        /* \"contracts/CCNCarnival2025.sol\":3780:3781  0 */\n      0x00\n        /* \"contracts/CCNCarnival2025.sol\":3747:3755  payments */\n      0x01\n        /* \"contracts/CCNCarnival2025.sol\":3747:3765  payments[_stallId] */\n      0x00\n        /* \"contracts/CCNCarnival2025.sol\":3756:3764  _stallId */\n      dup5\n        /* \"contracts/CCNCarnival2025.sol\":3747:3765  payments[_stallId] */\n      dup2\n      mstore\n      0x20\n      add\n      swap1\n      dup2\n      mstore\n      0x20\n      add\n      0x00\n      keccak256\n        /* \"contracts/CCNCarnival2025.sol\":3747:3777  payments[_stallId][msg.sender] */\n      0x00\n        /* \"contracts/CCNCarnival2025.sol\":3766:3776  msg.sender */\n      caller\n        /* \"contracts/CCNCarnival2025.sol\":3747:3777  payments[_stallId][msg.sender] */\n      0xffffffffffffffffffffffffffffffffffffffff\n      and\n      0xffffffffffffffffffffffffffffffffffffffff\n      and\n      dup2\n      mstore\n      0x20\n      add\n      swap1\n      dup2\n      mstore\n      0x20\n      add\n      0x00\n      keccak256\n      sload\n        /* \"contracts/CCNCarnival2025.sol\":3747:3781  payments[_stallId][msg.sender] > 0 */\n      gt\n        /* \"contracts/CCNCarnival2025.sol\":3739:3801  require(payments[_stallId][msg.sender] > 0, \"No payment made\") */\n      tag_147\n      jumpi\n      mload(0x40)\n      0x08c379a000000000000000000000000000000000000000000000000000000000\n      dup2\n      mstore\n      0x04\n      add\n      tag_148\n      swap1\n      tag_149\n      jump\t// in\n    tag_148:\n      mload(0x40)\n      dup1\n      swap2\n      sub\n      swap1\n      revert\n    tag_147:\n        /* \"contracts/CCNCarnival2025.sol\":3821:3836  refundRequested */\n      0x04\n        /* \"contracts/CCNCarnival2025.sol\":3821:3846  refundRequested[_stallId] */\n      0x00\n        /* \"contracts/CCNCarnival2025.sol\":3837:3845  _stallId */\n      dup4\n        /* \"contracts/CCNCarnival2025.sol\":3821:3846  refundRequested[_stallId] */\n      dup2\n      mstore\n      0x20\n      add\n      swap1\n      dup2\n      mstore\n      0x20\n      add\n      0x00\n      keccak256\n        /* \"contracts/CCNCarnival2025.sol\":3821:3858  refundRequested[_stallId][msg.sender] */\n      0x00\n        /* \"contracts/CCNCarnival2025.sol\":3847:3857  msg.sender */\n      caller\n        /* \"contracts/CCNCarnival2025.sol\":3821:3858  refundRequested[_stallId][msg.sender] */\n      0xffffffffffffffffffffffffffffffffffffffff\n      and\n      0xffffffffffffffffffffffffffffffffffffffff\n      and\n      dup2\n      mstore\n      0x20\n      add\n      swap1\n      dup2\n      mstore\n      0x20\n      add\n      0x00\n      keccak256\n      0x00\n      swap1\n      sload\n      swap1\n      0x0100\n      exp\n      swap1\n      div\n      0xff\n      and\n        /* \"contracts/CCNCarnival2025.sol\":3820:3858  !refundRequested[_stallId][msg.sender] */\n      iszero\n        /* \"contracts/CCNCarnival2025.sol\":3812:3887  require(!refundRequested[_stallId][msg.sender], \"Refund already requested\") */\n      tag_150\n      jumpi\n      mload(0x40)\n      0x08c379a000000000000000000000000000000000000000000000000000000000\n      dup2\n      mstore\n      0x04\n      add\n      tag_151\n      swap1\n      tag_152\n      jump\t// in\n    tag_151:\n      mload(0x40)\n      dup1\n      swap2\n      sub\n      swap1\n      revert\n    tag_150:\n        /* \"contracts/CCNCarnival2025.sol\":3948:3952  true */\n      0x01\n        /* \"contracts/CCNCarnival2025.sol\":3908:3923  refundRequested */\n      0x04\n        /* \"contracts/CCNCarnival2025.sol\":3908:3933  refundRequested[_stallId] */\n      0x00\n        /* \"contracts/CCNCarnival2025.sol\":3924:3932  _stallId */\n      dup5\n        /* \"contracts/CCNCarnival2025.sol\":3908:3933  refundRequested[_stallId] */\n      dup2\n      mstore\n      0x20\n      add\n      swap1\n      dup2\n      mstore\n      0x20\n      add\n      0x00\n      keccak256\n        /* \"contracts/CCNCarnival2025.sol\":3908:3945  refundRequested[_stallId][msg.sender] */\n      0x00\n        /* \"contracts/CCNCarnival2025.sol\":3934:3944  msg.sender */\n      caller\n        /* \"contracts/CCNCarnival2025.sol\":3908:3945  refundRequested[_stallId][msg.sender] */\n      0xffffffffffffffffffffffffffffffffffffffff\n      and\n      0xffffffffffffffffffffffffffffffffffffffff\n      and\n      dup2\n      mstore\n      0x20\n      add\n      swap1\n      dup2\n      mstore\n      0x20\n      add\n      0x00\n      keccak256\n      0x00\n        /* \"contracts/CCNCarnival2025.sol\":3908:3952  refundRequested[_stallId][msg.sender] = true */\n      0x0100\n      exp\n      dup2\n      sload\n      dup2\n      0xff\n      mul\n      not\n      and\n      swap1\n      dup4\n      iszero\n      iszero\n      mul\n      or\n      swap1\n      sstore\n      pop\n        /* \"contracts/CCNCarnival2025.sol\":3659:4051  function requestRefund(uint _stallId) external stallExists(_stallId) {\r... */\n      pop\n      pop\n      jump\t// out\n        /* \"contracts/CCNCarnival2025.sol\":3265:3499  function getWithdrawalTime(OperatingDays duration) public pure returns (uint) {\r... */\n    tag_66:\n        /* \"contracts/CCNCarnival2025.sol\":3337:3341  uint */\n      0x00\n        /* \"contracts/CCNCarnival2025.sol\":3370:3390  OperatingDays.Friday */\n      dup1\n        /* \"contracts/CCNCarnival2025.sol\":3358:3390  duration == OperatingDays.Friday */\n      0x02\n      dup2\n      gt\n      iszero\n      tag_154\n      jumpi\n      mstore(0x00, 0x4e487b7100000000000000000000000000000000000000000000000000000000)\n      mstore(0x04, 0x21)\n      revert(0x00, 0x24)\n    tag_154:\n        /* \"contracts/CCNCarnival2025.sol\":3358:3366  duration */\n      dup3\n        /* \"contracts/CCNCarnival2025.sol\":3358:3390  duration == OperatingDays.Friday */\n      0x02\n      dup2\n      gt\n      iszero\n      tag_155\n      jumpi\n      mstore(0x00, 0x4e487b7100000000000000000000000000000000000000000000000000000000)\n      mstore(0x04, 0x21)\n      revert(0x00, 0x24)\n    tag_155:\n      eq\n        /* \"contracts/CCNCarnival2025.sol\":3354:3405  if (duration == OperatingDays.Friday) return 1 days */\n      iszero\n      tag_156\n      jumpi\n        /* \"contracts/CCNCarnival2025.sol\":3399:3405  1 days */\n      0x015180\n        /* \"contracts/CCNCarnival2025.sol\":3392:3405  return 1 days */\n      swap1\n      pop\n      jump(tag_153)\n        /* \"contracts/CCNCarnival2025.sol\":3354:3405  if (duration == OperatingDays.Friday) return 1 days */\n    tag_156:\n        /* \"contracts/CCNCarnival2025.sol\":3432:3452  OperatingDays.FriSat */\n      0x01\n        /* \"contracts/CCNCarnival2025.sol\":3420:3452  duration == OperatingDays.FriSat */\n      0x02\n      dup2\n      gt\n      iszero\n      tag_157\n      jumpi\n      mstore(0x00, 0x4e487b7100000000000000000000000000000000000000000000000000000000)\n      mstore(0x04, 0x21)\n      revert(0x00, 0x24)\n    tag_157:\n        /* \"contracts/CCNCarnival2025.sol\":3420:3428  duration */\n      dup3\n        /* \"contracts/CCNCarnival2025.sol\":3420:3452  duration == OperatingDays.FriSat */\n      0x02\n      dup2\n      gt\n      iszero\n      tag_158\n      jumpi\n      mstore(0x00, 0x4e487b7100000000000000000000000000000000000000000000000000000000)\n      mstore(0x04, 0x21)\n      revert(0x00, 0x24)\n    tag_158:\n      eq\n        /* \"contracts/CCNCarnival2025.sol\":3416:3467  if (duration == OperatingDays.FriSat) return 2 days */\n      iszero\n      tag_159\n      jumpi\n        /* \"contracts/CCNCarnival2025.sol\":3461:3467  2 days */\n      0x02a300\n        /* \"contracts/CCNCarnival2025.sol\":3454:3467  return 2 days */\n      swap1\n      pop\n      jump(tag_153)\n        /* \"contracts/CCNCarnival2025.sol\":3416:3467  if (duration == OperatingDays.FriSat) return 2 days */\n    tag_159:\n        /* \"contracts/CCNCarnival2025.sol\":3485:3491  3 days */\n      0x03f480\n        /* \"contracts/CCNCarnival2025.sol\":3478:3491  return 3 days */\n      swap1\n      pop\n        /* \"contracts/CCNCarnival2025.sol\":3265:3499  function getWithdrawalTime(OperatingDays duration) public pure returns (uint) {\r... */\n    tag_153:\n      swap2\n      swap1\n      pop\n      jump\t// out\n        /* \"contracts/CCNCarnival2025.sol\":2038:2663  function issueRefund(uint _stallId, address _user) external stallExists(_stallId) {\r... */\n    tag_71:\n        /* \"contracts/CCNCarnival2025.sol\":2110:2118  _stallId */\n      dup2\n        /* \"contracts/CCNCarnival2025.sol\":1072:1073  0 */\n      0x00\n        /* \"contracts/CCNCarnival2025.sol\":1061:1069  _stallId */\n      dup2\n        /* \"contracts/CCNCarnival2025.sol\":1061:1073  _stallId > 0 */\n      gt\n        /* \"contracts/CCNCarnival2025.sol\":1061:1099  _stallId > 0 && _stallId <= stallCount */\n      dup1\n      iszero\n      tag_161\n      jumpi\n      pop\n        /* \"contracts/CCNCarnival2025.sol\":1089:1099  stallCount */\n      sload(0x05)\n        /* \"contracts/CCNCarnival2025.sol\":1077:1085  _stallId */\n      dup2\n        /* \"contracts/CCNCarnival2025.sol\":1077:1099  _stallId <= stallCount */\n      gt\n      iszero\n        /* \"contracts/CCNCarnival2025.sol\":1061:1099  _stallId > 0 && _stallId <= stallCount */\n    tag_161:\n        /* \"contracts/CCNCarnival2025.sol\":1053:1124  require(_stallId > 0 && _stallId <= stallCount, \"Stall does not exist\") */\n      tag_162\n      jumpi\n      mload(0x40)\n      0x08c379a000000000000000000000000000000000000000000000000000000000\n      dup2\n      mstore\n      0x04\n      add\n      tag_163\n      swap1\n      tag_84\n      jump\t// in\n    tag_163:\n      mload(0x40)\n      dup1\n      swap2\n      sub\n      swap1\n      revert\n    tag_162:\n        /* \"contracts/CCNCarnival2025.sol\":2131:2146  Stall storage s */\n      0x00\n        /* \"contracts/CCNCarnival2025.sol\":2149:2155  stalls */\n      dup1\n        /* \"contracts/CCNCarnival2025.sol\":2149:2165  stalls[_stallId] */\n      0x00\n        /* \"contracts/CCNCarnival2025.sol\":2156:2164  _stallId */\n      dup6\n        /* \"contracts/CCNCarnival2025.sol\":2149:2165  stalls[_stallId] */\n      dup2\n      mstore\n      0x20\n      add\n      swap1\n      dup2\n      mstore\n      0x20\n      add\n      0x00\n      keccak256\n        /* \"contracts/CCNCarnival2025.sol\":2131:2165  Stall storage s = stalls[_stallId] */\n      swap1\n      pop\n        /* \"contracts/CCNCarnival2025.sol\":2198:2199  s */\n      dup1\n        /* \"contracts/CCNCarnival2025.sol\":2198:2205  s.owner */\n      0x00\n      add\n      0x00\n      swap1\n      sload\n      swap1\n      0x0100\n      exp\n      swap1\n      div\n      0xffffffffffffffffffffffffffffffffffffffff\n      and\n        /* \"contracts/CCNCarnival2025.sol\":2184:2205  msg.sender == s.owner */\n      0xffffffffffffffffffffffffffffffffffffffff\n      and\n        /* \"contracts/CCNCarnival2025.sol\":2184:2194  msg.sender */\n      caller\n        /* \"contracts/CCNCarnival2025.sol\":2184:2205  msg.sender == s.owner */\n      0xffffffffffffffffffffffffffffffffffffffff\n      and\n      eq\n        /* \"contracts/CCNCarnival2025.sol\":2176:2225  require(msg.sender == s.owner, \"Not stall owner\") */\n      tag_165\n      jumpi\n      mload(0x40)\n      0x08c379a000000000000000000000000000000000000000000000000000000000\n      dup2\n      mstore\n      0x04\n      add\n      tag_166\n      swap1\n      tag_88\n      jump\t// in\n    tag_166:\n      mload(0x40)\n      dup1\n      swap2\n      sub\n      swap1\n      revert\n    tag_165:\n        /* \"contracts/CCNCarnival2025.sol\":2238:2252  uint256 amount */\n      0x00\n        /* \"contracts/CCNCarnival2025.sol\":2255:2263  payments */\n      0x01\n        /* \"contracts/CCNCarnival2025.sol\":2255:2273  payments[_stallId] */\n      0x00\n        /* \"contracts/CCNCarnival2025.sol\":2264:2272  _stallId */\n      dup7\n        /* \"contracts/CCNCarnival2025.sol\":2255:2273  payments[_stallId] */\n      dup2\n      mstore\n      0x20\n      add\n      swap1\n      dup2\n      mstore\n      0x20\n      add\n      0x00\n      keccak256\n        /* \"contracts/CCNCarnival2025.sol\":2255:2280  payments[_stallId][_user] */\n      0x00\n        /* \"contracts/CCNCarnival2025.sol\":2274:2279  _user */\n      dup6\n        /* \"contracts/CCNCarnival2025.sol\":2255:2280  payments[_stallId][_user] */\n      0xffffffffffffffffffffffffffffffffffffffff\n      and\n      0xffffffffffffffffffffffffffffffffffffffff\n      and\n      dup2\n      mstore\n      0x20\n      add\n      swap1\n      dup2\n      mstore\n      0x20\n      add\n      0x00\n      keccak256\n      sload\n        /* \"contracts/CCNCarnival2025.sol\":2238:2280  uint256 amount = payments[_stallId][_user] */\n      swap1\n      pop\n        /* \"contracts/CCNCarnival2025.sol\":2308:2309  0 */\n      0x00\n        /* \"contracts/CCNCarnival2025.sol\":2299:2305  amount */\n      dup2\n        /* \"contracts/CCNCarnival2025.sol\":2299:2309  amount > 0 */\n      gt\n        /* \"contracts/CCNCarnival2025.sol\":2291:2334  require(amount > 0, \"No payment to refund\") */\n      tag_167\n      jumpi\n      mload(0x40)\n      0x08c379a000000000000000000000000000000000000000000000000000000000\n      dup2\n      mstore\n      0x04\n      add\n      tag_168\n      swap1\n      tag_169\n      jump\t// in\n    tag_168:\n      mload(0x40)\n      dup1\n      swap2\n      sub\n      swap1\n      revert\n    tag_167:\n        /* \"contracts/CCNCarnival2025.sol\":2363:2364  s */\n      dup2\n        /* \"contracts/CCNCarnival2025.sol\":2363:2372  s.balance */\n      0x01\n      add\n      sload\n        /* \"contracts/CCNCarnival2025.sol\":2353:2359  amount */\n      dup2\n        /* \"contracts/CCNCarnival2025.sol\":2353:2372  amount <= s.balance */\n      gt\n      iszero\n        /* \"contracts/CCNCarnival2025.sol\":2345:2405  require(amount <= s.balance, \"Refund exceeds stall balance\") */\n      tag_170\n      jumpi\n      mload(0x40)\n      0x08c379a000000000000000000000000000000000000000000000000000000000\n      dup2\n      mstore\n      0x04\n      add\n      tag_171\n      swap1\n      tag_172\n      jump\t// in\n    tag_171:\n      mload(0x40)\n      dup1\n      swap2\n      sub\n      swap1\n      revert\n    tag_170:\n        /* \"contracts/CCNCarnival2025.sol\":2431:2437  amount */\n      dup1\n        /* \"contracts/CCNCarnival2025.sol\":2418:2419  s */\n      dup3\n        /* \"contracts/CCNCarnival2025.sol\":2418:2427  s.balance */\n      0x01\n      add\n      0x00\n        /* \"contracts/CCNCarnival2025.sol\":2418:2437  s.balance -= amount */\n      dup3\n      dup3\n      sload\n      tag_173\n      swap2\n      swap1\n      tag_174\n      jump\t// in\n    tag_173:\n      swap3\n      pop\n      pop\n      dup2\n      swap1\n      sstore\n      pop\n        /* \"contracts/CCNCarnival2025.sol\":2476:2477  0 */\n      0x00\n        /* \"contracts/CCNCarnival2025.sol\":2448:2456  payments */\n      0x01\n        /* \"contracts/CCNCarnival2025.sol\":2448:2466  payments[_stallId] */\n      0x00\n        /* \"contracts/CCNCarnival2025.sol\":2457:2465  _stallId */\n      dup8\n        /* \"contracts/CCNCarnival2025.sol\":2448:2466  payments[_stallId] */\n      dup2\n      mstore\n      0x20\n      add\n      swap1\n      dup2\n      mstore\n      0x20\n      add\n      0x00\n      keccak256\n        /* \"contracts/CCNCarnival2025.sol\":2448:2473  payments[_stallId][_user] */\n      0x00\n        /* \"contracts/CCNCarnival2025.sol\":2467:2472  _user */\n      dup7\n        /* \"contracts/CCNCarnival2025.sol\":2448:2473  payments[_stallId][_user] */\n      0xffffffffffffffffffffffffffffffffffffffff\n      and\n      0xffffffffffffffffffffffffffffffffffffffff\n      and\n      dup2\n      mstore\n      0x20\n      add\n      swap1\n      dup2\n      mstore\n      0x20\n      add\n      0x00\n      keccak256\n        /* \"contracts/CCNCarnival2025.sol\":2448:2477  payments[_stallId][_user] = 0 */\n      dup2\n      swap1\n      sstore\n      pop\n        /* \"contracts/CCNCarnival2025.sol\":2491:2503  bool success */\n      0x00\n        /* \"contracts/CCNCarnival2025.sol\":2517:2522  _user */\n      dup5\n        /* \"contracts/CCNCarnival2025.sol\":2509:2528  payable(_user).call */\n      0xffffffffffffffffffffffffffffffffffffffff\n      and\n        /* \"contracts/CCNCarnival2025.sol\":2536:2542  amount */\n      dup3\n        /* \"contracts/CCNCarnival2025.sol\":2509:2547  payable(_user).call{value: amount}(\"\") */\n      mload(0x40)\n      tag_175\n      swap1\n      tag_93\n      jump\t// in\n    tag_175:\n      0x00\n      mload(0x40)\n      dup1\n      dup4\n      sub\n      dup2\n      dup6\n      dup8\n      gas\n      call\n      swap3\n      pop\n      pop\n      pop\n      returndatasize\n      dup1\n      0x00\n      dup2\n      eq\n      tag_178\n      jumpi\n      mload(0x40)\n      swap2\n      pop\n      and(add(returndatasize, 0x3f), not(0x1f))\n      dup3\n      add\n      0x40\n      mstore\n      returndatasize\n      dup3\n      mstore\n      returndatasize\n      0x00\n      0x20\n      dup5\n      add\n      returndatacopy\n      jump(tag_177)\n    tag_178:\n      0x60\n      swap2\n      pop\n    tag_177:\n      pop\n        /* \"contracts/CCNCarnival2025.sol\":2490:2547  (bool success, ) = payable(_user).call{value: amount}(\"\") */\n      pop\n      swap1\n      pop\n        /* \"contracts/CCNCarnival2025.sol\":2566:2573  success */\n      dup1\n        /* \"contracts/CCNCarnival2025.sol\":2558:2600  require(success, \"Refund transfer failed\") */\n      tag_179\n      jumpi\n      mload(0x40)\n      0x08c379a000000000000000000000000000000000000000000000000000000000\n      dup2\n      mstore\n      0x04\n      add\n      tag_180\n      swap1\n      tag_181\n      jump\t// in\n    tag_180:\n      mload(0x40)\n      dup1\n      swap2\n      sub\n      swap1\n      revert\n    tag_179:\n        /* \"contracts/CCNCarnival2025.sol\":2618:2655  RefundIssued(_stallId, _user, amount) */\n      0x7a482fdeb6bc9a1376f597068a214a7a39472bb2eff1b8cad21ba04f49ddca1b\n        /* \"contracts/CCNCarnival2025.sol\":2631:2639  _stallId */\n      dup7\n        /* \"contracts/CCNCarnival2025.sol\":2641:2646  _user */\n      dup7\n        /* \"contracts/CCNCarnival2025.sol\":2648:2654  amount */\n      dup5\n        /* \"contracts/CCNCarnival2025.sol\":2618:2655  RefundIssued(_stallId, _user, amount) */\n      mload(0x40)\n      tag_182\n      swap4\n      swap3\n      swap2\n      swap1\n      tag_134\n      jump\t// in\n    tag_182:\n      mload(0x40)\n      dup1\n      swap2\n      sub\n      swap1\n      log1\n        /* \"contracts/CCNCarnival2025.sol\":1135:1136  _ */\n      pop\n      pop\n      pop\n        /* \"contracts/CCNCarnival2025.sol\":2038:2663  function issueRefund(uint _stallId, address _user) external stallExists(_stallId) {\r... */\n      pop\n      pop\n      pop\n      jump\t// out\n        /* \"contracts/CCNCarnival2025.sol\":4059:4854  function approveRefund(uint _stallId, address _buyer) external stallExists(_stallId) {\r... */\n    tag_75:\n        /* \"contracts/CCNCarnival2025.sol\":4134:4142  _stallId */\n      dup2\n        /* \"contracts/CCNCarnival2025.sol\":1072:1073  0 */\n      0x00\n        /* \"contracts/CCNCarnival2025.sol\":1061:1069  _stallId */\n      dup2\n        /* \"contracts/CCNCarnival2025.sol\":1061:1073  _stallId > 0 */\n      gt\n        /* \"contracts/CCNCarnival2025.sol\":1061:1099  _stallId > 0 && _stallId <= stallCount */\n      dup1\n      iszero\n      tag_184\n      jumpi\n      pop\n        /* \"contracts/CCNCarnival2025.sol\":1089:1099  stallCount */\n      sload(0x05)\n        /* \"contracts/CCNCarnival2025.sol\":1077:1085  _stallId */\n      dup2\n        /* \"contracts/CCNCarnival2025.sol\":1077:1099  _stallId <= stallCount */\n      gt\n      iszero\n        /* \"contracts/CCNCarnival2025.sol\":1061:1099  _stallId > 0 && _stallId <= stallCount */\n    tag_184:\n        /* \"contracts/CCNCarnival2025.sol\":1053:1124  require(_stallId > 0 && _stallId <= stallCount, \"Stall does not exist\") */\n      tag_185\n      jumpi\n      mload(0x40)\n      0x08c379a000000000000000000000000000000000000000000000000000000000\n      dup2\n      mstore\n      0x04\n      add\n      tag_186\n      swap1\n      tag_84\n      jump\t// in\n    tag_186:\n      mload(0x40)\n      dup1\n      swap2\n      sub\n      swap1\n      revert\n    tag_185:\n        /* \"contracts/CCNCarnival2025.sol\":4155:4170  Stall storage s */\n      0x00\n        /* \"contracts/CCNCarnival2025.sol\":4173:4179  stalls */\n      dup1\n        /* \"contracts/CCNCarnival2025.sol\":4173:4189  stalls[_stallId] */\n      0x00\n        /* \"contracts/CCNCarnival2025.sol\":4180:4188  _stallId */\n      dup6\n        /* \"contracts/CCNCarnival2025.sol\":4173:4189  stalls[_stallId] */\n      dup2\n      mstore\n      0x20\n      add\n      swap1\n      dup2\n      mstore\n      0x20\n      add\n      0x00\n      keccak256\n        /* \"contracts/CCNCarnival2025.sol\":4155:4189  Stall storage s = stalls[_stallId] */\n      swap1\n      pop\n        /* \"contracts/CCNCarnival2025.sol\":4222:4223  s */\n      dup1\n        /* \"contracts/CCNCarnival2025.sol\":4222:4229  s.owner */\n      0x00\n      add\n      0x00\n      swap1\n      sload\n      swap1\n      0x0100\n      exp\n      swap1\n      div\n      0xffffffffffffffffffffffffffffffffffffffff\n      and\n        /* \"contracts/CCNCarnival2025.sol\":4208:4229  msg.sender == s.owner */\n      0xffffffffffffffffffffffffffffffffffffffff\n      and\n        /* \"contracts/CCNCarnival2025.sol\":4208:4218  msg.sender */\n      caller\n        /* \"contracts/CCNCarnival2025.sol\":4208:4229  msg.sender == s.owner */\n      0xffffffffffffffffffffffffffffffffffffffff\n      and\n      eq\n        /* \"contracts/CCNCarnival2025.sol\":4200:4249  require(msg.sender == s.owner, \"Not stall owner\") */\n      tag_188\n      jumpi\n      mload(0x40)\n      0x08c379a000000000000000000000000000000000000000000000000000000000\n      dup2\n      mstore\n      0x04\n      add\n      tag_189\n      swap1\n      tag_88\n      jump\t// in\n    tag_189:\n      mload(0x40)\n      dup1\n      swap2\n      sub\n      swap1\n      revert\n    tag_188:\n        /* \"contracts/CCNCarnival2025.sol\":4268:4283  refundRequested */\n      0x04\n        /* \"contracts/CCNCarnival2025.sol\":4268:4293  refundRequested[_stallId] */\n      0x00\n        /* \"contracts/CCNCarnival2025.sol\":4284:4292  _stallId */\n      dup6\n        /* \"contracts/CCNCarnival2025.sol\":4268:4293  refundRequested[_stallId] */\n      dup2\n      mstore\n      0x20\n      add\n      swap1\n      dup2\n      mstore\n      0x20\n      add\n      0x00\n      keccak256\n        /* \"contracts/CCNCarnival2025.sol\":4268:4301  refundRequested[_stallId][_buyer] */\n      0x00\n        /* \"contracts/CCNCarnival2025.sol\":4294:4300  _buyer */\n      dup5\n        /* \"contracts/CCNCarnival2025.sol\":4268:4301  refundRequested[_stallId][_buyer] */\n      0xffffffffffffffffffffffffffffffffffffffff\n      and\n      0xffffffffffffffffffffffffffffffffffffffff\n      and\n      dup2\n      mstore\n      0x20\n      add\n      swap1\n      dup2\n      mstore\n      0x20\n      add\n      0x00\n      keccak256\n      0x00\n      swap1\n      sload\n      swap1\n      0x0100\n      exp\n      swap1\n      div\n      0xff\n      and\n        /* \"contracts/CCNCarnival2025.sol\":4260:4325  require(refundRequested[_stallId][_buyer], \"No refund requested\") */\n      tag_190\n      jumpi\n      mload(0x40)\n      0x08c379a000000000000000000000000000000000000000000000000000000000\n      dup2\n      mstore\n      0x04\n      add\n      tag_191\n      swap1\n      tag_111\n      jump\t// in\n    tag_191:\n      mload(0x40)\n      dup1\n      swap2\n      sub\n      swap1\n      revert\n    tag_190:\n        /* \"contracts/CCNCarnival2025.sol\":4338:4352  uint256 amount */\n      0x00\n        /* \"contracts/CCNCarnival2025.sol\":4355:4363  payments */\n      0x01\n        /* \"contracts/CCNCarnival2025.sol\":4355:4373  payments[_stallId] */\n      0x00\n        /* \"contracts/CCNCarnival2025.sol\":4364:4372  _stallId */\n      dup7\n        /* \"contracts/CCNCarnival2025.sol\":4355:4373  payments[_stallId] */\n      dup2\n      mstore\n      0x20\n      add\n      swap1\n      dup2\n      mstore\n      0x20\n      add\n      0x00\n      keccak256\n        /* \"contracts/CCNCarnival2025.sol\":4355:4381  payments[_stallId][_buyer] */\n      0x00\n        /* \"contracts/CCNCarnival2025.sol\":4374:4380  _buyer */\n      dup6\n        /* \"contracts/CCNCarnival2025.sol\":4355:4381  payments[_stallId][_buyer] */\n      0xffffffffffffffffffffffffffffffffffffffff\n      and\n      0xffffffffffffffffffffffffffffffffffffffff\n      and\n      dup2\n      mstore\n      0x20\n      add\n      swap1\n      dup2\n      mstore\n      0x20\n      add\n      0x00\n      keccak256\n      sload\n        /* \"contracts/CCNCarnival2025.sol\":4338:4381  uint256 amount = payments[_stallId][_buyer] */\n      swap1\n      pop\n        /* \"contracts/CCNCarnival2025.sol\":4409:4410  0 */\n      0x00\n        /* \"contracts/CCNCarnival2025.sol\":4400:4406  amount */\n      dup2\n        /* \"contracts/CCNCarnival2025.sol\":4400:4410  amount > 0 */\n      gt\n        /* \"contracts/CCNCarnival2025.sol\":4392:4435  require(amount > 0, \"No payment to refund\") */\n      tag_192\n      jumpi\n      mload(0x40)\n      0x08c379a000000000000000000000000000000000000000000000000000000000\n      dup2\n      mstore\n      0x04\n      add\n      tag_193\n      swap1\n      tag_169\n      jump\t// in\n    tag_193:\n      mload(0x40)\n      dup1\n      swap2\n      sub\n      swap1\n      revert\n    tag_192:\n        /* \"contracts/CCNCarnival2025.sol\":4464:4465  s */\n      dup2\n        /* \"contracts/CCNCarnival2025.sol\":4464:4473  s.balance */\n      0x01\n      add\n      sload\n        /* \"contracts/CCNCarnival2025.sol\":4454:4460  amount */\n      dup2\n        /* \"contracts/CCNCarnival2025.sol\":4454:4473  amount <= s.balance */\n      gt\n      iszero\n        /* \"contracts/CCNCarnival2025.sol\":4446:4506  require(amount <= s.balance, \"Refund exceeds stall balance\") */\n      tag_194\n      jumpi\n      mload(0x40)\n      0x08c379a000000000000000000000000000000000000000000000000000000000\n      dup2\n      mstore\n      0x04\n      add\n      tag_195\n      swap1\n      tag_172\n      jump\t// in\n    tag_195:\n      mload(0x40)\n      dup1\n      swap2\n      sub\n      swap1\n      revert\n    tag_194:\n        /* \"contracts/CCNCarnival2025.sol\":4588:4593  false */\n      0x00\n        /* \"contracts/CCNCarnival2025.sol\":4552:4567  refundRequested */\n      0x04\n        /* \"contracts/CCNCarnival2025.sol\":4552:4577  refundRequested[_stallId] */\n      0x00\n        /* \"contracts/CCNCarnival2025.sol\":4568:4576  _stallId */\n      dup8\n        /* \"contracts/CCNCarnival2025.sol\":4552:4577  refundRequested[_stallId] */\n      dup2\n      mstore\n      0x20\n      add\n      swap1\n      dup2\n      mstore\n      0x20\n      add\n      0x00\n      keccak256\n        /* \"contracts/CCNCarnival2025.sol\":4552:4585  refundRequested[_stallId][_buyer] */\n      0x00\n        /* \"contracts/CCNCarnival2025.sol\":4578:4584  _buyer */\n      dup7\n        /* \"contracts/CCNCarnival2025.sol\":4552:4585  refundRequested[_stallId][_buyer] */\n      0xffffffffffffffffffffffffffffffffffffffff\n      and\n      0xffffffffffffffffffffffffffffffffffffffff\n      and\n      dup2\n      mstore\n      0x20\n      add\n      swap1\n      dup2\n      mstore\n      0x20\n      add\n      0x00\n      keccak256\n      0x00\n        /* \"contracts/CCNCarnival2025.sol\":4552:4593  refundRequested[_stallId][_buyer] = false */\n      0x0100\n      exp\n      dup2\n      sload\n      dup2\n      0xff\n      mul\n      not\n      and\n      swap1\n      dup4\n      iszero\n      iszero\n      mul\n      or\n      swap1\n      sstore\n      pop\n        /* \"contracts/CCNCarnival2025.sol\":4619:4625  amount */\n      dup1\n        /* \"contracts/CCNCarnival2025.sol\":4606:4607  s */\n      dup3\n        /* \"contracts/CCNCarnival2025.sol\":4606:4615  s.balance */\n      0x01\n      add\n      0x00\n        /* \"contracts/CCNCarnival2025.sol\":4606:4625  s.balance -= amount */\n      dup3\n      dup3\n      sload\n      tag_196\n      swap2\n      swap1\n      tag_174\n      jump\t// in\n    tag_196:\n      swap3\n      pop\n      pop\n      dup2\n      swap1\n      sstore\n      pop\n        /* \"contracts/CCNCarnival2025.sol\":4665:4666  0 */\n      0x00\n        /* \"contracts/CCNCarnival2025.sol\":4636:4644  payments */\n      0x01\n        /* \"contracts/CCNCarnival2025.sol\":4636:4654  payments[_stallId] */\n      0x00\n        /* \"contracts/CCNCarnival2025.sol\":4645:4653  _stallId */\n      dup8\n        /* \"contracts/CCNCarnival2025.sol\":4636:4654  payments[_stallId] */\n      dup2\n      mstore\n      0x20\n      add\n      swap1\n      dup2\n      mstore\n      0x20\n      add\n      0x00\n      keccak256\n        /* \"contracts/CCNCarnival2025.sol\":4636:4662  payments[_stallId][_buyer] */\n      0x00\n        /* \"contracts/CCNCarnival2025.sol\":4655:4661  _buyer */\n      dup7\n        /* \"contracts/CCNCarnival2025.sol\":4636:4662  payments[_stallId][_buyer] */\n      0xffffffffffffffffffffffffffffffffffffffff\n      and\n      0xffffffffffffffffffffffffffffffffffffffff\n      and\n      dup2\n      mstore\n      0x20\n      add\n      swap1\n      dup2\n      mstore\n      0x20\n      add\n      0x00\n      keccak256\n        /* \"contracts/CCNCarnival2025.sol\":4636:4666  payments[_stallId][_buyer] = 0 */\n      dup2\n      swap1\n      sstore\n      pop\n        /* \"contracts/CCNCarnival2025.sol\":4680:4692  bool success */\n      0x00\n        /* \"contracts/CCNCarnival2025.sol\":4706:4712  _buyer */\n      dup5\n        /* \"contracts/CCNCarnival2025.sol\":4698:4718  payable(_buyer).call */\n      0xffffffffffffffffffffffffffffffffffffffff\n      and\n        /* \"contracts/CCNCarnival2025.sol\":4726:4732  amount */\n      dup3\n        /* \"contracts/CCNCarnival2025.sol\":4698:4737  payable(_buyer).call{value: amount}(\"\") */\n      mload(0x40)\n      tag_197\n      swap1\n      tag_93\n      jump\t// in\n    tag_197:\n      0x00\n      mload(0x40)\n      dup1\n      dup4\n      sub\n      dup2\n      dup6\n      dup8\n      gas\n      call\n      swap3\n      pop\n      pop\n      pop\n      returndatasize\n      dup1\n      0x00\n      dup2\n      eq\n      tag_200\n      jumpi\n      mload(0x40)\n      swap2\n      pop\n      and(add(returndatasize, 0x3f), not(0x1f))\n      dup3\n      add\n      0x40\n      mstore\n      returndatasize\n      dup3\n      mstore\n      returndatasize\n      0x00\n      0x20\n      dup5\n      add\n      returndatacopy\n      jump(tag_199)\n    tag_200:\n      0x60\n      swap2\n      pop\n    tag_199:\n      pop\n        /* \"contracts/CCNCarnival2025.sol\":4679:4737  (bool success, ) = payable(_buyer).call{value: amount}(\"\") */\n      pop\n      swap1\n      pop\n        /* \"contracts/CCNCarnival2025.sol\":4756:4763  success */\n      dup1\n        /* \"contracts/CCNCarnival2025.sol\":4748:4790  require(success, \"Refund transfer failed\") */\n      tag_201\n      jumpi\n      mload(0x40)\n      0x08c379a000000000000000000000000000000000000000000000000000000000\n      dup2\n      mstore\n      0x04\n      add\n      tag_202\n      swap1\n      tag_181\n      jump\t// in\n    tag_202:\n      mload(0x40)\n      dup1\n      swap2\n      sub\n      swap1\n      revert\n    tag_201:\n        /* \"contracts/CCNCarnival2025.sol\":4808:4846  RefundIssued(_stallId, _buyer, amount) */\n      0x7a482fdeb6bc9a1376f597068a214a7a39472bb2eff1b8cad21ba04f49ddca1b\n        /* \"contracts/CCNCarnival2025.sol\":4821:4829  _stallId */\n      dup7\n        /* \"contracts/CCNCarnival2025.sol\":4831:4837  _buyer */\n      dup7\n        /* \"contracts/CCNCarnival2025.sol\":4839:4845  amount */\n      dup5\n        /* \"contracts/CCNCarnival2025.sol\":4808:4846  RefundIssued(_stallId, _buyer, amount) */\n      mload(0x40)\n      tag_203\n      swap4\n      swap3\n      swap2\n      swap1\n      tag_134\n      jump\t// in\n    tag_203:\n      mload(0x40)\n      dup1\n      swap2\n      sub\n      swap1\n      log1\n        /* \"contracts/CCNCarnival2025.sol\":1135:1136  _ */\n      pop\n      pop\n      pop\n        /* \"contracts/CCNCarnival2025.sol\":4059:4854  function approveRefund(uint _stallId, address _buyer) external stallExists(_stallId) {\r... */\n      pop\n      pop\n      pop\n      jump\t// out\n        /* \"contracts/CCNCarnival2025.sol\":1152:1391  function registerStall(OperatingDays _duration) external {\r... */\n    tag_79:\n        /* \"contracts/CCNCarnival2025.sol\":1220:1230  stallCount */\n      0x05\n      0x00\n        /* \"contracts/CCNCarnival2025.sol\":1220:1232  stallCount++ */\n      dup2\n      sload\n      dup1\n      swap3\n      swap2\n      swap1\n      tag_205\n      swap1\n      tag_206\n      jump\t// in\n    tag_205:\n      swap2\n      swap1\n      pop\n      sstore\n      pop\n        /* \"contracts/CCNCarnival2025.sol\":1264:1317  Stall(payable(msg.sender), _duration, 0, true, false) */\n      mload(0x40)\n      dup1\n      0xa0\n      add\n      0x40\n      mstore\n      dup1\n        /* \"contracts/CCNCarnival2025.sol\":1278:1288  msg.sender */\n      caller\n        /* \"contracts/CCNCarnival2025.sol\":1264:1317  Stall(payable(msg.sender), _duration, 0, true, false) */\n      0xffffffffffffffffffffffffffffffffffffffff\n      and\n      dup2\n      mstore\n      0x20\n      add\n        /* \"contracts/CCNCarnival2025.sol\":1291:1300  _duration */\n      dup3\n        /* \"contracts/CCNCarnival2025.sol\":1264:1317  Stall(payable(msg.sender), _duration, 0, true, false) */\n      0x02\n      dup2\n      gt\n      iszero\n      tag_207\n      jumpi\n      mstore(0x00, 0x4e487b7100000000000000000000000000000000000000000000000000000000)\n      mstore(0x04, 0x21)\n      revert(0x00, 0x24)\n    tag_207:\n      dup2\n      mstore\n      0x20\n      add\n        /* \"contracts/CCNCarnival2025.sol\":1302:1303  0 */\n      0x00\n        /* \"contracts/CCNCarnival2025.sol\":1264:1317  Stall(payable(msg.sender), _duration, 0, true, false) */\n      dup2\n      mstore\n      0x20\n      add\n        /* \"contracts/CCNCarnival2025.sol\":1305:1309  true */\n      0x01\n        /* \"contracts/CCNCarnival2025.sol\":1264:1317  Stall(payable(msg.sender), _duration, 0, true, false) */\n      iszero\n      iszero\n      dup2\n      mstore\n      0x20\n      add\n        /* \"contracts/CCNCarnival2025.sol\":1311:1316  false */\n      0x00\n        /* \"contracts/CCNCarnival2025.sol\":1264:1317  Stall(payable(msg.sender), _duration, 0, true, false) */\n      iszero\n      iszero\n      dup2\n      mstore\n      pop\n        /* \"contracts/CCNCarnival2025.sol\":1243:1249  stalls */\n      0x00\n        /* \"contracts/CCNCarnival2025.sol\":1243:1261  stalls[stallCount] */\n      dup1\n        /* \"contracts/CCNCarnival2025.sol\":1250:1260  stallCount */\n      sload(0x05)\n        /* \"contracts/CCNCarnival2025.sol\":1243:1261  stalls[stallCount] */\n      dup2\n      mstore\n      0x20\n      add\n      swap1\n      dup2\n      mstore\n      0x20\n      add\n      0x00\n      keccak256\n        /* \"contracts/CCNCarnival2025.sol\":1243:1317  stalls[stallCount] = Stall(payable(msg.sender), _duration, 0, true, false) */\n      0x00\n      dup3\n      add\n      mload\n      dup2\n      0x00\n      add\n      exp(0x0100, 0x00)\n      dup2\n      sload\n      dup2\n      0xffffffffffffffffffffffffffffffffffffffff\n      mul\n      not\n      and\n      swap1\n      dup4\n      0xffffffffffffffffffffffffffffffffffffffff\n      and\n      mul\n      or\n      swap1\n      sstore\n      pop\n      0x20\n      dup3\n      add\n      mload\n      dup2\n      0x00\n      add\n      exp(0x0100, 0x14)\n      dup2\n      sload\n      dup2\n      0xff\n      mul\n      not\n      and\n      swap1\n      dup4\n      0x02\n      dup2\n      gt\n      iszero\n      tag_208\n      jumpi\n      mstore(0x00, 0x4e487b7100000000000000000000000000000000000000000000000000000000)\n      mstore(0x04, 0x21)\n      revert(0x00, 0x24)\n    tag_208:\n      mul\n      or\n      swap1\n      sstore\n      pop\n      0x40\n      dup3\n      add\n      mload\n      dup2\n      0x01\n      add\n      sstore\n      0x60\n      dup3\n      add\n      mload\n      dup2\n      0x02\n      add\n      exp(0x0100, 0x00)\n      dup2\n      sload\n      dup2\n      0xff\n      mul\n      not\n      and\n      swap1\n      dup4\n      iszero\n      iszero\n      mul\n      or\n      swap1\n      sstore\n      pop\n      0x80\n      dup3\n      add\n      mload\n      dup2\n      0x02\n      add\n      exp(0x0100, 0x01)\n      dup2\n      sload\n      dup2\n      0xff\n      mul\n      not\n      and\n      swap1\n      dup4\n      iszero\n      iszero\n      mul\n      or\n      swap1\n      sstore\n      pop\n      swap1\n      pop\n      pop\n        /* \"contracts/CCNCarnival2025.sol\":1333:1383  StallRegistered(stallCount, msg.sender, _duration) */\n      0xc4afec621b00a8476c4eaa76d731dbaf984e16bd432f57543ac5e43615da1a98\n        /* \"contracts/CCNCarnival2025.sol\":1349:1359  stallCount */\n      sload(0x05)\n        /* \"contracts/CCNCarnival2025.sol\":1361:1371  msg.sender */\n      caller\n        /* \"contracts/CCNCarnival2025.sol\":1373:1382  _duration */\n      dup4\n        /* \"contracts/CCNCarnival2025.sol\":1333:1383  StallRegistered(stallCount, msg.sender, _duration) */\n      mload(0x40)\n      tag_209\n      swap4\n      swap3\n      swap2\n      swap1\n      tag_210\n      jump\t// in\n    tag_209:\n      mload(0x40)\n      dup1\n      swap2\n      sub\n      swap1\n      log1\n        /* \"contracts/CCNCarnival2025.sol\":1152:1391  function registerStall(OperatingDays _duration) external {\r... */\n      pop\n      jump\t// out\n        /* \"#utility.yul\":7:146   */\n    tag_212:\n      0x00\n        /* \"#utility.yul\":91:97   */\n      dup2\n        /* \"#utility.yul\":78:98   */\n      calldataload\n        /* \"#utility.yul\":69:98   */\n      swap1\n      pop\n        /* \"#utility.yul\":107:140   */\n      tag_214\n        /* \"#utility.yul\":134:139   */\n      dup2\n        /* \"#utility.yul\":107:140   */\n      tag_215\n      jump\t// in\n    tag_214:\n        /* \"#utility.yul\":59:146   */\n      swap3\n      swap2\n      pop\n      pop\n      jump\t// out\n        /* \"#utility.yul\":152:321   */\n    tag_216:\n      0x00\n        /* \"#utility.yul\":251:257   */\n      dup2\n        /* \"#utility.yul\":238:258   */\n      calldataload\n        /* \"#utility.yul\":229:258   */\n      swap1\n      pop\n        /* \"#utility.yul\":267:315   */\n      tag_218\n        /* \"#utility.yul\":309:314   */\n      dup2\n        /* \"#utility.yul\":267:315   */\n      tag_219\n      jump\t// in\n    tag_218:\n        /* \"#utility.yul\":219:321   */\n      swap3\n      swap2\n      pop\n      pop\n      jump\t// out\n        /* \"#utility.yul\":327:466   */\n    tag_220:\n      0x00\n        /* \"#utility.yul\":411:417   */\n      dup2\n        /* \"#utility.yul\":398:418   */\n      calldataload\n        /* \"#utility.yul\":389:418   */\n      swap1\n      pop\n        /* \"#utility.yul\":427:460   */\n      tag_222\n        /* \"#utility.yul\":454:459   */\n      dup2\n        /* \"#utility.yul\":427:460   */\n      tag_223\n      jump\t// in\n    tag_222:\n        /* \"#utility.yul\":379:466   */\n      swap3\n      swap2\n      pop\n      pop\n      jump\t// out\n        /* \"#utility.yul\":472:764   */\n    tag_65:\n      0x00\n        /* \"#utility.yul\":595:597   */\n      0x20\n        /* \"#utility.yul\":583:592   */\n      dup3\n        /* \"#utility.yul\":574:581   */\n      dup5\n        /* \"#utility.yul\":570:593   */\n      sub\n        /* \"#utility.yul\":566:598   */\n      slt\n        /* \"#utility.yul\":563:565   */\n      iszero\n      tag_225\n      jumpi\n        /* \"#utility.yul\":611:612   */\n      0x00\n        /* \"#utility.yul\":608:609   */\n      dup1\n        /* \"#utility.yul\":601:613   */\n      revert\n        /* \"#utility.yul\":563:565   */\n    tag_225:\n        /* \"#utility.yul\":654:655   */\n      0x00\n        /* \"#utility.yul\":679:747   */\n      tag_226\n        /* \"#utility.yul\":739:746   */\n      dup5\n        /* \"#utility.yul\":730:736   */\n      dup3\n        /* \"#utility.yul\":719:728   */\n      dup6\n        /* \"#utility.yul\":715:737   */\n      add\n        /* \"#utility.yul\":679:747   */\n      tag_216\n      jump\t// in\n    tag_226:\n        /* \"#utility.yul\":669:747   */\n      swap2\n      pop\n        /* \"#utility.yul\":625:757   */\n      pop\n        /* \"#utility.yul\":553:764   */\n      swap3\n      swap2\n      pop\n      pop\n      jump\t// out\n        /* \"#utility.yul\":770:1032   */\n    tag_27:\n      0x00\n        /* \"#utility.yul\":878:880   */\n      0x20\n        /* \"#utility.yul\":866:875   */\n      dup3\n        /* \"#utility.yul\":857:864   */\n      dup5\n        /* \"#utility.yul\":853:876   */\n      sub\n        /* \"#utility.yul\":849:881   */\n      slt\n        /* \"#utility.yul\":846:848   */\n      iszero\n      tag_228\n      jumpi\n        /* \"#utility.yul\":894:895   */\n      0x00\n        /* \"#utility.yul\":891:892   */\n      dup1\n        /* \"#utility.yul\":884:896   */\n      revert\n        /* \"#utility.yul\":846:848   */\n    tag_228:\n        /* \"#utility.yul\":937:938   */\n      0x00\n        /* \"#utility.yul\":962:1015   */\n      tag_229\n        /* \"#utility.yul\":1007:1014   */\n      dup5\n        /* \"#utility.yul\":998:1004   */\n      dup3\n        /* \"#utility.yul\":987:996   */\n      dup6\n        /* \"#utility.yul\":983:1005   */\n      add\n        /* \"#utility.yul\":962:1015   */\n      tag_220\n      jump\t// in\n    tag_229:\n        /* \"#utility.yul\":952:1015   */\n      swap2\n      pop\n        /* \"#utility.yul\":908:1025   */\n      pop\n        /* \"#utility.yul\":836:1032   */\n      swap3\n      swap2\n      pop\n      pop\n      jump\t// out\n        /* \"#utility.yul\":1038:1445   */\n    tag_20:\n      0x00\n      dup1\n        /* \"#utility.yul\":1163:1165   */\n      0x40\n        /* \"#utility.yul\":1151:1160   */\n      dup4\n        /* \"#utility.yul\":1142:1149   */\n      dup6\n        /* \"#utility.yul\":1138:1161   */\n      sub\n        /* \"#utility.yul\":1134:1166   */\n      slt\n        /* \"#utility.yul\":1131:1133   */\n      iszero\n      tag_231\n      jumpi\n        /* \"#utility.yul\":1179:1180   */\n      0x00\n        /* \"#utility.yul\":1176:1177   */\n      dup1\n        /* \"#utility.yul\":1169:1181   */\n      revert\n        /* \"#utility.yul\":1131:1133   */\n    tag_231:\n        /* \"#utility.yul\":1222:1223   */\n      0x00\n        /* \"#utility.yul\":1247:1300   */\n      tag_232\n        /* \"#utility.yul\":1292:1299   */\n      dup6\n        /* \"#utility.yul\":1283:1289   */\n      dup3\n        /* \"#utility.yul\":1272:1281   */\n      dup7\n        /* \"#utility.yul\":1268:1290   */\n      add\n        /* \"#utility.yul\":1247:1300   */\n      tag_220\n      jump\t// in\n    tag_232:\n        /* \"#utility.yul\":1237:1300   */\n      swap3\n      pop\n        /* \"#utility.yul\":1193:1310   */\n      pop\n        /* \"#utility.yul\":1349:1351   */\n      0x20\n        /* \"#utility.yul\":1375:1428   */\n      tag_233\n        /* \"#utility.yul\":1420:1427   */\n      dup6\n        /* \"#utility.yul\":1411:1417   */\n      dup3\n        /* \"#utility.yul\":1400:1409   */\n      dup7\n        /* \"#utility.yul\":1396:1418   */\n      add\n        /* \"#utility.yul\":1375:1428   */\n      tag_212\n      jump\t// in\n    tag_233:\n        /* \"#utility.yul\":1365:1428   */\n      swap2\n      pop\n        /* \"#utility.yul\":1320:1438   */\n      pop\n        /* \"#utility.yul\":1121:1445   */\n      swap3\n      pop\n      swap3\n      swap1\n      pop\n      jump\t// out\n        /* \"#utility.yul\":1451:1630   */\n    tag_234:\n      0x00\n        /* \"#utility.yul\":1541:1587   */\n      tag_236\n        /* \"#utility.yul\":1583:1586   */\n      dup4\n        /* \"#utility.yul\":1575:1581   */\n      dup4\n        /* \"#utility.yul\":1541:1587   */\n      tag_237\n      jump\t// in\n    tag_236:\n        /* \"#utility.yul\":1619:1623   */\n      0x20\n        /* \"#utility.yul\":1614:1617   */\n      dup4\n        /* \"#utility.yul\":1610:1624   */\n      add\n        /* \"#utility.yul\":1596:1624   */\n      swap1\n      pop\n        /* \"#utility.yul\":1531:1630   */\n      swap3\n      swap2\n      pop\n      pop\n      jump\t// out\n        /* \"#utility.yul\":1636:1783   */\n    tag_238:\n        /* \"#utility.yul\":1731:1776   */\n      tag_240\n        /* \"#utility.yul\":1770:1775   */\n      dup2\n        /* \"#utility.yul\":1731:1776   */\n      tag_241\n      jump\t// in\n    tag_240:\n        /* \"#utility.yul\":1726:1729   */\n      dup3\n        /* \"#utility.yul\":1719:1777   */\n      mstore\n        /* \"#utility.yul\":1709:1783   */\n      pop\n      pop\n      jump\t// out\n        /* \"#utility.yul\":1789:1931   */\n    tag_242:\n        /* \"#utility.yul\":1892:1924   */\n      tag_244\n        /* \"#utility.yul\":1918:1923   */\n      dup2\n        /* \"#utility.yul\":1892:1924   */\n      tag_245\n      jump\t// in\n    tag_244:\n        /* \"#utility.yul\":1887:1890   */\n      dup3\n        /* \"#utility.yul\":1880:1925   */\n      mstore\n        /* \"#utility.yul\":1870:1931   */\n      pop\n      pop\n      jump\t// out\n        /* \"#utility.yul\":1937:2045   */\n    tag_237:\n        /* \"#utility.yul\":2014:2038   */\n      tag_247\n        /* \"#utility.yul\":2032:2037   */\n      dup2\n        /* \"#utility.yul\":2014:2038   */\n      tag_248\n      jump\t// in\n    tag_247:\n        /* \"#utility.yul\":2009:2012   */\n      dup3\n        /* \"#utility.yul\":2002:2039   */\n      mstore\n        /* \"#utility.yul\":1992:2045   */\n      pop\n      pop\n      jump\t// out\n        /* \"#utility.yul\":2051:2169   */\n    tag_249:\n        /* \"#utility.yul\":2138:2162   */\n      tag_251\n        /* \"#utility.yul\":2156:2161   */\n      dup2\n        /* \"#utility.yul\":2138:2162   */\n      tag_248\n      jump\t// in\n    tag_251:\n        /* \"#utility.yul\":2133:2136   */\n      dup3\n        /* \"#utility.yul\":2126:2163   */\n      mstore\n        /* \"#utility.yul\":2116:2169   */\n      pop\n      pop\n      jump\t// out\n        /* \"#utility.yul\":2205:2937   */\n    tag_252:\n      0x00\n        /* \"#utility.yul\":2353:2407   */\n      tag_254\n        /* \"#utility.yul\":2401:2406   */\n      dup3\n        /* \"#utility.yul\":2353:2407   */\n      tag_255\n      jump\t// in\n    tag_254:\n        /* \"#utility.yul\":2423:2509   */\n      tag_256\n        /* \"#utility.yul\":2502:2508   */\n      dup2\n        /* \"#utility.yul\":2497:2500   */\n      dup6\n        /* \"#utility.yul\":2423:2509   */\n      tag_257\n      jump\t// in\n    tag_256:\n        /* \"#utility.yul\":2416:2509   */\n      swap4\n      pop\n        /* \"#utility.yul\":2533:2589   */\n      tag_258\n        /* \"#utility.yul\":2583:2588   */\n      dup4\n        /* \"#utility.yul\":2533:2589   */\n      tag_259\n      jump\t// in\n    tag_258:\n        /* \"#utility.yul\":2612:2619   */\n      dup1\n        /* \"#utility.yul\":2643:2644   */\n      0x00\n        /* \"#utility.yul\":2628:2912   */\n    tag_260:\n        /* \"#utility.yul\":2653:2659   */\n      dup4\n        /* \"#utility.yul\":2650:2651   */\n      dup2\n        /* \"#utility.yul\":2647:2660   */\n      lt\n        /* \"#utility.yul\":2628:2912   */\n      iszero\n      tag_262\n      jumpi\n        /* \"#utility.yul\":2729:2735   */\n      dup2\n        /* \"#utility.yul\":2723:2736   */\n      mload\n        /* \"#utility.yul\":2756:2819   */\n      tag_263\n        /* \"#utility.yul\":2815:2818   */\n      dup9\n        /* \"#utility.yul\":2800:2813   */\n      dup3\n        /* \"#utility.yul\":2756:2819   */\n      tag_234\n      jump\t// in\n    tag_263:\n        /* \"#utility.yul\":2749:2819   */\n      swap8\n      pop\n        /* \"#utility.yul\":2842:2902   */\n      tag_264\n        /* \"#utility.yul\":2895:2901   */\n      dup4\n        /* \"#utility.yul\":2842:2902   */\n      tag_265\n      jump\t// in\n    tag_264:\n        /* \"#utility.yul\":2832:2902   */\n      swap3\n      pop\n        /* \"#utility.yul\":2688:2912   */\n      pop\n        /* \"#utility.yul\":2675:2676   */\n      0x01\n        /* \"#utility.yul\":2672:2673   */\n      dup2\n        /* \"#utility.yul\":2668:2677   */\n      add\n        /* \"#utility.yul\":2663:2677   */\n      swap1\n      pop\n        /* \"#utility.yul\":2628:2912   */\n      jump(tag_260)\n    tag_262:\n        /* \"#utility.yul\":2632:2646   */\n      pop\n        /* \"#utility.yul\":2928:2931   */\n      dup6\n        /* \"#utility.yul\":2921:2931   */\n      swap4\n      pop\n        /* \"#utility.yul\":2329:2937   */\n      pop\n      pop\n      pop\n      swap3\n      swap2\n      pop\n      pop\n      jump\t// out\n        /* \"#utility.yul\":2943:3052   */\n    tag_266:\n        /* \"#utility.yul\":3024:3045   */\n      tag_268\n        /* \"#utility.yul\":3039:3044   */\n      dup2\n        /* \"#utility.yul\":3024:3045   */\n      tag_269\n      jump\t// in\n    tag_268:\n        /* \"#utility.yul\":3019:3022   */\n      dup3\n        /* \"#utility.yul\":3012:3046   */\n      mstore\n        /* \"#utility.yul\":3002:3052   */\n      pop\n      pop\n      jump\t// out\n        /* \"#utility.yul\":3058:3215   */\n    tag_270:\n        /* \"#utility.yul\":3158:3208   */\n      tag_272\n        /* \"#utility.yul\":3202:3207   */\n      dup2\n        /* \"#utility.yul\":3158:3208   */\n      tag_273\n      jump\t// in\n    tag_272:\n        /* \"#utility.yul\":3153:3156   */\n      dup3\n        /* \"#utility.yul\":3146:3209   */\n      mstore\n        /* \"#utility.yul\":3136:3215   */\n      pop\n      pop\n      jump\t// out\n        /* \"#utility.yul\":3221:3547   */\n    tag_274:\n      0x00\n        /* \"#utility.yul\":3384:3451   */\n      tag_276\n        /* \"#utility.yul\":3448:3450   */\n      0x1c\n        /* \"#utility.yul\":3443:3446   */\n      dup4\n        /* \"#utility.yul\":3384:3451   */\n      tag_277\n      jump\t// in\n    tag_276:\n        /* \"#utility.yul\":3377:3451   */\n      swap2\n      pop\n        /* \"#utility.yul\":3481:3511   */\n      0x526566756e642065786365656473207374616c6c2062616c616e636500000000\n        /* \"#utility.yul\":3477:3478   */\n      0x00\n        /* \"#utility.yul\":3472:3475   */\n      dup4\n        /* \"#utility.yul\":3468:3479   */\n      add\n        /* \"#utility.yul\":3461:3512   */\n      mstore\n        /* \"#utility.yul\":3538:3540   */\n      0x20\n        /* \"#utility.yul\":3533:3536   */\n      dup3\n        /* \"#utility.yul\":3529:3541   */\n      add\n        /* \"#utility.yul\":3522:3541   */\n      swap1\n      pop\n        /* \"#utility.yul\":3367:3547   */\n      swap2\n      swap1\n      pop\n      jump\t// out\n        /* \"#utility.yul\":3553:3866   */\n    tag_278:\n      0x00\n        /* \"#utility.yul\":3716:3783   */\n      tag_280\n        /* \"#utility.yul\":3780:3782   */\n      0x0f\n        /* \"#utility.yul\":3775:3778   */\n      dup4\n        /* \"#utility.yul\":3716:3783   */\n      tag_277\n      jump\t// in\n    tag_280:\n        /* \"#utility.yul\":3709:3783   */\n      swap2\n      pop\n        /* \"#utility.yul\":3813:3830   */\n      0x4e6f74207374616c6c206f776e65720000000000000000000000000000000000\n        /* \"#utility.yul\":3809:3810   */\n      0x00\n        /* \"#utility.yul\":3804:3807   */\n      dup4\n        /* \"#utility.yul\":3800:3811   */\n      add\n        /* \"#utility.yul\":3793:3831   */\n      mstore\n        /* \"#utility.yul\":3857:3859   */\n      0x20\n        /* \"#utility.yul\":3852:3855   */\n      dup3\n        /* \"#utility.yul\":3848:3860   */\n      add\n        /* \"#utility.yul\":3841:3860   */\n      swap1\n      pop\n        /* \"#utility.yul\":3699:3866   */\n      swap2\n      swap1\n      pop\n      jump\t// out\n        /* \"#utility.yul\":3872:4190   */\n    tag_281:\n      0x00\n        /* \"#utility.yul\":4035:4102   */\n      tag_283\n        /* \"#utility.yul\":4099:4101   */\n      0x14\n        /* \"#utility.yul\":4094:4097   */\n      dup4\n        /* \"#utility.yul\":4035:4102   */\n      tag_277\n      jump\t// in\n    tag_283:\n        /* \"#utility.yul\":4028:4102   */\n      swap2\n      pop\n        /* \"#utility.yul\":4132:4154   */\n      0x5374616c6c20646f6573206e6f74206578697374000000000000000000000000\n        /* \"#utility.yul\":4128:4129   */\n      0x00\n        /* \"#utility.yul\":4123:4126   */\n      dup4\n        /* \"#utility.yul\":4119:4130   */\n      add\n        /* \"#utility.yul\":4112:4155   */\n      mstore\n        /* \"#utility.yul\":4181:4183   */\n      0x20\n        /* \"#utility.yul\":4176:4179   */\n      dup3\n        /* \"#utility.yul\":4172:4184   */\n      add\n        /* \"#utility.yul\":4165:4184   */\n      swap1\n      pop\n        /* \"#utility.yul\":4018:4190   */\n      swap2\n      swap1\n      pop\n      jump\t// out\n        /* \"#utility.yul\":4196:4520   */\n    tag_284:\n      0x00\n        /* \"#utility.yul\":4359:4426   */\n      tag_286\n        /* \"#utility.yul\":4423:4425   */\n      0x1a\n        /* \"#utility.yul\":4418:4421   */\n      dup4\n        /* \"#utility.yul\":4359:4426   */\n      tag_277\n      jump\t// in\n    tag_286:\n        /* \"#utility.yul\":4352:4426   */\n      swap2\n      pop\n        /* \"#utility.yul\":4456:4484   */\n      0x5769746864726177616c207472616e73666572206661696c6564000000000000\n        /* \"#utility.yul\":4452:4453   */\n      0x00\n        /* \"#utility.yul\":4447:4450   */\n      dup4\n        /* \"#utility.yul\":4443:4454   */\n      add\n        /* \"#utility.yul\":4436:4485   */\n      mstore\n        /* \"#utility.yul\":4511:4513   */\n      0x20\n        /* \"#utility.yul\":4506:4509   */\n      dup3\n        /* \"#utility.yul\":4502:4514   */\n      add\n        /* \"#utility.yul\":4495:4514   */\n      swap1\n      pop\n        /* \"#utility.yul\":4342:4520   */\n      swap2\n      swap1\n      pop\n      jump\t// out\n        /* \"#utility.yul\":4526:4897   */\n    tag_287:\n      0x00\n        /* \"#utility.yul\":4689:4756   */\n      tag_289\n        /* \"#utility.yul\":4753:4755   */\n      0x27\n        /* \"#utility.yul\":4748:4751   */\n      dup4\n        /* \"#utility.yul\":4689:4756   */\n      tag_277\n      jump\t// in\n    tag_289:\n        /* \"#utility.yul\":4682:4756   */\n      swap2\n      pop\n        /* \"#utility.yul\":4786:4820   */\n      0x5374616c6c2066756e64732077697468647261776e2c206e6f206d6f72652070\n        /* \"#utility.yul\":4782:4783   */\n      0x00\n        /* \"#utility.yul\":4777:4780   */\n      dup4\n        /* \"#utility.yul\":4773:4784   */\n      add\n        /* \"#utility.yul\":4766:4821   */\n      mstore\n        /* \"#utility.yul\":4852:4861   */\n      0x61796d656e747300000000000000000000000000000000000000000000000000\n        /* \"#utility.yul\":4847:4849   */\n      0x20\n        /* \"#utility.yul\":4842:4845   */\n      dup4\n        /* \"#utility.yul\":4838:4850   */\n      add\n        /* \"#utility.yul\":4831:4862   */\n      mstore\n        /* \"#utility.yul\":4888:4890   */\n      0x40\n        /* \"#utility.yul\":4883:4886   */\n      dup3\n        /* \"#utility.yul\":4879:4891   */\n      add\n        /* \"#utility.yul\":4872:4891   */\n      swap1\n      pop\n        /* \"#utility.yul\":4672:4897   */\n      swap2\n      swap1\n      pop\n      jump\t// out\n        /* \"#utility.yul\":4903:5218   */\n    tag_290:\n      0x00\n        /* \"#utility.yul\":5066:5133   */\n      tag_292\n        /* \"#utility.yul\":5130:5132   */\n      0x11\n        /* \"#utility.yul\":5125:5128   */\n      dup4\n        /* \"#utility.yul\":5066:5133   */\n      tag_277\n      jump\t// in\n    tag_292:\n        /* \"#utility.yul\":5059:5133   */\n      swap2\n      pop\n        /* \"#utility.yul\":5163:5182   */\n      0x416c72656164792077697468647261776e000000000000000000000000000000\n        /* \"#utility.yul\":5159:5160   */\n      0x00\n        /* \"#utility.yul\":5154:5157   */\n      dup4\n        /* \"#utility.yul\":5150:5161   */\n      add\n        /* \"#utility.yul\":5143:5183   */\n      mstore\n        /* \"#utility.yul\":5209:5211   */\n      0x20\n        /* \"#utility.yul\":5204:5207   */\n      dup3\n        /* \"#utility.yul\":5200:5212   */\n      add\n        /* \"#utility.yul\":5193:5212   */\n      swap1\n      pop\n        /* \"#utility.yul\":5049:5218   */\n      swap2\n      swap1\n      pop\n      jump\t// out\n        /* \"#utility.yul\":5224:5541   */\n    tag_293:\n      0x00\n        /* \"#utility.yul\":5387:5454   */\n      tag_295\n        /* \"#utility.yul\":5451:5453   */\n      0x13\n        /* \"#utility.yul\":5446:5449   */\n      dup4\n        /* \"#utility.yul\":5387:5454   */\n      tag_277\n      jump\t// in\n    tag_295:\n        /* \"#utility.yul\":5380:5454   */\n      swap2\n      pop\n        /* \"#utility.yul\":5484:5505   */\n      0x4e6f20726566756e642072657175657374656400000000000000000000000000\n        /* \"#utility.yul\":5480:5481   */\n      0x00\n        /* \"#utility.yul\":5475:5478   */\n      dup4\n        /* \"#utility.yul\":5471:5482   */\n      add\n        /* \"#utility.yul\":5464:5506   */\n      mstore\n        /* \"#utility.yul\":5532:5534   */\n      0x20\n        /* \"#utility.yul\":5527:5530   */\n      dup3\n        /* \"#utility.yul\":5523:5535   */\n      add\n        /* \"#utility.yul\":5516:5535   */\n      swap1\n      pop\n        /* \"#utility.yul\":5370:5541   */\n      swap2\n      swap1\n      pop\n      jump\t// out\n        /* \"#utility.yul\":5547:5869   */\n    tag_296:\n      0x00\n        /* \"#utility.yul\":5710:5777   */\n      tag_298\n        /* \"#utility.yul\":5774:5776   */\n      0x18\n        /* \"#utility.yul\":5769:5772   */\n      dup4\n        /* \"#utility.yul\":5710:5777   */\n      tag_277\n      jump\t// in\n    tag_298:\n        /* \"#utility.yul\":5703:5777   */\n      swap2\n      pop\n        /* \"#utility.yul\":5807:5833   */\n      0x526566756e6420616c7265616479207265717565737465640000000000000000\n        /* \"#utility.yul\":5803:5804   */\n      0x00\n        /* \"#utility.yul\":5798:5801   */\n      dup4\n        /* \"#utility.yul\":5794:5805   */\n      add\n        /* \"#utility.yul\":5787:5834   */\n      mstore\n        /* \"#utility.yul\":5860:5862   */\n      0x20\n        /* \"#utility.yul\":5855:5858   */\n      dup3\n        /* \"#utility.yul\":5851:5863   */\n      add\n        /* \"#utility.yul\":5844:5863   */\n      swap1\n      pop\n        /* \"#utility.yul\":5693:5869   */\n      swap2\n      swap1\n      pop\n      jump\t// out\n        /* \"#utility.yul\":5875:6188   */\n    tag_299:\n      0x00\n        /* \"#utility.yul\":6038:6105   */\n      tag_301\n        /* \"#utility.yul\":6102:6104   */\n      0x0f\n        /* \"#utility.yul\":6097:6100   */\n      dup4\n        /* \"#utility.yul\":6038:6105   */\n      tag_277\n      jump\t// in\n    tag_301:\n        /* \"#utility.yul\":6031:6105   */\n      swap2\n      pop\n        /* \"#utility.yul\":6135:6152   */\n      0x5374616c6c206e6f7420666f756e640000000000000000000000000000000000\n        /* \"#utility.yul\":6131:6132   */\n      0x00\n        /* \"#utility.yul\":6126:6129   */\n      dup4\n        /* \"#utility.yul\":6122:6133   */\n      add\n        /* \"#utility.yul\":6115:6153   */\n      mstore\n        /* \"#utility.yul\":6179:6181   */\n      0x20\n        /* \"#utility.yul\":6174:6177   */\n      dup3\n        /* \"#utility.yul\":6170:6182   */\n      add\n        /* \"#utility.yul\":6163:6182   */\n      swap1\n      pop\n        /* \"#utility.yul\":6021:6188   */\n      swap2\n      swap1\n      pop\n      jump\t// out\n        /* \"#utility.yul\":6194:6491   */\n    tag_302:\n      0x00\n        /* \"#utility.yul\":6374:6457   */\n      tag_304\n        /* \"#utility.yul\":6455:6456   */\n      0x00\n        /* \"#utility.yul\":6450:6453   */\n      dup4\n        /* \"#utility.yul\":6374:6457   */\n      tag_305\n      jump\t// in\n    tag_304:\n        /* \"#utility.yul\":6367:6457   */\n      swap2\n      pop\n        /* \"#utility.yul\":6483:6484   */\n      0x00\n        /* \"#utility.yul\":6478:6481   */\n      dup3\n        /* \"#utility.yul\":6474:6485   */\n      add\n        /* \"#utility.yul\":6467:6485   */\n      swap1\n      pop\n        /* \"#utility.yul\":6357:6491   */\n      swap2\n      swap1\n      pop\n      jump\t// out\n        /* \"#utility.yul\":6497:6815   */\n    tag_306:\n      0x00\n        /* \"#utility.yul\":6660:6727   */\n      tag_308\n        /* \"#utility.yul\":6724:6726   */\n      0x14\n        /* \"#utility.yul\":6719:6722   */\n      dup4\n        /* \"#utility.yul\":6660:6727   */\n      tag_277\n      jump\t// in\n    tag_308:\n        /* \"#utility.yul\":6653:6727   */\n      swap2\n      pop\n        /* \"#utility.yul\":6757:6779   */\n      0x4e6f207061796d656e7420746f20726566756e64000000000000000000000000\n        /* \"#utility.yul\":6753:6754   */\n      0x00\n        /* \"#utility.yul\":6748:6751   */\n      dup4\n        /* \"#utility.yul\":6744:6755   */\n      add\n        /* \"#utility.yul\":6737:6780   */\n      mstore\n        /* \"#utility.yul\":6806:6808   */\n      0x20\n        /* \"#utility.yul\":6801:6804   */\n      dup3\n        /* \"#utility.yul\":6797:6809   */\n      add\n        /* \"#utility.yul\":6790:6809   */\n      swap1\n      pop\n        /* \"#utility.yul\":6643:6815   */\n      swap2\n      swap1\n      pop\n      jump\t// out\n        /* \"#utility.yul\":6821:7141   */\n    tag_309:\n      0x00\n        /* \"#utility.yul\":6984:7051   */\n      tag_311\n        /* \"#utility.yul\":7048:7050   */\n      0x16\n        /* \"#utility.yul\":7043:7046   */\n      dup4\n        /* \"#utility.yul\":6984:7051   */\n      tag_277\n      jump\t// in\n    tag_311:\n        /* \"#utility.yul\":6977:7051   */\n      swap2\n      pop\n        /* \"#utility.yul\":7081:7105   */\n      0x526566756e64207472616e73666572206661696c656400000000000000000000\n        /* \"#utility.yul\":7077:7078   */\n      0x00\n        /* \"#utility.yul\":7072:7075   */\n      dup4\n        /* \"#utility.yul\":7068:7079   */\n      add\n        /* \"#utility.yul\":7061:7106   */\n      mstore\n        /* \"#utility.yul\":7132:7134   */\n      0x20\n        /* \"#utility.yul\":7127:7130   */\n      dup3\n        /* \"#utility.yul\":7123:7135   */\n      add\n        /* \"#utility.yul\":7116:7135   */\n      swap1\n      pop\n        /* \"#utility.yul\":6967:7141   */\n      swap2\n      swap1\n      pop\n      jump\t// out\n        /* \"#utility.yul\":7147:7460   */\n    tag_312:\n      0x00\n        /* \"#utility.yul\":7310:7377   */\n      tag_314\n        /* \"#utility.yul\":7374:7376   */\n      0x0f\n        /* \"#utility.yul\":7369:7372   */\n      dup4\n        /* \"#utility.yul\":7310:7377   */\n      tag_277\n      jump\t// in\n    tag_314:\n        /* \"#utility.yul\":7303:7377   */\n      swap2\n      pop\n        /* \"#utility.yul\":7407:7424   */\n      0x4e6f207061796d656e74206d6164650000000000000000000000000000000000\n        /* \"#utility.yul\":7403:7404   */\n      0x00\n        /* \"#utility.yul\":7398:7401   */\n      dup4\n        /* \"#utility.yul\":7394:7405   */\n      add\n        /* \"#utility.yul\":7387:7425   */\n      mstore\n        /* \"#utility.yul\":7451:7453   */\n      0x20\n        /* \"#utility.yul\":7446:7449   */\n      dup3\n        /* \"#utility.yul\":7442:7454   */\n      add\n        /* \"#utility.yul\":7435:7454   */\n      swap1\n      pop\n        /* \"#utility.yul\":7293:7460   */\n      swap2\n      swap1\n      pop\n      jump\t// out\n        /* \"#utility.yul\":7466:7777   */\n    tag_315:\n      0x00\n        /* \"#utility.yul\":7629:7696   */\n      tag_317\n        /* \"#utility.yul\":7693:7695   */\n      0x0d\n        /* \"#utility.yul\":7688:7691   */\n      dup4\n        /* \"#utility.yul\":7629:7696   */\n      tag_277\n      jump\t// in\n    tag_317:\n        /* \"#utility.yul\":7622:7696   */\n      swap2\n      pop\n        /* \"#utility.yul\":7726:7741   */\n      0x4d7573742073656e642045544800000000000000000000000000000000000000\n        /* \"#utility.yul\":7722:7723   */\n      0x00\n        /* \"#utility.yul\":7717:7720   */\n      dup4\n        /* \"#utility.yul\":7713:7724   */\n      add\n        /* \"#utility.yul\":7706:7742   */\n      mstore\n        /* \"#utility.yul\":7768:7770   */\n      0x20\n        /* \"#utility.yul\":7763:7766   */\n      dup3\n        /* \"#utility.yul\":7759:7771   */\n      add\n        /* \"#utility.yul\":7752:7771   */\n      swap1\n      pop\n        /* \"#utility.yul\":7612:7777   */\n      swap2\n      swap1\n      pop\n      jump\t// out\n        /* \"#utility.yul\":7783:7901   */\n    tag_318:\n        /* \"#utility.yul\":7870:7894   */\n      tag_320\n        /* \"#utility.yul\":7888:7893   */\n      dup2\n        /* \"#utility.yul\":7870:7894   */\n      tag_321\n      jump\t// in\n    tag_320:\n        /* \"#utility.yul\":7865:7868   */\n      dup3\n        /* \"#utility.yul\":7858:7895   */\n      mstore\n        /* \"#utility.yul\":7848:7901   */\n      pop\n      pop\n      jump\t// out\n        /* \"#utility.yul\":7907:8286   */\n    tag_93:\n      0x00\n        /* \"#utility.yul\":8113:8260   */\n      tag_323\n        /* \"#utility.yul\":8256:8259   */\n      dup3\n        /* \"#utility.yul\":8113:8260   */\n      tag_302\n      jump\t// in\n    tag_323:\n        /* \"#utility.yul\":8106:8260   */\n      swap2\n      pop\n        /* \"#utility.yul\":8277:8280   */\n      dup2\n        /* \"#utility.yul\":8270:8280   */\n      swap1\n      pop\n        /* \"#utility.yul\":8095:8286   */\n      swap2\n      swap1\n      pop\n      jump\t// out\n        /* \"#utility.yul\":8292:8990   */\n    tag_53:\n      0x00\n        /* \"#utility.yul\":8552:8555   */\n      0xa0\n        /* \"#utility.yul\":8541:8550   */\n      dup3\n        /* \"#utility.yul\":8537:8556   */\n      add\n        /* \"#utility.yul\":8529:8556   */\n      swap1\n      pop\n        /* \"#utility.yul\":8566:8653   */\n      tag_325\n        /* \"#utility.yul\":8650:8651   */\n      0x00\n        /* \"#utility.yul\":8639:8648   */\n      dup4\n        /* \"#utility.yul\":8635:8652   */\n      add\n        /* \"#utility.yul\":8626:8632   */\n      dup9\n        /* \"#utility.yul\":8566:8653   */\n      tag_242\n      jump\t// in\n    tag_325:\n        /* \"#utility.yul\":8663:8748   */\n      tag_326\n        /* \"#utility.yul\":8744:8746   */\n      0x20\n        /* \"#utility.yul\":8733:8742   */\n      dup4\n        /* \"#utility.yul\":8729:8747   */\n      add\n        /* \"#utility.yul\":8720:8726   */\n      dup8\n        /* \"#utility.yul\":8663:8748   */\n      tag_270\n      jump\t// in\n    tag_326:\n        /* \"#utility.yul\":8758:8830   */\n      tag_327\n        /* \"#utility.yul\":8826:8828   */\n      0x40\n        /* \"#utility.yul\":8815:8824   */\n      dup4\n        /* \"#utility.yul\":8811:8829   */\n      add\n        /* \"#utility.yul\":8802:8808   */\n      dup7\n        /* \"#utility.yul\":8758:8830   */\n      tag_318\n      jump\t// in\n    tag_327:\n        /* \"#utility.yul\":8840:8906   */\n      tag_328\n        /* \"#utility.yul\":8902:8904   */\n      0x60\n        /* \"#utility.yul\":8891:8900   */\n      dup4\n        /* \"#utility.yul\":8887:8905   */\n      add\n        /* \"#utility.yul\":8878:8884   */\n      dup6\n        /* \"#utility.yul\":8840:8906   */\n      tag_266\n      jump\t// in\n    tag_328:\n        /* \"#utility.yul\":8916:8983   */\n      tag_329\n        /* \"#utility.yul\":8978:8981   */\n      0x80\n        /* \"#utility.yul\":8967:8976   */\n      dup4\n        /* \"#utility.yul\":8963:8982   */\n      add\n        /* \"#utility.yul\":8954:8960   */\n      dup5\n        /* \"#utility.yul\":8916:8983   */\n      tag_266\n      jump\t// in\n    tag_329:\n        /* \"#utility.yul\":8519:8990   */\n      swap7\n      swap6\n      pop\n      pop\n      pop\n      pop\n      pop\n      pop\n      jump\t// out\n        /* \"#utility.yul\":8996:9369   */\n    tag_47:\n      0x00\n        /* \"#utility.yul\":9177:9179   */\n      0x20\n        /* \"#utility.yul\":9166:9175   */\n      dup3\n        /* \"#utility.yul\":9162:9180   */\n      add\n        /* \"#utility.yul\":9154:9180   */\n      swap1\n      pop\n        /* \"#utility.yul\":9226:9235   */\n      dup2\n        /* \"#utility.yul\":9220:9224   */\n      dup2\n        /* \"#utility.yul\":9216:9236   */\n      sub\n        /* \"#utility.yul\":9212:9213   */\n      0x00\n        /* \"#utility.yul\":9201:9210   */\n      dup4\n        /* \"#utility.yul\":9197:9214   */\n      add\n        /* \"#utility.yul\":9190:9237   */\n      mstore\n        /* \"#utility.yul\":9254:9362   */\n      tag_331\n        /* \"#utility.yul\":9357:9361   */\n      dup2\n        /* \"#utility.yul\":9348:9354   */\n      dup5\n        /* \"#utility.yul\":9254:9362   */\n      tag_252\n      jump\t// in\n    tag_331:\n        /* \"#utility.yul\":9246:9362   */\n      swap1\n      pop\n        /* \"#utility.yul\":9144:9369   */\n      swap3\n      swap2\n      pop\n      pop\n      jump\t// out\n        /* \"#utility.yul\":9375:9585   */\n    tag_23:\n      0x00\n        /* \"#utility.yul\":9500:9502   */\n      0x20\n        /* \"#utility.yul\":9489:9498   */\n      dup3\n        /* \"#utility.yul\":9485:9503   */\n      add\n        /* \"#utility.yul\":9477:9503   */\n      swap1\n      pop\n        /* \"#utility.yul\":9513:9578   */\n      tag_333\n        /* \"#utility.yul\":9575:9576   */\n      0x00\n        /* \"#utility.yul\":9564:9573   */\n      dup4\n        /* \"#utility.yul\":9560:9577   */\n      add\n        /* \"#utility.yul\":9551:9557   */\n      dup5\n        /* \"#utility.yul\":9513:9578   */\n      tag_266\n      jump\t// in\n    tag_333:\n        /* \"#utility.yul\":9467:9585   */\n      swap3\n      swap2\n      pop\n      pop\n      jump\t// out\n        /* \"#utility.yul\":9591:10010   */\n    tag_172:\n      0x00\n        /* \"#utility.yul\":9795:9797   */\n      0x20\n        /* \"#utility.yul\":9784:9793   */\n      dup3\n        /* \"#utility.yul\":9780:9798   */\n      add\n        /* \"#utility.yul\":9772:9798   */\n      swap1\n      pop\n        /* \"#utility.yul\":9844:9853   */\n      dup2\n        /* \"#utility.yul\":9838:9842   */\n      dup2\n        /* \"#utility.yul\":9834:9854   */\n      sub\n        /* \"#utility.yul\":9830:9831   */\n      0x00\n        /* \"#utility.yul\":9819:9828   */\n      dup4\n        /* \"#utility.yul\":9815:9832   */\n      add\n        /* \"#utility.yul\":9808:9855   */\n      mstore\n        /* \"#utility.yul\":9872:10003   */\n      tag_335\n        /* \"#utility.yul\":9998:10002   */\n      dup2\n        /* \"#utility.yul\":9872:10003   */\n      tag_274\n      jump\t// in\n    tag_335:\n        /* \"#utility.yul\":9864:10003   */\n      swap1\n      pop\n        /* \"#utility.yul\":9762:10010   */\n      swap2\n      swap1\n      pop\n      jump\t// out\n        /* \"#utility.yul\":10016:10435   */\n    tag_88:\n      0x00\n        /* \"#utility.yul\":10220:10222   */\n      0x20\n        /* \"#utility.yul\":10209:10218   */\n      dup3\n        /* \"#utility.yul\":10205:10223   */\n      add\n        /* \"#utility.yul\":10197:10223   */\n      swap1\n      pop\n        /* \"#utility.yul\":10269:10278   */\n      dup2\n        /* \"#utility.yul\":10263:10267   */\n      dup2\n        /* \"#utility.yul\":10259:10279   */\n      sub\n        /* \"#utility.yul\":10255:10256   */\n      0x00\n        /* \"#utility.yul\":10244:10253   */\n      dup4\n        /* \"#utility.yul\":10240:10257   */\n      add\n        /* \"#utility.yul\":10233:10280   */\n      mstore\n        /* \"#utility.yul\":10297:10428   */\n      tag_337\n        /* \"#utility.yul\":10423:10427   */\n      dup2\n        /* \"#utility.yul\":10297:10428   */\n      tag_278\n      jump\t// in\n    tag_337:\n        /* \"#utility.yul\":10289:10428   */\n      swap1\n      pop\n        /* \"#utility.yul\":10187:10435   */\n      swap2\n      swap1\n      pop\n      jump\t// out\n        /* \"#utility.yul\":10441:10860   */\n    tag_84:\n      0x00\n        /* \"#utility.yul\":10645:10647   */\n      0x20\n        /* \"#utility.yul\":10634:10643   */\n      dup3\n        /* \"#utility.yul\":10630:10648   */\n      add\n        /* \"#utility.yul\":10622:10648   */\n      swap1\n      pop\n        /* \"#utility.yul\":10694:10703   */\n      dup2\n        /* \"#utility.yul\":10688:10692   */\n      dup2\n        /* \"#utility.yul\":10684:10704   */\n      sub\n        /* \"#utility.yul\":10680:10681   */\n      0x00\n        /* \"#utility.yul\":10669:10678   */\n      dup4\n        /* \"#utility.yul\":10665:10682   */\n      add\n        /* \"#utility.yul\":10658:10705   */\n      mstore\n        /* \"#utility.yul\":10722:10853   */\n      tag_339\n        /* \"#utility.yul\":10848:10852   */\n      dup2\n        /* \"#utility.yul\":10722:10853   */\n      tag_281\n      jump\t// in\n    tag_339:\n        /* \"#utility.yul\":10714:10853   */\n      swap1\n      pop\n        /* \"#utility.yul\":10612:10860   */\n      swap2\n      swap1\n      pop\n      jump\t// out\n        /* \"#utility.yul\":10866:11285   */\n    tag_99:\n      0x00\n        /* \"#utility.yul\":11070:11072   */\n      0x20\n        /* \"#utility.yul\":11059:11068   */\n      dup3\n        /* \"#utility.yul\":11055:11073   */\n      add\n        /* \"#utility.yul\":11047:11073   */\n      swap1\n      pop\n        /* \"#utility.yul\":11119:11128   */\n      dup2\n        /* \"#utility.yul\":11113:11117   */\n      dup2\n        /* \"#utility.yul\":11109:11129   */\n      sub\n        /* \"#utility.yul\":11105:11106   */\n      0x00\n        /* \"#utility.yul\":11094:11103   */\n      dup4\n        /* \"#utility.yul\":11090:11107   */\n      add\n        /* \"#utility.yul\":11083:11130   */\n      mstore\n        /* \"#utility.yul\":11147:11278   */\n      tag_341\n        /* \"#utility.yul\":11273:11277   */\n      dup2\n        /* \"#utility.yul\":11147:11278   */\n      tag_284\n      jump\t// in\n    tag_341:\n        /* \"#utility.yul\":11139:11278   */\n      swap1\n      pop\n        /* \"#utility.yul\":11037:11285   */\n      swap2\n      swap1\n      pop\n      jump\t// out\n        /* \"#utility.yul\":11291:11710   */\n    tag_124:\n      0x00\n        /* \"#utility.yul\":11495:11497   */\n      0x20\n        /* \"#utility.yul\":11484:11493   */\n      dup3\n        /* \"#utility.yul\":11480:11498   */\n      add\n        /* \"#utility.yul\":11472:11498   */\n      swap1\n      pop\n        /* \"#utility.yul\":11544:11553   */\n      dup2\n        /* \"#utility.yul\":11538:11542   */\n      dup2\n        /* \"#utility.yul\":11534:11554   */\n      sub\n        /* \"#utility.yul\":11530:11531   */\n      0x00\n        /* \"#utility.yul\":11519:11528   */\n      dup4\n        /* \"#utility.yul\":11515:11532   */\n      add\n        /* \"#utility.yul\":11508:11555   */\n      mstore\n        /* \"#utility.yul\":11572:11703   */\n      tag_343\n        /* \"#utility.yul\":11698:11702   */\n      dup2\n        /* \"#utility.yul\":11572:11703   */\n      tag_287\n      jump\t// in\n    tag_343:\n        /* \"#utility.yul\":11564:11703   */\n      swap1\n      pop\n        /* \"#utility.yul\":11462:11710   */\n      swap2\n      swap1\n      pop\n      jump\t// out\n        /* \"#utility.yul\":11716:12135   */\n    tag_91:\n      0x00\n        /* \"#utility.yul\":11920:11922   */\n      0x20\n        /* \"#utility.yul\":11909:11918   */\n      dup3\n        /* \"#utility.yul\":11905:11923   */\n      add\n        /* \"#utility.yul\":11897:11923   */\n      swap1\n      pop\n        /* \"#utility.yul\":11969:11978   */\n      dup2\n        /* \"#utility.yul\":11963:11967   */\n      dup2\n        /* \"#utility.yul\":11959:11979   */\n      sub\n        /* \"#utility.yul\":11955:11956   */\n      0x00\n        /* \"#utility.yul\":11944:11953   */\n      dup4\n        /* \"#utility.yul\":11940:11957   */\n      add\n        /* \"#utility.yul\":11933:11980   */\n      mstore\n        /* \"#utility.yul\":11997:12128   */\n      tag_345\n        /* \"#utility.yul\":12123:12127   */\n      dup2\n        /* \"#utility.yul\":11997:12128   */\n      tag_290\n      jump\t// in\n    tag_345:\n        /* \"#utility.yul\":11989:12128   */\n      swap1\n      pop\n        /* \"#utility.yul\":11887:12135   */\n      swap2\n      swap1\n      pop\n      jump\t// out\n        /* \"#utility.yul\":12141:12560   */\n    tag_111:\n      0x00\n        /* \"#utility.yul\":12345:12347   */\n      0x20\n        /* \"#utility.yul\":12334:12343   */\n      dup3\n        /* \"#utility.yul\":12330:12348   */\n      add\n        /* \"#utility.yul\":12322:12348   */\n      swap1\n      pop\n        /* \"#utility.yul\":12394:12403   */\n      dup2\n        /* \"#utility.yul\":12388:12392   */\n      dup2\n        /* \"#utility.yul\":12384:12404   */\n      sub\n        /* \"#utility.yul\":12380:12381   */\n      0x00\n        /* \"#utility.yul\":12369:12378   */\n      dup4\n        /* \"#utility.yul\":12365:12382   */\n      add\n        /* \"#utility.yul\":12358:12405   */\n      mstore\n        /* \"#utility.yul\":12422:12553   */\n      tag_347\n        /* \"#utility.yul\":12548:12552   */\n      dup2\n        /* \"#utility.yul\":12422:12553   */\n      tag_293\n      jump\t// in\n    tag_347:\n        /* \"#utility.yul\":12414:12553   */\n      swap1\n      pop\n        /* \"#utility.yul\":12312:12560   */\n      swap2\n      swap1\n      pop\n      jump\t// out\n        /* \"#utility.yul\":12566:12985   */\n    tag_152:\n      0x00\n        /* \"#utility.yul\":12770:12772   */\n      0x20\n        /* \"#utility.yul\":12759:12768   */\n      dup3\n        /* \"#utility.yul\":12755:12773   */\n      add\n        /* \"#utility.yul\":12747:12773   */\n      swap1\n      pop\n        /* \"#utility.yul\":12819:12828   */\n      dup2\n        /* \"#utility.yul\":12813:12817   */\n      dup2\n        /* \"#utility.yul\":12809:12829   */\n      sub\n        /* \"#utility.yul\":12805:12806   */\n      0x00\n        /* \"#utility.yul\":12794:12803   */\n      dup4\n        /* \"#utility.yul\":12790:12807   */\n      add\n        /* \"#utility.yul\":12783:12830   */\n      mstore\n        /* \"#utility.yul\":12847:12978   */\n      tag_349\n        /* \"#utility.yul\":12973:12977   */\n      dup2\n        /* \"#utility.yul\":12847:12978   */\n      tag_296\n      jump\t// in\n    tag_349:\n        /* \"#utility.yul\":12839:12978   */\n      swap1\n      pop\n        /* \"#utility.yul\":12737:12985   */\n      swap2\n      swap1\n      pop\n      jump\t// out\n        /* \"#utility.yul\":12991:13410   */\n    tag_121:\n      0x00\n        /* \"#utility.yul\":13195:13197   */\n      0x20\n        /* \"#utility.yul\":13184:13193   */\n      dup3\n        /* \"#utility.yul\":13180:13198   */\n      add\n        /* \"#utility.yul\":13172:13198   */\n      swap1\n      pop\n        /* \"#utility.yul\":13244:13253   */\n      dup2\n        /* \"#utility.yul\":13238:13242   */\n      dup2\n        /* \"#utility.yul\":13234:13254   */\n      sub\n        /* \"#utility.yul\":13230:13231   */\n      0x00\n        /* \"#utility.yul\":13219:13228   */\n      dup4\n        /* \"#utility.yul\":13215:13232   */\n      add\n        /* \"#utility.yul\":13208:13255   */\n      mstore\n        /* \"#utility.yul\":13272:13403   */\n      tag_351\n        /* \"#utility.yul\":13398:13402   */\n      dup2\n        /* \"#utility.yul\":13272:13403   */\n      tag_299\n      jump\t// in\n    tag_351:\n        /* \"#utility.yul\":13264:13403   */\n      swap1\n      pop\n        /* \"#utility.yul\":13162:13410   */\n      swap2\n      swap1\n      pop\n      jump\t// out\n        /* \"#utility.yul\":13416:13835   */\n    tag_169:\n      0x00\n        /* \"#utility.yul\":13620:13622   */\n      0x20\n        /* \"#utility.yul\":13609:13618   */\n      dup3\n        /* \"#utility.yul\":13605:13623   */\n      add\n        /* \"#utility.yul\":13597:13623   */\n      swap1\n      pop\n        /* \"#utility.yul\":13669:13678   */\n      dup2\n        /* \"#utility.yul\":13663:13667   */\n      dup2\n        /* \"#utility.yul\":13659:13679   */\n      sub\n        /* \"#utility.yul\":13655:13656   */\n      0x00\n        /* \"#utility.yul\":13644:13653   */\n      dup4\n        /* \"#utility.yul\":13640:13657   */\n      add\n        /* \"#utility.yul\":13633:13680   */\n      mstore\n        /* \"#utility.yul\":13697:13828   */\n      tag_353\n        /* \"#utility.yul\":13823:13827   */\n      dup2\n        /* \"#utility.yul\":13697:13828   */\n      tag_306\n      jump\t// in\n    tag_353:\n        /* \"#utility.yul\":13689:13828   */\n      swap1\n      pop\n        /* \"#utility.yul\":13587:13835   */\n      swap2\n      swap1\n      pop\n      jump\t// out\n        /* \"#utility.yul\":13841:14260   */\n    tag_181:\n      0x00\n        /* \"#utility.yul\":14045:14047   */\n      0x20\n        /* \"#utility.yul\":14034:14043   */\n      dup3\n        /* \"#utility.yul\":14030:14048   */\n      add\n        /* \"#utility.yul\":14022:14048   */\n      swap1\n      pop\n        /* \"#utility.yul\":14094:14103   */\n      dup2\n        /* \"#utility.yul\":14088:14092   */\n      dup2\n        /* \"#utility.yul\":14084:14104   */\n      sub\n        /* \"#utility.yul\":14080:14081   */\n      0x00\n        /* \"#utility.yul\":14069:14078   */\n      dup4\n        /* \"#utility.yul\":14065:14082   */\n      add\n        /* \"#utility.yul\":14058:14105   */\n      mstore\n        /* \"#utility.yul\":14122:14253   */\n      tag_355\n        /* \"#utility.yul\":14248:14252   */\n      dup2\n        /* \"#utility.yul\":14122:14253   */\n      tag_309\n      jump\t// in\n    tag_355:\n        /* \"#utility.yul\":14114:14253   */\n      swap1\n      pop\n        /* \"#utility.yul\":14012:14260   */\n      swap2\n      swap1\n      pop\n      jump\t// out\n        /* \"#utility.yul\":14266:14685   */\n    tag_149:\n      0x00\n        /* \"#utility.yul\":14470:14472   */\n      0x20\n        /* \"#utility.yul\":14459:14468   */\n      dup3\n        /* \"#utility.yul\":14455:14473   */\n      add\n        /* \"#utility.yul\":14447:14473   */\n      swap1\n      pop\n        /* \"#utility.yul\":14519:14528   */\n      dup2\n        /* \"#utility.yul\":14513:14517   */\n      dup2\n        /* \"#utility.yul\":14509:14529   */\n      sub\n        /* \"#utility.yul\":14505:14506   */\n      0x00\n        /* \"#utility.yul\":14494:14503   */\n      dup4\n        /* \"#utility.yul\":14490:14507   */\n      add\n        /* \"#utility.yul\":14483:14530   */\n      mstore\n        /* \"#utility.yul\":14547:14678   */\n      tag_357\n        /* \"#utility.yul\":14673:14677   */\n      dup2\n        /* \"#utility.yul\":14547:14678   */\n      tag_312\n      jump\t// in\n    tag_357:\n        /* \"#utility.yul\":14539:14678   */\n      swap1\n      pop\n        /* \"#utility.yul\":14437:14685   */\n      swap2\n      swap1\n      pop\n      jump\t// out\n        /* \"#utility.yul\":14691:15110   */\n    tag_127:\n      0x00\n        /* \"#utility.yul\":14895:14897   */\n      0x20\n        /* \"#utility.yul\":14884:14893   */\n      dup3\n        /* \"#utility.yul\":14880:14898   */\n      add\n        /* \"#utility.yul\":14872:14898   */\n      swap1\n      pop\n        /* \"#utility.yul\":14944:14953   */\n      dup2\n        /* \"#utility.yul\":14938:14942   */\n      dup2\n        /* \"#utility.yul\":14934:14954   */\n      sub\n        /* \"#utility.yul\":14930:14931   */\n      0x00\n        /* \"#utility.yul\":14919:14928   */\n      dup4\n        /* \"#utility.yul\":14915:14932   */\n      add\n        /* \"#utility.yul\":14908:14955   */\n      mstore\n        /* \"#utility.yul\":14972:15103   */\n      tag_359\n        /* \"#utility.yul\":15098:15102   */\n      dup2\n        /* \"#utility.yul\":14972:15103   */\n      tag_315\n      jump\t// in\n    tag_359:\n        /* \"#utility.yul\":14964:15103   */\n      swap1\n      pop\n        /* \"#utility.yul\":14862:15110   */\n      swap2\n      swap1\n      pop\n      jump\t// out\n        /* \"#utility.yul\":15116:15338   */\n    tag_41:\n      0x00\n        /* \"#utility.yul\":15247:15249   */\n      0x20\n        /* \"#utility.yul\":15236:15245   */\n      dup3\n        /* \"#utility.yul\":15232:15250   */\n      add\n        /* \"#utility.yul\":15224:15250   */\n      swap1\n      pop\n        /* \"#utility.yul\":15260:15331   */\n      tag_361\n        /* \"#utility.yul\":15328:15329   */\n      0x00\n        /* \"#utility.yul\":15317:15326   */\n      dup4\n        /* \"#utility.yul\":15313:15330   */\n      add\n        /* \"#utility.yul\":15304:15310   */\n      dup5\n        /* \"#utility.yul\":15260:15331   */\n      tag_318\n      jump\t// in\n    tag_361:\n        /* \"#utility.yul\":15214:15338   */\n      swap3\n      swap2\n      pop\n      pop\n      jump\t// out\n        /* \"#utility.yul\":15344:15676   */\n    tag_113:\n      0x00\n        /* \"#utility.yul\":15503:15505   */\n      0x40\n        /* \"#utility.yul\":15492:15501   */\n      dup3\n        /* \"#utility.yul\":15488:15506   */\n      add\n        /* \"#utility.yul\":15480:15506   */\n      swap1\n      pop\n        /* \"#utility.yul\":15516:15587   */\n      tag_363\n        /* \"#utility.yul\":15584:15585   */\n      0x00\n        /* \"#utility.yul\":15573:15582   */\n      dup4\n        /* \"#utility.yul\":15569:15586   */\n      add\n        /* \"#utility.yul\":15560:15566   */\n      dup6\n        /* \"#utility.yul\":15516:15587   */\n      tag_318\n      jump\t// in\n    tag_363:\n        /* \"#utility.yul\":15597:15669   */\n      tag_364\n        /* \"#utility.yul\":15665:15667   */\n      0x20\n        /* \"#utility.yul\":15654:15663   */\n      dup4\n        /* \"#utility.yul\":15650:15668   */\n      add\n        /* \"#utility.yul\":15641:15647   */\n      dup5\n        /* \"#utility.yul\":15597:15669   */\n      tag_249\n      jump\t// in\n    tag_364:\n        /* \"#utility.yul\":15470:15676   */\n      swap4\n      swap3\n      pop\n      pop\n      pop\n      jump\t// out\n        /* \"#utility.yul\":15682:16140   */\n    tag_101:\n      0x00\n        /* \"#utility.yul\":15877:15879   */\n      0x60\n        /* \"#utility.yul\":15866:15875   */\n      dup3\n        /* \"#utility.yul\":15862:15880   */\n      add\n        /* \"#utility.yul\":15854:15880   */\n      swap1\n      pop\n        /* \"#utility.yul\":15890:15961   */\n      tag_366\n        /* \"#utility.yul\":15958:15959   */\n      0x00\n        /* \"#utility.yul\":15947:15956   */\n      dup4\n        /* \"#utility.yul\":15943:15960   */\n      add\n        /* \"#utility.yul\":15934:15940   */\n      dup7\n        /* \"#utility.yul\":15890:15961   */\n      tag_318\n      jump\t// in\n    tag_366:\n        /* \"#utility.yul\":15971:16051   */\n      tag_367\n        /* \"#utility.yul\":16047:16049   */\n      0x20\n        /* \"#utility.yul\":16036:16045   */\n      dup4\n        /* \"#utility.yul\":16032:16050   */\n      add\n        /* \"#utility.yul\":16023:16029   */\n      dup6\n        /* \"#utility.yul\":15971:16051   */\n      tag_238\n      jump\t// in\n    tag_367:\n        /* \"#utility.yul\":16061:16133   */\n      tag_368\n        /* \"#utility.yul\":16129:16131   */\n      0x40\n        /* \"#utility.yul\":16118:16127   */\n      dup4\n        /* \"#utility.yul\":16114:16132   */\n      add\n        /* \"#utility.yul\":16105:16111   */\n      dup5\n        /* \"#utility.yul\":16061:16133   */\n      tag_318\n      jump\t// in\n    tag_368:\n        /* \"#utility.yul\":15844:16140   */\n      swap5\n      swap4\n      pop\n      pop\n      pop\n      pop\n      jump\t// out\n        /* \"#utility.yul\":16146:16614   */\n    tag_210:\n      0x00\n        /* \"#utility.yul\":16346:16348   */\n      0x60\n        /* \"#utility.yul\":16335:16344   */\n      dup3\n        /* \"#utility.yul\":16331:16349   */\n      add\n        /* \"#utility.yul\":16323:16349   */\n      swap1\n      pop\n        /* \"#utility.yul\":16359:16430   */\n      tag_370\n        /* \"#utility.yul\":16427:16428   */\n      0x00\n        /* \"#utility.yul\":16416:16425   */\n      dup4\n        /* \"#utility.yul\":16412:16429   */\n      add\n        /* \"#utility.yul\":16403:16409   */\n      dup7\n        /* \"#utility.yul\":16359:16430   */\n      tag_318\n      jump\t// in\n    tag_370:\n        /* \"#utility.yul\":16440:16512   */\n      tag_371\n        /* \"#utility.yul\":16508:16510   */\n      0x20\n        /* \"#utility.yul\":16497:16506   */\n      dup4\n        /* \"#utility.yul\":16493:16511   */\n      add\n        /* \"#utility.yul\":16484:16490   */\n      dup6\n        /* \"#utility.yul\":16440:16512   */\n      tag_249\n      jump\t// in\n    tag_371:\n        /* \"#utility.yul\":16522:16607   */\n      tag_372\n        /* \"#utility.yul\":16603:16605   */\n      0x40\n        /* \"#utility.yul\":16592:16601   */\n      dup4\n        /* \"#utility.yul\":16588:16606   */\n      add\n        /* \"#utility.yul\":16579:16585   */\n      dup5\n        /* \"#utility.yul\":16522:16607   */\n      tag_270\n      jump\t// in\n    tag_372:\n        /* \"#utility.yul\":16313:16614   */\n      swap5\n      swap4\n      pop\n      pop\n      pop\n      pop\n      jump\t// out\n        /* \"#utility.yul\":16620:17062   */\n    tag_134:\n      0x00\n        /* \"#utility.yul\":16807:16809   */\n      0x60\n        /* \"#utility.yul\":16796:16805   */\n      dup3\n        /* \"#utility.yul\":16792:16810   */\n      add\n        /* \"#utility.yul\":16784:16810   */\n      swap1\n      pop\n        /* \"#utility.yul\":16820:16891   */\n      tag_374\n        /* \"#utility.yul\":16888:16889   */\n      0x00\n        /* \"#utility.yul\":16877:16886   */\n      dup4\n        /* \"#utility.yul\":16873:16890   */\n      add\n        /* \"#utility.yul\":16864:16870   */\n      dup7\n        /* \"#utility.yul\":16820:16891   */\n      tag_318\n      jump\t// in\n    tag_374:\n        /* \"#utility.yul\":16901:16973   */\n      tag_375\n        /* \"#utility.yul\":16969:16971   */\n      0x20\n        /* \"#utility.yul\":16958:16967   */\n      dup4\n        /* \"#utility.yul\":16954:16972   */\n      add\n        /* \"#utility.yul\":16945:16951   */\n      dup6\n        /* \"#utility.yul\":16901:16973   */\n      tag_249\n      jump\t// in\n    tag_375:\n        /* \"#utility.yul\":16983:17055   */\n      tag_376\n        /* \"#utility.yul\":17051:17053   */\n      0x40\n        /* \"#utility.yul\":17040:17049   */\n      dup4\n        /* \"#utility.yul\":17036:17054   */\n      add\n        /* \"#utility.yul\":17027:17033   */\n      dup5\n        /* \"#utility.yul\":16983:17055   */\n      tag_318\n      jump\t// in\n    tag_376:\n        /* \"#utility.yul\":16774:17062   */\n      swap5\n      swap4\n      pop\n      pop\n      pop\n      pop\n      jump\t// out\n        /* \"#utility.yul\":17068:17200   */\n    tag_259:\n      0x00\n        /* \"#utility.yul\":17158:17161   */\n      dup2\n        /* \"#utility.yul\":17150:17161   */\n      swap1\n      pop\n        /* \"#utility.yul\":17188:17192   */\n      0x20\n        /* \"#utility.yul\":17183:17186   */\n      dup3\n        /* \"#utility.yul\":17179:17193   */\n      add\n        /* \"#utility.yul\":17171:17193   */\n      swap1\n      pop\n        /* \"#utility.yul\":17140:17200   */\n      swap2\n      swap1\n      pop\n      jump\t// out\n        /* \"#utility.yul\":17206:17320   */\n    tag_255:\n      0x00\n        /* \"#utility.yul\":17307:17312   */\n      dup2\n        /* \"#utility.yul\":17301:17313   */\n      mload\n        /* \"#utility.yul\":17291:17313   */\n      swap1\n      pop\n        /* \"#utility.yul\":17280:17320   */\n      swap2\n      swap1\n      pop\n      jump\t// out\n        /* \"#utility.yul\":17326:17439   */\n    tag_265:\n      0x00\n        /* \"#utility.yul\":17428:17432   */\n      0x20\n        /* \"#utility.yul\":17423:17426   */\n      dup3\n        /* \"#utility.yul\":17419:17433   */\n      add\n        /* \"#utility.yul\":17411:17433   */\n      swap1\n      pop\n        /* \"#utility.yul\":17401:17439   */\n      swap2\n      swap1\n      pop\n      jump\t// out\n        /* \"#utility.yul\":17445:17629   */\n    tag_257:\n      0x00\n        /* \"#utility.yul\":17578:17584   */\n      dup3\n        /* \"#utility.yul\":17573:17576   */\n      dup3\n        /* \"#utility.yul\":17566:17585   */\n      mstore\n        /* \"#utility.yul\":17618:17622   */\n      0x20\n        /* \"#utility.yul\":17613:17616   */\n      dup3\n        /* \"#utility.yul\":17609:17623   */\n      add\n        /* \"#utility.yul\":17594:17623   */\n      swap1\n      pop\n        /* \"#utility.yul\":17556:17629   */\n      swap3\n      swap2\n      pop\n      pop\n      jump\t// out\n        /* \"#utility.yul\":17635:17782   */\n    tag_305:\n      0x00\n        /* \"#utility.yul\":17773:17776   */\n      dup2\n        /* \"#utility.yul\":17758:17776   */\n      swap1\n      pop\n        /* \"#utility.yul\":17748:17782   */\n      swap3\n      swap2\n      pop\n      pop\n      jump\t// out\n        /* \"#utility.yul\":17788:17957   */\n    tag_277:\n      0x00\n        /* \"#utility.yul\":17906:17912   */\n      dup3\n        /* \"#utility.yul\":17901:17904   */\n      dup3\n        /* \"#utility.yul\":17894:17913   */\n      mstore\n        /* \"#utility.yul\":17946:17950   */\n      0x20\n        /* \"#utility.yul\":17941:17944   */\n      dup3\n        /* \"#utility.yul\":17937:17951   */\n      add\n        /* \"#utility.yul\":17922:17951   */\n      swap1\n      pop\n        /* \"#utility.yul\":17884:17957   */\n      swap3\n      swap2\n      pop\n      pop\n      jump\t// out\n        /* \"#utility.yul\":17963:18268   */\n    tag_129:\n      0x00\n        /* \"#utility.yul\":18022:18042   */\n      tag_384\n        /* \"#utility.yul\":18040:18041   */\n      dup3\n        /* \"#utility.yul\":18022:18042   */\n      tag_321\n      jump\t// in\n    tag_384:\n        /* \"#utility.yul\":18017:18042   */\n      swap2\n      pop\n        /* \"#utility.yul\":18056:18076   */\n      tag_385\n        /* \"#utility.yul\":18074:18075   */\n      dup4\n        /* \"#utility.yul\":18056:18076   */\n      tag_321\n      jump\t// in\n    tag_385:\n        /* \"#utility.yul\":18051:18076   */\n      swap3\n      pop\n        /* \"#utility.yul\":18210:18211   */\n      dup3\n        /* \"#utility.yul\":18142:18208   */\n      0xffffffffffffffffffffffffffffffffffffffffffffffffffffffffffffffff\n        /* \"#utility.yul\":18138:18212   */\n      sub\n        /* \"#utility.yul\":18135:18136   */\n      dup3\n        /* \"#utility.yul\":18132:18213   */\n      gt\n        /* \"#utility.yul\":18129:18131   */\n      iszero\n      tag_386\n      jumpi\n        /* \"#utility.yul\":18216:18234   */\n      tag_387\n      tag_388\n      jump\t// in\n    tag_387:\n        /* \"#utility.yul\":18129:18131   */\n    tag_386:\n        /* \"#utility.yul\":18260:18261   */\n      dup3\n        /* \"#utility.yul\":18257:18258   */\n      dup3\n        /* \"#utility.yul\":18253:18262   */\n      add\n        /* \"#utility.yul\":18246:18262   */\n      swap1\n      pop\n        /* \"#utility.yul\":18007:18268   */\n      swap3\n      swap2\n      pop\n      pop\n      jump\t// out\n        /* \"#utility.yul\":18274:18465   */\n    tag_174:\n      0x00\n        /* \"#utility.yul\":18334:18354   */\n      tag_390\n        /* \"#utility.yul\":18352:18353   */\n      dup3\n        /* \"#utility.yul\":18334:18354   */\n      tag_321\n      jump\t// in\n    tag_390:\n        /* \"#utility.yul\":18329:18354   */\n      swap2\n      pop\n        /* \"#utility.yul\":18368:18388   */\n      tag_391\n        /* \"#utility.yul\":18386:18387   */\n      dup4\n        /* \"#utility.yul\":18368:18388   */\n      tag_321\n      jump\t// in\n    tag_391:\n        /* \"#utility.yul\":18363:18388   */\n      swap3\n      pop\n        /* \"#utility.yul\":18407:18408   */\n      dup3\n        /* \"#utility.yul\":18404:18405   */\n      dup3\n        /* \"#utility.yul\":18401:18409   */\n      lt\n        /* \"#utility.yul\":18398:18400   */\n      iszero\n      tag_392\n      jumpi\n        /* \"#utility.yul\":18412:18430   */\n      tag_393\n      tag_388\n      jump\t// in\n    tag_393:\n        /* \"#utility.yul\":18398:18400   */\n    tag_392:\n        /* \"#utility.yul\":18457:18458   */\n      dup3\n        /* \"#utility.yul\":18454:18455   */\n      dup3\n        /* \"#utility.yul\":18450:18459   */\n      sub\n        /* \"#utility.yul\":18442:18459   */\n      swap1\n      pop\n        /* \"#utility.yul\":18319:18465   */\n      swap3\n      swap2\n      pop\n      pop\n      jump\t// out\n        /* \"#utility.yul\":18471:18567   */\n    tag_248:\n      0x00\n        /* \"#utility.yul\":18537:18561   */\n      tag_395\n        /* \"#utility.yul\":18555:18560   */\n      dup3\n        /* \"#utility.yul\":18537:18561   */\n      tag_396\n      jump\t// in\n    tag_395:\n        /* \"#utility.yul\":18526:18561   */\n      swap1\n      pop\n        /* \"#utility.yul\":18516:18567   */\n      swap2\n      swap1\n      pop\n      jump\t// out\n        /* \"#utility.yul\":18573:18677   */\n    tag_245:\n      0x00\n        /* \"#utility.yul\":18647:18671   */\n      tag_398\n        /* \"#utility.yul\":18665:18670   */\n      dup3\n        /* \"#utility.yul\":18647:18671   */\n      tag_396\n      jump\t// in\n    tag_398:\n        /* \"#utility.yul\":18636:18671   */\n      swap1\n      pop\n        /* \"#utility.yul\":18626:18677   */\n      swap2\n      swap1\n      pop\n      jump\t// out\n        /* \"#utility.yul\":18683:18773   */\n    tag_269:\n      0x00\n        /* \"#utility.yul\":18760:18765   */\n      dup2\n        /* \"#utility.yul\":18753:18766   */\n      iszero\n        /* \"#utility.yul\":18746:18767   */\n      iszero\n        /* \"#utility.yul\":18735:18767   */\n      swap1\n      pop\n        /* \"#utility.yul\":18725:18773   */\n      swap2\n      swap1\n      pop\n      jump\t// out\n        /* \"#utility.yul\":18779:18920   */\n    tag_400:\n      0x00\n        /* \"#utility.yul\":18860:18865   */\n      dup2\n        /* \"#utility.yul\":18849:18865   */\n      swap1\n      pop\n        /* \"#utility.yul\":18866:18914   */\n      tag_402\n        /* \"#utility.yul\":18908:18913   */\n      dup3\n        /* \"#utility.yul\":18866:18914   */\n      tag_403\n      jump\t// in\n    tag_402:\n        /* \"#utility.yul\":18839:18920   */\n      swap2\n      swap1\n      pop\n      jump\t// out\n        /* \"#utility.yul\":18926:19052   */\n    tag_396:\n      0x00\n        /* \"#utility.yul\":19003:19045   */\n      0xffffffffffffffffffffffffffffffffffffffff\n        /* \"#utility.yul\":18996:19001   */\n      dup3\n        /* \"#utility.yul\":18992:19046   */\n      and\n        /* \"#utility.yul\":18981:19046   */\n      swap1\n      pop\n        /* \"#utility.yul\":18971:19052   */\n      swap2\n      swap1\n      pop\n      jump\t// out\n        /* \"#utility.yul\":19058:19135   */\n    tag_321:\n      0x00\n        /* \"#utility.yul\":19124:19129   */\n      dup2\n        /* \"#utility.yul\":19113:19129   */\n      swap1\n      pop\n        /* \"#utility.yul\":19103:19135   */\n      swap2\n      swap1\n      pop\n      jump\t// out\n        /* \"#utility.yul\":19141:19275   */\n    tag_241:\n      0x00\n        /* \"#utility.yul\":19232:19269   */\n      tag_407\n        /* \"#utility.yul\":19263:19268   */\n      dup3\n        /* \"#utility.yul\":19232:19269   */\n      tag_408\n      jump\t// in\n    tag_407:\n        /* \"#utility.yul\":19219:19269   */\n      swap1\n      pop\n        /* \"#utility.yul\":19209:19275   */\n      swap2\n      swap1\n      pop\n      jump\t// out\n        /* \"#utility.yul\":19281:19422   */\n    tag_273:\n      0x00\n        /* \"#utility.yul\":19377:19416   */\n      tag_410\n        /* \"#utility.yul\":19410:19415   */\n      dup3\n        /* \"#utility.yul\":19377:19416   */\n      tag_400\n      jump\t// in\n    tag_410:\n        /* \"#utility.yul\":19364:19416   */\n      swap1\n      pop\n        /* \"#utility.yul\":19354:19422   */\n      swap2\n      swap1\n      pop\n      jump\t// out\n        /* \"#utility.yul\":19428:19554   */\n    tag_408:\n      0x00\n        /* \"#utility.yul\":19511:19548   */\n      tag_412\n        /* \"#utility.yul\":19542:19547   */\n      dup3\n        /* \"#utility.yul\":19511:19548   */\n      tag_413\n      jump\t// in\n    tag_412:\n        /* \"#utility.yul\":19498:19548   */\n      swap1\n      pop\n        /* \"#utility.yul\":19488:19554   */\n      swap2\n      swap1\n      pop\n      jump\t// out\n        /* \"#utility.yul\":19560:19673   */\n    tag_413:\n      0x00\n        /* \"#utility.yul\":19643:19667   */\n      tag_415\n        /* \"#utility.yul\":19661:19666   */\n      dup3\n        /* \"#utility.yul\":19643:19667   */\n      tag_396\n      jump\t// in\n    tag_415:\n        /* \"#utility.yul\":19630:19667   */\n      swap1\n      pop\n        /* \"#utility.yul\":19620:19673   */\n      swap2\n      swap1\n      pop\n      jump\t// out\n        /* \"#utility.yul\":19679:19912   */\n    tag_206:\n      0x00\n        /* \"#utility.yul\":19741:19765   */\n      tag_417\n        /* \"#utility.yul\":19759:19764   */\n      dup3\n        /* \"#utility.yul\":19741:19765   */\n      tag_321\n      jump\t// in\n    tag_417:\n        /* \"#utility.yul\":19732:19765   */\n      swap2\n      pop\n        /* \"#utility.yul\":19787:19853   */\n      0xffffffffffffffffffffffffffffffffffffffffffffffffffffffffffffffff\n        /* \"#utility.yul\":19780:19785   */\n      dup3\n        /* \"#utility.yul\":19777:19854   */\n      eq\n        /* \"#utility.yul\":19774:19776   */\n      iszero\n      tag_418\n      jumpi\n        /* \"#utility.yul\":19857:19875   */\n      tag_419\n      tag_388\n      jump\t// in\n    tag_419:\n        /* \"#utility.yul\":19774:19776   */\n    tag_418:\n        /* \"#utility.yul\":19904:19905   */\n      0x01\n        /* \"#utility.yul\":19897:19902   */\n      dup3\n        /* \"#utility.yul\":19893:19906   */\n      add\n        /* \"#utility.yul\":19886:19906   */\n      swap1\n      pop\n        /* \"#utility.yul\":19722:19912   */\n      swap2\n      swap1\n      pop\n      jump\t// out\n        /* \"#utility.yul\":19918:20098   */\n    tag_388:\n        /* \"#utility.yul\":19966:20043   */\n      0x4e487b7100000000000000000000000000000000000000000000000000000000\n        /* \"#utility.yul\":19963:19964   */\n      0x00\n        /* \"#utility.yul\":19956:20044   */\n      mstore\n        /* \"#utility.yul\":20063:20067   */\n      0x11\n        /* \"#utility.yul\":20060:20061   */\n      0x04\n        /* \"#utility.yul\":20053:20068   */\n      mstore\n        /* \"#utility.yul\":20087:20091   */\n      0x24\n        /* \"#utility.yul\":20084:20085   */\n      0x00\n        /* \"#utility.yul\":20077:20092   */\n      revert\n        /* \"#utility.yul\":20104:20284   */\n    tag_421:\n        /* \"#utility.yul\":20152:20229   */\n      0x4e487b7100000000000000000000000000000000000000000000000000000000\n        /* \"#utility.yul\":20149:20150   */\n      0x00\n        /* \"#utility.yul\":20142:20230   */\n      mstore\n        /* \"#utility.yul\":20249:20253   */\n      0x21\n        /* \"#utility.yul\":20246:20247   */\n      0x04\n        /* \"#utility.yul\":20239:20254   */\n      mstore\n        /* \"#utility.yul\":20273:20277   */\n      0x24\n        /* \"#utility.yul\":20270:20271   */\n      0x00\n        /* \"#utility.yul\":20263:20278   */\n      revert\n        /* \"#utility.yul\":20290:20410   */\n    tag_403:\n        /* \"#utility.yul\":20378:20379   */\n      0x03\n        /* \"#utility.yul\":20371:20376   */\n      dup2\n        /* \"#utility.yul\":20368:20380   */\n      lt\n        /* \"#utility.yul\":20358:20360   */\n      tag_424\n      jumpi\n        /* \"#utility.yul\":20384:20402   */\n      tag_425\n      tag_421\n      jump\t// in\n    tag_425:\n        /* \"#utility.yul\":20358:20360   */\n    tag_424:\n        /* \"#utility.yul\":20348:20410   */\n      pop\n      jump\t// out\n        /* \"#utility.yul\":20416:20538   */\n    tag_215:\n        /* \"#utility.yul\":20489:20513   */\n      tag_427\n        /* \"#utility.yul\":20507:20512   */\n      dup2\n        /* \"#utility.yul\":20489:20513   */\n      tag_248\n      jump\t// in\n    tag_427:\n        /* \"#utility.yul\":20482:20487   */\n      dup2\n        /* \"#utility.yul\":20479:20514   */\n      eq\n        /* \"#utility.yul\":20469:20471   */\n      tag_428\n      jumpi\n        /* \"#utility.yul\":20528:20529   */\n      0x00\n        /* \"#utility.yul\":20525:20526   */\n      dup1\n        /* \"#utility.yul\":20518:20530   */\n      revert\n        /* \"#utility.yul\":20469:20471   */\n    tag_428:\n        /* \"#utility.yul\":20459:20538   */\n      pop\n      jump\t// out\n        /* \"#utility.yul\":20544:20658   */\n    tag_219:\n        /* \"#utility.yul\":20632:20633   */\n      0x03\n        /* \"#utility.yul\":20625:20630   */\n      dup2\n        /* \"#utility.yul\":20622:20634   */\n      lt\n        /* \"#utility.yul\":20612:20614   */\n      tag_430\n      jumpi\n        /* \"#utility.yul\":20648:20649   */\n      0x00\n        /* \"#utility.yul\":20645:20646   */\n      dup1\n        /* \"#utility.yul\":20638:20650   */\n      revert\n        /* \"#utility.yul\":20612:20614   */\n    tag_430:\n        /* \"#utility.yul\":20602:20658   */\n      pop\n      jump\t// out\n        /* \"#utility.yul\":20664:20786   */\n    tag_223:\n        /* \"#utility.yul\":20737:20761   */\n      tag_432\n        /* \"#utility.yul\":20755:20760   */\n      dup2\n        /* \"#utility.yul\":20737:20761   */\n      tag_321\n      jump\t// in\n    tag_432:\n        /* \"#utility.yul\":20730:20735   */\n      dup2\n        /* \"#utility.yul\":20727:20762   */\n      eq\n        /* \"#utility.yul\":20717:20719   */\n      tag_433\n      jumpi\n        /* \"#utility.yul\":20776:20777   */\n      0x00\n        /* \"#utility.yul\":20773:20774   */\n      dup1\n        /* \"#utility.yul\":20766:20778   */\n      revert\n        /* \"#utility.yul\":20717:20719   */\n    tag_433:\n        /* \"#utility.yul\":20707:20786   */\n      pop\n      jump\t// out\n\n    auxdata: 0xa26469706673582212209058552776e10264c9a77aacc2214b82c90812670d1c720cebb0d9c1b551929164736f6c63430008000033\n}\n",
				"bytecode": {
					"linkReferences": {},
					"object": "608060405234801561001057600080fd5b506124b1806100206000396000f3fe6080604052600436106100c25760003560e01c80636d0f94081161007f578063a532db9011610059578063a532db9014610281578063aa8695aa146102be578063d5f8ab89146102e7578063d8f4ee5b14610310576100c2565b80636d0f9408146101ec57806399cb043a1461022d578063a4b2409e14610258576100c2565b80630a3b91d9146100c7578063155dd5ee146101045780634b8e3a171461012d5780635114cb5214610156578063565834ee1461017257806368209707146101af575b600080fd5b3480156100d357600080fd5b506100ee60048036038101906100e99190611a25565b610339565b6040516100fb9190611f4a565b60405180910390f35b34801561011057600080fd5b5061012b600480360381019061012691906119fc565b610368565b005b34801561013957600080fd5b50610154600480360381019061014f9190611a25565b61061a565b005b610170600480360381019061016b91906119fc565b610859565b005b34801561017e57600080fd5b5061019960048036038101906101949190611a25565b610ba9565b6040516101a69190612105565b60405180910390f35b3480156101bb57600080fd5b506101d660048036038101906101d191906119fc565b610bce565b6040516101e39190611f28565b60405180910390f35b3480156101f857600080fd5b50610213600480360381019061020e91906119fc565b610cc2565b604051610224959493929190611ed5565b60405180910390f35b34801561023957600080fd5b50610242610d3f565b60405161024f9190612105565b60405180910390f35b34801561026457600080fd5b5061027f600480360381019061027a91906119fc565b610d45565b005b34801561028d57600080fd5b506102a860048036038101906102a391906119d3565b610f35565b6040516102b59190612105565b60405180910390f35b3480156102ca57600080fd5b506102e560048036038101906102e09190611a25565b61104a565b005b3480156102f357600080fd5b5061030e60048036038101906103099190611a25565b611383565b005b34801561031c57600080fd5b50610337600480360381019061033291906119d3565b6117c2565b005b60046020528160005260406000206020528060005260406000206000915091509054906101000a900460ff1681565b8060008111801561037b57506005548111155b6103ba576040517f08c379a00000000000000000000000000000000000000000000000000000000081526004016103b190611fa5565b60405180910390fd5b600080600084815260200190815260200160002090508060000160009054906101000a900473ffffffffffffffffffffffffffffffffffffffff1673ffffffffffffffffffffffffffffffffffffffff163373ffffffffffffffffffffffffffffffffffffffff1614610462576040517f08c379a000000000000000000000000000000000000000000000000000000000815260040161045990611f85565b60405180910390fd5b8060020160019054906101000a900460ff16156104b4576040517f08c379a00000000000000000000000000000000000000000000000000000000081526004016104ab90612005565b60405180910390fd5b60008160010154905060018260020160016101000a81548160ff0219169083151502179055506000826001018190555060008260000160009054906101000a900473ffffffffffffffffffffffffffffffffffffffff1673ffffffffffffffffffffffffffffffffffffffff168260405161052e90611ec0565b60006040518083038185875af1925050503d806000811461056b576040519150601f19603f3d011682016040523d82523d6000602084013e610570565b606091505b50509050806105b4576040517f08c379a00000000000000000000000000000000000000000000000000000000081526004016105ab90611fc5565b60405180910390fd5b7ff440aec6b52895984d061d622e6edeba6210f7c3e059be920663140c084560d7858460000160009054906101000a900473ffffffffffffffffffffffffffffffffffffffff168460405161060b93929190612149565b60405180910390a15050505050565b8160008111801561062d57506005548111155b61066c576040517f08c379a000000000000000000000000000000000000000000000000000000000815260040161066390611fa5565b60405180910390fd5b600080600085815260200190815260200160002090508060000160009054906101000a900473ffffffffffffffffffffffffffffffffffffffff1673ffffffffffffffffffffffffffffffffffffffff163373ffffffffffffffffffffffffffffffffffffffff1614610714576040517f08c379a000000000000000000000000000000000000000000000000000000000815260040161070b90611f85565b60405180910390fd5b6004600085815260200190815260200160002060008473ffffffffffffffffffffffffffffffffffffffff1673ffffffffffffffffffffffffffffffffffffffff16815260200190815260200160002060009054906101000a900460ff166107b1576040517f08c379a00000000000000000000000000000000000000000000000000000000081526004016107a890612025565b60405180910390fd5b60006004600086815260200190815260200160002060008573ffffffffffffffffffffffffffffffffffffffff1673ffffffffffffffffffffffffffffffffffffffff16815260200190815260200160002060006101000a81548160ff0219169083151502179055507f043d0d9bf4e73c0519823631bd183a34bf9a8101ec7c12629b7021972b2be8d6848460405161084b929190612120565b60405180910390a150505050565b8060008111801561086c57506005548111155b6108ab576040517f08c379a00000000000000000000000000000000000000000000000000000000081526004016108a290611fa5565b60405180910390fd5b600080600084815260200190815260200160002090508060020160009054906101000a900460ff16610912576040517f08c379a000000000000000000000000000000000000000000000000000000000815260040161090990612065565b60405180910390fd5b8060020160019054906101000a900460ff1615610964576040517f08c379a000000000000000000000000000000000000000000000000000000000815260040161095b90611fe5565b60405180910390fd5b600034116109a7576040517f08c379a000000000000000000000000000000000000000000000000000000000815260040161099e906120e5565b60405180910390fd5b348160010160008282546109bb9190612243565b92505081905550346001600085815260200190815260200160002060003373ffffffffffffffffffffffffffffffffffffffff1673ffffffffffffffffffffffffffffffffffffffff1681526020019081526020016000206000828254610a229190612243565b925050819055506003600084815260200190815260200160002060003373ffffffffffffffffffffffffffffffffffffffff1673ffffffffffffffffffffffffffffffffffffffff16815260200190815260200160002060009054906101000a900460ff16610b695760026000848152602001908152602001600020339080600181540180825580915050600190039060005260206000200160009091909190916101000a81548173ffffffffffffffffffffffffffffffffffffffff021916908373ffffffffffffffffffffffffffffffffffffffff16021790555060016003600085815260200190815260200160002060003373ffffffffffffffffffffffffffffffffffffffff1673ffffffffffffffffffffffffffffffffffffffff16815260200190815260200160002060006101000a81548160ff0219169083151502179055505b7f61ac8e9b735e72d1382cbf7d35f2ff3764dae09d7faf7d90787bf7f9ae76e4c8833334604051610b9c939291906121b7565b60405180910390a1505050565b6001602052816000526040600020602052806000526040600020600091509150505481565b606081600081118015610be357506005548111155b610c22576040517f08c379a0000000000000000000000000000000000000000000000000000000008152600401610c1990611fa5565b60405180910390fd5b60026000848152602001908152602001600020805480602002602001604051908101604052809291908181526020018280548015610cb557602002820191906000526020600020905b8160009054906101000a900473ffffffffffffffffffffffffffffffffffffffff1673ffffffffffffffffffffffffffffffffffffffff1681526020019060010190808311610c6b575b5050505050915050919050565b60006020528060005260406000206000915090508060000160009054906101000a900473ffffffffffffffffffffffffffffffffffffffff16908060000160149054906101000a900460ff16908060010154908060020160009054906101000a900460ff16908060020160019054906101000a900460ff16905085565b60055481565b80600081118015610d5857506005548111155b610d97576040517f08c379a0000000000000000000000000000000000000000000000000000000008152600401610d8e90611fa5565b60405180910390fd5b60006001600084815260200190815260200160002060003373ffffffffffffffffffffffffffffffffffffffff1673ffffffffffffffffffffffffffffffffffffffff1681526020019081526020016000205411610e2a576040517f08c379a0000000000000000000000000000000000000000000000000000000008152600401610e21906120c5565b60405180910390fd5b6004600083815260200190815260200160002060003373ffffffffffffffffffffffffffffffffffffffff1673ffffffffffffffffffffffffffffffffffffffff16815260200190815260200160002060009054906101000a900460ff1615610ec8576040517f08c379a0000000000000000000000000000000000000000000000000000000008152600401610ebf90612045565b60405180910390fd5b60016004600084815260200190815260200160002060003373ffffffffffffffffffffffffffffffffffffffff1673ffffffffffffffffffffffffffffffffffffffff16815260200190815260200160002060006101000a81548160ff0219169083151502179055505050565b6000806002811115610f70577f4e487b7100000000000000000000000000000000000000000000000000000000600052602160045260246000fd5b826002811115610fa9577f4e487b7100000000000000000000000000000000000000000000000000000000600052602160045260246000fd5b1415610fba57620151809050611045565b60016002811115610ff4577f4e487b7100000000000000000000000000000000000000000000000000000000600052602160045260246000fd5b82600281111561102d577f4e487b7100000000000000000000000000000000000000000000000000000000600052602160045260246000fd5b141561103e576202a3009050611045565b6203f48090505b919050565b8160008111801561105d57506005548111155b61109c576040517f08c379a000000000000000000000000000000000000000000000000000000000815260040161109390611fa5565b60405180910390fd5b600080600085815260200190815260200160002090508060000160009054906101000a900473ffffffffffffffffffffffffffffffffffffffff1673ffffffffffffffffffffffffffffffffffffffff163373ffffffffffffffffffffffffffffffffffffffff1614611144576040517f08c379a000000000000000000000000000000000000000000000000000000000815260040161113b90611f85565b60405180910390fd5b60006001600086815260200190815260200160002060008573ffffffffffffffffffffffffffffffffffffffff1673ffffffffffffffffffffffffffffffffffffffff168152602001908152602001600020549050600081116111dc576040517f08c379a00000000000000000000000000000000000000000000000000000000081526004016111d390612085565b60405180910390fd5b8160010154811115611223576040517f08c379a000000000000000000000000000000000000000000000000000000000815260040161121a90611f65565b60405180910390fd5b808260010160008282546112379190612299565b9250508190555060006001600087815260200190815260200160002060008673ffffffffffffffffffffffffffffffffffffffff1673ffffffffffffffffffffffffffffffffffffffff1681526020019081526020016000208190555060008473ffffffffffffffffffffffffffffffffffffffff16826040516112ba90611ec0565b60006040518083038185875af1925050503d80600081146112f7576040519150601f19603f3d011682016040523d82523d6000602084013e6112fc565b606091505b5050905080611340576040517f08c379a0000000000000000000000000000000000000000000000000000000008152600401611337906120a5565b60405180910390fd5b7f7a482fdeb6bc9a1376f597068a214a7a39472bb2eff1b8cad21ba04f49ddca1b868684604051611373939291906121b7565b60405180910390a1505050505050565b8160008111801561139657506005548111155b6113d5576040517f08c379a00000000000000000000000000000000000000000000000000000000081526004016113cc90611fa5565b60405180910390fd5b600080600085815260200190815260200160002090508060000160009054906101000a900473ffffffffffffffffffffffffffffffffffffffff1673ffffffffffffffffffffffffffffffffffffffff163373ffffffffffffffffffffffffffffffffffffffff161461147d576040517f08c379a000000000000000000000000000000000000000000000000000000000815260040161147490611f85565b60405180910390fd5b6004600085815260200190815260200160002060008473ffffffffffffffffffffffffffffffffffffffff1673ffffffffffffffffffffffffffffffffffffffff16815260200190815260200160002060009054906101000a900460ff1661151a576040517f08c379a000000000000000000000000000000000000000000000000000000000815260040161151190612025565b60405180910390fd5b60006001600086815260200190815260200160002060008573ffffffffffffffffffffffffffffffffffffffff1673ffffffffffffffffffffffffffffffffffffffff168152602001908152602001600020549050600081116115b2576040517f08c379a00000000000000000000000000000000000000000000000000000000081526004016115a990612085565b60405180910390fd5b81600101548111156115f9576040517f08c379a00000000000000000000000000000000000000000000000000000000081526004016115f090611f65565b60405180910390fd5b60006004600087815260200190815260200160002060008673ffffffffffffffffffffffffffffffffffffffff1673ffffffffffffffffffffffffffffffffffffffff16815260200190815260200160002060006101000a81548160ff021916908315150217905550808260010160008282546116769190612299565b9250508190555060006001600087815260200190815260200160002060008673ffffffffffffffffffffffffffffffffffffffff1673ffffffffffffffffffffffffffffffffffffffff1681526020019081526020016000208190555060008473ffffffffffffffffffffffffffffffffffffffff16826040516116f990611ec0565b60006040518083038185875af1925050503d8060008114611736576040519150601f19603f3d011682016040523d82523d6000602084013e61173b565b606091505b505090508061177f576040517f08c379a0000000000000000000000000000000000000000000000000000000008152600401611776906120a5565b60405180910390fd5b7f7a482fdeb6bc9a1376f597068a214a7a39472bb2eff1b8cad21ba04f49ddca1b8686846040516117b2939291906121b7565b60405180910390a1505050505050565b600560008154809291906117d590612382565b91905055506040518060a001604052803373ffffffffffffffffffffffffffffffffffffffff16815260200182600281111561183a577f4e487b7100000000000000000000000000000000000000000000000000000000600052602160045260246000fd5b81526020016000815260200160011515815260200160001515815250600080600554815260200190815260200160002060008201518160000160006101000a81548173ffffffffffffffffffffffffffffffffffffffff021916908373ffffffffffffffffffffffffffffffffffffffff16021790555060208201518160000160146101000a81548160ff02191690836002811115611902577f4e487b7100000000000000000000000000000000000000000000000000000000600052602160045260246000fd5b02179055506040820151816001015560608201518160020160006101000a81548160ff02191690831515021790555060808201518160020160016101000a81548160ff0219169083151502179055509050507fc4afec621b00a8476c4eaa76d731dbaf984e16bd432f57543ac5e43615da1a98600554338360405161198993929190612180565b60405180910390a150565b6000813590506119a38161243d565b92915050565b6000813590506119b881612454565b92915050565b6000813590506119cd81612464565b92915050565b6000602082840312156119e557600080fd5b60006119f3848285016119a9565b91505092915050565b600060208284031215611a0e57600080fd5b6000611a1c848285016119be565b91505092915050565b60008060408385031215611a3857600080fd5b6000611a46858286016119be565b9250506020611a5785828601611994565b9150509250929050565b6000611a6d8383611a97565b60208301905092915050565b611a828161233a565b82525050565b611a91816122df565b82525050565b611aa0816122cd565b82525050565b611aaf816122cd565b82525050565b6000611ac0826121fe565b611aca8185612216565b9350611ad5836121ee565b8060005b83811015611b06578151611aed8882611a61565b9750611af883612209565b925050600181019050611ad9565b5085935050505092915050565b611b1c816122f1565b82525050565b611b2b8161234c565b82525050565b6000611b3e601c83612232565b91507f526566756e642065786365656473207374616c6c2062616c616e6365000000006000830152602082019050919050565b6000611b7e600f83612232565b91507f4e6f74207374616c6c206f776e657200000000000000000000000000000000006000830152602082019050919050565b6000611bbe601483612232565b91507f5374616c6c20646f6573206e6f742065786973740000000000000000000000006000830152602082019050919050565b6000611bfe601a83612232565b91507f5769746864726177616c207472616e73666572206661696c65640000000000006000830152602082019050919050565b6000611c3e602783612232565b91507f5374616c6c2066756e64732077697468647261776e2c206e6f206d6f7265207060008301527f61796d656e7473000000000000000000000000000000000000000000000000006020830152604082019050919050565b6000611ca4601183612232565b91507f416c72656164792077697468647261776e0000000000000000000000000000006000830152602082019050919050565b6000611ce4601383612232565b91507f4e6f20726566756e6420726571756573746564000000000000000000000000006000830152602082019050919050565b6000611d24601883612232565b91507f526566756e6420616c72656164792072657175657374656400000000000000006000830152602082019050919050565b6000611d64600f83612232565b91507f5374616c6c206e6f7420666f756e6400000000000000000000000000000000006000830152602082019050919050565b6000611da4600083612227565b9150600082019050919050565b6000611dbe601483612232565b91507f4e6f207061796d656e7420746f20726566756e640000000000000000000000006000830152602082019050919050565b6000611dfe601683612232565b91507f526566756e64207472616e73666572206661696c6564000000000000000000006000830152602082019050919050565b6000611e3e600f83612232565b91507f4e6f207061796d656e74206d61646500000000000000000000000000000000006000830152602082019050919050565b6000611e7e600d83612232565b91507f4d7573742073656e6420455448000000000000000000000000000000000000006000830152602082019050919050565b611eba81612330565b82525050565b6000611ecb82611d97565b9150819050919050565b600060a082019050611eea6000830188611a88565b611ef76020830187611b22565b611f046040830186611eb1565b611f116060830185611b13565b611f1e6080830184611b13565b9695505050505050565b60006020820190508181036000830152611f428184611ab5565b905092915050565b6000602082019050611f5f6000830184611b13565b92915050565b60006020820190508181036000830152611f7e81611b31565b9050919050565b60006020820190508181036000830152611f9e81611b71565b9050919050565b60006020820190508181036000830152611fbe81611bb1565b9050919050565b60006020820190508181036000830152611fde81611bf1565b9050919050565b60006020820190508181036000830152611ffe81611c31565b9050919050565b6000602082019050818103600083015261201e81611c97565b9050919050565b6000602082019050818103600083015261203e81611cd7565b9050919050565b6000602082019050818103600083015261205e81611d17565b9050919050565b6000602082019050818103600083015261207e81611d57565b9050919050565b6000602082019050818103600083015261209e81611db1565b9050919050565b600060208201905081810360008301526120be81611df1565b9050919050565b600060208201905081810360008301526120de81611e31565b9050919050565b600060208201905081810360008301526120fe81611e71565b9050919050565b600060208201905061211a6000830184611eb1565b92915050565b60006040820190506121356000830185611eb1565b6121426020830184611aa6565b9392505050565b600060608201905061215e6000830186611eb1565b61216b6020830185611a79565b6121786040830184611eb1565b949350505050565b60006060820190506121956000830186611eb1565b6121a26020830185611aa6565b6121af6040830184611b22565b949350505050565b60006060820190506121cc6000830186611eb1565b6121d96020830185611aa6565b6121e66040830184611eb1565b949350505050565b6000819050602082019050919050565b600081519050919050565b6000602082019050919050565b600082825260208201905092915050565b600081905092915050565b600082825260208201905092915050565b600061224e82612330565b915061225983612330565b9250827fffffffffffffffffffffffffffffffffffffffffffffffffffffffffffffffff0382111561228e5761228d6123cb565b5b828201905092915050565b60006122a482612330565b91506122af83612330565b9250828210156122c2576122c16123cb565b5b828203905092915050565b60006122d882612310565b9050919050565b60006122ea82612310565b9050919050565b60008115159050919050565b600081905061230b82612429565b919050565b600073ffffffffffffffffffffffffffffffffffffffff82169050919050565b6000819050919050565b60006123458261235e565b9050919050565b6000612357826122fd565b9050919050565b600061236982612370565b9050919050565b600061237b82612310565b9050919050565b600061238d82612330565b91507fffffffffffffffffffffffffffffffffffffffffffffffffffffffffffffffff8214156123c0576123bf6123cb565b5b600182019050919050565b7f4e487b7100000000000000000000000000000000000000000000000000000000600052601160045260246000fd5b7f4e487b7100000000000000000000000000000000000000000000000000000000600052602160045260246000fd5b6003811061243a576124396123fa565b5b50565b612446816122cd565b811461245157600080fd5b50565b6003811061246157600080fd5b50565b61246d81612330565b811461247857600080fd5b5056fea26469706673582212209058552776e10264c9a77aacc2214b82c90812670d1c720cebb0d9c1b551929164736f6c63430008000033",
					"opcodes": "PUSH1 0x80 PUSH1 0x40 MSTORE CALLVALUE DUP1 ISZERO PUSH2 0x10 JUMPI PUSH1 0x0 DUP1 REVERT JUMPDEST POP PUSH2 0x24B1 DUP1 PUSH2 0x20 PUSH1 0x0 CODECOPY PUSH1 0x0 RETURN INVALID PUSH1 0x80 PUSH1 0x40 MSTORE PUSH1 0x4 CALLDATASIZE LT PUSH2 0xC2 JUMPI PUSH1 0x0 CALLDATALOAD PUSH1 0xE0 SHR DUP1 PUSH4 0x6D0F9408 GT PUSH2 0x7F JUMPI DUP1 PUSH4 0xA532DB90 GT PUSH2 0x59 JUMPI DUP1 PUSH4 0xA532DB90 EQ PUSH2 0x281 JUMPI DUP1 PUSH4 0xAA8695AA EQ PUSH2 0x2BE JUMPI DUP1 PUSH4 0xD5F8AB89 EQ PUSH2 0x2E7 JUMPI DUP1 PUSH4 0xD8F4EE5B EQ PUSH2 0x310 JUMPI PUSH2 0xC2 JUMP JUMPDEST DUP1 PUSH4 0x6D0F9408 EQ PUSH2 0x1EC JUMPI DUP1 PUSH4 0x99CB043A EQ PUSH2 0x22D JUMPI DUP1 PUSH4 0xA4B2409E EQ PUSH2 0x258 JUMPI PUSH2 0xC2 JUMP JUMPDEST DUP1 PUSH4 0xA3B91D9 EQ PUSH2 0xC7 JUMPI DUP1 PUSH4 0x155DD5EE EQ PUSH2 0x104 JUMPI DUP1 PUSH4 0x4B8E3A17 EQ PUSH2 0x12D JUMPI DUP1 PUSH4 0x5114CB52 EQ PUSH2 0x156 JUMPI DUP1 PUSH4 0x565834EE EQ PUSH2 0x172 JUMPI DUP1 PUSH4 0x68209707 EQ PUSH2 0x1AF JUMPI JUMPDEST PUSH1 0x0 DUP1 REVERT JUMPDEST CALLVALUE DUP1 ISZERO PUSH2 0xD3 JUMPI PUSH1 0x0 DUP1 REVERT JUMPDEST POP PUSH2 0xEE PUSH1 0x4 DUP1 CALLDATASIZE SUB DUP2 ADD SWAP1 PUSH2 0xE9 SWAP2 SWAP1 PUSH2 0x1A25 JUMP JUMPDEST PUSH2 0x339 JUMP JUMPDEST PUSH1 0x40 MLOAD PUSH2 0xFB SWAP2 SWAP1 PUSH2 0x1F4A JUMP JUMPDEST PUSH1 0x40 MLOAD DUP1 SWAP2 SUB SWAP1 RETURN JUMPDEST CALLVALUE DUP1 ISZERO PUSH2 0x110 JUMPI PUSH1 0x0 DUP1 REVERT JUMPDEST POP PUSH2 0x12B PUSH1 0x4 DUP1 CALLDATASIZE SUB DUP2 ADD SWAP1 PUSH2 0x126 SWAP2 SWAP1 PUSH2 0x19FC JUMP JUMPDEST PUSH2 0x368 JUMP JUMPDEST STOP JUMPDEST CALLVALUE DUP1 ISZERO PUSH2 0x139 JUMPI PUSH1 0x0 DUP1 REVERT JUMPDEST POP PUSH2 0x154 PUSH1 0x4 DUP1 CALLDATASIZE SUB DUP2 ADD SWAP1 PUSH2 0x14F SWAP2 SWAP1 PUSH2 0x1A25 JUMP JUMPDEST PUSH2 0x61A JUMP JUMPDEST STOP JUMPDEST PUSH2 0x170 PUSH1 0x4 DUP1 CALLDATASIZE SUB DUP2 ADD SWAP1 PUSH2 0x16B SWAP2 SWAP1 PUSH2 0x19FC JUMP JUMPDEST PUSH2 0x859 JUMP JUMPDEST STOP JUMPDEST CALLVALUE DUP1 ISZERO PUSH2 0x17E JUMPI PUSH1 0x0 DUP1 REVERT JUMPDEST POP PUSH2 0x199 PUSH1 0x4 DUP1 CALLDATASIZE SUB DUP2 ADD SWAP1 PUSH2 0x194 SWAP2 SWAP1 PUSH2 0x1A25 JUMP JUMPDEST PUSH2 0xBA9 JUMP JUMPDEST PUSH1 0x40 MLOAD PUSH2 0x1A6 SWAP2 SWAP1 PUSH2 0x2105 JUMP JUMPDEST PUSH1 0x40 MLOAD DUP1 SWAP2 SUB SWAP1 RETURN JUMPDEST CALLVALUE DUP1 ISZERO PUSH2 0x1BB JUMPI PUSH1 0x0 DUP1 REVERT JUMPDEST POP PUSH2 0x1D6 PUSH1 0x4 DUP1 CALLDATASIZE SUB DUP2 ADD SWAP1 PUSH2 0x1D1 SWAP2 SWAP1 PUSH2 0x19FC JUMP JUMPDEST PUSH2 0xBCE JUMP JUMPDEST PUSH1 0x40 MLOAD PUSH2 0x1E3 SWAP2 SWAP1 PUSH2 0x1F28 JUMP JUMPDEST PUSH1 0x40 MLOAD DUP1 SWAP2 SUB SWAP1 RETURN JUMPDEST CALLVALUE DUP1 ISZERO PUSH2 0x1F8 JUMPI PUSH1 0x0 DUP1 REVERT JUMPDEST POP PUSH2 0x213 PUSH1 0x4 DUP1 CALLDATASIZE SUB DUP2 ADD SWAP1 PUSH2 0x20E SWAP2 SWAP1 PUSH2 0x19FC JUMP JUMPDEST PUSH2 0xCC2 JUMP JUMPDEST PUSH1 0x40 MLOAD PUSH2 0x224 SWAP6 SWAP5 SWAP4 SWAP3 SWAP2 SWAP1 PUSH2 0x1ED5 JUMP JUMPDEST PUSH1 0x40 MLOAD DUP1 SWAP2 SUB SWAP1 RETURN JUMPDEST CALLVALUE DUP1 ISZERO PUSH2 0x239 JUMPI PUSH1 0x0 DUP1 REVERT JUMPDEST POP PUSH2 0x242 PUSH2 0xD3F JUMP JUMPDEST PUSH1 0x40 MLOAD PUSH2 0x24F SWAP2 SWAP1 PUSH2 0x2105 JUMP JUMPDEST PUSH1 0x40 MLOAD DUP1 SWAP2 SUB SWAP1 RETURN JUMPDEST CALLVALUE DUP1 ISZERO PUSH2 0x264 JUMPI PUSH1 0x0 DUP1 REVERT JUMPDEST POP PUSH2 0x27F PUSH1 0x4 DUP1 CALLDATASIZE SUB DUP2 ADD SWAP1 PUSH2 0x27A SWAP2 SWAP1 PUSH2 0x19FC JUMP JUMPDEST PUSH2 0xD45 JUMP JUMPDEST STOP JUMPDEST CALLVALUE DUP1 ISZERO PUSH2 0x28D JUMPI PUSH1 0x0 DUP1 REVERT JUMPDEST POP PUSH2 0x2A8 PUSH1 0x4 DUP1 CALLDATASIZE SUB DUP2 ADD SWAP1 PUSH2 0x2A3 SWAP2 SWAP1 PUSH2 0x19D3 JUMP JUMPDEST PUSH2 0xF35 JUMP JUMPDEST PUSH1 0x40 MLOAD PUSH2 0x2B5 SWAP2 SWAP1 PUSH2 0x2105 JUMP JUMPDEST PUSH1 0x40 MLOAD DUP1 SWAP2 SUB SWAP1 RETURN JUMPDEST CALLVALUE DUP1 ISZERO PUSH2 0x2CA JUMPI PUSH1 0x0 DUP1 REVERT JUMPDEST POP PUSH2 0x2E5 PUSH1 0x4 DUP1 CALLDATASIZE SUB DUP2 ADD SWAP1 PUSH2 0x2E0 SWAP2 SWAP1 PUSH2 0x1A25 JUMP JUMPDEST PUSH2 0x104A JUMP JUMPDEST STOP JUMPDEST CALLVALUE DUP1 ISZERO PUSH2 0x2F3 JUMPI PUSH1 0x0 DUP1 REVERT JUMPDEST POP PUSH2 0x30E PUSH1 0x4 DUP1 CALLDATASIZE SUB DUP2 ADD SWAP1 PUSH2 0x309 SWAP2 SWAP1 PUSH2 0x1A25 JUMP JUMPDEST PUSH2 0x1383 JUMP JUMPDEST STOP JUMPDEST CALLVALUE DUP1 ISZERO PUSH2 0x31C JUMPI PUSH1 0x0 DUP1 REVERT JUMPDEST POP PUSH2 0x337 PUSH1 0x4 DUP1 CALLDATASIZE SUB DUP2 ADD SWAP1 PUSH2 0x332 SWAP2 SWAP1 PUSH2 0x19D3 JUMP JUMPDEST PUSH2 0x17C2 JUMP JUMPDEST STOP JUMPDEST PUSH1 0x4 PUSH1 0x20 MSTORE DUP2 PUSH1 0x0 MSTORE PUSH1 0x40 PUSH1 0x0 KECCAK256 PUSH1 0x20 MSTORE DUP1 PUSH1 0x0 MSTORE PUSH1 0x40 PUSH1 0x0 KECCAK256 PUSH1 0x0 SWAP2 POP SWAP2 POP SWAP1 SLOAD SWAP1 PUSH2 0x100 EXP SWAP1 DIV PUSH1 0xFF AND DUP2 JUMP JUMPDEST DUP1 PUSH1 0x0 DUP2 GT DUP1 ISZERO PUSH2 0x37B JUMPI POP PUSH1 0x5 SLOAD DUP2 GT ISZERO JUMPDEST PUSH2 0x3BA JUMPI PUSH1 0x40 MLOAD PUSH32 0x8C379A000000000000000000000000000000000000000000000000000000000 DUP2 MSTORE PUSH1 0x4 ADD PUSH2 0x3B1 SWAP1 PUSH2 0x1FA5 JUMP JUMPDEST PUSH1 0x40 MLOAD DUP1 SWAP2 SUB SWAP1 REVERT JUMPDEST PUSH1 0x0 DUP1 PUSH1 0x0 DUP5 DUP2 MSTORE PUSH1 0x20 ADD SWAP1 DUP2 MSTORE PUSH1 0x20 ADD PUSH1 0x0 KECCAK256 SWAP1 POP DUP1 PUSH1 0x0 ADD PUSH1 0x0 SWAP1 SLOAD SWAP1 PUSH2 0x100 EXP SWAP1 DIV PUSH20 0xFFFFFFFFFFFFFFFFFFFFFFFFFFFFFFFFFFFFFFFF AND PUSH20 0xFFFFFFFFFFFFFFFFFFFFFFFFFFFFFFFFFFFFFFFF AND CALLER PUSH20 0xFFFFFFFFFFFFFFFFFFFFFFFFFFFFFFFFFFFFFFFF AND EQ PUSH2 0x462 JUMPI PUSH1 0x40 MLOAD PUSH32 0x8C379A000000000000000000000000000000000000000000000000000000000 DUP2 MSTORE PUSH1 0x4 ADD PUSH2 0x459 SWAP1 PUSH2 0x1F85 JUMP JUMPDEST PUSH1 0x40 MLOAD DUP1 SWAP2 SUB SWAP1 REVERT JUMPDEST DUP1 PUSH1 0x2 ADD PUSH1 0x1 SWAP1 SLOAD SWAP1 PUSH2 0x100 EXP SWAP1 DIV PUSH1 0xFF AND ISZERO PUSH2 0x4B4 JUMPI PUSH1 0x40 MLOAD PUSH32 0x8C379A000000000000000000000000000000000000000000000000000000000 DUP2 MSTORE PUSH1 0x4 ADD PUSH2 0x4AB SWAP1 PUSH2 0x2005 JUMP JUMPDEST PUSH1 0x40 MLOAD DUP1 SWAP2 SUB SWAP1 REVERT JUMPDEST PUSH1 0x0 DUP2 PUSH1 0x1 ADD SLOAD SWAP1 POP PUSH1 0x1 DUP3 PUSH1 0x2 ADD PUSH1 0x1 PUSH2 0x100 EXP DUP2 SLOAD DUP2 PUSH1 0xFF MUL NOT AND SWAP1 DUP4 ISZERO ISZERO MUL OR SWAP1 SSTORE POP PUSH1 0x0 DUP3 PUSH1 0x1 ADD DUP2 SWAP1 SSTORE POP PUSH1 0x0 DUP3 PUSH1 0x0 ADD PUSH1 0x0 SWAP1 SLOAD SWAP1 PUSH2 0x100 EXP SWAP1 DIV PUSH20 0xFFFFFFFFFFFFFFFFFFFFFFFFFFFFFFFFFFFFFFFF AND PUSH20 0xFFFFFFFFFFFFFFFFFFFFFFFFFFFFFFFFFFFFFFFF AND DUP3 PUSH1 0x40 MLOAD PUSH2 0x52E SWAP1 PUSH2 0x1EC0 JUMP JUMPDEST PUSH1 0x0 PUSH1 0x40 MLOAD DUP1 DUP4 SUB DUP2 DUP6 DUP8 GAS CALL SWAP3 POP POP POP RETURNDATASIZE DUP1 PUSH1 0x0 DUP2 EQ PUSH2 0x56B JUMPI PUSH1 0x40 MLOAD SWAP2 POP PUSH1 0x1F NOT PUSH1 0x3F RETURNDATASIZE ADD AND DUP3 ADD PUSH1 0x40 MSTORE RETURNDATASIZE DUP3 MSTORE RETURNDATASIZE PUSH1 0x0 PUSH1 0x20 DUP5 ADD RETURNDATACOPY PUSH2 0x570 JUMP JUMPDEST PUSH1 0x60 SWAP2 POP JUMPDEST POP POP SWAP1 POP DUP1 PUSH2 0x5B4 JUMPI PUSH1 0x40 MLOAD PUSH32 0x8C379A000000000000000000000000000000000000000000000000000000000 DUP2 MSTORE PUSH1 0x4 ADD PUSH2 0x5AB SWAP1 PUSH2 0x1FC5 JUMP JUMPDEST PUSH1 0x40 MLOAD DUP1 SWAP2 SUB SWAP1 REVERT JUMPDEST PUSH32 0xF440AEC6B52895984D061D622E6EDEBA6210F7C3E059BE920663140C084560D7 DUP6 DUP5 PUSH1 0x0 ADD PUSH1 0x0 SWAP1 SLOAD SWAP1 PUSH2 0x100 EXP SWAP1 DIV PUSH20 0xFFFFFFFFFFFFFFFFFFFFFFFFFFFFFFFFFFFFFFFF AND DUP5 PUSH1 0x40 MLOAD PUSH2 0x60B SWAP4 SWAP3 SWAP2 SWAP1 PUSH2 0x2149 JUMP JUMPDEST PUSH1 0x40 MLOAD DUP1 SWAP2 SUB SWAP1 LOG1 POP POP POP POP POP JUMP JUMPDEST DUP2 PUSH1 0x0 DUP2 GT DUP1 ISZERO PUSH2 0x62D JUMPI POP PUSH1 0x5 SLOAD DUP2 GT ISZERO JUMPDEST PUSH2 0x66C JUMPI PUSH1 0x40 MLOAD PUSH32 0x8C379A000000000000000000000000000000000000000000000000000000000 DUP2 MSTORE PUSH1 0x4 ADD PUSH2 0x663 SWAP1 PUSH2 0x1FA5 JUMP JUMPDEST PUSH1 0x40 MLOAD DUP1 SWAP2 SUB SWAP1 REVERT JUMPDEST PUSH1 0x0 DUP1 PUSH1 0x0 DUP6 DUP2 MSTORE PUSH1 0x20 ADD SWAP1 DUP2 MSTORE PUSH1 0x20 ADD PUSH1 0x0 KECCAK256 SWAP1 POP DUP1 PUSH1 0x0 ADD PUSH1 0x0 SWAP1 SLOAD SWAP1 PUSH2 0x100 EXP SWAP1 DIV PUSH20 0xFFFFFFFFFFFFFFFFFFFFFFFFFFFFFFFFFFFFFFFF AND PUSH20 0xFFFFFFFFFFFFFFFFFFFFFFFFFFFFFFFFFFFFFFFF AND CALLER PUSH20 0xFFFFFFFFFFFFFFFFFFFFFFFFFFFFFFFFFFFFFFFF AND EQ PUSH2 0x714 JUMPI PUSH1 0x40 MLOAD PUSH32 0x8C379A000000000000000000000000000000000000000000000000000000000 DUP2 MSTORE PUSH1 0x4 ADD PUSH2 0x70B SWAP1 PUSH2 0x1F85 JUMP JUMPDEST PUSH1 0x40 MLOAD DUP1 SWAP2 SUB SWAP1 REVERT JUMPDEST PUSH1 0x4 PUSH1 0x0 DUP6 DUP2 MSTORE PUSH1 0x20 ADD SWAP1 DUP2 MSTORE PUSH1 0x20 ADD PUSH1 0x0 KECCAK256 PUSH1 0x0 DUP5 PUSH20 0xFFFFFFFFFFFFFFFFFFFFFFFFFFFFFFFFFFFFFFFF AND PUSH20 0xFFFFFFFFFFFFFFFFFFFFFFFFFFFFFFFFFFFFFFFF AND DUP2 MSTORE PUSH1 0x20 ADD SWAP1 DUP2 MSTORE PUSH1 0x20 ADD PUSH1 0x0 KECCAK256 PUSH1 0x0 SWAP1 SLOAD SWAP1 PUSH2 0x100 EXP SWAP1 DIV PUSH1 0xFF AND PUSH2 0x7B1 JUMPI PUSH1 0x40 MLOAD PUSH32 0x8C379A000000000000000000000000000000000000000000000000000000000 DUP2 MSTORE PUSH1 0x4 ADD PUSH2 0x7A8 SWAP1 PUSH2 0x2025 JUMP JUMPDEST PUSH1 0x40 MLOAD DUP1 SWAP2 SUB SWAP1 REVERT JUMPDEST PUSH1 0x0 PUSH1 0x4 PUSH1 0x0 DUP7 DUP2 MSTORE PUSH1 0x20 ADD SWAP1 DUP2 MSTORE PUSH1 0x20 ADD PUSH1 0x0 KECCAK256 PUSH1 0x0 DUP6 PUSH20 0xFFFFFFFFFFFFFFFFFFFFFFFFFFFFFFFFFFFFFFFF AND PUSH20 0xFFFFFFFFFFFFFFFFFFFFFFFFFFFFFFFFFFFFFFFF AND DUP2 MSTORE PUSH1 0x20 ADD SWAP1 DUP2 MSTORE PUSH1 0x20 ADD PUSH1 0x0 KECCAK256 PUSH1 0x0 PUSH2 0x100 EXP DUP2 SLOAD DUP2 PUSH1 0xFF MUL NOT AND SWAP1 DUP4 ISZERO ISZERO MUL OR SWAP1 SSTORE POP PUSH32 0x43D0D9BF4E73C0519823631BD183A34BF9A8101EC7C12629B7021972B2BE8D6 DUP5 DUP5 PUSH1 0x40 MLOAD PUSH2 0x84B SWAP3 SWAP2 SWAP1 PUSH2 0x2120 JUMP JUMPDEST PUSH1 0x40 MLOAD DUP1 SWAP2 SUB SWAP1 LOG1 POP POP POP POP JUMP JUMPDEST DUP1 PUSH1 0x0 DUP2 GT DUP1 ISZERO PUSH2 0x86C JUMPI POP PUSH1 0x5 SLOAD DUP2 GT ISZERO JUMPDEST PUSH2 0x8AB JUMPI PUSH1 0x40 MLOAD PUSH32 0x8C379A000000000000000000000000000000000000000000000000000000000 DUP2 MSTORE PUSH1 0x4 ADD PUSH2 0x8A2 SWAP1 PUSH2 0x1FA5 JUMP JUMPDEST PUSH1 0x40 MLOAD DUP1 SWAP2 SUB SWAP1 REVERT JUMPDEST PUSH1 0x0 DUP1 PUSH1 0x0 DUP5 DUP2 MSTORE PUSH1 0x20 ADD SWAP1 DUP2 MSTORE PUSH1 0x20 ADD PUSH1 0x0 KECCAK256 SWAP1 POP DUP1 PUSH1 0x2 ADD PUSH1 0x0 SWAP1 SLOAD SWAP1 PUSH2 0x100 EXP SWAP1 DIV PUSH1 0xFF AND PUSH2 0x912 JUMPI PUSH1 0x40 MLOAD PUSH32 0x8C379A000000000000000000000000000000000000000000000000000000000 DUP2 MSTORE PUSH1 0x4 ADD PUSH2 0x909 SWAP1 PUSH2 0x2065 JUMP JUMPDEST PUSH1 0x40 MLOAD DUP1 SWAP2 SUB SWAP1 REVERT JUMPDEST DUP1 PUSH1 0x2 ADD PUSH1 0x1 SWAP1 SLOAD SWAP1 PUSH2 0x100 EXP SWAP1 DIV PUSH1 0xFF AND ISZERO PUSH2 0x964 JUMPI PUSH1 0x40 MLOAD PUSH32 0x8C379A000000000000000000000000000000000000000000000000000000000 DUP2 MSTORE PUSH1 0x4 ADD PUSH2 0x95B SWAP1 PUSH2 0x1FE5 JUMP JUMPDEST PUSH1 0x40 MLOAD DUP1 SWAP2 SUB SWAP1 REVERT JUMPDEST PUSH1 0x0 CALLVALUE GT PUSH2 0x9A7 JUMPI PUSH1 0x40 MLOAD PUSH32 0x8C379A000000000000000000000000000000000000000000000000000000000 DUP2 MSTORE PUSH1 0x4 ADD PUSH2 0x99E SWAP1 PUSH2 0x20E5 JUMP JUMPDEST PUSH1 0x40 MLOAD DUP1 SWAP2 SUB SWAP1 REVERT JUMPDEST CALLVALUE DUP2 PUSH1 0x1 ADD PUSH1 0x0 DUP3 DUP3 SLOAD PUSH2 0x9BB SWAP2 SWAP1 PUSH2 0x2243 JUMP JUMPDEST SWAP3 POP POP DUP2 SWAP1 SSTORE POP CALLVALUE PUSH1 0x1 PUSH1 0x0 DUP6 DUP2 MSTORE PUSH1 0x20 ADD SWAP1 DUP2 MSTORE PUSH1 0x20 ADD PUSH1 0x0 KECCAK256 PUSH1 0x0 CALLER PUSH20 0xFFFFFFFFFFFFFFFFFFFFFFFFFFFFFFFFFFFFFFFF AND PUSH20 0xFFFFFFFFFFFFFFFFFFFFFFFFFFFFFFFFFFFFFFFF AND DUP2 MSTORE PUSH1 0x20 ADD SWAP1 DUP2 MSTORE PUSH1 0x20 ADD PUSH1 0x0 KECCAK256 PUSH1 0x0 DUP3 DUP3 SLOAD PUSH2 0xA22 SWAP2 SWAP1 PUSH2 0x2243 JUMP JUMPDEST SWAP3 POP POP DUP2 SWAP1 SSTORE POP PUSH1 0x3 PUSH1 0x0 DUP5 DUP2 MSTORE PUSH1 0x20 ADD SWAP1 DUP2 MSTORE PUSH1 0x20 ADD PUSH1 0x0 KECCAK256 PUSH1 0x0 CALLER PUSH20 0xFFFFFFFFFFFFFFFFFFFFFFFFFFFFFFFFFFFFFFFF AND PUSH20 0xFFFFFFFFFFFFFFFFFFFFFFFFFFFFFFFFFFFFFFFF AND DUP2 MSTORE PUSH1 0x20 ADD SWAP1 DUP2 MSTORE PUSH1 0x20 ADD PUSH1 0x0 KECCAK256 PUSH1 0x0 SWAP1 SLOAD SWAP1 PUSH2 0x100 EXP SWAP1 DIV PUSH1 0xFF AND PUSH2 0xB69 JUMPI PUSH1 0x2 PUSH1 0x0 DUP5 DUP2 MSTORE PUSH1 0x20 ADD SWAP1 DUP2 MSTORE PUSH1 0x20 ADD PUSH1 0x0 KECCAK256 CALLER SWAP1 DUP1 PUSH1 0x1 DUP2 SLOAD ADD DUP1 DUP3 SSTORE DUP1 SWAP2 POP POP PUSH1 0x1 SWAP1 SUB SWAP1 PUSH1 0x0 MSTORE PUSH1 0x20 PUSH1 0x0 KECCAK256 ADD PUSH1 0x0 SWAP1 SWAP2 SWAP1 SWAP2 SWAP1 SWAP2 PUSH2 0x100 EXP DUP2 SLOAD DUP2 PUSH20 0xFFFFFFFFFFFFFFFFFFFFFFFFFFFFFFFFFFFFFFFF MUL NOT AND SWAP1 DUP4 PUSH20 0xFFFFFFFFFFFFFFFFFFFFFFFFFFFFFFFFFFFFFFFF AND MUL OR SWAP1 SSTORE POP PUSH1 0x1 PUSH1 0x3 PUSH1 0x0 DUP6 DUP2 MSTORE PUSH1 0x20 ADD SWAP1 DUP2 MSTORE PUSH1 0x20 ADD PUSH1 0x0 KECCAK256 PUSH1 0x0 CALLER PUSH20 0xFFFFFFFFFFFFFFFFFFFFFFFFFFFFFFFFFFFFFFFF AND PUSH20 0xFFFFFFFFFFFFFFFFFFFFFFFFFFFFFFFFFFFFFFFF AND DUP2 MSTORE PUSH1 0x20 ADD SWAP1 DUP2 MSTORE PUSH1 0x20 ADD PUSH1 0x0 KECCAK256 PUSH1 0x0 PUSH2 0x100 EXP DUP2 SLOAD DUP2 PUSH1 0xFF MUL NOT AND SWAP1 DUP4 ISZERO ISZERO MUL OR SWAP1 SSTORE POP JUMPDEST PUSH32 0x61AC8E9B735E72D1382CBF7D35F2FF3764DAE09D7FAF7D90787BF7F9AE76E4C8 DUP4 CALLER CALLVALUE PUSH1 0x40 MLOAD PUSH2 0xB9C SWAP4 SWAP3 SWAP2 SWAP1 PUSH2 0x21B7 JUMP JUMPDEST PUSH1 0x40 MLOAD DUP1 SWAP2 SUB SWAP1 LOG1 POP POP POP JUMP JUMPDEST PUSH1 0x1 PUSH1 0x20 MSTORE DUP2 PUSH1 0x0 MSTORE PUSH1 0x40 PUSH1 0x0 KECCAK256 PUSH1 0x20 MSTORE DUP1 PUSH1 0x0 MSTORE PUSH1 0x40 PUSH1 0x0 KECCAK256 PUSH1 0x0 SWAP2 POP SWAP2 POP POP SLOAD DUP2 JUMP JUMPDEST PUSH1 0x60 DUP2 PUSH1 0x0 DUP2 GT DUP1 ISZERO PUSH2 0xBE3 JUMPI POP PUSH1 0x5 SLOAD DUP2 GT ISZERO JUMPDEST PUSH2 0xC22 JUMPI PUSH1 0x40 MLOAD PUSH32 0x8C379A000000000000000000000000000000000000000000000000000000000 DUP2 MSTORE PUSH1 0x4 ADD PUSH2 0xC19 SWAP1 PUSH2 0x1FA5 JUMP JUMPDEST PUSH1 0x40 MLOAD DUP1 SWAP2 SUB SWAP1 REVERT JUMPDEST PUSH1 0x2 PUSH1 0x0 DUP5 DUP2 MSTORE PUSH1 0x20 ADD SWAP1 DUP2 MSTORE PUSH1 0x20 ADD PUSH1 0x0 KECCAK256 DUP1 SLOAD DUP1 PUSH1 0x20 MUL PUSH1 0x20 ADD PUSH1 0x40 MLOAD SWAP1 DUP2 ADD PUSH1 0x40 MSTORE DUP1 SWAP3 SWAP2 SWAP1 DUP2 DUP2 MSTORE PUSH1 0x20 ADD DUP3 DUP1 SLOAD DUP1 ISZERO PUSH2 0xCB5 JUMPI PUSH1 0x20 MUL DUP3 ADD SWAP2 SWAP1 PUSH1 0x0 MSTORE PUSH1 0x20 PUSH1 0x0 KECCAK256 SWAP1 JUMPDEST DUP2 PUSH1 0x0 SWAP1 SLOAD SWAP1 PUSH2 0x100 EXP SWAP1 DIV PUSH20 0xFFFFFFFFFFFFFFFFFFFFFFFFFFFFFFFFFFFFFFFF AND PUSH20 0xFFFFFFFFFFFFFFFFFFFFFFFFFFFFFFFFFFFFFFFF AND DUP2 MSTORE PUSH1 0x20 ADD SWAP1 PUSH1 0x1 ADD SWAP1 DUP1 DUP4 GT PUSH2 0xC6B JUMPI JUMPDEST POP POP POP POP POP SWAP2 POP POP SWAP2 SWAP1 POP JUMP JUMPDEST PUSH1 0x0 PUSH1 0x20 MSTORE DUP1 PUSH1 0x0 MSTORE PUSH1 0x40 PUSH1 0x0 KECCAK256 PUSH1 0x0 SWAP2 POP SWAP1 POP DUP1 PUSH1 0x0 ADD PUSH1 0x0 SWAP1 SLOAD SWAP1 PUSH2 0x100 EXP SWAP1 DIV PUSH20 0xFFFFFFFFFFFFFFFFFFFFFFFFFFFFFFFFFFFFFFFF AND SWAP1 DUP1 PUSH1 0x0 ADD PUSH1 0x14 SWAP1 SLOAD SWAP1 PUSH2 0x100 EXP SWAP1 DIV PUSH1 0xFF AND SWAP1 DUP1 PUSH1 0x1 ADD SLOAD SWAP1 DUP1 PUSH1 0x2 ADD PUSH1 0x0 SWAP1 SLOAD SWAP1 PUSH2 0x100 EXP SWAP1 DIV PUSH1 0xFF AND SWAP1 DUP1 PUSH1 0x2 ADD PUSH1 0x1 SWAP1 SLOAD SWAP1 PUSH2 0x100 EXP SWAP1 DIV PUSH1 0xFF AND SWAP1 POP DUP6 JUMP JUMPDEST PUSH1 0x5 SLOAD DUP2 JUMP JUMPDEST DUP1 PUSH1 0x0 DUP2 GT DUP1 ISZERO PUSH2 0xD58 JUMPI POP PUSH1 0x5 SLOAD DUP2 GT ISZERO JUMPDEST PUSH2 0xD97 JUMPI PUSH1 0x40 MLOAD PUSH32 0x8C379A000000000000000000000000000000000000000000000000000000000 DUP2 MSTORE PUSH1 0x4 ADD PUSH2 0xD8E SWAP1 PUSH2 0x1FA5 JUMP JUMPDEST PUSH1 0x40 MLOAD DUP1 SWAP2 SUB SWAP1 REVERT JUMPDEST PUSH1 0x0 PUSH1 0x1 PUSH1 0x0 DUP5 DUP2 MSTORE PUSH1 0x20 ADD SWAP1 DUP2 MSTORE PUSH1 0x20 ADD PUSH1 0x0 KECCAK256 PUSH1 0x0 CALLER PUSH20 0xFFFFFFFFFFFFFFFFFFFFFFFFFFFFFFFFFFFFFFFF AND PUSH20 0xFFFFFFFFFFFFFFFFFFFFFFFFFFFFFFFFFFFFFFFF AND DUP2 MSTORE PUSH1 0x20 ADD SWAP1 DUP2 MSTORE PUSH1 0x20 ADD PUSH1 0x0 KECCAK256 SLOAD GT PUSH2 0xE2A JUMPI PUSH1 0x40 MLOAD PUSH32 0x8C379A000000000000000000000000000000000000000000000000000000000 DUP2 MSTORE PUSH1 0x4 ADD PUSH2 0xE21 SWAP1 PUSH2 0x20C5 JUMP JUMPDEST PUSH1 0x40 MLOAD DUP1 SWAP2 SUB SWAP1 REVERT JUMPDEST PUSH1 0x4 PUSH1 0x0 DUP4 DUP2 MSTORE PUSH1 0x20 ADD SWAP1 DUP2 MSTORE PUSH1 0x20 ADD PUSH1 0x0 KECCAK256 PUSH1 0x0 CALLER PUSH20 0xFFFFFFFFFFFFFFFFFFFFFFFFFFFFFFFFFFFFFFFF AND PUSH20 0xFFFFFFFFFFFFFFFFFFFFFFFFFFFFFFFFFFFFFFFF AND DUP2 MSTORE PUSH1 0x20 ADD SWAP1 DUP2 MSTORE PUSH1 0x20 ADD PUSH1 0x0 KECCAK256 PUSH1 0x0 SWAP1 SLOAD SWAP1 PUSH2 0x100 EXP SWAP1 DIV PUSH1 0xFF AND ISZERO PUSH2 0xEC8 JUMPI PUSH1 0x40 MLOAD PUSH32 0x8C379A000000000000000000000000000000000000000000000000000000000 DUP2 MSTORE PUSH1 0x4 ADD PUSH2 0xEBF SWAP1 PUSH2 0x2045 JUMP JUMPDEST PUSH1 0x40 MLOAD DUP1 SWAP2 SUB SWAP1 REVERT JUMPDEST PUSH1 0x1 PUSH1 0x4 PUSH1 0x0 DUP5 DUP2 MSTORE PUSH1 0x20 ADD SWAP1 DUP2 MSTORE PUSH1 0x20 ADD PUSH1 0x0 KECCAK256 PUSH1 0x0 CALLER PUSH20 0xFFFFFFFFFFFFFFFFFFFFFFFFFFFFFFFFFFFFFFFF AND PUSH20 0xFFFFFFFFFFFFFFFFFFFFFFFFFFFFFFFFFFFFFFFF AND DUP2 MSTORE PUSH1 0x20 ADD SWAP1 DUP2 MSTORE PUSH1 0x20 ADD PUSH1 0x0 KECCAK256 PUSH1 0x0 PUSH2 0x100 EXP DUP2 SLOAD DUP2 PUSH1 0xFF MUL NOT AND SWAP1 DUP4 ISZERO ISZERO MUL OR SWAP1 SSTORE POP POP POP JUMP JUMPDEST PUSH1 0x0 DUP1 PUSH1 0x2 DUP2 GT ISZERO PUSH2 0xF70 JUMPI PUSH32 0x4E487B7100000000000000000000000000000000000000000000000000000000 PUSH1 0x0 MSTORE PUSH1 0x21 PUSH1 0x4 MSTORE PUSH1 0x24 PUSH1 0x0 REVERT JUMPDEST DUP3 PUSH1 0x2 DUP2 GT ISZERO PUSH2 0xFA9 JUMPI PUSH32 0x4E487B7100000000000000000000000000000000000000000000000000000000 PUSH1 0x0 MSTORE PUSH1 0x21 PUSH1 0x4 MSTORE PUSH1 0x24 PUSH1 0x0 REVERT JUMPDEST EQ ISZERO PUSH2 0xFBA JUMPI PUSH3 0x15180 SWAP1 POP PUSH2 0x1045 JUMP JUMPDEST PUSH1 0x1 PUSH1 0x2 DUP2 GT ISZERO PUSH2 0xFF4 JUMPI PUSH32 0x4E487B7100000000000000000000000000000000000000000000000000000000 PUSH1 0x0 MSTORE PUSH1 0x21 PUSH1 0x4 MSTORE PUSH1 0x24 PUSH1 0x0 REVERT JUMPDEST DUP3 PUSH1 0x2 DUP2 GT ISZERO PUSH2 0x102D JUMPI PUSH32 0x4E487B7100000000000000000000000000000000000000000000000000000000 PUSH1 0x0 MSTORE PUSH1 0x21 PUSH1 0x4 MSTORE PUSH1 0x24 PUSH1 0x0 REVERT JUMPDEST EQ ISZERO PUSH2 0x103E JUMPI PUSH3 0x2A300 SWAP1 POP PUSH2 0x1045 JUMP JUMPDEST PUSH3 0x3F480 SWAP1 POP JUMPDEST SWAP2 SWAP1 POP JUMP JUMPDEST DUP2 PUSH1 0x0 DUP2 GT DUP1 ISZERO PUSH2 0x105D JUMPI POP PUSH1 0x5 SLOAD DUP2 GT ISZERO JUMPDEST PUSH2 0x109C JUMPI PUSH1 0x40 MLOAD PUSH32 0x8C379A000000000000000000000000000000000000000000000000000000000 DUP2 MSTORE PUSH1 0x4 ADD PUSH2 0x1093 SWAP1 PUSH2 0x1FA5 JUMP JUMPDEST PUSH1 0x40 MLOAD DUP1 SWAP2 SUB SWAP1 REVERT JUMPDEST PUSH1 0x0 DUP1 PUSH1 0x0 DUP6 DUP2 MSTORE PUSH1 0x20 ADD SWAP1 DUP2 MSTORE PUSH1 0x20 ADD PUSH1 0x0 KECCAK256 SWAP1 POP DUP1 PUSH1 0x0 ADD PUSH1 0x0 SWAP1 SLOAD SWAP1 PUSH2 0x100 EXP SWAP1 DIV PUSH20 0xFFFFFFFFFFFFFFFFFFFFFFFFFFFFFFFFFFFFFFFF AND PUSH20 0xFFFFFFFFFFFFFFFFFFFFFFFFFFFFFFFFFFFFFFFF AND CALLER PUSH20 0xFFFFFFFFFFFFFFFFFFFFFFFFFFFFFFFFFFFFFFFF AND EQ PUSH2 0x1144 JUMPI PUSH1 0x40 MLOAD PUSH32 0x8C379A000000000000000000000000000000000000000000000000000000000 DUP2 MSTORE PUSH1 0x4 ADD PUSH2 0x113B SWAP1 PUSH2 0x1F85 JUMP JUMPDEST PUSH1 0x40 MLOAD DUP1 SWAP2 SUB SWAP1 REVERT JUMPDEST PUSH1 0x0 PUSH1 0x1 PUSH1 0x0 DUP7 DUP2 MSTORE PUSH1 0x20 ADD SWAP1 DUP2 MSTORE PUSH1 0x20 ADD PUSH1 0x0 KECCAK256 PUSH1 0x0 DUP6 PUSH20 0xFFFFFFFFFFFFFFFFFFFFFFFFFFFFFFFFFFFFFFFF AND PUSH20 0xFFFFFFFFFFFFFFFFFFFFFFFFFFFFFFFFFFFFFFFF AND DUP2 MSTORE PUSH1 0x20 ADD SWAP1 DUP2 MSTORE PUSH1 0x20 ADD PUSH1 0x0 KECCAK256 SLOAD SWAP1 POP PUSH1 0x0 DUP2 GT PUSH2 0x11DC JUMPI PUSH1 0x40 MLOAD PUSH32 0x8C379A000000000000000000000000000000000000000000000000000000000 DUP2 MSTORE PUSH1 0x4 ADD PUSH2 0x11D3 SWAP1 PUSH2 0x2085 JUMP JUMPDEST PUSH1 0x40 MLOAD DUP1 SWAP2 SUB SWAP1 REVERT JUMPDEST DUP2 PUSH1 0x1 ADD SLOAD DUP2 GT ISZERO PUSH2 0x1223 JUMPI PUSH1 0x40 MLOAD PUSH32 0x8C379A000000000000000000000000000000000000000000000000000000000 DUP2 MSTORE PUSH1 0x4 ADD PUSH2 0x121A SWAP1 PUSH2 0x1F65 JUMP JUMPDEST PUSH1 0x40 MLOAD DUP1 SWAP2 SUB SWAP1 REVERT JUMPDEST DUP1 DUP3 PUSH1 0x1 ADD PUSH1 0x0 DUP3 DUP3 SLOAD PUSH2 0x1237 SWAP2 SWAP1 PUSH2 0x2299 JUMP JUMPDEST SWAP3 POP POP DUP2 SWAP1 SSTORE POP PUSH1 0x0 PUSH1 0x1 PUSH1 0x0 DUP8 DUP2 MSTORE PUSH1 0x20 ADD SWAP1 DUP2 MSTORE PUSH1 0x20 ADD PUSH1 0x0 KECCAK256 PUSH1 0x0 DUP7 PUSH20 0xFFFFFFFFFFFFFFFFFFFFFFFFFFFFFFFFFFFFFFFF AND PUSH20 0xFFFFFFFFFFFFFFFFFFFFFFFFFFFFFFFFFFFFFFFF AND DUP2 MSTORE PUSH1 0x20 ADD SWAP1 DUP2 MSTORE PUSH1 0x20 ADD PUSH1 0x0 KECCAK256 DUP2 SWAP1 SSTORE POP PUSH1 0x0 DUP5 PUSH20 0xFFFFFFFFFFFFFFFFFFFFFFFFFFFFFFFFFFFFFFFF AND DUP3 PUSH1 0x40 MLOAD PUSH2 0x12BA SWAP1 PUSH2 0x1EC0 JUMP JUMPDEST PUSH1 0x0 PUSH1 0x40 MLOAD DUP1 DUP4 SUB DUP2 DUP6 DUP8 GAS CALL SWAP3 POP POP POP RETURNDATASIZE DUP1 PUSH1 0x0 DUP2 EQ PUSH2 0x12F7 JUMPI PUSH1 0x40 MLOAD SWAP2 POP PUSH1 0x1F NOT PUSH1 0x3F RETURNDATASIZE ADD AND DUP3 ADD PUSH1 0x40 MSTORE RETURNDATASIZE DUP3 MSTORE RETURNDATASIZE PUSH1 0x0 PUSH1 0x20 DUP5 ADD RETURNDATACOPY PUSH2 0x12FC JUMP JUMPDEST PUSH1 0x60 SWAP2 POP JUMPDEST POP POP SWAP1 POP DUP1 PUSH2 0x1340 JUMPI PUSH1 0x40 MLOAD PUSH32 0x8C379A000000000000000000000000000000000000000000000000000000000 DUP2 MSTORE PUSH1 0x4 ADD PUSH2 0x1337 SWAP1 PUSH2 0x20A5 JUMP JUMPDEST PUSH1 0x40 MLOAD DUP1 SWAP2 SUB SWAP1 REVERT JUMPDEST PUSH32 0x7A482FDEB6BC9A1376F597068A214A7A39472BB2EFF1B8CAD21BA04F49DDCA1B DUP7 DUP7 DUP5 PUSH1 0x40 MLOAD PUSH2 0x1373 SWAP4 SWAP3 SWAP2 SWAP1 PUSH2 0x21B7 JUMP JUMPDEST PUSH1 0x40 MLOAD DUP1 SWAP2 SUB SWAP1 LOG1 POP POP POP POP POP POP JUMP JUMPDEST DUP2 PUSH1 0x0 DUP2 GT DUP1 ISZERO PUSH2 0x1396 JUMPI POP PUSH1 0x5 SLOAD DUP2 GT ISZERO JUMPDEST PUSH2 0x13D5 JUMPI PUSH1 0x40 MLOAD PUSH32 0x8C379A000000000000000000000000000000000000000000000000000000000 DUP2 MSTORE PUSH1 0x4 ADD PUSH2 0x13CC SWAP1 PUSH2 0x1FA5 JUMP JUMPDEST PUSH1 0x40 MLOAD DUP1 SWAP2 SUB SWAP1 REVERT JUMPDEST PUSH1 0x0 DUP1 PUSH1 0x0 DUP6 DUP2 MSTORE PUSH1 0x20 ADD SWAP1 DUP2 MSTORE PUSH1 0x20 ADD PUSH1 0x0 KECCAK256 SWAP1 POP DUP1 PUSH1 0x0 ADD PUSH1 0x0 SWAP1 SLOAD SWAP1 PUSH2 0x100 EXP SWAP1 DIV PUSH20 0xFFFFFFFFFFFFFFFFFFFFFFFFFFFFFFFFFFFFFFFF AND PUSH20 0xFFFFFFFFFFFFFFFFFFFFFFFFFFFFFFFFFFFFFFFF AND CALLER PUSH20 0xFFFFFFFFFFFFFFFFFFFFFFFFFFFFFFFFFFFFFFFF AND EQ PUSH2 0x147D JUMPI PUSH1 0x40 MLOAD PUSH32 0x8C379A000000000000000000000000000000000000000000000000000000000 DUP2 MSTORE PUSH1 0x4 ADD PUSH2 0x1474 SWAP1 PUSH2 0x1F85 JUMP JUMPDEST PUSH1 0x40 MLOAD DUP1 SWAP2 SUB SWAP1 REVERT JUMPDEST PUSH1 0x4 PUSH1 0x0 DUP6 DUP2 MSTORE PUSH1 0x20 ADD SWAP1 DUP2 MSTORE PUSH1 0x20 ADD PUSH1 0x0 KECCAK256 PUSH1 0x0 DUP5 PUSH20 0xFFFFFFFFFFFFFFFFFFFFFFFFFFFFFFFFFFFFFFFF AND PUSH20 0xFFFFFFFFFFFFFFFFFFFFFFFFFFFFFFFFFFFFFFFF AND DUP2 MSTORE PUSH1 0x20 ADD SWAP1 DUP2 MSTORE PUSH1 0x20 ADD PUSH1 0x0 KECCAK256 PUSH1 0x0 SWAP1 SLOAD SWAP1 PUSH2 0x100 EXP SWAP1 DIV PUSH1 0xFF AND PUSH2 0x151A JUMPI PUSH1 0x40 MLOAD PUSH32 0x8C379A000000000000000000000000000000000000000000000000000000000 DUP2 MSTORE PUSH1 0x4 ADD PUSH2 0x1511 SWAP1 PUSH2 0x2025 JUMP JUMPDEST PUSH1 0x40 MLOAD DUP1 SWAP2 SUB SWAP1 REVERT JUMPDEST PUSH1 0x0 PUSH1 0x1 PUSH1 0x0 DUP7 DUP2 MSTORE PUSH1 0x20 ADD SWAP1 DUP2 MSTORE PUSH1 0x20 ADD PUSH1 0x0 KECCAK256 PUSH1 0x0 DUP6 PUSH20 0xFFFFFFFFFFFFFFFFFFFFFFFFFFFFFFFFFFFFFFFF AND PUSH20 0xFFFFFFFFFFFFFFFFFFFFFFFFFFFFFFFFFFFFFFFF AND DUP2 MSTORE PUSH1 0x20 ADD SWAP1 DUP2 MSTORE PUSH1 0x20 ADD PUSH1 0x0 KECCAK256 SLOAD SWAP1 POP PUSH1 0x0 DUP2 GT PUSH2 0x15B2 JUMPI PUSH1 0x40 MLOAD PUSH32 0x8C379A000000000000000000000000000000000000000000000000000000000 DUP2 MSTORE PUSH1 0x4 ADD PUSH2 0x15A9 SWAP1 PUSH2 0x2085 JUMP JUMPDEST PUSH1 0x40 MLOAD DUP1 SWAP2 SUB SWAP1 REVERT JUMPDEST DUP2 PUSH1 0x1 ADD SLOAD DUP2 GT ISZERO PUSH2 0x15F9 JUMPI PUSH1 0x40 MLOAD PUSH32 0x8C379A000000000000000000000000000000000000000000000000000000000 DUP2 MSTORE PUSH1 0x4 ADD PUSH2 0x15F0 SWAP1 PUSH2 0x1F65 JUMP JUMPDEST PUSH1 0x40 MLOAD DUP1 SWAP2 SUB SWAP1 REVERT JUMPDEST PUSH1 0x0 PUSH1 0x4 PUSH1 0x0 DUP8 DUP2 MSTORE PUSH1 0x20 ADD SWAP1 DUP2 MSTORE PUSH1 0x20 ADD PUSH1 0x0 KECCAK256 PUSH1 0x0 DUP7 PUSH20 0xFFFFFFFFFFFFFFFFFFFFFFFFFFFFFFFFFFFFFFFF AND PUSH20 0xFFFFFFFFFFFFFFFFFFFFFFFFFFFFFFFFFFFFFFFF AND DUP2 MSTORE PUSH1 0x20 ADD SWAP1 DUP2 MSTORE PUSH1 0x20 ADD PUSH1 0x0 KECCAK256 PUSH1 0x0 PUSH2 0x100 EXP DUP2 SLOAD DUP2 PUSH1 0xFF MUL NOT AND SWAP1 DUP4 ISZERO ISZERO MUL OR SWAP1 SSTORE POP DUP1 DUP3 PUSH1 0x1 ADD PUSH1 0x0 DUP3 DUP3 SLOAD PUSH2 0x1676 SWAP2 SWAP1 PUSH2 0x2299 JUMP JUMPDEST SWAP3 POP POP DUP2 SWAP1 SSTORE POP PUSH1 0x0 PUSH1 0x1 PUSH1 0x0 DUP8 DUP2 MSTORE PUSH1 0x20 ADD SWAP1 DUP2 MSTORE PUSH1 0x20 ADD PUSH1 0x0 KECCAK256 PUSH1 0x0 DUP7 PUSH20 0xFFFFFFFFFFFFFFFFFFFFFFFFFFFFFFFFFFFFFFFF AND PUSH20 0xFFFFFFFFFFFFFFFFFFFFFFFFFFFFFFFFFFFFFFFF AND DUP2 MSTORE PUSH1 0x20 ADD SWAP1 DUP2 MSTORE PUSH1 0x20 ADD PUSH1 0x0 KECCAK256 DUP2 SWAP1 SSTORE POP PUSH1 0x0 DUP5 PUSH20 0xFFFFFFFFFFFFFFFFFFFFFFFFFFFFFFFFFFFFFFFF AND DUP3 PUSH1 0x40 MLOAD PUSH2 0x16F9 SWAP1 PUSH2 0x1EC0 JUMP JUMPDEST PUSH1 0x0 PUSH1 0x40 MLOAD DUP1 DUP4 SUB DUP2 DUP6 DUP8 GAS CALL SWAP3 POP POP POP RETURNDATASIZE DUP1 PUSH1 0x0 DUP2 EQ PUSH2 0x1736 JUMPI PUSH1 0x40 MLOAD SWAP2 POP PUSH1 0x1F NOT PUSH1 0x3F RETURNDATASIZE ADD AND DUP3 ADD PUSH1 0x40 MSTORE RETURNDATASIZE DUP3 MSTORE RETURNDATASIZE PUSH1 0x0 PUSH1 0x20 DUP5 ADD RETURNDATACOPY PUSH2 0x173B JUMP JUMPDEST PUSH1 0x60 SWAP2 POP JUMPDEST POP POP SWAP1 POP DUP1 PUSH2 0x177F JUMPI PUSH1 0x40 MLOAD PUSH32 0x8C379A000000000000000000000000000000000000000000000000000000000 DUP2 MSTORE PUSH1 0x4 ADD PUSH2 0x1776 SWAP1 PUSH2 0x20A5 JUMP JUMPDEST PUSH1 0x40 MLOAD DUP1 SWAP2 SUB SWAP1 REVERT JUMPDEST PUSH32 0x7A482FDEB6BC9A1376F597068A214A7A39472BB2EFF1B8CAD21BA04F49DDCA1B DUP7 DUP7 DUP5 PUSH1 0x40 MLOAD PUSH2 0x17B2 SWAP4 SWAP3 SWAP2 SWAP1 PUSH2 0x21B7 JUMP JUMPDEST PUSH1 0x40 MLOAD DUP1 SWAP2 SUB SWAP1 LOG1 POP POP POP POP POP POP JUMP JUMPDEST PUSH1 0x5 PUSH1 0x0 DUP2 SLOAD DUP1 SWAP3 SWAP2 SWAP1 PUSH2 0x17D5 SWAP1 PUSH2 0x2382 JUMP JUMPDEST SWAP2 SWAP1 POP SSTORE POP PUSH1 0x40 MLOAD DUP1 PUSH1 0xA0 ADD PUSH1 0x40 MSTORE DUP1 CALLER PUSH20 0xFFFFFFFFFFFFFFFFFFFFFFFFFFFFFFFFFFFFFFFF AND DUP2 MSTORE PUSH1 0x20 ADD DUP3 PUSH1 0x2 DUP2 GT ISZERO PUSH2 0x183A JUMPI PUSH32 0x4E487B7100000000000000000000000000000000000000000000000000000000 PUSH1 0x0 MSTORE PUSH1 0x21 PUSH1 0x4 MSTORE PUSH1 0x24 PUSH1 0x0 REVERT JUMPDEST DUP2 MSTORE PUSH1 0x20 ADD PUSH1 0x0 DUP2 MSTORE PUSH1 0x20 ADD PUSH1 0x1 ISZERO ISZERO DUP2 MSTORE PUSH1 0x20 ADD PUSH1 0x0 ISZERO ISZERO DUP2 MSTORE POP PUSH1 0x0 DUP1 PUSH1 0x5 SLOAD DUP2 MSTORE PUSH1 0x20 ADD SWAP1 DUP2 MSTORE PUSH1 0x20 ADD PUSH1 0x0 KECCAK256 PUSH1 0x0 DUP3 ADD MLOAD DUP2 PUSH1 0x0 ADD PUSH1 0x0 PUSH2 0x100 EXP DUP2 SLOAD DUP2 PUSH20 0xFFFFFFFFFFFFFFFFFFFFFFFFFFFFFFFFFFFFFFFF MUL NOT AND SWAP1 DUP4 PUSH20 0xFFFFFFFFFFFFFFFFFFFFFFFFFFFFFFFFFFFFFFFF AND MUL OR SWAP1 SSTORE POP PUSH1 0x20 DUP3 ADD MLOAD DUP2 PUSH1 0x0 ADD PUSH1 0x14 PUSH2 0x100 EXP DUP2 SLOAD DUP2 PUSH1 0xFF MUL NOT AND SWAP1 DUP4 PUSH1 0x2 DUP2 GT ISZERO PUSH2 0x1902 JUMPI PUSH32 0x4E487B7100000000000000000000000000000000000000000000000000000000 PUSH1 0x0 MSTORE PUSH1 0x21 PUSH1 0x4 MSTORE PUSH1 0x24 PUSH1 0x0 REVERT JUMPDEST MUL OR SWAP1 SSTORE POP PUSH1 0x40 DUP3 ADD MLOAD DUP2 PUSH1 0x1 ADD SSTORE PUSH1 0x60 DUP3 ADD MLOAD DUP2 PUSH1 0x2 ADD PUSH1 0x0 PUSH2 0x100 EXP DUP2 SLOAD DUP2 PUSH1 0xFF MUL NOT AND SWAP1 DUP4 ISZERO ISZERO MUL OR SWAP1 SSTORE POP PUSH1 0x80 DUP3 ADD MLOAD DUP2 PUSH1 0x2 ADD PUSH1 0x1 PUSH2 0x100 EXP DUP2 SLOAD DUP2 PUSH1 0xFF MUL NOT AND SWAP1 DUP4 ISZERO ISZERO MUL OR SWAP1 SSTORE POP SWAP1 POP POP PUSH32 0xC4AFEC621B00A8476C4EAA76D731DBAF984E16BD432F57543AC5E43615DA1A98 PUSH1 0x5 SLOAD CALLER DUP4 PUSH1 0x40 MLOAD PUSH2 0x1989 SWAP4 SWAP3 SWAP2 SWAP1 PUSH2 0x2180 JUMP JUMPDEST PUSH1 0x40 MLOAD DUP1 SWAP2 SUB SWAP1 LOG1 POP JUMP JUMPDEST PUSH1 0x0 DUP2 CALLDATALOAD SWAP1 POP PUSH2 0x19A3 DUP2 PUSH2 0x243D JUMP JUMPDEST SWAP3 SWAP2 POP POP JUMP JUMPDEST PUSH1 0x0 DUP2 CALLDATALOAD SWAP1 POP PUSH2 0x19B8 DUP2 PUSH2 0x2454 JUMP JUMPDEST SWAP3 SWAP2 POP POP JUMP JUMPDEST PUSH1 0x0 DUP2 CALLDATALOAD SWAP1 POP PUSH2 0x19CD DUP2 PUSH2 0x2464 JUMP JUMPDEST SWAP3 SWAP2 POP POP JUMP JUMPDEST PUSH1 0x0 PUSH1 0x20 DUP3 DUP5 SUB SLT ISZERO PUSH2 0x19E5 JUMPI PUSH1 0x0 DUP1 REVERT JUMPDEST PUSH1 0x0 PUSH2 0x19F3 DUP5 DUP3 DUP6 ADD PUSH2 0x19A9 JUMP JUMPDEST SWAP2 POP POP SWAP3 SWAP2 POP POP JUMP JUMPDEST PUSH1 0x0 PUSH1 0x20 DUP3 DUP5 SUB SLT ISZERO PUSH2 0x1A0E JUMPI PUSH1 0x0 DUP1 REVERT JUMPDEST PUSH1 0x0 PUSH2 0x1A1C DUP5 DUP3 DUP6 ADD PUSH2 0x19BE JUMP JUMPDEST SWAP2 POP POP SWAP3 SWAP2 POP POP JUMP JUMPDEST PUSH1 0x0 DUP1 PUSH1 0x40 DUP4 DUP6 SUB SLT ISZERO PUSH2 0x1A38 JUMPI PUSH1 0x0 DUP1 REVERT JUMPDEST PUSH1 0x0 PUSH2 0x1A46 DUP6 DUP3 DUP7 ADD PUSH2 0x19BE JUMP JUMPDEST SWAP3 POP POP PUSH1 0x20 PUSH2 0x1A57 DUP6 DUP3 DUP7 ADD PUSH2 0x1994 JUMP JUMPDEST SWAP2 POP POP SWAP3 POP SWAP3 SWAP1 POP JUMP JUMPDEST PUSH1 0x0 PUSH2 0x1A6D DUP4 DUP4 PUSH2 0x1A97 JUMP JUMPDEST PUSH1 0x20 DUP4 ADD SWAP1 POP SWAP3 SWAP2 POP POP JUMP JUMPDEST PUSH2 0x1A82 DUP2 PUSH2 0x233A JUMP JUMPDEST DUP3 MSTORE POP POP JUMP JUMPDEST PUSH2 0x1A91 DUP2 PUSH2 0x22DF JUMP JUMPDEST DUP3 MSTORE POP POP JUMP JUMPDEST PUSH2 0x1AA0 DUP2 PUSH2 0x22CD JUMP JUMPDEST DUP3 MSTORE POP POP JUMP JUMPDEST PUSH2 0x1AAF DUP2 PUSH2 0x22CD JUMP JUMPDEST DUP3 MSTORE POP POP JUMP JUMPDEST PUSH1 0x0 PUSH2 0x1AC0 DUP3 PUSH2 0x21FE JUMP JUMPDEST PUSH2 0x1ACA DUP2 DUP6 PUSH2 0x2216 JUMP JUMPDEST SWAP4 POP PUSH2 0x1AD5 DUP4 PUSH2 0x21EE JUMP JUMPDEST DUP1 PUSH1 0x0 JUMPDEST DUP4 DUP2 LT ISZERO PUSH2 0x1B06 JUMPI DUP2 MLOAD PUSH2 0x1AED DUP9 DUP3 PUSH2 0x1A61 JUMP JUMPDEST SWAP8 POP PUSH2 0x1AF8 DUP4 PUSH2 0x2209 JUMP JUMPDEST SWAP3 POP POP PUSH1 0x1 DUP2 ADD SWAP1 POP PUSH2 0x1AD9 JUMP JUMPDEST POP DUP6 SWAP4 POP POP POP POP SWAP3 SWAP2 POP POP JUMP JUMPDEST PUSH2 0x1B1C DUP2 PUSH2 0x22F1 JUMP JUMPDEST DUP3 MSTORE POP POP JUMP JUMPDEST PUSH2 0x1B2B DUP2 PUSH2 0x234C JUMP JUMPDEST DUP3 MSTORE POP POP JUMP JUMPDEST PUSH1 0x0 PUSH2 0x1B3E PUSH1 0x1C DUP4 PUSH2 0x2232 JUMP JUMPDEST SWAP2 POP PUSH32 0x526566756E642065786365656473207374616C6C2062616C616E636500000000 PUSH1 0x0 DUP4 ADD MSTORE PUSH1 0x20 DUP3 ADD SWAP1 POP SWAP2 SWAP1 POP JUMP JUMPDEST PUSH1 0x0 PUSH2 0x1B7E PUSH1 0xF DUP4 PUSH2 0x2232 JUMP JUMPDEST SWAP2 POP PUSH32 0x4E6F74207374616C6C206F776E65720000000000000000000000000000000000 PUSH1 0x0 DUP4 ADD MSTORE PUSH1 0x20 DUP3 ADD SWAP1 POP SWAP2 SWAP1 POP JUMP JUMPDEST PUSH1 0x0 PUSH2 0x1BBE PUSH1 0x14 DUP4 PUSH2 0x2232 JUMP JUMPDEST SWAP2 POP PUSH32 0x5374616C6C20646F6573206E6F74206578697374000000000000000000000000 PUSH1 0x0 DUP4 ADD MSTORE PUSH1 0x20 DUP3 ADD SWAP1 POP SWAP2 SWAP1 POP JUMP JUMPDEST PUSH1 0x0 PUSH2 0x1BFE PUSH1 0x1A DUP4 PUSH2 0x2232 JUMP JUMPDEST SWAP2 POP PUSH32 0x5769746864726177616C207472616E73666572206661696C6564000000000000 PUSH1 0x0 DUP4 ADD MSTORE PUSH1 0x20 DUP3 ADD SWAP1 POP SWAP2 SWAP1 POP JUMP JUMPDEST PUSH1 0x0 PUSH2 0x1C3E PUSH1 0x27 DUP4 PUSH2 0x2232 JUMP JUMPDEST SWAP2 POP PUSH32 0x5374616C6C2066756E64732077697468647261776E2C206E6F206D6F72652070 PUSH1 0x0 DUP4 ADD MSTORE PUSH32 0x61796D656E747300000000000000000000000000000000000000000000000000 PUSH1 0x20 DUP4 ADD MSTORE PUSH1 0x40 DUP3 ADD SWAP1 POP SWAP2 SWAP1 POP JUMP JUMPDEST PUSH1 0x0 PUSH2 0x1CA4 PUSH1 0x11 DUP4 PUSH2 0x2232 JUMP JUMPDEST SWAP2 POP PUSH32 0x416C72656164792077697468647261776E000000000000000000000000000000 PUSH1 0x0 DUP4 ADD MSTORE PUSH1 0x20 DUP3 ADD SWAP1 POP SWAP2 SWAP1 POP JUMP JUMPDEST PUSH1 0x0 PUSH2 0x1CE4 PUSH1 0x13 DUP4 PUSH2 0x2232 JUMP JUMPDEST SWAP2 POP PUSH32 0x4E6F20726566756E642072657175657374656400000000000000000000000000 PUSH1 0x0 DUP4 ADD MSTORE PUSH1 0x20 DUP3 ADD SWAP1 POP SWAP2 SWAP1 POP JUMP JUMPDEST PUSH1 0x0 PUSH2 0x1D24 PUSH1 0x18 DUP4 PUSH2 0x2232 JUMP JUMPDEST SWAP2 POP PUSH32 0x526566756E6420616C7265616479207265717565737465640000000000000000 PUSH1 0x0 DUP4 ADD MSTORE PUSH1 0x20 DUP3 ADD SWAP1 POP SWAP2 SWAP1 POP JUMP JUMPDEST PUSH1 0x0 PUSH2 0x1D64 PUSH1 0xF DUP4 PUSH2 0x2232 JUMP JUMPDEST SWAP2 POP PUSH32 0x5374616C6C206E6F7420666F756E640000000000000000000000000000000000 PUSH1 0x0 DUP4 ADD MSTORE PUSH1 0x20 DUP3 ADD SWAP1 POP SWAP2 SWAP1 POP JUMP JUMPDEST PUSH1 0x0 PUSH2 0x1DA4 PUSH1 0x0 DUP4 PUSH2 0x2227 JUMP JUMPDEST SWAP2 POP PUSH1 0x0 DUP3 ADD SWAP1 POP SWAP2 SWAP1 POP JUMP JUMPDEST PUSH1 0x0 PUSH2 0x1DBE PUSH1 0x14 DUP4 PUSH2 0x2232 JUMP JUMPDEST SWAP2 POP PUSH32 0x4E6F207061796D656E7420746F20726566756E64000000000000000000000000 PUSH1 0x0 DUP4 ADD MSTORE PUSH1 0x20 DUP3 ADD SWAP1 POP SWAP2 SWAP1 POP JUMP JUMPDEST PUSH1 0x0 PUSH2 0x1DFE PUSH1 0x16 DUP4 PUSH2 0x2232 JUMP JUMPDEST SWAP2 POP PUSH32 0x526566756E64207472616E73666572206661696C656400000000000000000000 PUSH1 0x0 DUP4 ADD MSTORE PUSH1 0x20 DUP3 ADD SWAP1 POP SWAP2 SWAP1 POP JUMP JUMPDEST PUSH1 0x0 PUSH2 0x1E3E PUSH1 0xF DUP4 PUSH2 0x2232 JUMP JUMPDEST SWAP2 POP PUSH32 0x4E6F207061796D656E74206D6164650000000000000000000000000000000000 PUSH1 0x0 DUP4 ADD MSTORE PUSH1 0x20 DUP3 ADD SWAP1 POP SWAP2 SWAP1 POP JUMP JUMPDEST PUSH1 0x0 PUSH2 0x1E7E PUSH1 0xD DUP4 PUSH2 0x2232 JUMP JUMPDEST SWAP2 POP PUSH32 0x4D7573742073656E642045544800000000000000000000000000000000000000 PUSH1 0x0 DUP4 ADD MSTORE PUSH1 0x20 DUP3 ADD SWAP1 POP SWAP2 SWAP1 POP JUMP JUMPDEST PUSH2 0x1EBA DUP2 PUSH2 0x2330 JUMP JUMPDEST DUP3 MSTORE POP POP JUMP JUMPDEST PUSH1 0x0 PUSH2 0x1ECB DUP3 PUSH2 0x1D97 JUMP JUMPDEST SWAP2 POP DUP2 SWAP1 POP SWAP2 SWAP1 POP JUMP JUMPDEST PUSH1 0x0 PUSH1 0xA0 DUP3 ADD SWAP1 POP PUSH2 0x1EEA PUSH1 0x0 DUP4 ADD DUP9 PUSH2 0x1A88 JUMP JUMPDEST PUSH2 0x1EF7 PUSH1 0x20 DUP4 ADD DUP8 PUSH2 0x1B22 JUMP JUMPDEST PUSH2 0x1F04 PUSH1 0x40 DUP4 ADD DUP7 PUSH2 0x1EB1 JUMP JUMPDEST PUSH2 0x1F11 PUSH1 0x60 DUP4 ADD DUP6 PUSH2 0x1B13 JUMP JUMPDEST PUSH2 0x1F1E PUSH1 0x80 DUP4 ADD DUP5 PUSH2 0x1B13 JUMP JUMPDEST SWAP7 SWAP6 POP POP POP POP POP POP JUMP JUMPDEST PUSH1 0x0 PUSH1 0x20 DUP3 ADD SWAP1 POP DUP2 DUP2 SUB PUSH1 0x0 DUP4 ADD MSTORE PUSH2 0x1F42 DUP2 DUP5 PUSH2 0x1AB5 JUMP JUMPDEST SWAP1 POP SWAP3 SWAP2 POP POP JUMP JUMPDEST PUSH1 0x0 PUSH1 0x20 DUP3 ADD SWAP1 POP PUSH2 0x1F5F PUSH1 0x0 DUP4 ADD DUP5 PUSH2 0x1B13 JUMP JUMPDEST SWAP3 SWAP2 POP POP JUMP JUMPDEST PUSH1 0x0 PUSH1 0x20 DUP3 ADD SWAP1 POP DUP2 DUP2 SUB PUSH1 0x0 DUP4 ADD MSTORE PUSH2 0x1F7E DUP2 PUSH2 0x1B31 JUMP JUMPDEST SWAP1 POP SWAP2 SWAP1 POP JUMP JUMPDEST PUSH1 0x0 PUSH1 0x20 DUP3 ADD SWAP1 POP DUP2 DUP2 SUB PUSH1 0x0 DUP4 ADD MSTORE PUSH2 0x1F9E DUP2 PUSH2 0x1B71 JUMP JUMPDEST SWAP1 POP SWAP2 SWAP1 POP JUMP JUMPDEST PUSH1 0x0 PUSH1 0x20 DUP3 ADD SWAP1 POP DUP2 DUP2 SUB PUSH1 0x0 DUP4 ADD MSTORE PUSH2 0x1FBE DUP2 PUSH2 0x1BB1 JUMP JUMPDEST SWAP1 POP SWAP2 SWAP1 POP JUMP JUMPDEST PUSH1 0x0 PUSH1 0x20 DUP3 ADD SWAP1 POP DUP2 DUP2 SUB PUSH1 0x0 DUP4 ADD MSTORE PUSH2 0x1FDE DUP2 PUSH2 0x1BF1 JUMP JUMPDEST SWAP1 POP SWAP2 SWAP1 POP JUMP JUMPDEST PUSH1 0x0 PUSH1 0x20 DUP3 ADD SWAP1 POP DUP2 DUP2 SUB PUSH1 0x0 DUP4 ADD MSTORE PUSH2 0x1FFE DUP2 PUSH2 0x1C31 JUMP JUMPDEST SWAP1 POP SWAP2 SWAP1 POP JUMP JUMPDEST PUSH1 0x0 PUSH1 0x20 DUP3 ADD SWAP1 POP DUP2 DUP2 SUB PUSH1 0x0 DUP4 ADD MSTORE PUSH2 0x201E DUP2 PUSH2 0x1C97 JUMP JUMPDEST SWAP1 POP SWAP2 SWAP1 POP JUMP JUMPDEST PUSH1 0x0 PUSH1 0x20 DUP3 ADD SWAP1 POP DUP2 DUP2 SUB PUSH1 0x0 DUP4 ADD MSTORE PUSH2 0x203E DUP2 PUSH2 0x1CD7 JUMP JUMPDEST SWAP1 POP SWAP2 SWAP1 POP JUMP JUMPDEST PUSH1 0x0 PUSH1 0x20 DUP3 ADD SWAP1 POP DUP2 DUP2 SUB PUSH1 0x0 DUP4 ADD MSTORE PUSH2 0x205E DUP2 PUSH2 0x1D17 JUMP JUMPDEST SWAP1 POP SWAP2 SWAP1 POP JUMP JUMPDEST PUSH1 0x0 PUSH1 0x20 DUP3 ADD SWAP1 POP DUP2 DUP2 SUB PUSH1 0x0 DUP4 ADD MSTORE PUSH2 0x207E DUP2 PUSH2 0x1D57 JUMP JUMPDEST SWAP1 POP SWAP2 SWAP1 POP JUMP JUMPDEST PUSH1 0x0 PUSH1 0x20 DUP3 ADD SWAP1 POP DUP2 DUP2 SUB PUSH1 0x0 DUP4 ADD MSTORE PUSH2 0x209E DUP2 PUSH2 0x1DB1 JUMP JUMPDEST SWAP1 POP SWAP2 SWAP1 POP JUMP JUMPDEST PUSH1 0x0 PUSH1 0x20 DUP3 ADD SWAP1 POP DUP2 DUP2 SUB PUSH1 0x0 DUP4 ADD MSTORE PUSH2 0x20BE DUP2 PUSH2 0x1DF1 JUMP JUMPDEST SWAP1 POP SWAP2 SWAP1 POP JUMP JUMPDEST PUSH1 0x0 PUSH1 0x20 DUP3 ADD SWAP1 POP DUP2 DUP2 SUB PUSH1 0x0 DUP4 ADD MSTORE PUSH2 0x20DE DUP2 PUSH2 0x1E31 JUMP JUMPDEST SWAP1 POP SWAP2 SWAP1 POP JUMP JUMPDEST PUSH1 0x0 PUSH1 0x20 DUP3 ADD SWAP1 POP DUP2 DUP2 SUB PUSH1 0x0 DUP4 ADD MSTORE PUSH2 0x20FE DUP2 PUSH2 0x1E71 JUMP JUMPDEST SWAP1 POP SWAP2 SWAP1 POP JUMP JUMPDEST PUSH1 0x0 PUSH1 0x20 DUP3 ADD SWAP1 POP PUSH2 0x211A PUSH1 0x0 DUP4 ADD DUP5 PUSH2 0x1EB1 JUMP JUMPDEST SWAP3 SWAP2 POP POP JUMP JUMPDEST PUSH1 0x0 PUSH1 0x40 DUP3 ADD SWAP1 POP PUSH2 0x2135 PUSH1 0x0 DUP4 ADD DUP6 PUSH2 0x1EB1 JUMP JUMPDEST PUSH2 0x2142 PUSH1 0x20 DUP4 ADD DUP5 PUSH2 0x1AA6 JUMP JUMPDEST SWAP4 SWAP3 POP POP POP JUMP JUMPDEST PUSH1 0x0 PUSH1 0x60 DUP3 ADD SWAP1 POP PUSH2 0x215E PUSH1 0x0 DUP4 ADD DUP7 PUSH2 0x1EB1 JUMP JUMPDEST PUSH2 0x216B PUSH1 0x20 DUP4 ADD DUP6 PUSH2 0x1A79 JUMP JUMPDEST PUSH2 0x2178 PUSH1 0x40 DUP4 ADD DUP5 PUSH2 0x1EB1 JUMP JUMPDEST SWAP5 SWAP4 POP POP POP POP JUMP JUMPDEST PUSH1 0x0 PUSH1 0x60 DUP3 ADD SWAP1 POP PUSH2 0x2195 PUSH1 0x0 DUP4 ADD DUP7 PUSH2 0x1EB1 JUMP JUMPDEST PUSH2 0x21A2 PUSH1 0x20 DUP4 ADD DUP6 PUSH2 0x1AA6 JUMP JUMPDEST PUSH2 0x21AF PUSH1 0x40 DUP4 ADD DUP5 PUSH2 0x1B22 JUMP JUMPDEST SWAP5 SWAP4 POP POP POP POP JUMP JUMPDEST PUSH1 0x0 PUSH1 0x60 DUP3 ADD SWAP1 POP PUSH2 0x21CC PUSH1 0x0 DUP4 ADD DUP7 PUSH2 0x1EB1 JUMP JUMPDEST PUSH2 0x21D9 PUSH1 0x20 DUP4 ADD DUP6 PUSH2 0x1AA6 JUMP JUMPDEST PUSH2 0x21E6 PUSH1 0x40 DUP4 ADD DUP5 PUSH2 0x1EB1 JUMP JUMPDEST SWAP5 SWAP4 POP POP POP POP JUMP JUMPDEST PUSH1 0x0 DUP2 SWAP1 POP PUSH1 0x20 DUP3 ADD SWAP1 POP SWAP2 SWAP1 POP JUMP JUMPDEST PUSH1 0x0 DUP2 MLOAD SWAP1 POP SWAP2 SWAP1 POP JUMP JUMPDEST PUSH1 0x0 PUSH1 0x20 DUP3 ADD SWAP1 POP SWAP2 SWAP1 POP JUMP JUMPDEST PUSH1 0x0 DUP3 DUP3 MSTORE PUSH1 0x20 DUP3 ADD SWAP1 POP SWAP3 SWAP2 POP POP JUMP JUMPDEST PUSH1 0x0 DUP2 SWAP1 POP SWAP3 SWAP2 POP POP JUMP JUMPDEST PUSH1 0x0 DUP3 DUP3 MSTORE PUSH1 0x20 DUP3 ADD SWAP1 POP SWAP3 SWAP2 POP POP JUMP JUMPDEST PUSH1 0x0 PUSH2 0x224E DUP3 PUSH2 0x2330 JUMP JUMPDEST SWAP2 POP PUSH2 0x2259 DUP4 PUSH2 0x2330 JUMP JUMPDEST SWAP3 POP DUP3 PUSH32 0xFFFFFFFFFFFFFFFFFFFFFFFFFFFFFFFFFFFFFFFFFFFFFFFFFFFFFFFFFFFFFFFF SUB DUP3 GT ISZERO PUSH2 0x228E JUMPI PUSH2 0x228D PUSH2 0x23CB JUMP JUMPDEST JUMPDEST DUP3 DUP3 ADD SWAP1 POP SWAP3 SWAP2 POP POP JUMP JUMPDEST PUSH1 0x0 PUSH2 0x22A4 DUP3 PUSH2 0x2330 JUMP JUMPDEST SWAP2 POP PUSH2 0x22AF DUP4 PUSH2 0x2330 JUMP JUMPDEST SWAP3 POP DUP3 DUP3 LT ISZERO PUSH2 0x22C2 JUMPI PUSH2 0x22C1 PUSH2 0x23CB JUMP JUMPDEST JUMPDEST DUP3 DUP3 SUB SWAP1 POP SWAP3 SWAP2 POP POP JUMP JUMPDEST PUSH1 0x0 PUSH2 0x22D8 DUP3 PUSH2 0x2310 JUMP JUMPDEST SWAP1 POP SWAP2 SWAP1 POP JUMP JUMPDEST PUSH1 0x0 PUSH2 0x22EA DUP3 PUSH2 0x2310 JUMP JUMPDEST SWAP1 POP SWAP2 SWAP1 POP JUMP JUMPDEST PUSH1 0x0 DUP2 ISZERO ISZERO SWAP1 POP SWAP2 SWAP1 POP JUMP JUMPDEST PUSH1 0x0 DUP2 SWAP1 POP PUSH2 0x230B DUP3 PUSH2 0x2429 JUMP JUMPDEST SWAP2 SWAP1 POP JUMP JUMPDEST PUSH1 0x0 PUSH20 0xFFFFFFFFFFFFFFFFFFFFFFFFFFFFFFFFFFFFFFFF DUP3 AND SWAP1 POP SWAP2 SWAP1 POP JUMP JUMPDEST PUSH1 0x0 DUP2 SWAP1 POP SWAP2 SWAP1 POP JUMP JUMPDEST PUSH1 0x0 PUSH2 0x2345 DUP3 PUSH2 0x235E JUMP JUMPDEST SWAP1 POP SWAP2 SWAP1 POP JUMP JUMPDEST PUSH1 0x0 PUSH2 0x2357 DUP3 PUSH2 0x22FD JUMP JUMPDEST SWAP1 POP SWAP2 SWAP1 POP JUMP JUMPDEST PUSH1 0x0 PUSH2 0x2369 DUP3 PUSH2 0x2370 JUMP JUMPDEST SWAP1 POP SWAP2 SWAP1 POP JUMP JUMPDEST PUSH1 0x0 PUSH2 0x237B DUP3 PUSH2 0x2310 JUMP JUMPDEST SWAP1 POP SWAP2 SWAP1 POP JUMP JUMPDEST PUSH1 0x0 PUSH2 0x238D DUP3 PUSH2 0x2330 JUMP JUMPDEST SWAP2 POP PUSH32 0xFFFFFFFFFFFFFFFFFFFFFFFFFFFFFFFFFFFFFFFFFFFFFFFFFFFFFFFFFFFFFFFF DUP3 EQ ISZERO PUSH2 0x23C0 JUMPI PUSH2 0x23BF PUSH2 0x23CB JUMP JUMPDEST JUMPDEST PUSH1 0x1 DUP3 ADD SWAP1 POP SWAP2 SWAP1 POP JUMP JUMPDEST PUSH32 0x4E487B7100000000000000000000000000000000000000000000000000000000 PUSH1 0x0 MSTORE PUSH1 0x11 PUSH1 0x4 MSTORE PUSH1 0x24 PUSH1 0x0 REVERT JUMPDEST PUSH32 0x4E487B7100000000000000000000000000000000000000000000000000000000 PUSH1 0x0 MSTORE PUSH1 0x21 PUSH1 0x4 MSTORE PUSH1 0x24 PUSH1 0x0 REVERT JUMPDEST PUSH1 0x3 DUP2 LT PUSH2 0x243A JUMPI PUSH2 0x2439 PUSH2 0x23FA JUMP JUMPDEST JUMPDEST POP JUMP JUMPDEST PUSH2 0x2446 DUP2 PUSH2 0x22CD JUMP JUMPDEST DUP2 EQ PUSH2 0x2451 JUMPI PUSH1 0x0 DUP1 REVERT JUMPDEST POP JUMP JUMPDEST PUSH1 0x3 DUP2 LT PUSH2 0x2461 JUMPI PUSH1 0x0 DUP1 REVERT JUMPDEST POP JUMP JUMPDEST PUSH2 0x246D DUP2 PUSH2 0x2330 JUMP JUMPDEST DUP2 EQ PUSH2 0x2478 JUMPI PUSH1 0x0 DUP1 REVERT JUMPDEST POP JUMP INVALID LOG2 PUSH5 0x6970667358 0x22 SLT KECCAK256 SWAP1 PC SSTORE 0x27 PUSH23 0xE10264C9A77AACC2214B82C90812670D1C720CEBB0D9C1 0xB5 MLOAD SWAP3 SWAP2 PUSH5 0x736F6C6343 STOP ADDMOD STOP STOP CALLER "
				},
				"gasEstimates": {
					"creation": {
						"codeDepositCost": "1878600",
						"executionCost": "1983",
						"totalCost": "1880583"
					},
					"external": {
						"approveRefund(uint256,address)": "infinite",
						"denyRefund(uint256,address)": "infinite",
						"getPayers(uint256)": "infinite",
						"getWithdrawalTime(uint8)": "748",
						"issueRefund(uint256,address)": "infinite",
						"makePayment(uint256)": "infinite",
						"payments(uint256,address)": "infinite",
						"refundRequested(uint256,address)": "1788",
						"registerStall(uint8)": "infinite",
						"requestRefund(uint256)": "24382",
						"stallCount()": "1174",
						"stalls(uint256)": "infinite",
						"withdrawFunds(uint256)": "infinite"
					}
				},
				"methodIdentifiers": {
					"approveRefund(uint256,address)": "d5f8ab89",
					"denyRefund(uint256,address)": "4b8e3a17",
					"getPayers(uint256)": "68209707",
					"getWithdrawalTime(uint8)": "a532db90",
					"issueRefund(uint256,address)": "aa8695aa",
					"makePayment(uint256)": "5114cb52",
					"payments(uint256,address)": "565834ee",
					"refundRequested(uint256,address)": "0a3b91d9",
					"registerStall(uint8)": "d8f4ee5b",
					"requestRefund(uint256)": "a4b2409e",
					"stallCount()": "99cb043a",
					"stalls(uint256)": "6d0f9408",
					"withdrawFunds(uint256)": "155dd5ee"
				}
			},
			"storageLayout": {
				"storage": [
					{
						"astId": 22,
						"contract": "contracts/CCNCarnival2025.sol:CCNCarnival2025",
						"label": "stalls",
						"offset": 0,
						"slot": "0",
						"type": "t_mapping(t_uint256,t_struct(Stall)17_storage)"
					},
					{
						"astId": 28,
						"contract": "contracts/CCNCarnival2025.sol:CCNCarnival2025",
						"label": "payments",
						"offset": 0,
						"slot": "1",
						"type": "t_mapping(t_uint256,t_mapping(t_address,t_uint256))"
					},
					{
						"astId": 33,
						"contract": "contracts/CCNCarnival2025.sol:CCNCarnival2025",
						"label": "stallPayers",
						"offset": 0,
						"slot": "2",
						"type": "t_mapping(t_uint256,t_array(t_address)dyn_storage)"
					},
					{
						"astId": 39,
						"contract": "contracts/CCNCarnival2025.sol:CCNCarnival2025",
						"label": "hasPaidBefore",
						"offset": 0,
						"slot": "3",
						"type": "t_mapping(t_uint256,t_mapping(t_address,t_bool))"
					},
					{
						"astId": 45,
						"contract": "contracts/CCNCarnival2025.sol:CCNCarnival2025",
						"label": "refundRequested",
						"offset": 0,
						"slot": "4",
						"type": "t_mapping(t_uint256,t_mapping(t_address,t_bool))"
					},
					{
						"astId": 47,
						"contract": "contracts/CCNCarnival2025.sol:CCNCarnival2025",
						"label": "stallCount",
						"offset": 0,
						"slot": "5",
						"type": "t_uint256"
					}
				],
				"types": {
					"t_address": {
						"encoding": "inplace",
						"label": "address",
						"numberOfBytes": "20"
					},
					"t_address_payable": {
						"encoding": "inplace",
						"label": "address payable",
						"numberOfBytes": "20"
					},
					"t_array(t_address)dyn_storage": {
						"base": "t_address",
						"encoding": "dynamic_array",
						"label": "address[]",
						"numberOfBytes": "32"
					},
					"t_bool": {
						"encoding": "inplace",
						"label": "bool",
						"numberOfBytes": "1"
					},
					"t_enum(OperatingDays)5": {
						"encoding": "inplace",
						"label": "enum CCNCarnival2025.OperatingDays",
						"numberOfBytes": "1"
					},
					"t_mapping(t_address,t_bool)": {
						"encoding": "mapping",
						"key": "t_address",
						"label": "mapping(address => bool)",
						"numberOfBytes": "32",
						"value": "t_bool"
					},
					"t_mapping(t_address,t_uint256)": {
						"encoding": "mapping",
						"key": "t_address",
						"label": "mapping(address => uint256)",
						"numberOfBytes": "32",
						"value": "t_uint256"
					},
					"t_mapping(t_uint256,t_array(t_address)dyn_storage)": {
						"encoding": "mapping",
						"key": "t_uint256",
						"label": "mapping(uint256 => address[])",
						"numberOfBytes": "32",
						"value": "t_array(t_address)dyn_storage"
					},
					"t_mapping(t_uint256,t_mapping(t_address,t_bool))": {
						"encoding": "mapping",
						"key": "t_uint256",
						"label": "mapping(uint256 => mapping(address => bool))",
						"numberOfBytes": "32",
						"value": "t_mapping(t_address,t_bool)"
					},
					"t_mapping(t_uint256,t_mapping(t_address,t_uint256))": {
						"encoding": "mapping",
						"key": "t_uint256",
						"label": "mapping(uint256 => mapping(address => uint256))",
						"numberOfBytes": "32",
						"value": "t_mapping(t_address,t_uint256)"
					},
					"t_mapping(t_uint256,t_struct(Stall)17_storage)": {
						"encoding": "mapping",
						"key": "t_uint256",
						"label": "mapping(uint256 => struct CCNCarnival2025.Stall)",
						"numberOfBytes": "32",
						"value": "t_struct(Stall)17_storage"
					},
					"t_struct(Stall)17_storage": {
						"encoding": "inplace",
						"label": "struct CCNCarnival2025.Stall",
						"members": [
							{
								"astId": 7,
								"contract": "contracts/CCNCarnival2025.sol:CCNCarnival2025",
								"label": "owner",
								"offset": 0,
								"slot": "0",
								"type": "t_address_payable"
							},
							{
								"astId": 10,
								"contract": "contracts/CCNCarnival2025.sol:CCNCarnival2025",
								"label": "duration",
								"offset": 20,
								"slot": "0",
								"type": "t_enum(OperatingDays)5"
							},
							{
								"astId": 12,
								"contract": "contracts/CCNCarnival2025.sol:CCNCarnival2025",
								"label": "balance",
								"offset": 0,
								"slot": "1",
								"type": "t_uint256"
							},
							{
								"astId": 14,
								"contract": "contracts/CCNCarnival2025.sol:CCNCarnival2025",
								"label": "registered",
								"offset": 0,
								"slot": "2",
								"type": "t_bool"
							},
							{
								"astId": 16,
								"contract": "contracts/CCNCarnival2025.sol:CCNCarnival2025",
								"label": "withdrawn",
								"offset": 1,
								"slot": "2",
								"type": "t_bool"
							}
						],
						"numberOfBytes": "96"
					},
					"t_uint256": {
						"encoding": "inplace",
						"label": "uint256",
						"numberOfBytes": "32"
					}
				}
			},
			"userdoc": {
				"kind": "user",
				"methods": {},
				"version": 1
			}
		}
	}
}