{
	"contracts/CCNCarnival2025.sol": {
		"CCNCarnival2025": {
			"abi": [
				{
					"anonymous": false,
					"inputs": [
						{
							"indexed": false,
							"internalType": "uint256",
							"name": "stallId",
							"type": "uint256"
						},
						{
							"indexed": false,
							"internalType": "address",
							"name": "owner",
							"type": "address"
						},
						{
							"indexed": false,
							"internalType": "uint256",
							"name": "amount",
							"type": "uint256"
						}
					],
					"name": "FundsWithdrawn",
					"type": "event"
				},
				{
					"anonymous": false,
					"inputs": [
						{
							"indexed": false,
							"internalType": "uint256",
							"name": "stallId",
							"type": "uint256"
						},
						{
							"indexed": false,
							"internalType": "address",
							"name": "payer",
							"type": "address"
						},
						{
							"indexed": false,
							"internalType": "uint256",
							"name": "amount",
							"type": "uint256"
						}
					],
					"name": "PaymentMade",
					"type": "event"
				},
				{
					"anonymous": false,
					"inputs": [
						{
							"indexed": false,
							"internalType": "uint256",
							"name": "stallId",
							"type": "uint256"
						},
						{
							"indexed": false,
							"internalType": "address",
							"name": "buyer",
							"type": "address"
						}
					],
					"name": "RefundDenied",
					"type": "event"
				},
				{
					"anonymous": false,
					"inputs": [
						{
							"indexed": false,
							"internalType": "uint256",
							"name": "stallId",
							"type": "uint256"
						},
						{
							"indexed": false,
							"internalType": "address",
							"name": "user",
							"type": "address"
						},
						{
							"indexed": false,
							"internalType": "uint256",
							"name": "amount",
							"type": "uint256"
						}
					],
					"name": "RefundIssued",
					"type": "event"
				},
				{
					"anonymous": false,
					"inputs": [
						{
							"indexed": false,
							"internalType": "uint256",
							"name": "stallId",
							"type": "uint256"
						},
						{
							"indexed": false,
							"internalType": "address",
							"name": "owner",
							"type": "address"
						},
						{
							"indexed": false,
							"internalType": "enum CCNCarnival2025.OperatingDays",
							"name": "duration",
							"type": "uint8"
						}
					],
					"name": "StallRegistered",
					"type": "event"
				},
				{
					"inputs": [
						{
							"internalType": "uint256",
							"name": "_stallId",
							"type": "uint256"
						},
						{
							"internalType": "address",
							"name": "_buyer",
							"type": "address"
						}
					],
					"name": "approveRefund",
					"outputs": [],
					"stateMutability": "nonpayable",
					"type": "function"
				},
				{
					"inputs": [
						{
							"internalType": "uint256",
							"name": "_stallId",
							"type": "uint256"
						},
						{
							"internalType": "address",
							"name": "_buyer",
							"type": "address"
						}
					],
					"name": "denyRefund",
					"outputs": [],
					"stateMutability": "nonpayable",
					"type": "function"
				},
				{
					"inputs": [
						{
							"internalType": "uint256",
							"name": "_stallId",
							"type": "uint256"
						}
					],
					"name": "getPayers",
					"outputs": [
						{
							"internalType": "address[]",
							"name": "",
							"type": "address[]"
						}
					],
					"stateMutability": "view",
					"type": "function"
				},
				{
					"inputs": [
						{
							"internalType": "enum CCNCarnival2025.OperatingDays",
							"name": "duration",
							"type": "uint8"
						}
					],
					"name": "getWithdrawalTime",
					"outputs": [
						{
							"internalType": "uint256",
							"name": "",
							"type": "uint256"
						}
					],
					"stateMutability": "pure",
					"type": "function"
				},
				{
					"inputs": [
						{
							"internalType": "uint256",
							"name": "_stallId",
							"type": "uint256"
						},
						{
							"internalType": "address",
							"name": "_user",
							"type": "address"
						}
					],
					"name": "issueRefund",
					"outputs": [],
					"stateMutability": "nonpayable",
					"type": "function"
				},
				{
					"inputs": [
						{
							"internalType": "uint256",
							"name": "_stallId",
							"type": "uint256"
						}
					],
					"name": "makePayment",
					"outputs": [],
					"stateMutability": "payable",
					"type": "function"
				},
				{
					"inputs": [
						{
							"internalType": "uint256",
							"name": "",
							"type": "uint256"
						},
						{
							"internalType": "address",
							"name": "",
							"type": "address"
						}
					],
					"name": "payments",
					"outputs": [
						{
							"internalType": "uint256",
							"name": "",
							"type": "uint256"
						}
					],
					"stateMutability": "view",
					"type": "function"
				},
				{
					"inputs": [
						{
							"internalType": "uint256",
							"name": "",
							"type": "uint256"
						},
						{
							"internalType": "address",
							"name": "",
							"type": "address"
						}
					],
					"name": "refundRequested",
					"outputs": [
						{
							"internalType": "bool",
							"name": "",
							"type": "bool"
						}
					],
					"stateMutability": "view",
					"type": "function"
				},
				{
					"inputs": [
						{
							"internalType": "enum CCNCarnival2025.OperatingDays",
							"name": "_duration",
							"type": "uint8"
						}
					],
					"name": "registerStall",
					"outputs": [],
					"stateMutability": "nonpayable",
					"type": "function"
				},
				{
					"inputs": [
						{
							"internalType": "uint256",
							"name": "_stallId",
							"type": "uint256"
						}
					],
					"name": "requestRefund",
					"outputs": [],
					"stateMutability": "nonpayable",
					"type": "function"
				},
				{
					"inputs": [],
					"name": "stallCount",
					"outputs": [
						{
							"internalType": "uint256",
							"name": "",
							"type": "uint256"
						}
					],
					"stateMutability": "view",
					"type": "function"
				},
				{
					"inputs": [
						{
							"internalType": "uint256",
							"name": "",
							"type": "uint256"
						}
					],
					"name": "stalls",
					"outputs": [
						{
							"internalType": "address payable",
							"name": "owner",
							"type": "address"
						},
						{
							"internalType": "enum CCNCarnival2025.OperatingDays",
							"name": "duration",
							"type": "uint8"
						},
						{
							"internalType": "uint256",
							"name": "balance",
							"type": "uint256"
						},
						{
							"internalType": "bool",
							"name": "registered",
							"type": "bool"
						},
						{
							"internalType": "bool",
							"name": "withdrawn",
							"type": "bool"
						}
					],
					"stateMutability": "view",
					"type": "function"
				},
				{
					"inputs": [
						{
							"internalType": "uint256",
							"name": "_stallId",
							"type": "uint256"
						}
					],
					"name": "withdrawFunds",
					"outputs": [],
					"stateMutability": "nonpayable",
					"type": "function"
				}
			],
			"devdoc": {
				"kind": "dev",
				"methods": {},
				"version": 1
			},
			"evm": {
				"assembly": "    /* \"contracts/CCNCarnival2025.sol\":60:5323  contract CCNCarnival2025 {... */\n  mstore(0x40, 0x80)\n  callvalue\n  dup1\n  iszero\n  tag_1\n  jumpi\n  revert(0x00, 0x00)\ntag_1:\n  pop\n  dataSize(sub_0)\n  dup1\n  dataOffset(sub_0)\n  0x00\n  codecopy\n  0x00\n  return\nstop\n\nsub_0: assembly {\n        /* \"contracts/CCNCarnival2025.sol\":60:5323  contract CCNCarnival2025 {... */\n      mstore(0x40, 0x80)\n      jumpi(tag_1, lt(calldatasize, 0x04))\n      shr(0xe0, calldataload(0x00))\n      dup1\n      0x6d0f9408\n      gt\n      tag_15\n      jumpi\n      dup1\n      0xa532db90\n      gt\n      tag_16\n      jumpi\n      dup1\n      0xa532db90\n      eq\n      tag_11\n      jumpi\n      dup1\n      0xaa8695aa\n      eq\n      tag_12\n      jumpi\n      dup1\n      0xd5f8ab89\n      eq\n      tag_13\n      jumpi\n      dup1\n      0xd8f4ee5b\n      eq\n      tag_14\n      jumpi\n      jump(tag_1)\n    tag_16:\n      dup1\n      0x6d0f9408\n      eq\n      tag_8\n      jumpi\n      dup1\n      0x99cb043a\n      eq\n      tag_9\n      jumpi\n      dup1\n      0xa4b2409e\n      eq\n      tag_10\n      jumpi\n      jump(tag_1)\n    tag_15:\n      dup1\n      0x0a3b91d9\n      eq\n      tag_2\n      jumpi\n      dup1\n      0x155dd5ee\n      eq\n      tag_3\n      jumpi\n      dup1\n      0x4b8e3a17\n      eq\n      tag_4\n      jumpi\n      dup1\n      0x5114cb52\n      eq\n      tag_5\n      jumpi\n      dup1\n      0x565834ee\n      eq\n      tag_6\n      jumpi\n      dup1\n      0x68209707\n      eq\n      tag_7\n      jumpi\n    tag_1:\n      revert(0x00, 0x00)\n        /* \"contracts/CCNCarnival2025.sol\":562:626  mapping(uint => mapping(address => bool)) public refundRequested */\n    tag_2:\n      callvalue\n      dup1\n      iszero\n      tag_17\n      jumpi\n      revert(0x00, 0x00)\n    tag_17:\n      pop\n      tag_18\n      0x04\n      dup1\n      calldatasize\n      sub\n      dup2\n      add\n      swap1\n      tag_19\n      swap2\n      swap1\n      tag_20\n      jump\t// in\n    tag_19:\n      tag_21\n      jump\t// in\n    tag_18:\n      mload(0x40)\n      tag_22\n      swap2\n      swap1\n      tag_23\n      jump\t// in\n    tag_22:\n      mload(0x40)\n      dup1\n      swap2\n      sub\n      swap1\n      return\n        /* \"contracts/CCNCarnival2025.sol\":2669:3255  function withdrawFunds(uint _stallId) external stallExists(_stallId) {... */\n    tag_3:\n      callvalue\n      dup1\n      iszero\n      tag_24\n      jumpi\n      revert(0x00, 0x00)\n    tag_24:\n      pop\n      tag_25\n      0x04\n      dup1\n      calldatasize\n      sub\n      dup2\n      add\n      swap1\n      tag_26\n      swap2\n      swap1\n      tag_27\n      jump\t// in\n    tag_26:\n      tag_28\n      jump\t// in\n    tag_25:\n      stop\n        /* \"contracts/CCNCarnival2025.sol\":4860:5320  function denyRefund(uint _stallId, address _buyer) ... */\n    tag_4:\n      callvalue\n      dup1\n      iszero\n      tag_29\n      jumpi\n      revert(0x00, 0x00)\n    tag_29:\n      pop\n      tag_30\n      0x04\n      dup1\n      calldatasize\n      sub\n      dup2\n      add\n      swap1\n      tag_31\n      swap2\n      swap1\n      tag_20\n      jump\t// in\n    tag_31:\n      tag_32\n      jump\t// in\n    tag_30:\n      stop\n        /* \"contracts/CCNCarnival2025.sol\":1397:2028  function makePayment(uint _stallId) external payable stallExists(_stallId) {... */\n    tag_5:\n      tag_33\n      0x04\n      dup1\n      calldatasize\n      sub\n      dup2\n      add\n      swap1\n      tag_34\n      swap2\n      swap1\n      tag_27\n      jump\t// in\n    tag_34:\n      tag_35\n      jump\t// in\n    tag_33:\n      stop\n        /* \"contracts/CCNCarnival2025.sol\":368:428  mapping(uint => mapping(address => uint256)) public payments */\n    tag_6:\n      callvalue\n      dup1\n      iszero\n      tag_36\n      jumpi\n      revert(0x00, 0x00)\n    tag_36:\n      pop\n      tag_37\n      0x04\n      dup1\n      calldatasize\n      sub\n      dup2\n      add\n      swap1\n      tag_38\n      swap2\n      swap1\n      tag_20\n      jump\t// in\n    tag_38:\n      tag_39\n      jump\t// in\n    tag_37:\n      mload(0x40)\n      tag_40\n      swap2\n      swap1\n      tag_41\n      jump\t// in\n    tag_40:\n      mload(0x40)\n      dup1\n      swap2\n      sub\n      swap1\n      return\n        /* \"contracts/CCNCarnival2025.sol\":3505:3649  function getPayers(uint _stallId) external view stallExists(_stallId) returns (address[] memory) {... */\n    tag_7:\n      callvalue\n      dup1\n      iszero\n      tag_42\n      jumpi\n      revert(0x00, 0x00)\n    tag_42:\n      pop\n      tag_43\n      0x04\n      dup1\n      calldatasize\n      sub\n      dup2\n      add\n      swap1\n      tag_44\n      swap2\n      swap1\n      tag_27\n      jump\t// in\n    tag_44:\n      tag_45\n      jump\t// in\n    tag_43:\n      mload(0x40)\n      tag_46\n      swap2\n      swap1\n      tag_47\n      jump\t// in\n    tag_46:\n      mload(0x40)\n      dup1\n      swap2\n      sub\n      swap1\n      return\n        /* \"contracts/CCNCarnival2025.sol\":325:361  mapping(uint => Stall) public stalls */\n    tag_8:\n      callvalue\n      dup1\n      iszero\n      tag_48\n      jumpi\n      revert(0x00, 0x00)\n    tag_48:\n      pop\n      tag_49\n      0x04\n      dup1\n      calldatasize\n      sub\n      dup2\n      add\n      swap1\n      tag_50\n      swap2\n      swap1\n      tag_27\n      jump\t// in\n    tag_50:\n      tag_51\n      jump\t// in\n    tag_49:\n      mload(0x40)\n      tag_52\n      swap6\n      swap5\n      swap4\n      swap3\n      swap2\n      swap1\n      tag_53\n      jump\t// in\n    tag_52:\n      mload(0x40)\n      dup1\n      swap2\n      sub\n      swap1\n      return\n        /* \"contracts/CCNCarnival2025.sol\":635:657  uint public stallCount */\n    tag_9:\n      callvalue\n      dup1\n      iszero\n      tag_54\n      jumpi\n      revert(0x00, 0x00)\n    tag_54:\n      pop\n      tag_55\n      tag_56\n      jump\t// in\n    tag_55:\n      mload(0x40)\n      tag_57\n      swap2\n      swap1\n      tag_41\n      jump\t// in\n    tag_57:\n      mload(0x40)\n      dup1\n      swap2\n      sub\n      swap1\n      return\n        /* \"contracts/CCNCarnival2025.sol\":3657:4049  function requestRefund(uint _stallId) external stallExists(_stallId) {... */\n    tag_10:\n      callvalue\n      dup1\n      iszero\n      tag_58\n      jumpi\n      revert(0x00, 0x00)\n    tag_58:\n      pop\n      tag_59\n      0x04\n      dup1\n      calldatasize\n      sub\n      dup2\n      add\n      swap1\n      tag_60\n      swap2\n      swap1\n      tag_27\n      jump\t// in\n    tag_60:\n      tag_61\n      jump\t// in\n    tag_59:\n      stop\n        /* \"contracts/CCNCarnival2025.sol\":3263:3497  function getWithdrawalTime(OperatingDays duration) public pure returns (uint) {... */\n    tag_11:\n      callvalue\n      dup1\n      iszero\n      tag_62\n      jumpi\n      revert(0x00, 0x00)\n    tag_62:\n      pop\n      tag_63\n      0x04\n      dup1\n      calldatasize\n      sub\n      dup2\n      add\n      swap1\n      tag_64\n      swap2\n      swap1\n      tag_65\n      jump\t// in\n    tag_64:\n      tag_66\n      jump\t// in\n    tag_63:\n      mload(0x40)\n      tag_67\n      swap2\n      swap1\n      tag_41\n      jump\t// in\n    tag_67:\n      mload(0x40)\n      dup1\n      swap2\n      sub\n      swap1\n      return\n        /* \"contracts/CCNCarnival2025.sol\":2036:2661  function issueRefund(uint _stallId, address _user) external stallExists(_stallId) {... */\n    tag_12:\n      callvalue\n      dup1\n      iszero\n      tag_68\n      jumpi\n      revert(0x00, 0x00)\n    tag_68:\n      pop\n      tag_69\n      0x04\n      dup1\n      calldatasize\n      sub\n      dup2\n      add\n      swap1\n      tag_70\n      swap2\n      swap1\n      tag_20\n      jump\t// in\n    tag_70:\n      tag_71\n      jump\t// in\n    tag_69:\n      stop\n        /* \"contracts/CCNCarnival2025.sol\":4057:4852  function approveRefund(uint _stallId, address _buyer) external stallExists(_stallId) {... */\n    tag_13:\n      callvalue\n      dup1\n      iszero\n      tag_72\n      jumpi\n      revert(0x00, 0x00)\n    tag_72:\n      pop\n      tag_73\n      0x04\n      dup1\n      calldatasize\n      sub\n      dup2\n      add\n      swap1\n      tag_74\n      swap2\n      swap1\n      tag_20\n      jump\t// in\n    tag_74:\n      tag_75\n      jump\t// in\n    tag_73:\n      stop\n        /* \"contracts/CCNCarnival2025.sol\":1150:1389  function registerStall(OperatingDays _duration) external {... */\n    tag_14:\n      callvalue\n      dup1\n      iszero\n      tag_76\n      jumpi\n      revert(0x00, 0x00)\n    tag_76:\n      pop\n      tag_77\n      0x04\n      dup1\n      calldatasize\n      sub\n      dup2\n      add\n      swap1\n      tag_78\n      swap2\n      swap1\n      tag_65\n      jump\t// in\n    tag_78:\n      tag_79\n      jump\t// in\n    tag_77:\n      stop\n        /* \"contracts/CCNCarnival2025.sol\":562:626  mapping(uint => mapping(address => bool)) public refundRequested */\n    tag_21:\n      mstore(0x20, 0x04)\n      dup2\n      0x00\n      mstore\n      mstore(0x20, keccak256(0x00, 0x40))\n      dup1\n      0x00\n      mstore\n      keccak256(0x00, 0x40)\n      0x00\n      swap2\n      pop\n      swap2\n      pop\n      swap1\n      sload\n      swap1\n      0x0100\n      exp\n      swap1\n      div\n      0xff\n      and\n      dup2\n      jump\t// out\n        /* \"contracts/CCNCarnival2025.sol\":2669:3255  function withdrawFunds(uint _stallId) external stallExists(_stallId) {... */\n    tag_28:\n        /* \"contracts/CCNCarnival2025.sol\":2728:2736  _stallId */\n      dup1\n        /* \"contracts/CCNCarnival2025.sol\":1070:1071  0 */\n      0x00\n        /* \"contracts/CCNCarnival2025.sol\":1059:1067  _stallId */\n      dup2\n        /* \"contracts/CCNCarnival2025.sol\":1059:1071  _stallId > 0 */\n      gt\n        /* \"contracts/CCNCarnival2025.sol\":1059:1097  _stallId > 0 && _stallId <= stallCount */\n      dup1\n      iszero\n      tag_81\n      jumpi\n      pop\n        /* \"contracts/CCNCarnival2025.sol\":1087:1097  stallCount */\n      sload(0x05)\n        /* \"contracts/CCNCarnival2025.sol\":1075:1083  _stallId */\n      dup2\n        /* \"contracts/CCNCarnival2025.sol\":1075:1097  _stallId <= stallCount */\n      gt\n      iszero\n        /* \"contracts/CCNCarnival2025.sol\":1059:1097  _stallId > 0 && _stallId <= stallCount */\n    tag_81:\n        /* \"contracts/CCNCarnival2025.sol\":1051:1122  require(_stallId > 0 && _stallId <= stallCount, \"Stall does not exist\") */\n      tag_82\n      jumpi\n      mload(0x40)\n      0x08c379a000000000000000000000000000000000000000000000000000000000\n      dup2\n      mstore\n      0x04\n      add\n      tag_83\n      swap1\n      tag_84\n      jump\t// in\n    tag_83:\n      mload(0x40)\n      dup1\n      swap2\n      sub\n      swap1\n      revert\n    tag_82:\n        /* \"contracts/CCNCarnival2025.sol\":2749:2764  Stall storage s */\n      0x00\n        /* \"contracts/CCNCarnival2025.sol\":2767:2773  stalls */\n      0x00\n        /* \"contracts/CCNCarnival2025.sol\":2767:2783  stalls[_stallId] */\n      0x00\n        /* \"contracts/CCNCarnival2025.sol\":2774:2782  _stallId */\n      dup5\n        /* \"contracts/CCNCarnival2025.sol\":2767:2783  stalls[_stallId] */\n      dup2\n      mstore\n      0x20\n      add\n      swap1\n      dup2\n      mstore\n      0x20\n      add\n      0x00\n      keccak256\n        /* \"contracts/CCNCarnival2025.sol\":2749:2783  Stall storage s = stalls[_stallId] */\n      swap1\n      pop\n        /* \"contracts/CCNCarnival2025.sol\":2816:2817  s */\n      dup1\n        /* \"contracts/CCNCarnival2025.sol\":2816:2823  s.owner */\n      0x00\n      add\n      0x00\n      swap1\n      sload\n      swap1\n      0x0100\n      exp\n      swap1\n      div\n      0xffffffffffffffffffffffffffffffffffffffff\n      and\n        /* \"contracts/CCNCarnival2025.sol\":2802:2823  msg.sender == s.owner */\n      0xffffffffffffffffffffffffffffffffffffffff\n      and\n        /* \"contracts/CCNCarnival2025.sol\":2802:2812  msg.sender */\n      caller\n        /* \"contracts/CCNCarnival2025.sol\":2802:2823  msg.sender == s.owner */\n      0xffffffffffffffffffffffffffffffffffffffff\n      and\n      eq\n        /* \"contracts/CCNCarnival2025.sol\":2794:2843  require(msg.sender == s.owner, \"Not stall owner\") */\n      tag_86\n      jumpi\n      mload(0x40)\n      0x08c379a000000000000000000000000000000000000000000000000000000000\n      dup2\n      mstore\n      0x04\n      add\n      tag_87\n      swap1\n      tag_88\n      jump\t// in\n    tag_87:\n      mload(0x40)\n      dup1\n      swap2\n      sub\n      swap1\n      revert\n    tag_86:\n        /* \"contracts/CCNCarnival2025.sol\":2863:2864  s */\n      dup1\n        /* \"contracts/CCNCarnival2025.sol\":2863:2874  s.withdrawn */\n      0x02\n      add\n      0x01\n      swap1\n      sload\n      swap1\n      0x0100\n      exp\n      swap1\n      div\n      0xff\n      and\n        /* \"contracts/CCNCarnival2025.sol\":2862:2874  !s.withdrawn */\n      iszero\n        /* \"contracts/CCNCarnival2025.sol\":2854:2896  require(!s.withdrawn, \"Already withdrawn\") */\n      tag_89\n      jumpi\n      mload(0x40)\n      0x08c379a000000000000000000000000000000000000000000000000000000000\n      dup2\n      mstore\n      0x04\n      add\n      tag_90\n      swap1\n      tag_91\n      jump\t// in\n    tag_90:\n      mload(0x40)\n      dup1\n      swap2\n      sub\n      swap1\n      revert\n    tag_89:\n        /* \"contracts/CCNCarnival2025.sol\":2992:3003  uint amount */\n      0x00\n        /* \"contracts/CCNCarnival2025.sol\":3006:3007  s */\n      dup2\n        /* \"contracts/CCNCarnival2025.sol\":3006:3015  s.balance */\n      0x01\n      add\n      sload\n        /* \"contracts/CCNCarnival2025.sol\":2992:3015  uint amount = s.balance */\n      swap1\n      pop\n        /* \"contracts/CCNCarnival2025.sol\":3040:3044  true */\n      0x01\n        /* \"contracts/CCNCarnival2025.sol\":3026:3027  s */\n      dup3\n        /* \"contracts/CCNCarnival2025.sol\":3026:3037  s.withdrawn */\n      0x02\n      add\n      0x01\n        /* \"contracts/CCNCarnival2025.sol\":3026:3044  s.withdrawn = true */\n      0x0100\n      exp\n      dup2\n      sload\n      dup2\n      0xff\n      mul\n      not\n      and\n      swap1\n      dup4\n      iszero\n      iszero\n      mul\n      or\n      swap1\n      sstore\n      pop\n        /* \"contracts/CCNCarnival2025.sol\":3067:3068  0 */\n      0x00\n        /* \"contracts/CCNCarnival2025.sol\":3055:3056  s */\n      dup3\n        /* \"contracts/CCNCarnival2025.sol\":3055:3064  s.balance */\n      0x01\n      add\n        /* \"contracts/CCNCarnival2025.sol\":3055:3068  s.balance = 0 */\n      dup2\n      swap1\n      sstore\n      pop\n        /* \"contracts/CCNCarnival2025.sol\":3082:3094  bool success */\n      0x00\n        /* \"contracts/CCNCarnival2025.sol\":3100:3101  s */\n      dup3\n        /* \"contracts/CCNCarnival2025.sol\":3100:3107  s.owner */\n      0x00\n      add\n      0x00\n      swap1\n      sload\n      swap1\n      0x0100\n      exp\n      swap1\n      div\n      0xffffffffffffffffffffffffffffffffffffffff\n      and\n        /* \"contracts/CCNCarnival2025.sol\":3100:3112  s.owner.call */\n      0xffffffffffffffffffffffffffffffffffffffff\n      and\n        /* \"contracts/CCNCarnival2025.sol\":3120:3126  amount */\n      dup3\n        /* \"contracts/CCNCarnival2025.sol\":3100:3131  s.owner.call{value: amount}(\"\") */\n      mload(0x40)\n      tag_92\n      swap1\n      tag_93\n      jump\t// in\n    tag_92:\n      0x00\n      mload(0x40)\n      dup1\n      dup4\n      sub\n      dup2\n      dup6\n      dup8\n      gas\n      call\n      swap3\n      pop\n      pop\n      pop\n      returndatasize\n      dup1\n      0x00\n      dup2\n      eq\n      tag_96\n      jumpi\n      mload(0x40)\n      swap2\n      pop\n      and(add(returndatasize, 0x3f), not(0x1f))\n      dup3\n      add\n      0x40\n      mstore\n      returndatasize\n      dup3\n      mstore\n      returndatasize\n      0x00\n      0x20\n      dup5\n      add\n      returndatacopy\n      jump(tag_95)\n    tag_96:\n      0x60\n      swap2\n      pop\n    tag_95:\n      pop\n        /* \"contracts/CCNCarnival2025.sol\":3081:3131  (bool success, ) = s.owner.call{value: amount}(\"\") */\n      pop\n      swap1\n      pop\n        /* \"contracts/CCNCarnival2025.sol\":3150:3157  success */\n      dup1\n        /* \"contracts/CCNCarnival2025.sol\":3142:3188  require(success, \"Withdrawal transfer failed\") */\n      tag_97\n      jumpi\n      mload(0x40)\n      0x08c379a000000000000000000000000000000000000000000000000000000000\n      dup2\n      mstore\n      0x04\n      add\n      tag_98\n      swap1\n      tag_99\n      jump\t// in\n    tag_98:\n      mload(0x40)\n      dup1\n      swap2\n      sub\n      swap1\n      revert\n    tag_97:\n        /* \"contracts/CCNCarnival2025.sol\":3206:3247  FundsWithdrawn(_stallId, s.owner, amount) */\n      0xf440aec6b52895984d061d622e6edeba6210f7c3e059be920663140c084560d7\n        /* \"contracts/CCNCarnival2025.sol\":3221:3229  _stallId */\n      dup6\n        /* \"contracts/CCNCarnival2025.sol\":3231:3232  s */\n      dup5\n        /* \"contracts/CCNCarnival2025.sol\":3231:3238  s.owner */\n      0x00\n      add\n      0x00\n      swap1\n      sload\n      swap1\n      0x0100\n      exp\n      swap1\n      div\n      0xffffffffffffffffffffffffffffffffffffffff\n      and\n        /* \"contracts/CCNCarnival2025.sol\":3240:3246  amount */\n      dup5\n        /* \"contracts/CCNCarnival2025.sol\":3206:3247  FundsWithdrawn(_stallId, s.owner, amount) */\n      mload(0x40)\n      tag_100\n      swap4\n      swap3\n      swap2\n      swap1\n      tag_101\n      jump\t// in\n    tag_100:\n      mload(0x40)\n      dup1\n      swap2\n      sub\n      swap1\n      log1\n        /* \"contracts/CCNCarnival2025.sol\":2738:3255  {... */\n      pop\n      pop\n      pop\n        /* \"contracts/CCNCarnival2025.sol\":2669:3255  function withdrawFunds(uint _stallId) external stallExists(_stallId) {... */\n      pop\n      pop\n      jump\t// out\n        /* \"contracts/CCNCarnival2025.sol\":4860:5320  function denyRefund(uint _stallId, address _buyer) ... */\n    tag_32:\n        /* \"contracts/CCNCarnival2025.sol\":4952:4960  _stallId */\n      dup2\n        /* \"contracts/CCNCarnival2025.sol\":1070:1071  0 */\n      0x00\n        /* \"contracts/CCNCarnival2025.sol\":1059:1067  _stallId */\n      dup2\n        /* \"contracts/CCNCarnival2025.sol\":1059:1071  _stallId > 0 */\n      gt\n        /* \"contracts/CCNCarnival2025.sol\":1059:1097  _stallId > 0 && _stallId <= stallCount */\n      dup1\n      iszero\n      tag_103\n      jumpi\n      pop\n        /* \"contracts/CCNCarnival2025.sol\":1087:1097  stallCount */\n      sload(0x05)\n        /* \"contracts/CCNCarnival2025.sol\":1075:1083  _stallId */\n      dup2\n        /* \"contracts/CCNCarnival2025.sol\":1075:1097  _stallId <= stallCount */\n      gt\n      iszero\n        /* \"contracts/CCNCarnival2025.sol\":1059:1097  _stallId > 0 && _stallId <= stallCount */\n    tag_103:\n        /* \"contracts/CCNCarnival2025.sol\":1051:1122  require(_stallId > 0 && _stallId <= stallCount, \"Stall does not exist\") */\n      tag_104\n      jumpi\n      mload(0x40)\n      0x08c379a000000000000000000000000000000000000000000000000000000000\n      dup2\n      mstore\n      0x04\n      add\n      tag_105\n      swap1\n      tag_84\n      jump\t// in\n    tag_105:\n      mload(0x40)\n      dup1\n      swap2\n      sub\n      swap1\n      revert\n    tag_104:\n        /* \"contracts/CCNCarnival2025.sol\":4979:4994  Stall storage s */\n      0x00\n        /* \"contracts/CCNCarnival2025.sol\":4997:5003  stalls */\n      0x00\n        /* \"contracts/CCNCarnival2025.sol\":4997:5013  stalls[_stallId] */\n      0x00\n        /* \"contracts/CCNCarnival2025.sol\":5004:5012  _stallId */\n      dup6\n        /* \"contracts/CCNCarnival2025.sol\":4997:5013  stalls[_stallId] */\n      dup2\n      mstore\n      0x20\n      add\n      swap1\n      dup2\n      mstore\n      0x20\n      add\n      0x00\n      keccak256\n        /* \"contracts/CCNCarnival2025.sol\":4979:5013  Stall storage s = stalls[_stallId] */\n      swap1\n      pop\n        /* \"contracts/CCNCarnival2025.sol\":5046:5047  s */\n      dup1\n        /* \"contracts/CCNCarnival2025.sol\":5046:5053  s.owner */\n      0x00\n      add\n      0x00\n      swap1\n      sload\n      swap1\n      0x0100\n      exp\n      swap1\n      div\n      0xffffffffffffffffffffffffffffffffffffffff\n      and\n        /* \"contracts/CCNCarnival2025.sol\":5032:5053  msg.sender == s.owner */\n      0xffffffffffffffffffffffffffffffffffffffff\n      and\n        /* \"contracts/CCNCarnival2025.sol\":5032:5042  msg.sender */\n      caller\n        /* \"contracts/CCNCarnival2025.sol\":5032:5053  msg.sender == s.owner */\n      0xffffffffffffffffffffffffffffffffffffffff\n      and\n      eq\n        /* \"contracts/CCNCarnival2025.sol\":5024:5073  require(msg.sender == s.owner, \"Not stall owner\") */\n      tag_107\n      jumpi\n      mload(0x40)\n      0x08c379a000000000000000000000000000000000000000000000000000000000\n      dup2\n      mstore\n      0x04\n      add\n      tag_108\n      swap1\n      tag_88\n      jump\t// in\n    tag_108:\n      mload(0x40)\n      dup1\n      swap2\n      sub\n      swap1\n      revert\n    tag_107:\n        /* \"contracts/CCNCarnival2025.sol\":5092:5107  refundRequested */\n      0x04\n        /* \"contracts/CCNCarnival2025.sol\":5092:5117  refundRequested[_stallId] */\n      0x00\n        /* \"contracts/CCNCarnival2025.sol\":5108:5116  _stallId */\n      dup6\n        /* \"contracts/CCNCarnival2025.sol\":5092:5117  refundRequested[_stallId] */\n      dup2\n      mstore\n      0x20\n      add\n      swap1\n      dup2\n      mstore\n      0x20\n      add\n      0x00\n      keccak256\n        /* \"contracts/CCNCarnival2025.sol\":5092:5125  refundRequested[_stallId][_buyer] */\n      0x00\n        /* \"contracts/CCNCarnival2025.sol\":5118:5124  _buyer */\n      dup5\n        /* \"contracts/CCNCarnival2025.sol\":5092:5125  refundRequested[_stallId][_buyer] */\n      0xffffffffffffffffffffffffffffffffffffffff\n      and\n      0xffffffffffffffffffffffffffffffffffffffff\n      and\n      dup2\n      mstore\n      0x20\n      add\n      swap1\n      dup2\n      mstore\n      0x20\n      add\n      0x00\n      keccak256\n      0x00\n      swap1\n      sload\n      swap1\n      0x0100\n      exp\n      swap1\n      div\n      0xff\n      and\n        /* \"contracts/CCNCarnival2025.sol\":5084:5149  require(refundRequested[_stallId][_buyer], \"No refund requested\") */\n      tag_109\n      jumpi\n      mload(0x40)\n      0x08c379a000000000000000000000000000000000000000000000000000000000\n      dup2\n      mstore\n      0x04\n      add\n      tag_110\n      swap1\n      tag_111\n      jump\t// in\n    tag_110:\n      mload(0x40)\n      dup1\n      swap2\n      sub\n      swap1\n      revert\n    tag_109:\n        /* \"contracts/CCNCarnival2025.sol\":5198:5203  false */\n      0x00\n        /* \"contracts/CCNCarnival2025.sol\":5162:5177  refundRequested */\n      0x04\n        /* \"contracts/CCNCarnival2025.sol\":5162:5187  refundRequested[_stallId] */\n      0x00\n        /* \"contracts/CCNCarnival2025.sol\":5178:5186  _stallId */\n      dup7\n        /* \"contracts/CCNCarnival2025.sol\":5162:5187  refundRequested[_stallId] */\n      dup2\n      mstore\n      0x20\n      add\n      swap1\n      dup2\n      mstore\n      0x20\n      add\n      0x00\n      keccak256\n        /* \"contracts/CCNCarnival2025.sol\":5162:5195  refundRequested[_stallId][_buyer] */\n      0x00\n        /* \"contracts/CCNCarnival2025.sol\":5188:5194  _buyer */\n      dup6\n        /* \"contracts/CCNCarnival2025.sol\":5162:5195  refundRequested[_stallId][_buyer] */\n      0xffffffffffffffffffffffffffffffffffffffff\n      and\n      0xffffffffffffffffffffffffffffffffffffffff\n      and\n      dup2\n      mstore\n      0x20\n      add\n      swap1\n      dup2\n      mstore\n      0x20\n      add\n      0x00\n      keccak256\n      0x00\n        /* \"contracts/CCNCarnival2025.sol\":5162:5203  refundRequested[_stallId][_buyer] = false */\n      0x0100\n      exp\n      dup2\n      sload\n      dup2\n      0xff\n      mul\n      not\n      and\n      swap1\n      dup4\n      iszero\n      iszero\n      mul\n      or\n      swap1\n      sstore\n      pop\n        /* \"contracts/CCNCarnival2025.sol\":5282:5312  RefundDenied(_stallId, _buyer) */\n      0x043d0d9bf4e73c0519823631bd183a34bf9a8101ec7c12629b7021972b2be8d6\n        /* \"contracts/CCNCarnival2025.sol\":5295:5303  _stallId */\n      dup5\n        /* \"contracts/CCNCarnival2025.sol\":5305:5311  _buyer */\n      dup5\n        /* \"contracts/CCNCarnival2025.sol\":5282:5312  RefundDenied(_stallId, _buyer) */\n      mload(0x40)\n      tag_112\n      swap3\n      swap2\n      swap1\n      tag_113\n      jump\t// in\n    tag_112:\n      mload(0x40)\n      dup1\n      swap2\n      sub\n      swap1\n      log1\n        /* \"contracts/CCNCarnival2025.sol\":4968:5320  {... */\n      pop\n        /* \"contracts/CCNCarnival2025.sol\":4860:5320  function denyRefund(uint _stallId, address _buyer) ... */\n      pop\n      pop\n      pop\n      jump\t// out\n        /* \"contracts/CCNCarnival2025.sol\":1397:2028  function makePayment(uint _stallId) external payable stallExists(_stallId) {... */\n    tag_35:\n        /* \"contracts/CCNCarnival2025.sol\":1462:1470  _stallId */\n      dup1\n        /* \"contracts/CCNCarnival2025.sol\":1070:1071  0 */\n      0x00\n        /* \"contracts/CCNCarnival2025.sol\":1059:1067  _stallId */\n      dup2\n        /* \"contracts/CCNCarnival2025.sol\":1059:1071  _stallId > 0 */\n      gt\n        /* \"contracts/CCNCarnival2025.sol\":1059:1097  _stallId > 0 && _stallId <= stallCount */\n      dup1\n      iszero\n      tag_115\n      jumpi\n      pop\n        /* \"contracts/CCNCarnival2025.sol\":1087:1097  stallCount */\n      sload(0x05)\n        /* \"contracts/CCNCarnival2025.sol\":1075:1083  _stallId */\n      dup2\n        /* \"contracts/CCNCarnival2025.sol\":1075:1097  _stallId <= stallCount */\n      gt\n      iszero\n        /* \"contracts/CCNCarnival2025.sol\":1059:1097  _stallId > 0 && _stallId <= stallCount */\n    tag_115:\n        /* \"contracts/CCNCarnival2025.sol\":1051:1122  require(_stallId > 0 && _stallId <= stallCount, \"Stall does not exist\") */\n      tag_116\n      jumpi\n      mload(0x40)\n      0x08c379a000000000000000000000000000000000000000000000000000000000\n      dup2\n      mstore\n      0x04\n      add\n      tag_117\n      swap1\n      tag_84\n      jump\t// in\n    tag_117:\n      mload(0x40)\n      dup1\n      swap2\n      sub\n      swap1\n      revert\n    tag_116:\n        /* \"contracts/CCNCarnival2025.sol\":1483:1498  Stall storage s */\n      0x00\n        /* \"contracts/CCNCarnival2025.sol\":1501:1507  stalls */\n      0x00\n        /* \"contracts/CCNCarnival2025.sol\":1501:1517  stalls[_stallId] */\n      0x00\n        /* \"contracts/CCNCarnival2025.sol\":1508:1516  _stallId */\n      dup5\n        /* \"contracts/CCNCarnival2025.sol\":1501:1517  stalls[_stallId] */\n      dup2\n      mstore\n      0x20\n      add\n      swap1\n      dup2\n      mstore\n      0x20\n      add\n      0x00\n      keccak256\n        /* \"contracts/CCNCarnival2025.sol\":1483:1517  Stall storage s = stalls[_stallId] */\n      swap1\n      pop\n        /* \"contracts/CCNCarnival2025.sol\":1536:1537  s */\n      dup1\n        /* \"contracts/CCNCarnival2025.sol\":1536:1548  s.registered */\n      0x02\n      add\n      0x00\n      swap1\n      sload\n      swap1\n      0x0100\n      exp\n      swap1\n      div\n      0xff\n      and\n        /* \"contracts/CCNCarnival2025.sol\":1528:1568  require(s.registered, \"Stall not found\") */\n      tag_119\n      jumpi\n      mload(0x40)\n      0x08c379a000000000000000000000000000000000000000000000000000000000\n      dup2\n      mstore\n      0x04\n      add\n      tag_120\n      swap1\n      tag_121\n      jump\t// in\n    tag_120:\n      mload(0x40)\n      dup1\n      swap2\n      sub\n      swap1\n      revert\n    tag_119:\n        /* \"contracts/CCNCarnival2025.sol\":1588:1589  s */\n      dup1\n        /* \"contracts/CCNCarnival2025.sol\":1588:1599  s.withdrawn */\n      0x02\n      add\n      0x01\n      swap1\n      sload\n      swap1\n      0x0100\n      exp\n      swap1\n      div\n      0xff\n      and\n        /* \"contracts/CCNCarnival2025.sol\":1587:1599  !s.withdrawn */\n      iszero\n        /* \"contracts/CCNCarnival2025.sol\":1579:1643  require(!s.withdrawn, \"Stall funds withdrawn, no more payments\") */\n      tag_122\n      jumpi\n      mload(0x40)\n      0x08c379a000000000000000000000000000000000000000000000000000000000\n      dup2\n      mstore\n      0x04\n      add\n      tag_123\n      swap1\n      tag_124\n      jump\t// in\n    tag_123:\n      mload(0x40)\n      dup1\n      swap2\n      sub\n      swap1\n      revert\n    tag_122:\n        /* \"contracts/CCNCarnival2025.sol\":1674:1675  0 */\n      0x00\n        /* \"contracts/CCNCarnival2025.sol\":1662:1671  msg.value */\n      callvalue\n        /* \"contracts/CCNCarnival2025.sol\":1662:1675  msg.value > 0 */\n      gt\n        /* \"contracts/CCNCarnival2025.sol\":1654:1693  require(msg.value > 0, \"Must send ETH\") */\n      tag_125\n      jumpi\n      mload(0x40)\n      0x08c379a000000000000000000000000000000000000000000000000000000000\n      dup2\n      mstore\n      0x04\n      add\n      tag_126\n      swap1\n      tag_127\n      jump\t// in\n    tag_126:\n      mload(0x40)\n      dup1\n      swap2\n      sub\n      swap1\n      revert\n    tag_125:\n        /* \"contracts/CCNCarnival2025.sol\":1719:1728  msg.value */\n      callvalue\n        /* \"contracts/CCNCarnival2025.sol\":1706:1707  s */\n      dup2\n        /* \"contracts/CCNCarnival2025.sol\":1706:1715  s.balance */\n      0x01\n      add\n      0x00\n        /* \"contracts/CCNCarnival2025.sol\":1706:1728  s.balance += msg.value */\n      dup3\n      dup3\n      sload\n      tag_128\n      swap2\n      swap1\n      tag_129\n      jump\t// in\n    tag_128:\n      swap3\n      pop\n      pop\n      dup2\n      swap1\n      sstore\n      pop\n        /* \"contracts/CCNCarnival2025.sol\":1773:1782  msg.value */\n      callvalue\n        /* \"contracts/CCNCarnival2025.sol\":1739:1747  payments */\n      0x01\n        /* \"contracts/CCNCarnival2025.sol\":1739:1757  payments[_stallId] */\n      0x00\n        /* \"contracts/CCNCarnival2025.sol\":1748:1756  _stallId */\n      dup6\n        /* \"contracts/CCNCarnival2025.sol\":1739:1757  payments[_stallId] */\n      dup2\n      mstore\n      0x20\n      add\n      swap1\n      dup2\n      mstore\n      0x20\n      add\n      0x00\n      keccak256\n        /* \"contracts/CCNCarnival2025.sol\":1739:1769  payments[_stallId][msg.sender] */\n      0x00\n        /* \"contracts/CCNCarnival2025.sol\":1758:1768  msg.sender */\n      caller\n        /* \"contracts/CCNCarnival2025.sol\":1739:1769  payments[_stallId][msg.sender] */\n      0xffffffffffffffffffffffffffffffffffffffff\n      and\n      0xffffffffffffffffffffffffffffffffffffffff\n      and\n      dup2\n      mstore\n      0x20\n      add\n      swap1\n      dup2\n      mstore\n      0x20\n      add\n      0x00\n      keccak256\n      0x00\n        /* \"contracts/CCNCarnival2025.sol\":1739:1782  payments[_stallId][msg.sender] += msg.value */\n      dup3\n      dup3\n      sload\n      tag_130\n      swap2\n      swap1\n      tag_129\n      jump\t// in\n    tag_130:\n      swap3\n      pop\n      pop\n      dup2\n      swap1\n      sstore\n      pop\n        /* \"contracts/CCNCarnival2025.sol\":1800:1813  hasPaidBefore */\n      0x03\n        /* \"contracts/CCNCarnival2025.sol\":1800:1823  hasPaidBefore[_stallId] */\n      0x00\n        /* \"contracts/CCNCarnival2025.sol\":1814:1822  _stallId */\n      dup5\n        /* \"contracts/CCNCarnival2025.sol\":1800:1823  hasPaidBefore[_stallId] */\n      dup2\n      mstore\n      0x20\n      add\n      swap1\n      dup2\n      mstore\n      0x20\n      add\n      0x00\n      keccak256\n        /* \"contracts/CCNCarnival2025.sol\":1800:1835  hasPaidBefore[_stallId][msg.sender] */\n      0x00\n        /* \"contracts/CCNCarnival2025.sol\":1824:1834  msg.sender */\n      caller\n        /* \"contracts/CCNCarnival2025.sol\":1800:1835  hasPaidBefore[_stallId][msg.sender] */\n      0xffffffffffffffffffffffffffffffffffffffff\n      and\n      0xffffffffffffffffffffffffffffffffffffffff\n      and\n      dup2\n      mstore\n      0x20\n      add\n      swap1\n      dup2\n      mstore\n      0x20\n      add\n      0x00\n      keccak256\n      0x00\n      swap1\n      sload\n      swap1\n      0x0100\n      exp\n      swap1\n      div\n      0xff\n      and\n        /* \"contracts/CCNCarnival2025.sol\":1795:1959  if (!hasPaidBefore[_stallId][msg.sender]) {... */\n      tag_131\n      jumpi\n        /* \"contracts/CCNCarnival2025.sol\":1852:1863  stallPayers */\n      0x02\n        /* \"contracts/CCNCarnival2025.sol\":1852:1873  stallPayers[_stallId] */\n      0x00\n        /* \"contracts/CCNCarnival2025.sol\":1864:1872  _stallId */\n      dup5\n        /* \"contracts/CCNCarnival2025.sol\":1852:1873  stallPayers[_stallId] */\n      dup2\n      mstore\n      0x20\n      add\n      swap1\n      dup2\n      mstore\n      0x20\n      add\n      0x00\n      keccak256\n        /* \"contracts/CCNCarnival2025.sol\":1879:1889  msg.sender */\n      caller\n        /* \"contracts/CCNCarnival2025.sol\":1852:1890  stallPayers[_stallId].push(msg.sender) */\n      swap1\n      dup1\n      0x01\n      dup2\n      sload\n      add\n      dup1\n      dup3\n      sstore\n      dup1\n      swap2\n      pop\n      pop\n      0x01\n      swap1\n      sub\n      swap1\n      0x00\n      mstore\n      keccak256(0x00, 0x20)\n      add\n      0x00\n      swap1\n      swap2\n      swap1\n      swap2\n      swap1\n      swap2\n      0x0100\n      exp\n      dup2\n      sload\n      dup2\n      0xffffffffffffffffffffffffffffffffffffffff\n      mul\n      not\n      and\n      swap1\n      dup4\n      0xffffffffffffffffffffffffffffffffffffffff\n      and\n      mul\n      or\n      swap1\n      sstore\n      pop\n        /* \"contracts/CCNCarnival2025.sol\":1943:1947  true */\n      0x01\n        /* \"contracts/CCNCarnival2025.sol\":1905:1918  hasPaidBefore */\n      0x03\n        /* \"contracts/CCNCarnival2025.sol\":1905:1928  hasPaidBefore[_stallId] */\n      0x00\n        /* \"contracts/CCNCarnival2025.sol\":1919:1927  _stallId */\n      dup6\n        /* \"contracts/CCNCarnival2025.sol\":1905:1928  hasPaidBefore[_stallId] */\n      dup2\n      mstore\n      0x20\n      add\n      swap1\n      dup2\n      mstore\n      0x20\n      add\n      0x00\n      keccak256\n        /* \"contracts/CCNCarnival2025.sol\":1905:1940  hasPaidBefore[_stallId][msg.sender] */\n      0x00\n        /* \"contracts/CCNCarnival2025.sol\":1929:1939  msg.sender */\n      caller\n        /* \"contracts/CCNCarnival2025.sol\":1905:1940  hasPaidBefore[_stallId][msg.sender] */\n      0xffffffffffffffffffffffffffffffffffffffff\n      and\n      0xffffffffffffffffffffffffffffffffffffffff\n      and\n      dup2\n      mstore\n      0x20\n      add\n      swap1\n      dup2\n      mstore\n      0x20\n      add\n      0x00\n      keccak256\n      0x00\n        /* \"contracts/CCNCarnival2025.sol\":1905:1947  hasPaidBefore[_stallId][msg.sender] = true */\n      0x0100\n      exp\n      dup2\n      sload\n      dup2\n      0xff\n      mul\n      not\n      and\n      swap1\n      dup4\n      iszero\n      iszero\n      mul\n      or\n      swap1\n      sstore\n      pop\n        /* \"contracts/CCNCarnival2025.sol\":1795:1959  if (!hasPaidBefore[_stallId][msg.sender]) {... */\n    tag_131:\n        /* \"contracts/CCNCarnival2025.sol\":1976:2020  PaymentMade(_stallId, msg.sender, msg.value) */\n      0x61ac8e9b735e72d1382cbf7d35f2ff3764dae09d7faf7d90787bf7f9ae76e4c8\n        /* \"contracts/CCNCarnival2025.sol\":1988:1996  _stallId */\n      dup4\n        /* \"contracts/CCNCarnival2025.sol\":1998:2008  msg.sender */\n      caller\n        /* \"contracts/CCNCarnival2025.sol\":2010:2019  msg.value */\n      callvalue\n        /* \"contracts/CCNCarnival2025.sol\":1976:2020  PaymentMade(_stallId, msg.sender, msg.value) */\n      mload(0x40)\n      tag_133\n      swap4\n      swap3\n      swap2\n      swap1\n      tag_134\n      jump\t// in\n    tag_133:\n      mload(0x40)\n      dup1\n      swap2\n      sub\n      swap1\n      log1\n        /* \"contracts/CCNCarnival2025.sol\":1472:2028  {... */\n      pop\n        /* \"contracts/CCNCarnival2025.sol\":1397:2028  function makePayment(uint _stallId) external payable stallExists(_stallId) {... */\n      pop\n      pop\n      jump\t// out\n        /* \"contracts/CCNCarnival2025.sol\":368:428  mapping(uint => mapping(address => uint256)) public payments */\n    tag_39:\n      mstore(0x20, 0x01)\n      dup2\n      0x00\n      mstore\n      mstore(0x20, keccak256(0x00, 0x40))\n      dup1\n      0x00\n      mstore\n      keccak256(0x00, 0x40)\n      0x00\n      swap2\n      pop\n      swap2\n      pop\n      pop\n      sload\n      dup2\n      jump\t// out\n        /* \"contracts/CCNCarnival2025.sol\":3505:3649  function getPayers(uint _stallId) external view stallExists(_stallId) returns (address[] memory) {... */\n    tag_45:\n        /* \"contracts/CCNCarnival2025.sol\":3584:3600  address[] memory */\n      0x60\n        /* \"contracts/CCNCarnival2025.sol\":3565:3573  _stallId */\n      dup2\n        /* \"contracts/CCNCarnival2025.sol\":1070:1071  0 */\n      0x00\n        /* \"contracts/CCNCarnival2025.sol\":1059:1067  _stallId */\n      dup2\n        /* \"contracts/CCNCarnival2025.sol\":1059:1071  _stallId > 0 */\n      gt\n        /* \"contracts/CCNCarnival2025.sol\":1059:1097  _stallId > 0 && _stallId <= stallCount */\n      dup1\n      iszero\n      tag_136\n      jumpi\n      pop\n        /* \"contracts/CCNCarnival2025.sol\":1087:1097  stallCount */\n      sload(0x05)\n        /* \"contracts/CCNCarnival2025.sol\":1075:1083  _stallId */\n      dup2\n        /* \"contracts/CCNCarnival2025.sol\":1075:1097  _stallId <= stallCount */\n      gt\n      iszero\n        /* \"contracts/CCNCarnival2025.sol\":1059:1097  _stallId > 0 && _stallId <= stallCount */\n    tag_136:\n        /* \"contracts/CCNCarnival2025.sol\":1051:1122  require(_stallId > 0 && _stallId <= stallCount, \"Stall does not exist\") */\n      tag_137\n      jumpi\n      mload(0x40)\n      0x08c379a000000000000000000000000000000000000000000000000000000000\n      dup2\n      mstore\n      0x04\n      add\n      tag_138\n      swap1\n      tag_84\n      jump\t// in\n    tag_138:\n      mload(0x40)\n      dup1\n      swap2\n      sub\n      swap1\n      revert\n    tag_137:\n        /* \"contracts/CCNCarnival2025.sol\":3620:3631  stallPayers */\n      0x02\n        /* \"contracts/CCNCarnival2025.sol\":3620:3641  stallPayers[_stallId] */\n      0x00\n        /* \"contracts/CCNCarnival2025.sol\":3632:3640  _stallId */\n      dup5\n        /* \"contracts/CCNCarnival2025.sol\":3620:3641  stallPayers[_stallId] */\n      dup2\n      mstore\n      0x20\n      add\n      swap1\n      dup2\n      mstore\n      0x20\n      add\n      0x00\n      keccak256\n        /* \"contracts/CCNCarnival2025.sol\":3613:3641  return stallPayers[_stallId] */\n      dup1\n      sload\n      dup1\n      0x20\n      mul\n      0x20\n      add\n      mload(0x40)\n      swap1\n      dup2\n      add\n      0x40\n      mstore\n      dup1\n      swap3\n      swap2\n      swap1\n      dup2\n      dup2\n      mstore\n      0x20\n      add\n      dup3\n      dup1\n      sload\n      dup1\n      iszero\n      tag_140\n      jumpi\n      0x20\n      mul\n      dup3\n      add\n      swap2\n      swap1\n      0x00\n      mstore\n      keccak256(0x00, 0x20)\n      swap1\n    tag_141:\n      dup2\n      0x00\n      swap1\n      sload\n      swap1\n      0x0100\n      exp\n      swap1\n      div\n      0xffffffffffffffffffffffffffffffffffffffff\n      and\n      0xffffffffffffffffffffffffffffffffffffffff\n      and\n      dup2\n      mstore\n      0x20\n      add\n      swap1\n      0x01\n      add\n      swap1\n      dup1\n      dup4\n      gt\n      tag_141\n      jumpi\n    tag_140:\n      pop\n      pop\n      pop\n      pop\n      pop\n      swap2\n      pop\n        /* \"contracts/CCNCarnival2025.sol\":3505:3649  function getPayers(uint _stallId) external view stallExists(_stallId) returns (address[] memory) {... */\n      pop\n      swap2\n      swap1\n      pop\n      jump\t// out\n        /* \"contracts/CCNCarnival2025.sol\":325:361  mapping(uint => Stall) public stalls */\n    tag_51:\n      mstore(0x20, 0x00)\n      dup1\n      0x00\n      mstore\n      keccak256(0x00, 0x40)\n      0x00\n      swap2\n      pop\n      swap1\n      pop\n      dup1\n      0x00\n      add\n      0x00\n      swap1\n      sload\n      swap1\n      0x0100\n      exp\n      swap1\n      div\n      0xffffffffffffffffffffffffffffffffffffffff\n      and\n      swap1\n      dup1\n      0x00\n      add\n      0x14\n      swap1\n      sload\n      swap1\n      0x0100\n      exp\n      swap1\n      div\n      0xff\n      and\n      swap1\n      dup1\n      0x01\n      add\n      sload\n      swap1\n      dup1\n      0x02\n      add\n      0x00\n      swap1\n      sload\n      swap1\n      0x0100\n      exp\n      swap1\n      div\n      0xff\n      and\n      swap1\n      dup1\n      0x02\n      add\n      0x01\n      swap1\n      sload\n      swap1\n      0x0100\n      exp\n      swap1\n      div\n      0xff\n      and\n      swap1\n      pop\n      dup6\n      jump\t// out\n        /* \"contracts/CCNCarnival2025.sol\":635:657  uint public stallCount */\n    tag_56:\n      sload(0x05)\n      dup2\n      jump\t// out\n        /* \"contracts/CCNCarnival2025.sol\":3657:4049  function requestRefund(uint _stallId) external stallExists(_stallId) {... */\n    tag_61:\n        /* \"contracts/CCNCarnival2025.sol\":3716:3724  _stallId */\n      dup1\n        /* \"contracts/CCNCarnival2025.sol\":1070:1071  0 */\n      0x00\n        /* \"contracts/CCNCarnival2025.sol\":1059:1067  _stallId */\n      dup2\n        /* \"contracts/CCNCarnival2025.sol\":1059:1071  _stallId > 0 */\n      gt\n        /* \"contracts/CCNCarnival2025.sol\":1059:1097  _stallId > 0 && _stallId <= stallCount */\n      dup1\n      iszero\n      tag_143\n      jumpi\n      pop\n        /* \"contracts/CCNCarnival2025.sol\":1087:1097  stallCount */\n      sload(0x05)\n        /* \"contracts/CCNCarnival2025.sol\":1075:1083  _stallId */\n      dup2\n        /* \"contracts/CCNCarnival2025.sol\":1075:1097  _stallId <= stallCount */\n      gt\n      iszero\n        /* \"contracts/CCNCarnival2025.sol\":1059:1097  _stallId > 0 && _stallId <= stallCount */\n    tag_143:\n        /* \"contracts/CCNCarnival2025.sol\":1051:1122  require(_stallId > 0 && _stallId <= stallCount, \"Stall does not exist\") */\n      tag_144\n      jumpi\n      mload(0x40)\n      0x08c379a000000000000000000000000000000000000000000000000000000000\n      dup2\n      mstore\n      0x04\n      add\n      tag_145\n      swap1\n      tag_84\n      jump\t// in\n    tag_145:\n      mload(0x40)\n      dup1\n      swap2\n      sub\n      swap1\n      revert\n    tag_144:\n        /* \"contracts/CCNCarnival2025.sol\":3778:3779  0 */\n      0x00\n        /* \"contracts/CCNCarnival2025.sol\":3745:3753  payments */\n      0x01\n        /* \"contracts/CCNCarnival2025.sol\":3745:3763  payments[_stallId] */\n      0x00\n        /* \"contracts/CCNCarnival2025.sol\":3754:3762  _stallId */\n      dup5\n        /* \"contracts/CCNCarnival2025.sol\":3745:3763  payments[_stallId] */\n      dup2\n      mstore\n      0x20\n      add\n      swap1\n      dup2\n      mstore\n      0x20\n      add\n      0x00\n      keccak256\n        /* \"contracts/CCNCarnival2025.sol\":3745:3775  payments[_stallId][msg.sender] */\n      0x00\n        /* \"contracts/CCNCarnival2025.sol\":3764:3774  msg.sender */\n      caller\n        /* \"contracts/CCNCarnival2025.sol\":3745:3775  payments[_stallId][msg.sender] */\n      0xffffffffffffffffffffffffffffffffffffffff\n      and\n      0xffffffffffffffffffffffffffffffffffffffff\n      and\n      dup2\n      mstore\n      0x20\n      add\n      swap1\n      dup2\n      mstore\n      0x20\n      add\n      0x00\n      keccak256\n      sload\n        /* \"contracts/CCNCarnival2025.sol\":3745:3779  payments[_stallId][msg.sender] > 0 */\n      gt\n        /* \"contracts/CCNCarnival2025.sol\":3737:3799  require(payments[_stallId][msg.sender] > 0, \"No payment made\") */\n      tag_147\n      jumpi\n      mload(0x40)\n      0x08c379a000000000000000000000000000000000000000000000000000000000\n      dup2\n      mstore\n      0x04\n      add\n      tag_148\n      swap1\n      tag_149\n      jump\t// in\n    tag_148:\n      mload(0x40)\n      dup1\n      swap2\n      sub\n      swap1\n      revert\n    tag_147:\n        /* \"contracts/CCNCarnival2025.sol\":3819:3834  refundRequested */\n      0x04\n        /* \"contracts/CCNCarnival2025.sol\":3819:3844  refundRequested[_stallId] */\n      0x00\n        /* \"contracts/CCNCarnival2025.sol\":3835:3843  _stallId */\n      dup4\n        /* \"contracts/CCNCarnival2025.sol\":3819:3844  refundRequested[_stallId] */\n      dup2\n      mstore\n      0x20\n      add\n      swap1\n      dup2\n      mstore\n      0x20\n      add\n      0x00\n      keccak256\n        /* \"contracts/CCNCarnival2025.sol\":3819:3856  refundRequested[_stallId][msg.sender] */\n      0x00\n        /* \"contracts/CCNCarnival2025.sol\":3845:3855  msg.sender */\n      caller\n        /* \"contracts/CCNCarnival2025.sol\":3819:3856  refundRequested[_stallId][msg.sender] */\n      0xffffffffffffffffffffffffffffffffffffffff\n      and\n      0xffffffffffffffffffffffffffffffffffffffff\n      and\n      dup2\n      mstore\n      0x20\n      add\n      swap1\n      dup2\n      mstore\n      0x20\n      add\n      0x00\n      keccak256\n      0x00\n      swap1\n      sload\n      swap1\n      0x0100\n      exp\n      swap1\n      div\n      0xff\n      and\n        /* \"contracts/CCNCarnival2025.sol\":3818:3856  !refundRequested[_stallId][msg.sender] */\n      iszero\n        /* \"contracts/CCNCarnival2025.sol\":3810:3885  require(!refundRequested[_stallId][msg.sender], \"Refund already requested\") */\n      tag_150\n      jumpi\n      mload(0x40)\n      0x08c379a000000000000000000000000000000000000000000000000000000000\n      dup2\n      mstore\n      0x04\n      add\n      tag_151\n      swap1\n      tag_152\n      jump\t// in\n    tag_151:\n      mload(0x40)\n      dup1\n      swap2\n      sub\n      swap1\n      revert\n    tag_150:\n        /* \"contracts/CCNCarnival2025.sol\":3946:3950  true */\n      0x01\n        /* \"contracts/CCNCarnival2025.sol\":3906:3921  refundRequested */\n      0x04\n        /* \"contracts/CCNCarnival2025.sol\":3906:3931  refundRequested[_stallId] */\n      0x00\n        /* \"contracts/CCNCarnival2025.sol\":3922:3930  _stallId */\n      dup5\n        /* \"contracts/CCNCarnival2025.sol\":3906:3931  refundRequested[_stallId] */\n      dup2\n      mstore\n      0x20\n      add\n      swap1\n      dup2\n      mstore\n      0x20\n      add\n      0x00\n      keccak256\n        /* \"contracts/CCNCarnival2025.sol\":3906:3943  refundRequested[_stallId][msg.sender] */\n      0x00\n        /* \"contracts/CCNCarnival2025.sol\":3932:3942  msg.sender */\n      caller\n        /* \"contracts/CCNCarnival2025.sol\":3906:3943  refundRequested[_stallId][msg.sender] */\n      0xffffffffffffffffffffffffffffffffffffffff\n      and\n      0xffffffffffffffffffffffffffffffffffffffff\n      and\n      dup2\n      mstore\n      0x20\n      add\n      swap1\n      dup2\n      mstore\n      0x20\n      add\n      0x00\n      keccak256\n      0x00\n        /* \"contracts/CCNCarnival2025.sol\":3906:3950  refundRequested[_stallId][msg.sender] = true */\n      0x0100\n      exp\n      dup2\n      sload\n      dup2\n      0xff\n      mul\n      not\n      and\n      swap1\n      dup4\n      iszero\n      iszero\n      mul\n      or\n      swap1\n      sstore\n      pop\n        /* \"contracts/CCNCarnival2025.sol\":3657:4049  function requestRefund(uint _stallId) external stallExists(_stallId) {... */\n      pop\n      pop\n      jump\t// out\n        /* \"contracts/CCNCarnival2025.sol\":3263:3497  function getWithdrawalTime(OperatingDays duration) public pure returns (uint) {... */\n    tag_66:\n        /* \"contracts/CCNCarnival2025.sol\":3335:3339  uint */\n      0x00\n        /* \"contracts/CCNCarnival2025.sol\":3368:3388  OperatingDays.Friday */\n      0x00\n        /* \"contracts/CCNCarnival2025.sol\":3356:3388  duration == OperatingDays.Friday */\n      0x02\n      dup2\n      gt\n      iszero\n      tag_154\n      jumpi\n      tag_155\n      tag_156\n      jump\t// in\n    tag_155:\n    tag_154:\n        /* \"contracts/CCNCarnival2025.sol\":3356:3364  duration */\n      dup3\n        /* \"contracts/CCNCarnival2025.sol\":3356:3388  duration == OperatingDays.Friday */\n      0x02\n      dup2\n      gt\n      iszero\n      tag_157\n      jumpi\n      tag_158\n      tag_156\n      jump\t// in\n    tag_158:\n    tag_157:\n      sub\n        /* \"contracts/CCNCarnival2025.sol\":3352:3403  if (duration == OperatingDays.Friday) return 1 days */\n      tag_159\n      jumpi\n        /* \"contracts/CCNCarnival2025.sol\":3397:3403  1 days */\n      0x015180\n        /* \"contracts/CCNCarnival2025.sol\":3390:3403  return 1 days */\n      swap1\n      pop\n      jump(tag_153)\n        /* \"contracts/CCNCarnival2025.sol\":3352:3403  if (duration == OperatingDays.Friday) return 1 days */\n    tag_159:\n        /* \"contracts/CCNCarnival2025.sol\":3430:3450  OperatingDays.FriSat */\n      0x01\n        /* \"contracts/CCNCarnival2025.sol\":3418:3450  duration == OperatingDays.FriSat */\n      0x02\n      dup2\n      gt\n      iszero\n      tag_160\n      jumpi\n      tag_161\n      tag_156\n      jump\t// in\n    tag_161:\n    tag_160:\n        /* \"contracts/CCNCarnival2025.sol\":3418:3426  duration */\n      dup3\n        /* \"contracts/CCNCarnival2025.sol\":3418:3450  duration == OperatingDays.FriSat */\n      0x02\n      dup2\n      gt\n      iszero\n      tag_162\n      jumpi\n      tag_163\n      tag_156\n      jump\t// in\n    tag_163:\n    tag_162:\n      sub\n        /* \"contracts/CCNCarnival2025.sol\":3414:3465  if (duration == OperatingDays.FriSat) return 2 days */\n      tag_164\n      jumpi\n        /* \"contracts/CCNCarnival2025.sol\":3459:3465  2 days */\n      0x02a300\n        /* \"contracts/CCNCarnival2025.sol\":3452:3465  return 2 days */\n      swap1\n      pop\n      jump(tag_153)\n        /* \"contracts/CCNCarnival2025.sol\":3414:3465  if (duration == OperatingDays.FriSat) return 2 days */\n    tag_164:\n        /* \"contracts/CCNCarnival2025.sol\":3483:3489  3 days */\n      0x03f480\n        /* \"contracts/CCNCarnival2025.sol\":3476:3489  return 3 days */\n      swap1\n      pop\n        /* \"contracts/CCNCarnival2025.sol\":3263:3497  function getWithdrawalTime(OperatingDays duration) public pure returns (uint) {... */\n    tag_153:\n      swap2\n      swap1\n      pop\n      jump\t// out\n        /* \"contracts/CCNCarnival2025.sol\":2036:2661  function issueRefund(uint _stallId, address _user) external stallExists(_stallId) {... */\n    tag_71:\n        /* \"contracts/CCNCarnival2025.sol\":2108:2116  _stallId */\n      dup2\n        /* \"contracts/CCNCarnival2025.sol\":1070:1071  0 */\n      0x00\n        /* \"contracts/CCNCarnival2025.sol\":1059:1067  _stallId */\n      dup2\n        /* \"contracts/CCNCarnival2025.sol\":1059:1071  _stallId > 0 */\n      gt\n        /* \"contracts/CCNCarnival2025.sol\":1059:1097  _stallId > 0 && _stallId <= stallCount */\n      dup1\n      iszero\n      tag_166\n      jumpi\n      pop\n        /* \"contracts/CCNCarnival2025.sol\":1087:1097  stallCount */\n      sload(0x05)\n        /* \"contracts/CCNCarnival2025.sol\":1075:1083  _stallId */\n      dup2\n        /* \"contracts/CCNCarnival2025.sol\":1075:1097  _stallId <= stallCount */\n      gt\n      iszero\n        /* \"contracts/CCNCarnival2025.sol\":1059:1097  _stallId > 0 && _stallId <= stallCount */\n    tag_166:\n        /* \"contracts/CCNCarnival2025.sol\":1051:1122  require(_stallId > 0 && _stallId <= stallCount, \"Stall does not exist\") */\n      tag_167\n      jumpi\n      mload(0x40)\n      0x08c379a000000000000000000000000000000000000000000000000000000000\n      dup2\n      mstore\n      0x04\n      add\n      tag_168\n      swap1\n      tag_84\n      jump\t// in\n    tag_168:\n      mload(0x40)\n      dup1\n      swap2\n      sub\n      swap1\n      revert\n    tag_167:\n        /* \"contracts/CCNCarnival2025.sol\":2129:2144  Stall storage s */\n      0x00\n        /* \"contracts/CCNCarnival2025.sol\":2147:2153  stalls */\n      0x00\n        /* \"contracts/CCNCarnival2025.sol\":2147:2163  stalls[_stallId] */\n      0x00\n        /* \"contracts/CCNCarnival2025.sol\":2154:2162  _stallId */\n      dup6\n        /* \"contracts/CCNCarnival2025.sol\":2147:2163  stalls[_stallId] */\n      dup2\n      mstore\n      0x20\n      add\n      swap1\n      dup2\n      mstore\n      0x20\n      add\n      0x00\n      keccak256\n        /* \"contracts/CCNCarnival2025.sol\":2129:2163  Stall storage s = stalls[_stallId] */\n      swap1\n      pop\n        /* \"contracts/CCNCarnival2025.sol\":2196:2197  s */\n      dup1\n        /* \"contracts/CCNCarnival2025.sol\":2196:2203  s.owner */\n      0x00\n      add\n      0x00\n      swap1\n      sload\n      swap1\n      0x0100\n      exp\n      swap1\n      div\n      0xffffffffffffffffffffffffffffffffffffffff\n      and\n        /* \"contracts/CCNCarnival2025.sol\":2182:2203  msg.sender == s.owner */\n      0xffffffffffffffffffffffffffffffffffffffff\n      and\n        /* \"contracts/CCNCarnival2025.sol\":2182:2192  msg.sender */\n      caller\n        /* \"contracts/CCNCarnival2025.sol\":2182:2203  msg.sender == s.owner */\n      0xffffffffffffffffffffffffffffffffffffffff\n      and\n      eq\n        /* \"contracts/CCNCarnival2025.sol\":2174:2223  require(msg.sender == s.owner, \"Not stall owner\") */\n      tag_170\n      jumpi\n      mload(0x40)\n      0x08c379a000000000000000000000000000000000000000000000000000000000\n      dup2\n      mstore\n      0x04\n      add\n      tag_171\n      swap1\n      tag_88\n      jump\t// in\n    tag_171:\n      mload(0x40)\n      dup1\n      swap2\n      sub\n      swap1\n      revert\n    tag_170:\n        /* \"contracts/CCNCarnival2025.sol\":2236:2250  uint256 amount */\n      0x00\n        /* \"contracts/CCNCarnival2025.sol\":2253:2261  payments */\n      0x01\n        /* \"contracts/CCNCarnival2025.sol\":2253:2271  payments[_stallId] */\n      0x00\n        /* \"contracts/CCNCarnival2025.sol\":2262:2270  _stallId */\n      dup7\n        /* \"contracts/CCNCarnival2025.sol\":2253:2271  payments[_stallId] */\n      dup2\n      mstore\n      0x20\n      add\n      swap1\n      dup2\n      mstore\n      0x20\n      add\n      0x00\n      keccak256\n        /* \"contracts/CCNCarnival2025.sol\":2253:2278  payments[_stallId][_user] */\n      0x00\n        /* \"contracts/CCNCarnival2025.sol\":2272:2277  _user */\n      dup6\n        /* \"contracts/CCNCarnival2025.sol\":2253:2278  payments[_stallId][_user] */\n      0xffffffffffffffffffffffffffffffffffffffff\n      and\n      0xffffffffffffffffffffffffffffffffffffffff\n      and\n      dup2\n      mstore\n      0x20\n      add\n      swap1\n      dup2\n      mstore\n      0x20\n      add\n      0x00\n      keccak256\n      sload\n        /* \"contracts/CCNCarnival2025.sol\":2236:2278  uint256 amount = payments[_stallId][_user] */\n      swap1\n      pop\n        /* \"contracts/CCNCarnival2025.sol\":2306:2307  0 */\n      0x00\n        /* \"contracts/CCNCarnival2025.sol\":2297:2303  amount */\n      dup2\n        /* \"contracts/CCNCarnival2025.sol\":2297:2307  amount > 0 */\n      gt\n        /* \"contracts/CCNCarnival2025.sol\":2289:2332  require(amount > 0, \"No payment to refund\") */\n      tag_172\n      jumpi\n      mload(0x40)\n      0x08c379a000000000000000000000000000000000000000000000000000000000\n      dup2\n      mstore\n      0x04\n      add\n      tag_173\n      swap1\n      tag_174\n      jump\t// in\n    tag_173:\n      mload(0x40)\n      dup1\n      swap2\n      sub\n      swap1\n      revert\n    tag_172:\n        /* \"contracts/CCNCarnival2025.sol\":2361:2362  s */\n      dup2\n        /* \"contracts/CCNCarnival2025.sol\":2361:2370  s.balance */\n      0x01\n      add\n      sload\n        /* \"contracts/CCNCarnival2025.sol\":2351:2357  amount */\n      dup2\n        /* \"contracts/CCNCarnival2025.sol\":2351:2370  amount <= s.balance */\n      gt\n      iszero\n        /* \"contracts/CCNCarnival2025.sol\":2343:2403  require(amount <= s.balance, \"Refund exceeds stall balance\") */\n      tag_175\n      jumpi\n      mload(0x40)\n      0x08c379a000000000000000000000000000000000000000000000000000000000\n      dup2\n      mstore\n      0x04\n      add\n      tag_176\n      swap1\n      tag_177\n      jump\t// in\n    tag_176:\n      mload(0x40)\n      dup1\n      swap2\n      sub\n      swap1\n      revert\n    tag_175:\n        /* \"contracts/CCNCarnival2025.sol\":2429:2435  amount */\n      dup1\n        /* \"contracts/CCNCarnival2025.sol\":2416:2417  s */\n      dup3\n        /* \"contracts/CCNCarnival2025.sol\":2416:2425  s.balance */\n      0x01\n      add\n      0x00\n        /* \"contracts/CCNCarnival2025.sol\":2416:2435  s.balance -= amount */\n      dup3\n      dup3\n      sload\n      tag_178\n      swap2\n      swap1\n      tag_179\n      jump\t// in\n    tag_178:\n      swap3\n      pop\n      pop\n      dup2\n      swap1\n      sstore\n      pop\n        /* \"contracts/CCNCarnival2025.sol\":2474:2475  0 */\n      0x00\n        /* \"contracts/CCNCarnival2025.sol\":2446:2454  payments */\n      0x01\n        /* \"contracts/CCNCarnival2025.sol\":2446:2464  payments[_stallId] */\n      0x00\n        /* \"contracts/CCNCarnival2025.sol\":2455:2463  _stallId */\n      dup8\n        /* \"contracts/CCNCarnival2025.sol\":2446:2464  payments[_stallId] */\n      dup2\n      mstore\n      0x20\n      add\n      swap1\n      dup2\n      mstore\n      0x20\n      add\n      0x00\n      keccak256\n        /* \"contracts/CCNCarnival2025.sol\":2446:2471  payments[_stallId][_user] */\n      0x00\n        /* \"contracts/CCNCarnival2025.sol\":2465:2470  _user */\n      dup7\n        /* \"contracts/CCNCarnival2025.sol\":2446:2471  payments[_stallId][_user] */\n      0xffffffffffffffffffffffffffffffffffffffff\n      and\n      0xffffffffffffffffffffffffffffffffffffffff\n      and\n      dup2\n      mstore\n      0x20\n      add\n      swap1\n      dup2\n      mstore\n      0x20\n      add\n      0x00\n      keccak256\n        /* \"contracts/CCNCarnival2025.sol\":2446:2475  payments[_stallId][_user] = 0 */\n      dup2\n      swap1\n      sstore\n      pop\n        /* \"contracts/CCNCarnival2025.sol\":2489:2501  bool success */\n      0x00\n        /* \"contracts/CCNCarnival2025.sol\":2515:2520  _user */\n      dup5\n        /* \"contracts/CCNCarnival2025.sol\":2507:2526  payable(_user).call */\n      0xffffffffffffffffffffffffffffffffffffffff\n      and\n        /* \"contracts/CCNCarnival2025.sol\":2534:2540  amount */\n      dup3\n        /* \"contracts/CCNCarnival2025.sol\":2507:2545  payable(_user).call{value: amount}(\"\") */\n      mload(0x40)\n      tag_180\n      swap1\n      tag_93\n      jump\t// in\n    tag_180:\n      0x00\n      mload(0x40)\n      dup1\n      dup4\n      sub\n      dup2\n      dup6\n      dup8\n      gas\n      call\n      swap3\n      pop\n      pop\n      pop\n      returndatasize\n      dup1\n      0x00\n      dup2\n      eq\n      tag_183\n      jumpi\n      mload(0x40)\n      swap2\n      pop\n      and(add(returndatasize, 0x3f), not(0x1f))\n      dup3\n      add\n      0x40\n      mstore\n      returndatasize\n      dup3\n      mstore\n      returndatasize\n      0x00\n      0x20\n      dup5\n      add\n      returndatacopy\n      jump(tag_182)\n    tag_183:\n      0x60\n      swap2\n      pop\n    tag_182:\n      pop\n        /* \"contracts/CCNCarnival2025.sol\":2488:2545  (bool success, ) = payable(_user).call{value: amount}(\"\") */\n      pop\n      swap1\n      pop\n        /* \"contracts/CCNCarnival2025.sol\":2564:2571  success */\n      dup1\n        /* \"contracts/CCNCarnival2025.sol\":2556:2598  require(success, \"Refund transfer failed\") */\n      tag_184\n      jumpi\n      mload(0x40)\n      0x08c379a000000000000000000000000000000000000000000000000000000000\n      dup2\n      mstore\n      0x04\n      add\n      tag_185\n      swap1\n      tag_186\n      jump\t// in\n    tag_185:\n      mload(0x40)\n      dup1\n      swap2\n      sub\n      swap1\n      revert\n    tag_184:\n        /* \"contracts/CCNCarnival2025.sol\":2616:2653  RefundIssued(_stallId, _user, amount) */\n      0x7a482fdeb6bc9a1376f597068a214a7a39472bb2eff1b8cad21ba04f49ddca1b\n        /* \"contracts/CCNCarnival2025.sol\":2629:2637  _stallId */\n      dup7\n        /* \"contracts/CCNCarnival2025.sol\":2639:2644  _user */\n      dup7\n        /* \"contracts/CCNCarnival2025.sol\":2646:2652  amount */\n      dup5\n        /* \"contracts/CCNCarnival2025.sol\":2616:2653  RefundIssued(_stallId, _user, amount) */\n      mload(0x40)\n      tag_187\n      swap4\n      swap3\n      swap2\n      swap1\n      tag_134\n      jump\t// in\n    tag_187:\n      mload(0x40)\n      dup1\n      swap2\n      sub\n      swap1\n      log1\n        /* \"contracts/CCNCarnival2025.sol\":2118:2661  {... */\n      pop\n      pop\n      pop\n        /* \"contracts/CCNCarnival2025.sol\":2036:2661  function issueRefund(uint _stallId, address _user) external stallExists(_stallId) {... */\n      pop\n      pop\n      pop\n      jump\t// out\n        /* \"contracts/CCNCarnival2025.sol\":4057:4852  function approveRefund(uint _stallId, address _buyer) external stallExists(_stallId) {... */\n    tag_75:\n        /* \"contracts/CCNCarnival2025.sol\":4132:4140  _stallId */\n      dup2\n        /* \"contracts/CCNCarnival2025.sol\":1070:1071  0 */\n      0x00\n        /* \"contracts/CCNCarnival2025.sol\":1059:1067  _stallId */\n      dup2\n        /* \"contracts/CCNCarnival2025.sol\":1059:1071  _stallId > 0 */\n      gt\n        /* \"contracts/CCNCarnival2025.sol\":1059:1097  _stallId > 0 && _stallId <= stallCount */\n      dup1\n      iszero\n      tag_189\n      jumpi\n      pop\n        /* \"contracts/CCNCarnival2025.sol\":1087:1097  stallCount */\n      sload(0x05)\n        /* \"contracts/CCNCarnival2025.sol\":1075:1083  _stallId */\n      dup2\n        /* \"contracts/CCNCarnival2025.sol\":1075:1097  _stallId <= stallCount */\n      gt\n      iszero\n        /* \"contracts/CCNCarnival2025.sol\":1059:1097  _stallId > 0 && _stallId <= stallCount */\n    tag_189:\n        /* \"contracts/CCNCarnival2025.sol\":1051:1122  require(_stallId > 0 && _stallId <= stallCount, \"Stall does not exist\") */\n      tag_190\n      jumpi\n      mload(0x40)\n      0x08c379a000000000000000000000000000000000000000000000000000000000\n      dup2\n      mstore\n      0x04\n      add\n      tag_191\n      swap1\n      tag_84\n      jump\t// in\n    tag_191:\n      mload(0x40)\n      dup1\n      swap2\n      sub\n      swap1\n      revert\n    tag_190:\n        /* \"contracts/CCNCarnival2025.sol\":4153:4168  Stall storage s */\n      0x00\n        /* \"contracts/CCNCarnival2025.sol\":4171:4177  stalls */\n      0x00\n        /* \"contracts/CCNCarnival2025.sol\":4171:4187  stalls[_stallId] */\n      0x00\n        /* \"contracts/CCNCarnival2025.sol\":4178:4186  _stallId */\n      dup6\n        /* \"contracts/CCNCarnival2025.sol\":4171:4187  stalls[_stallId] */\n      dup2\n      mstore\n      0x20\n      add\n      swap1\n      dup2\n      mstore\n      0x20\n      add\n      0x00\n      keccak256\n        /* \"contracts/CCNCarnival2025.sol\":4153:4187  Stall storage s = stalls[_stallId] */\n      swap1\n      pop\n        /* \"contracts/CCNCarnival2025.sol\":4220:4221  s */\n      dup1\n        /* \"contracts/CCNCarnival2025.sol\":4220:4227  s.owner */\n      0x00\n      add\n      0x00\n      swap1\n      sload\n      swap1\n      0x0100\n      exp\n      swap1\n      div\n      0xffffffffffffffffffffffffffffffffffffffff\n      and\n        /* \"contracts/CCNCarnival2025.sol\":4206:4227  msg.sender == s.owner */\n      0xffffffffffffffffffffffffffffffffffffffff\n      and\n        /* \"contracts/CCNCarnival2025.sol\":4206:4216  msg.sender */\n      caller\n        /* \"contracts/CCNCarnival2025.sol\":4206:4227  msg.sender == s.owner */\n      0xffffffffffffffffffffffffffffffffffffffff\n      and\n      eq\n        /* \"contracts/CCNCarnival2025.sol\":4198:4247  require(msg.sender == s.owner, \"Not stall owner\") */\n      tag_193\n      jumpi\n      mload(0x40)\n      0x08c379a000000000000000000000000000000000000000000000000000000000\n      dup2\n      mstore\n      0x04\n      add\n      tag_194\n      swap1\n      tag_88\n      jump\t// in\n    tag_194:\n      mload(0x40)\n      dup1\n      swap2\n      sub\n      swap1\n      revert\n    tag_193:\n        /* \"contracts/CCNCarnival2025.sol\":4266:4281  refundRequested */\n      0x04\n        /* \"contracts/CCNCarnival2025.sol\":4266:4291  refundRequested[_stallId] */\n      0x00\n        /* \"contracts/CCNCarnival2025.sol\":4282:4290  _stallId */\n      dup6\n        /* \"contracts/CCNCarnival2025.sol\":4266:4291  refundRequested[_stallId] */\n      dup2\n      mstore\n      0x20\n      add\n      swap1\n      dup2\n      mstore\n      0x20\n      add\n      0x00\n      keccak256\n        /* \"contracts/CCNCarnival2025.sol\":4266:4299  refundRequested[_stallId][_buyer] */\n      0x00\n        /* \"contracts/CCNCarnival2025.sol\":4292:4298  _buyer */\n      dup5\n        /* \"contracts/CCNCarnival2025.sol\":4266:4299  refundRequested[_stallId][_buyer] */\n      0xffffffffffffffffffffffffffffffffffffffff\n      and\n      0xffffffffffffffffffffffffffffffffffffffff\n      and\n      dup2\n      mstore\n      0x20\n      add\n      swap1\n      dup2\n      mstore\n      0x20\n      add\n      0x00\n      keccak256\n      0x00\n      swap1\n      sload\n      swap1\n      0x0100\n      exp\n      swap1\n      div\n      0xff\n      and\n        /* \"contracts/CCNCarnival2025.sol\":4258:4323  require(refundRequested[_stallId][_buyer], \"No refund requested\") */\n      tag_195\n      jumpi\n      mload(0x40)\n      0x08c379a000000000000000000000000000000000000000000000000000000000\n      dup2\n      mstore\n      0x04\n      add\n      tag_196\n      swap1\n      tag_111\n      jump\t// in\n    tag_196:\n      mload(0x40)\n      dup1\n      swap2\n      sub\n      swap1\n      revert\n    tag_195:\n        /* \"contracts/CCNCarnival2025.sol\":4336:4350  uint256 amount */\n      0x00\n        /* \"contracts/CCNCarnival2025.sol\":4353:4361  payments */\n      0x01\n        /* \"contracts/CCNCarnival2025.sol\":4353:4371  payments[_stallId] */\n      0x00\n        /* \"contracts/CCNCarnival2025.sol\":4362:4370  _stallId */\n      dup7\n        /* \"contracts/CCNCarnival2025.sol\":4353:4371  payments[_stallId] */\n      dup2\n      mstore\n      0x20\n      add\n      swap1\n      dup2\n      mstore\n      0x20\n      add\n      0x00\n      keccak256\n        /* \"contracts/CCNCarnival2025.sol\":4353:4379  payments[_stallId][_buyer] */\n      0x00\n        /* \"contracts/CCNCarnival2025.sol\":4372:4378  _buyer */\n      dup6\n        /* \"contracts/CCNCarnival2025.sol\":4353:4379  payments[_stallId][_buyer] */\n      0xffffffffffffffffffffffffffffffffffffffff\n      and\n      0xffffffffffffffffffffffffffffffffffffffff\n      and\n      dup2\n      mstore\n      0x20\n      add\n      swap1\n      dup2\n      mstore\n      0x20\n      add\n      0x00\n      keccak256\n      sload\n        /* \"contracts/CCNCarnival2025.sol\":4336:4379  uint256 amount = payments[_stallId][_buyer] */\n      swap1\n      pop\n        /* \"contracts/CCNCarnival2025.sol\":4407:4408  0 */\n      0x00\n        /* \"contracts/CCNCarnival2025.sol\":4398:4404  amount */\n      dup2\n        /* \"contracts/CCNCarnival2025.sol\":4398:4408  amount > 0 */\n      gt\n        /* \"contracts/CCNCarnival2025.sol\":4390:4433  require(amount > 0, \"No payment to refund\") */\n      tag_197\n      jumpi\n      mload(0x40)\n      0x08c379a000000000000000000000000000000000000000000000000000000000\n      dup2\n      mstore\n      0x04\n      add\n      tag_198\n      swap1\n      tag_174\n      jump\t// in\n    tag_198:\n      mload(0x40)\n      dup1\n      swap2\n      sub\n      swap1\n      revert\n    tag_197:\n        /* \"contracts/CCNCarnival2025.sol\":4462:4463  s */\n      dup2\n        /* \"contracts/CCNCarnival2025.sol\":4462:4471  s.balance */\n      0x01\n      add\n      sload\n        /* \"contracts/CCNCarnival2025.sol\":4452:4458  amount */\n      dup2\n        /* \"contracts/CCNCarnival2025.sol\":4452:4471  amount <= s.balance */\n      gt\n      iszero\n        /* \"contracts/CCNCarnival2025.sol\":4444:4504  require(amount <= s.balance, \"Refund exceeds stall balance\") */\n      tag_199\n      jumpi\n      mload(0x40)\n      0x08c379a000000000000000000000000000000000000000000000000000000000\n      dup2\n      mstore\n      0x04\n      add\n      tag_200\n      swap1\n      tag_177\n      jump\t// in\n    tag_200:\n      mload(0x40)\n      dup1\n      swap2\n      sub\n      swap1\n      revert\n    tag_199:\n        /* \"contracts/CCNCarnival2025.sol\":4586:4591  false */\n      0x00\n        /* \"contracts/CCNCarnival2025.sol\":4550:4565  refundRequested */\n      0x04\n        /* \"contracts/CCNCarnival2025.sol\":4550:4575  refundRequested[_stallId] */\n      0x00\n        /* \"contracts/CCNCarnival2025.sol\":4566:4574  _stallId */\n      dup8\n        /* \"contracts/CCNCarnival2025.sol\":4550:4575  refundRequested[_stallId] */\n      dup2\n      mstore\n      0x20\n      add\n      swap1\n      dup2\n      mstore\n      0x20\n      add\n      0x00\n      keccak256\n        /* \"contracts/CCNCarnival2025.sol\":4550:4583  refundRequested[_stallId][_buyer] */\n      0x00\n        /* \"contracts/CCNCarnival2025.sol\":4576:4582  _buyer */\n      dup7\n        /* \"contracts/CCNCarnival2025.sol\":4550:4583  refundRequested[_stallId][_buyer] */\n      0xffffffffffffffffffffffffffffffffffffffff\n      and\n      0xffffffffffffffffffffffffffffffffffffffff\n      and\n      dup2\n      mstore\n      0x20\n      add\n      swap1\n      dup2\n      mstore\n      0x20\n      add\n      0x00\n      keccak256\n      0x00\n        /* \"contracts/CCNCarnival2025.sol\":4550:4591  refundRequested[_stallId][_buyer] = false */\n      0x0100\n      exp\n      dup2\n      sload\n      dup2\n      0xff\n      mul\n      not\n      and\n      swap1\n      dup4\n      iszero\n      iszero\n      mul\n      or\n      swap1\n      sstore\n      pop\n        /* \"contracts/CCNCarnival2025.sol\":4617:4623  amount */\n      dup1\n        /* \"contracts/CCNCarnival2025.sol\":4604:4605  s */\n      dup3\n        /* \"contracts/CCNCarnival2025.sol\":4604:4613  s.balance */\n      0x01\n      add\n      0x00\n        /* \"contracts/CCNCarnival2025.sol\":4604:4623  s.balance -= amount */\n      dup3\n      dup3\n      sload\n      tag_201\n      swap2\n      swap1\n      tag_179\n      jump\t// in\n    tag_201:\n      swap3\n      pop\n      pop\n      dup2\n      swap1\n      sstore\n      pop\n        /* \"contracts/CCNCarnival2025.sol\":4663:4664  0 */\n      0x00\n        /* \"contracts/CCNCarnival2025.sol\":4634:4642  payments */\n      0x01\n        /* \"contracts/CCNCarnival2025.sol\":4634:4652  payments[_stallId] */\n      0x00\n        /* \"contracts/CCNCarnival2025.sol\":4643:4651  _stallId */\n      dup8\n        /* \"contracts/CCNCarnival2025.sol\":4634:4652  payments[_stallId] */\n      dup2\n      mstore\n      0x20\n      add\n      swap1\n      dup2\n      mstore\n      0x20\n      add\n      0x00\n      keccak256\n        /* \"contracts/CCNCarnival2025.sol\":4634:4660  payments[_stallId][_buyer] */\n      0x00\n        /* \"contracts/CCNCarnival2025.sol\":4653:4659  _buyer */\n      dup7\n        /* \"contracts/CCNCarnival2025.sol\":4634:4660  payments[_stallId][_buyer] */\n      0xffffffffffffffffffffffffffffffffffffffff\n      and\n      0xffffffffffffffffffffffffffffffffffffffff\n      and\n      dup2\n      mstore\n      0x20\n      add\n      swap1\n      dup2\n      mstore\n      0x20\n      add\n      0x00\n      keccak256\n        /* \"contracts/CCNCarnival2025.sol\":4634:4664  payments[_stallId][_buyer] = 0 */\n      dup2\n      swap1\n      sstore\n      pop\n        /* \"contracts/CCNCarnival2025.sol\":4678:4690  bool success */\n      0x00\n        /* \"contracts/CCNCarnival2025.sol\":4704:4710  _buyer */\n      dup5\n        /* \"contracts/CCNCarnival2025.sol\":4696:4716  payable(_buyer).call */\n      0xffffffffffffffffffffffffffffffffffffffff\n      and\n        /* \"contracts/CCNCarnival2025.sol\":4724:4730  amount */\n      dup3\n        /* \"contracts/CCNCarnival2025.sol\":4696:4735  payable(_buyer).call{value: amount}(\"\") */\n      mload(0x40)\n      tag_202\n      swap1\n      tag_93\n      jump\t// in\n    tag_202:\n      0x00\n      mload(0x40)\n      dup1\n      dup4\n      sub\n      dup2\n      dup6\n      dup8\n      gas\n      call\n      swap3\n      pop\n      pop\n      pop\n      returndatasize\n      dup1\n      0x00\n      dup2\n      eq\n      tag_205\n      jumpi\n      mload(0x40)\n      swap2\n      pop\n      and(add(returndatasize, 0x3f), not(0x1f))\n      dup3\n      add\n      0x40\n      mstore\n      returndatasize\n      dup3\n      mstore\n      returndatasize\n      0x00\n      0x20\n      dup5\n      add\n      returndatacopy\n      jump(tag_204)\n    tag_205:\n      0x60\n      swap2\n      pop\n    tag_204:\n      pop\n        /* \"contracts/CCNCarnival2025.sol\":4677:4735  (bool success, ) = payable(_buyer).call{value: amount}(\"\") */\n      pop\n      swap1\n      pop\n        /* \"contracts/CCNCarnival2025.sol\":4754:4761  success */\n      dup1\n        /* \"contracts/CCNCarnival2025.sol\":4746:4788  require(success, \"Refund transfer failed\") */\n      tag_206\n      jumpi\n      mload(0x40)\n      0x08c379a000000000000000000000000000000000000000000000000000000000\n      dup2\n      mstore\n      0x04\n      add\n      tag_207\n      swap1\n      tag_186\n      jump\t// in\n    tag_207:\n      mload(0x40)\n      dup1\n      swap2\n      sub\n      swap1\n      revert\n    tag_206:\n        /* \"contracts/CCNCarnival2025.sol\":4806:4844  RefundIssued(_stallId, _buyer, amount) */\n      0x7a482fdeb6bc9a1376f597068a214a7a39472bb2eff1b8cad21ba04f49ddca1b\n        /* \"contracts/CCNCarnival2025.sol\":4819:4827  _stallId */\n      dup7\n        /* \"contracts/CCNCarnival2025.sol\":4829:4835  _buyer */\n      dup7\n        /* \"contracts/CCNCarnival2025.sol\":4837:4843  amount */\n      dup5\n        /* \"contracts/CCNCarnival2025.sol\":4806:4844  RefundIssued(_stallId, _buyer, amount) */\n      mload(0x40)\n      tag_208\n      swap4\n      swap3\n      swap2\n      swap1\n      tag_134\n      jump\t// in\n    tag_208:\n      mload(0x40)\n      dup1\n      swap2\n      sub\n      swap1\n      log1\n        /* \"contracts/CCNCarnival2025.sol\":4142:4852  {... */\n      pop\n      pop\n      pop\n        /* \"contracts/CCNCarnival2025.sol\":4057:4852  function approveRefund(uint _stallId, address _buyer) external stallExists(_stallId) {... */\n      pop\n      pop\n      pop\n      jump\t// out\n        /* \"contracts/CCNCarnival2025.sol\":1150:1389  function registerStall(OperatingDays _duration) external {... */\n    tag_79:\n        /* \"contracts/CCNCarnival2025.sol\":1218:1228  stallCount */\n      0x05\n      0x00\n        /* \"contracts/CCNCarnival2025.sol\":1218:1230  stallCount++ */\n      dup2\n      sload\n      dup1\n      swap3\n      swap2\n      swap1\n      tag_210\n      swap1\n      tag_211\n      jump\t// in\n    tag_210:\n      swap2\n      swap1\n      pop\n      sstore\n      pop\n        /* \"contracts/CCNCarnival2025.sol\":1262:1315  Stall(payable(msg.sender), _duration, 0, true, false) */\n      mload(0x40)\n      dup1\n      0xa0\n      add\n      0x40\n      mstore\n      dup1\n        /* \"contracts/CCNCarnival2025.sol\":1276:1286  msg.sender */\n      caller\n        /* \"contracts/CCNCarnival2025.sol\":1262:1315  Stall(payable(msg.sender), _duration, 0, true, false) */\n      0xffffffffffffffffffffffffffffffffffffffff\n      and\n      dup2\n      mstore\n      0x20\n      add\n        /* \"contracts/CCNCarnival2025.sol\":1289:1298  _duration */\n      dup3\n        /* \"contracts/CCNCarnival2025.sol\":1262:1315  Stall(payable(msg.sender), _duration, 0, true, false) */\n      0x02\n      dup2\n      gt\n      iszero\n      tag_212\n      jumpi\n      tag_213\n      tag_156\n      jump\t// in\n    tag_213:\n    tag_212:\n      dup2\n      mstore\n      0x20\n      add\n        /* \"contracts/CCNCarnival2025.sol\":1300:1301  0 */\n      0x00\n        /* \"contracts/CCNCarnival2025.sol\":1262:1315  Stall(payable(msg.sender), _duration, 0, true, false) */\n      dup2\n      mstore\n      0x20\n      add\n        /* \"contracts/CCNCarnival2025.sol\":1303:1307  true */\n      0x01\n        /* \"contracts/CCNCarnival2025.sol\":1262:1315  Stall(payable(msg.sender), _duration, 0, true, false) */\n      iszero\n      iszero\n      dup2\n      mstore\n      0x20\n      add\n        /* \"contracts/CCNCarnival2025.sol\":1309:1314  false */\n      0x00\n        /* \"contracts/CCNCarnival2025.sol\":1262:1315  Stall(payable(msg.sender), _duration, 0, true, false) */\n      iszero\n      iszero\n      dup2\n      mstore\n      pop\n        /* \"contracts/CCNCarnival2025.sol\":1241:1247  stalls */\n      0x00\n        /* \"contracts/CCNCarnival2025.sol\":1241:1259  stalls[stallCount] */\n      0x00\n        /* \"contracts/CCNCarnival2025.sol\":1248:1258  stallCount */\n      sload(0x05)\n        /* \"contracts/CCNCarnival2025.sol\":1241:1259  stalls[stallCount] */\n      dup2\n      mstore\n      0x20\n      add\n      swap1\n      dup2\n      mstore\n      0x20\n      add\n      0x00\n      keccak256\n        /* \"contracts/CCNCarnival2025.sol\":1241:1315  stalls[stallCount] = Stall(payable(msg.sender), _duration, 0, true, false) */\n      0x00\n      dup3\n      add\n      mload\n      dup2\n      0x00\n      add\n      exp(0x0100, 0x00)\n      dup2\n      sload\n      dup2\n      0xffffffffffffffffffffffffffffffffffffffff\n      mul\n      not\n      and\n      swap1\n      dup4\n      0xffffffffffffffffffffffffffffffffffffffff\n      and\n      mul\n      or\n      swap1\n      sstore\n      pop\n      0x20\n      dup3\n      add\n      mload\n      dup2\n      0x00\n      add\n      exp(0x0100, 0x14)\n      dup2\n      sload\n      dup2\n      0xff\n      mul\n      not\n      and\n      swap1\n      dup4\n      0x02\n      dup2\n      gt\n      iszero\n      tag_214\n      jumpi\n      tag_215\n      tag_156\n      jump\t// in\n    tag_215:\n    tag_214:\n      mul\n      or\n      swap1\n      sstore\n      pop\n      0x40\n      dup3\n      add\n      mload\n      dup2\n      0x01\n      add\n      sstore\n      0x60\n      dup3\n      add\n      mload\n      dup2\n      0x02\n      add\n      exp(0x0100, 0x00)\n      dup2\n      sload\n      dup2\n      0xff\n      mul\n      not\n      and\n      swap1\n      dup4\n      iszero\n      iszero\n      mul\n      or\n      swap1\n      sstore\n      pop\n      0x80\n      dup3\n      add\n      mload\n      dup2\n      0x02\n      add\n      exp(0x0100, 0x01)\n      dup2\n      sload\n      dup2\n      0xff\n      mul\n      not\n      and\n      swap1\n      dup4\n      iszero\n      iszero\n      mul\n      or\n      swap1\n      sstore\n      pop\n      swap1\n      pop\n      pop\n        /* \"contracts/CCNCarnival2025.sol\":1331:1381  StallRegistered(stallCount, msg.sender, _duration) */\n      0xc4afec621b00a8476c4eaa76d731dbaf984e16bd432f57543ac5e43615da1a98\n        /* \"contracts/CCNCarnival2025.sol\":1347:1357  stallCount */\n      sload(0x05)\n        /* \"contracts/CCNCarnival2025.sol\":1359:1369  msg.sender */\n      caller\n        /* \"contracts/CCNCarnival2025.sol\":1371:1380  _duration */\n      dup4\n        /* \"contracts/CCNCarnival2025.sol\":1331:1381  StallRegistered(stallCount, msg.sender, _duration) */\n      mload(0x40)\n      tag_216\n      swap4\n      swap3\n      swap2\n      swap1\n      tag_217\n      jump\t// in\n    tag_216:\n      mload(0x40)\n      dup1\n      swap2\n      sub\n      swap1\n      log1\n        /* \"contracts/CCNCarnival2025.sol\":1150:1389  function registerStall(OperatingDays _duration) external {... */\n      pop\n      jump\t// out\n        /* \"#utility.yul\":88:205   */\n    tag_219:\n        /* \"#utility.yul\":197:198   */\n      0x00\n        /* \"#utility.yul\":194:195   */\n      0x00\n        /* \"#utility.yul\":187:199   */\n      revert\n        /* \"#utility.yul\":334:411   */\n    tag_221:\n        /* \"#utility.yul\":371:378   */\n      0x00\n        /* \"#utility.yul\":400:405   */\n      dup2\n        /* \"#utility.yul\":389:405   */\n      swap1\n      pop\n        /* \"#utility.yul\":334:411   */\n      swap2\n      swap1\n      pop\n      jump\t// out\n        /* \"#utility.yul\":417:539   */\n    tag_222:\n        /* \"#utility.yul\":490:514   */\n      tag_289\n        /* \"#utility.yul\":508:513   */\n      dup2\n        /* \"#utility.yul\":490:514   */\n      tag_221\n      jump\t// in\n    tag_289:\n        /* \"#utility.yul\":483:488   */\n      dup2\n        /* \"#utility.yul\":480:515   */\n      eq\n        /* \"#utility.yul\":470:533   */\n      tag_290\n      jumpi\n        /* \"#utility.yul\":529:530   */\n      0x00\n        /* \"#utility.yul\":526:527   */\n      0x00\n        /* \"#utility.yul\":519:531   */\n      revert\n        /* \"#utility.yul\":470:533   */\n    tag_290:\n        /* \"#utility.yul\":417:539   */\n      pop\n      jump\t// out\n        /* \"#utility.yul\":545:684   */\n    tag_223:\n        /* \"#utility.yul\":591:596   */\n      0x00\n        /* \"#utility.yul\":629:635   */\n      dup2\n        /* \"#utility.yul\":616:636   */\n      calldataload\n        /* \"#utility.yul\":607:636   */\n      swap1\n      pop\n        /* \"#utility.yul\":645:678   */\n      tag_292\n        /* \"#utility.yul\":672:677   */\n      dup2\n        /* \"#utility.yul\":645:678   */\n      tag_222\n      jump\t// in\n    tag_292:\n        /* \"#utility.yul\":545:684   */\n      swap3\n      swap2\n      pop\n      pop\n      jump\t// out\n        /* \"#utility.yul\":690:816   */\n    tag_224:\n        /* \"#utility.yul\":727:734   */\n      0x00\n        /* \"#utility.yul\":767:809   */\n      0xffffffffffffffffffffffffffffffffffffffff\n        /* \"#utility.yul\":760:765   */\n      dup3\n        /* \"#utility.yul\":756:810   */\n      and\n        /* \"#utility.yul\":745:810   */\n      swap1\n      pop\n        /* \"#utility.yul\":690:816   */\n      swap2\n      swap1\n      pop\n      jump\t// out\n        /* \"#utility.yul\":822:918   */\n    tag_225:\n        /* \"#utility.yul\":859:866   */\n      0x00\n        /* \"#utility.yul\":888:912   */\n      tag_295\n        /* \"#utility.yul\":906:911   */\n      dup3\n        /* \"#utility.yul\":888:912   */\n      tag_224\n      jump\t// in\n    tag_295:\n        /* \"#utility.yul\":877:912   */\n      swap1\n      pop\n        /* \"#utility.yul\":822:918   */\n      swap2\n      swap1\n      pop\n      jump\t// out\n        /* \"#utility.yul\":924:1046   */\n    tag_226:\n        /* \"#utility.yul\":997:1021   */\n      tag_297\n        /* \"#utility.yul\":1015:1020   */\n      dup2\n        /* \"#utility.yul\":997:1021   */\n      tag_225\n      jump\t// in\n    tag_297:\n        /* \"#utility.yul\":990:995   */\n      dup2\n        /* \"#utility.yul\":987:1022   */\n      eq\n        /* \"#utility.yul\":977:1040   */\n      tag_298\n      jumpi\n        /* \"#utility.yul\":1036:1037   */\n      0x00\n        /* \"#utility.yul\":1033:1034   */\n      0x00\n        /* \"#utility.yul\":1026:1038   */\n      revert\n        /* \"#utility.yul\":977:1040   */\n    tag_298:\n        /* \"#utility.yul\":924:1046   */\n      pop\n      jump\t// out\n        /* \"#utility.yul\":1052:1191   */\n    tag_227:\n        /* \"#utility.yul\":1098:1103   */\n      0x00\n        /* \"#utility.yul\":1136:1142   */\n      dup2\n        /* \"#utility.yul\":1123:1143   */\n      calldataload\n        /* \"#utility.yul\":1114:1143   */\n      swap1\n      pop\n        /* \"#utility.yul\":1152:1185   */\n      tag_300\n        /* \"#utility.yul\":1179:1184   */\n      dup2\n        /* \"#utility.yul\":1152:1185   */\n      tag_226\n      jump\t// in\n    tag_300:\n        /* \"#utility.yul\":1052:1191   */\n      swap3\n      swap2\n      pop\n      pop\n      jump\t// out\n        /* \"#utility.yul\":1197:1671   */\n    tag_20:\n        /* \"#utility.yul\":1265:1271   */\n      0x00\n        /* \"#utility.yul\":1273:1279   */\n      0x00\n        /* \"#utility.yul\":1322:1324   */\n      0x40\n        /* \"#utility.yul\":1310:1319   */\n      dup4\n        /* \"#utility.yul\":1301:1308   */\n      dup6\n        /* \"#utility.yul\":1297:1320   */\n      sub\n        /* \"#utility.yul\":1293:1325   */\n      slt\n        /* \"#utility.yul\":1290:1409   */\n      iszero\n      tag_302\n      jumpi\n        /* \"#utility.yul\":1328:1407   */\n      tag_303\n      tag_219\n      jump\t// in\n    tag_303:\n        /* \"#utility.yul\":1290:1409   */\n    tag_302:\n        /* \"#utility.yul\":1448:1449   */\n      0x00\n        /* \"#utility.yul\":1473:1526   */\n      tag_304\n        /* \"#utility.yul\":1518:1525   */\n      dup6\n        /* \"#utility.yul\":1509:1515   */\n      dup3\n        /* \"#utility.yul\":1498:1507   */\n      dup7\n        /* \"#utility.yul\":1494:1516   */\n      add\n        /* \"#utility.yul\":1473:1526   */\n      tag_223\n      jump\t// in\n    tag_304:\n        /* \"#utility.yul\":1463:1526   */\n      swap3\n      pop\n        /* \"#utility.yul\":1419:1536   */\n      pop\n        /* \"#utility.yul\":1575:1577   */\n      0x20\n        /* \"#utility.yul\":1601:1654   */\n      tag_305\n        /* \"#utility.yul\":1646:1653   */\n      dup6\n        /* \"#utility.yul\":1637:1643   */\n      dup3\n        /* \"#utility.yul\":1626:1635   */\n      dup7\n        /* \"#utility.yul\":1622:1644   */\n      add\n        /* \"#utility.yul\":1601:1654   */\n      tag_227\n      jump\t// in\n    tag_305:\n        /* \"#utility.yul\":1591:1654   */\n      swap2\n      pop\n        /* \"#utility.yul\":1546:1664   */\n      pop\n        /* \"#utility.yul\":1197:1671   */\n      swap3\n      pop\n      swap3\n      swap1\n      pop\n      jump\t// out\n        /* \"#utility.yul\":1677:1767   */\n    tag_228:\n        /* \"#utility.yul\":1711:1718   */\n      0x00\n        /* \"#utility.yul\":1754:1759   */\n      dup2\n        /* \"#utility.yul\":1747:1760   */\n      iszero\n        /* \"#utility.yul\":1740:1761   */\n      iszero\n        /* \"#utility.yul\":1729:1761   */\n      swap1\n      pop\n        /* \"#utility.yul\":1677:1767   */\n      swap2\n      swap1\n      pop\n      jump\t// out\n        /* \"#utility.yul\":1773:1882   */\n    tag_229:\n        /* \"#utility.yul\":1854:1875   */\n      tag_308\n        /* \"#utility.yul\":1869:1874   */\n      dup2\n        /* \"#utility.yul\":1854:1875   */\n      tag_228\n      jump\t// in\n    tag_308:\n        /* \"#utility.yul\":1849:1852   */\n      dup3\n        /* \"#utility.yul\":1842:1876   */\n      mstore\n        /* \"#utility.yul\":1773:1882   */\n      pop\n      pop\n      jump\t// out\n        /* \"#utility.yul\":1888:2098   */\n    tag_23:\n        /* \"#utility.yul\":1975:1979   */\n      0x00\n        /* \"#utility.yul\":2013:2015   */\n      0x20\n        /* \"#utility.yul\":2002:2011   */\n      dup3\n        /* \"#utility.yul\":1998:2016   */\n      add\n        /* \"#utility.yul\":1990:2016   */\n      swap1\n      pop\n        /* \"#utility.yul\":2026:2091   */\n      tag_310\n        /* \"#utility.yul\":2088:2089   */\n      0x00\n        /* \"#utility.yul\":2077:2086   */\n      dup4\n        /* \"#utility.yul\":2073:2090   */\n      add\n        /* \"#utility.yul\":2064:2070   */\n      dup5\n        /* \"#utility.yul\":2026:2091   */\n      tag_229\n      jump\t// in\n    tag_310:\n        /* \"#utility.yul\":1888:2098   */\n      swap3\n      swap2\n      pop\n      pop\n      jump\t// out\n        /* \"#utility.yul\":2104:2433   */\n    tag_27:\n        /* \"#utility.yul\":2163:2169   */\n      0x00\n        /* \"#utility.yul\":2212:2214   */\n      0x20\n        /* \"#utility.yul\":2200:2209   */\n      dup3\n        /* \"#utility.yul\":2191:2198   */\n      dup5\n        /* \"#utility.yul\":2187:2210   */\n      sub\n        /* \"#utility.yul\":2183:2215   */\n      slt\n        /* \"#utility.yul\":2180:2299   */\n      iszero\n      tag_312\n      jumpi\n        /* \"#utility.yul\":2218:2297   */\n      tag_313\n      tag_219\n      jump\t// in\n    tag_313:\n        /* \"#utility.yul\":2180:2299   */\n    tag_312:\n        /* \"#utility.yul\":2338:2339   */\n      0x00\n        /* \"#utility.yul\":2363:2416   */\n      tag_314\n        /* \"#utility.yul\":2408:2415   */\n      dup5\n        /* \"#utility.yul\":2399:2405   */\n      dup3\n        /* \"#utility.yul\":2388:2397   */\n      dup6\n        /* \"#utility.yul\":2384:2406   */\n      add\n        /* \"#utility.yul\":2363:2416   */\n      tag_223\n      jump\t// in\n    tag_314:\n        /* \"#utility.yul\":2353:2416   */\n      swap2\n      pop\n        /* \"#utility.yul\":2309:2426   */\n      pop\n        /* \"#utility.yul\":2104:2433   */\n      swap3\n      swap2\n      pop\n      pop\n      jump\t// out\n        /* \"#utility.yul\":2439:2557   */\n    tag_230:\n        /* \"#utility.yul\":2526:2550   */\n      tag_316\n        /* \"#utility.yul\":2544:2549   */\n      dup2\n        /* \"#utility.yul\":2526:2550   */\n      tag_221\n      jump\t// in\n    tag_316:\n        /* \"#utility.yul\":2521:2524   */\n      dup3\n        /* \"#utility.yul\":2514:2551   */\n      mstore\n        /* \"#utility.yul\":2439:2557   */\n      pop\n      pop\n      jump\t// out\n        /* \"#utility.yul\":2563:2785   */\n    tag_41:\n        /* \"#utility.yul\":2656:2660   */\n      0x00\n        /* \"#utility.yul\":2694:2696   */\n      0x20\n        /* \"#utility.yul\":2683:2692   */\n      dup3\n        /* \"#utility.yul\":2679:2697   */\n      add\n        /* \"#utility.yul\":2671:2697   */\n      swap1\n      pop\n        /* \"#utility.yul\":2707:2778   */\n      tag_318\n        /* \"#utility.yul\":2775:2776   */\n      0x00\n        /* \"#utility.yul\":2764:2773   */\n      dup4\n        /* \"#utility.yul\":2760:2777   */\n      add\n        /* \"#utility.yul\":2751:2757   */\n      dup5\n        /* \"#utility.yul\":2707:2778   */\n      tag_230\n      jump\t// in\n    tag_318:\n        /* \"#utility.yul\":2563:2785   */\n      swap3\n      swap2\n      pop\n      pop\n      jump\t// out\n        /* \"#utility.yul\":2791:2905   */\n    tag_231:\n        /* \"#utility.yul\":2858:2864   */\n      0x00\n        /* \"#utility.yul\":2892:2897   */\n      dup2\n        /* \"#utility.yul\":2886:2898   */\n      mload\n        /* \"#utility.yul\":2876:2898   */\n      swap1\n      pop\n        /* \"#utility.yul\":2791:2905   */\n      swap2\n      swap1\n      pop\n      jump\t// out\n        /* \"#utility.yul\":2911:3095   */\n    tag_232:\n        /* \"#utility.yul\":3010:3021   */\n      0x00\n        /* \"#utility.yul\":3044:3050   */\n      dup3\n        /* \"#utility.yul\":3039:3042   */\n      dup3\n        /* \"#utility.yul\":3032:3051   */\n      mstore\n        /* \"#utility.yul\":3084:3088   */\n      0x20\n        /* \"#utility.yul\":3079:3082   */\n      dup3\n        /* \"#utility.yul\":3075:3089   */\n      add\n        /* \"#utility.yul\":3060:3089   */\n      swap1\n      pop\n        /* \"#utility.yul\":2911:3095   */\n      swap3\n      swap2\n      pop\n      pop\n      jump\t// out\n        /* \"#utility.yul\":3101:3233   */\n    tag_233:\n        /* \"#utility.yul\":3168:3172   */\n      0x00\n        /* \"#utility.yul\":3191:3194   */\n      dup2\n        /* \"#utility.yul\":3183:3194   */\n      swap1\n      pop\n        /* \"#utility.yul\":3221:3225   */\n      0x20\n        /* \"#utility.yul\":3216:3219   */\n      dup3\n        /* \"#utility.yul\":3212:3226   */\n      add\n        /* \"#utility.yul\":3204:3226   */\n      swap1\n      pop\n        /* \"#utility.yul\":3101:3233   */\n      swap2\n      swap1\n      pop\n      jump\t// out\n        /* \"#utility.yul\":3239:3347   */\n    tag_234:\n        /* \"#utility.yul\":3316:3340   */\n      tag_323\n        /* \"#utility.yul\":3334:3339   */\n      dup2\n        /* \"#utility.yul\":3316:3340   */\n      tag_225\n      jump\t// in\n    tag_323:\n        /* \"#utility.yul\":3311:3314   */\n      dup3\n        /* \"#utility.yul\":3304:3341   */\n      mstore\n        /* \"#utility.yul\":3239:3347   */\n      pop\n      pop\n      jump\t// out\n        /* \"#utility.yul\":3353:3532   */\n    tag_235:\n        /* \"#utility.yul\":3422:3432   */\n      0x00\n        /* \"#utility.yul\":3443:3489   */\n      tag_325\n        /* \"#utility.yul\":3485:3488   */\n      dup4\n        /* \"#utility.yul\":3477:3483   */\n      dup4\n        /* \"#utility.yul\":3443:3489   */\n      tag_234\n      jump\t// in\n    tag_325:\n        /* \"#utility.yul\":3521:3525   */\n      0x20\n        /* \"#utility.yul\":3516:3519   */\n      dup4\n        /* \"#utility.yul\":3512:3526   */\n      add\n        /* \"#utility.yul\":3498:3526   */\n      swap1\n      pop\n        /* \"#utility.yul\":3353:3532   */\n      swap3\n      swap2\n      pop\n      pop\n      jump\t// out\n        /* \"#utility.yul\":3538:3651   */\n    tag_236:\n        /* \"#utility.yul\":3608:3612   */\n      0x00\n        /* \"#utility.yul\":3640:3644   */\n      0x20\n        /* \"#utility.yul\":3635:3638   */\n      dup3\n        /* \"#utility.yul\":3631:3645   */\n      add\n        /* \"#utility.yul\":3623:3645   */\n      swap1\n      pop\n        /* \"#utility.yul\":3538:3651   */\n      swap2\n      swap1\n      pop\n      jump\t// out\n        /* \"#utility.yul\":3687:4419   */\n    tag_237:\n        /* \"#utility.yul\":3806:3809   */\n      0x00\n        /* \"#utility.yul\":3835:3889   */\n      tag_328\n        /* \"#utility.yul\":3883:3888   */\n      dup3\n        /* \"#utility.yul\":3835:3889   */\n      tag_231\n      jump\t// in\n    tag_328:\n        /* \"#utility.yul\":3905:3991   */\n      tag_329\n        /* \"#utility.yul\":3984:3990   */\n      dup2\n        /* \"#utility.yul\":3979:3982   */\n      dup6\n        /* \"#utility.yul\":3905:3991   */\n      tag_232\n      jump\t// in\n    tag_329:\n        /* \"#utility.yul\":3898:3991   */\n      swap4\n      pop\n        /* \"#utility.yul\":4015:4071   */\n      tag_330\n        /* \"#utility.yul\":4065:4070   */\n      dup4\n        /* \"#utility.yul\":4015:4071   */\n      tag_233\n      jump\t// in\n    tag_330:\n        /* \"#utility.yul\":4094:4101   */\n      dup1\n        /* \"#utility.yul\":4125:4126   */\n      0x00\n        /* \"#utility.yul\":4110:4394   */\n    tag_331:\n        /* \"#utility.yul\":4135:4141   */\n      dup4\n        /* \"#utility.yul\":4132:4133   */\n      dup2\n        /* \"#utility.yul\":4129:4142   */\n      lt\n        /* \"#utility.yul\":4110:4394   */\n      iszero\n      tag_333\n      jumpi\n        /* \"#utility.yul\":4211:4217   */\n      dup2\n        /* \"#utility.yul\":4205:4218   */\n      mload\n        /* \"#utility.yul\":4238:4301   */\n      tag_334\n        /* \"#utility.yul\":4297:4300   */\n      dup9\n        /* \"#utility.yul\":4282:4295   */\n      dup3\n        /* \"#utility.yul\":4238:4301   */\n      tag_235\n      jump\t// in\n    tag_334:\n        /* \"#utility.yul\":4231:4301   */\n      swap8\n      pop\n        /* \"#utility.yul\":4324:4384   */\n      tag_335\n        /* \"#utility.yul\":4377:4383   */\n      dup4\n        /* \"#utility.yul\":4324:4384   */\n      tag_236\n      jump\t// in\n    tag_335:\n        /* \"#utility.yul\":4314:4384   */\n      swap3\n      pop\n        /* \"#utility.yul\":4170:4394   */\n      pop\n        /* \"#utility.yul\":4157:4158   */\n      0x01\n        /* \"#utility.yul\":4154:4155   */\n      dup2\n        /* \"#utility.yul\":4150:4159   */\n      add\n        /* \"#utility.yul\":4145:4159   */\n      swap1\n      pop\n        /* \"#utility.yul\":4110:4394   */\n      jump(tag_331)\n    tag_333:\n        /* \"#utility.yul\":4114:4128   */\n      pop\n        /* \"#utility.yul\":4410:4413   */\n      dup6\n        /* \"#utility.yul\":4403:4413   */\n      swap4\n      pop\n        /* \"#utility.yul\":3811:4419   */\n      pop\n      pop\n      pop\n        /* \"#utility.yul\":3687:4419   */\n      swap3\n      swap2\n      pop\n      pop\n      jump\t// out\n        /* \"#utility.yul\":4425:4798   */\n    tag_47:\n        /* \"#utility.yul\":4568:4572   */\n      0x00\n        /* \"#utility.yul\":4606:4608   */\n      0x20\n        /* \"#utility.yul\":4595:4604   */\n      dup3\n        /* \"#utility.yul\":4591:4609   */\n      add\n        /* \"#utility.yul\":4583:4609   */\n      swap1\n      pop\n        /* \"#utility.yul\":4655:4664   */\n      dup2\n        /* \"#utility.yul\":4649:4653   */\n      dup2\n        /* \"#utility.yul\":4645:4665   */\n      sub\n        /* \"#utility.yul\":4641:4642   */\n      0x00\n        /* \"#utility.yul\":4630:4639   */\n      dup4\n        /* \"#utility.yul\":4626:4643   */\n      add\n        /* \"#utility.yul\":4619:4666   */\n      mstore\n        /* \"#utility.yul\":4683:4791   */\n      tag_337\n        /* \"#utility.yul\":4786:4790   */\n      dup2\n        /* \"#utility.yul\":4777:4783   */\n      dup5\n        /* \"#utility.yul\":4683:4791   */\n      tag_237\n      jump\t// in\n    tag_337:\n        /* \"#utility.yul\":4675:4791   */\n      swap1\n      pop\n        /* \"#utility.yul\":4425:4798   */\n      swap3\n      swap2\n      pop\n      pop\n      jump\t// out\n        /* \"#utility.yul\":4804:4908   */\n    tag_238:\n        /* \"#utility.yul\":4849:4856   */\n      0x00\n        /* \"#utility.yul\":4878:4902   */\n      tag_339\n        /* \"#utility.yul\":4896:4901   */\n      dup3\n        /* \"#utility.yul\":4878:4902   */\n      tag_224\n      jump\t// in\n    tag_339:\n        /* \"#utility.yul\":4867:4902   */\n      swap1\n      pop\n        /* \"#utility.yul\":4804:4908   */\n      swap2\n      swap1\n      pop\n      jump\t// out\n        /* \"#utility.yul\":4914:5056   */\n    tag_239:\n        /* \"#utility.yul\":5017:5049   */\n      tag_341\n        /* \"#utility.yul\":5043:5048   */\n      dup2\n        /* \"#utility.yul\":5017:5049   */\n      tag_238\n      jump\t// in\n    tag_341:\n        /* \"#utility.yul\":5012:5015   */\n      dup3\n        /* \"#utility.yul\":5005:5050   */\n      mstore\n        /* \"#utility.yul\":4914:5056   */\n      pop\n      pop\n      jump\t// out\n        /* \"#utility.yul\":5062:5242   */\n    tag_156:\n        /* \"#utility.yul\":5110:5187   */\n      0x4e487b7100000000000000000000000000000000000000000000000000000000\n        /* \"#utility.yul\":5107:5108   */\n      0x00\n        /* \"#utility.yul\":5100:5188   */\n      mstore\n        /* \"#utility.yul\":5207:5211   */\n      0x21\n        /* \"#utility.yul\":5204:5205   */\n      0x04\n        /* \"#utility.yul\":5197:5212   */\n      mstore\n        /* \"#utility.yul\":5231:5235   */\n      0x24\n        /* \"#utility.yul\":5228:5229   */\n      0x00\n        /* \"#utility.yul\":5221:5236   */\n      revert\n        /* \"#utility.yul\":5248:5368   */\n    tag_240:\n        /* \"#utility.yul\":5336:5337   */\n      0x03\n        /* \"#utility.yul\":5329:5334   */\n      dup2\n        /* \"#utility.yul\":5326:5338   */\n      lt\n        /* \"#utility.yul\":5316:5362   */\n      tag_344\n      jumpi\n        /* \"#utility.yul\":5342:5360   */\n      tag_345\n      tag_156\n      jump\t// in\n    tag_345:\n        /* \"#utility.yul\":5316:5362   */\n    tag_344:\n        /* \"#utility.yul\":5248:5368   */\n      pop\n      jump\t// out\n        /* \"#utility.yul\":5374:5515   */\n    tag_241:\n        /* \"#utility.yul\":5426:5433   */\n      0x00\n        /* \"#utility.yul\":5455:5460   */\n      dup2\n        /* \"#utility.yul\":5444:5460   */\n      swap1\n      pop\n        /* \"#utility.yul\":5461:5509   */\n      tag_347\n        /* \"#utility.yul\":5503:5508   */\n      dup3\n        /* \"#utility.yul\":5461:5509   */\n      tag_240\n      jump\t// in\n    tag_347:\n        /* \"#utility.yul\":5374:5515   */\n      swap2\n      swap1\n      pop\n      jump\t// out\n        /* \"#utility.yul\":5521:5662   */\n    tag_242:\n        /* \"#utility.yul\":5584:5593   */\n      0x00\n        /* \"#utility.yul\":5617:5656   */\n      tag_349\n        /* \"#utility.yul\":5650:5655   */\n      dup3\n        /* \"#utility.yul\":5617:5656   */\n      tag_241\n      jump\t// in\n    tag_349:\n        /* \"#utility.yul\":5604:5656   */\n      swap1\n      pop\n        /* \"#utility.yul\":5521:5662   */\n      swap2\n      swap1\n      pop\n      jump\t// out\n        /* \"#utility.yul\":5668:5825   */\n    tag_243:\n        /* \"#utility.yul\":5768:5818   */\n      tag_351\n        /* \"#utility.yul\":5812:5817   */\n      dup2\n        /* \"#utility.yul\":5768:5818   */\n      tag_242\n      jump\t// in\n    tag_351:\n        /* \"#utility.yul\":5763:5766   */\n      dup3\n        /* \"#utility.yul\":5756:5819   */\n      mstore\n        /* \"#utility.yul\":5668:5825   */\n      pop\n      pop\n      jump\t// out\n        /* \"#utility.yul\":5831:6529   */\n    tag_53:\n        /* \"#utility.yul\":6053:6057   */\n      0x00\n        /* \"#utility.yul\":6091:6094   */\n      0xa0\n        /* \"#utility.yul\":6080:6089   */\n      dup3\n        /* \"#utility.yul\":6076:6095   */\n      add\n        /* \"#utility.yul\":6068:6095   */\n      swap1\n      pop\n        /* \"#utility.yul\":6105:6192   */\n      tag_353\n        /* \"#utility.yul\":6189:6190   */\n      0x00\n        /* \"#utility.yul\":6178:6187   */\n      dup4\n        /* \"#utility.yul\":6174:6191   */\n      add\n        /* \"#utility.yul\":6165:6171   */\n      dup9\n        /* \"#utility.yul\":6105:6192   */\n      tag_239\n      jump\t// in\n    tag_353:\n        /* \"#utility.yul\":6202:6287   */\n      tag_354\n        /* \"#utility.yul\":6283:6285   */\n      0x20\n        /* \"#utility.yul\":6272:6281   */\n      dup4\n        /* \"#utility.yul\":6268:6286   */\n      add\n        /* \"#utility.yul\":6259:6265   */\n      dup8\n        /* \"#utility.yul\":6202:6287   */\n      tag_243\n      jump\t// in\n    tag_354:\n        /* \"#utility.yul\":6297:6369   */\n      tag_355\n        /* \"#utility.yul\":6365:6367   */\n      0x40\n        /* \"#utility.yul\":6354:6363   */\n      dup4\n        /* \"#utility.yul\":6350:6368   */\n      add\n        /* \"#utility.yul\":6341:6347   */\n      dup7\n        /* \"#utility.yul\":6297:6369   */\n      tag_230\n      jump\t// in\n    tag_355:\n        /* \"#utility.yul\":6379:6445   */\n      tag_356\n        /* \"#utility.yul\":6441:6443   */\n      0x60\n        /* \"#utility.yul\":6430:6439   */\n      dup4\n        /* \"#utility.yul\":6426:6444   */\n      add\n        /* \"#utility.yul\":6417:6423   */\n      dup6\n        /* \"#utility.yul\":6379:6445   */\n      tag_229\n      jump\t// in\n    tag_356:\n        /* \"#utility.yul\":6455:6522   */\n      tag_357\n        /* \"#utility.yul\":6517:6520   */\n      0x80\n        /* \"#utility.yul\":6506:6515   */\n      dup4\n        /* \"#utility.yul\":6502:6521   */\n      add\n        /* \"#utility.yul\":6493:6499   */\n      dup5\n        /* \"#utility.yul\":6455:6522   */\n      tag_229\n      jump\t// in\n    tag_357:\n        /* \"#utility.yul\":5831:6529   */\n      swap7\n      swap6\n      pop\n      pop\n      pop\n      pop\n      pop\n      pop\n      jump\t// out\n        /* \"#utility.yul\":6535:6649   */\n    tag_244:\n        /* \"#utility.yul\":6623:6624   */\n      0x03\n        /* \"#utility.yul\":6616:6621   */\n      dup2\n        /* \"#utility.yul\":6613:6625   */\n      lt\n        /* \"#utility.yul\":6603:6643   */\n      tag_359\n      jumpi\n        /* \"#utility.yul\":6639:6640   */\n      0x00\n        /* \"#utility.yul\":6636:6637   */\n      0x00\n        /* \"#utility.yul\":6629:6641   */\n      revert\n        /* \"#utility.yul\":6603:6643   */\n    tag_359:\n        /* \"#utility.yul\":6535:6649   */\n      pop\n      jump\t// out\n        /* \"#utility.yul\":6655:6824   */\n    tag_245:\n        /* \"#utility.yul\":6716:6721   */\n      0x00\n        /* \"#utility.yul\":6754:6760   */\n      dup2\n        /* \"#utility.yul\":6741:6761   */\n      calldataload\n        /* \"#utility.yul\":6732:6761   */\n      swap1\n      pop\n        /* \"#utility.yul\":6770:6818   */\n      tag_361\n        /* \"#utility.yul\":6812:6817   */\n      dup2\n        /* \"#utility.yul\":6770:6818   */\n      tag_244\n      jump\t// in\n    tag_361:\n        /* \"#utility.yul\":6655:6824   */\n      swap3\n      swap2\n      pop\n      pop\n      jump\t// out\n        /* \"#utility.yul\":6830:7189   */\n    tag_65:\n        /* \"#utility.yul\":6904:6910   */\n      0x00\n        /* \"#utility.yul\":6953:6955   */\n      0x20\n        /* \"#utility.yul\":6941:6950   */\n      dup3\n        /* \"#utility.yul\":6932:6939   */\n      dup5\n        /* \"#utility.yul\":6928:6951   */\n      sub\n        /* \"#utility.yul\":6924:6956   */\n      slt\n        /* \"#utility.yul\":6921:7040   */\n      iszero\n      tag_363\n      jumpi\n        /* \"#utility.yul\":6959:7038   */\n      tag_364\n      tag_219\n      jump\t// in\n    tag_364:\n        /* \"#utility.yul\":6921:7040   */\n    tag_363:\n        /* \"#utility.yul\":7079:7080   */\n      0x00\n        /* \"#utility.yul\":7104:7172   */\n      tag_365\n        /* \"#utility.yul\":7164:7171   */\n      dup5\n        /* \"#utility.yul\":7155:7161   */\n      dup3\n        /* \"#utility.yul\":7144:7153   */\n      dup6\n        /* \"#utility.yul\":7140:7162   */\n      add\n        /* \"#utility.yul\":7104:7172   */\n      tag_245\n      jump\t// in\n    tag_365:\n        /* \"#utility.yul\":7094:7172   */\n      swap2\n      pop\n        /* \"#utility.yul\":7050:7182   */\n      pop\n        /* \"#utility.yul\":6830:7189   */\n      swap3\n      swap2\n      pop\n      pop\n      jump\t// out\n        /* \"#utility.yul\":7195:7364   */\n    tag_246:\n        /* \"#utility.yul\":7279:7290   */\n      0x00\n        /* \"#utility.yul\":7313:7319   */\n      dup3\n        /* \"#utility.yul\":7308:7311   */\n      dup3\n        /* \"#utility.yul\":7301:7320   */\n      mstore\n        /* \"#utility.yul\":7353:7357   */\n      0x20\n        /* \"#utility.yul\":7348:7351   */\n      dup3\n        /* \"#utility.yul\":7344:7358   */\n      add\n        /* \"#utility.yul\":7329:7358   */\n      swap1\n      pop\n        /* \"#utility.yul\":7195:7364   */\n      swap3\n      swap2\n      pop\n      pop\n      jump\t// out\n        /* \"#utility.yul\":7370:7540   */\n    tag_247:\n        /* \"#utility.yul\":7510:7532   */\n      0x5374616c6c20646f6573206e6f74206578697374000000000000000000000000\n        /* \"#utility.yul\":7506:7507   */\n      0x00\n        /* \"#utility.yul\":7498:7504   */\n      dup3\n        /* \"#utility.yul\":7494:7508   */\n      add\n        /* \"#utility.yul\":7487:7533   */\n      mstore\n        /* \"#utility.yul\":7370:7540   */\n      pop\n      jump\t// out\n        /* \"#utility.yul\":7546:7912   */\n    tag_248:\n        /* \"#utility.yul\":7688:7691   */\n      0x00\n        /* \"#utility.yul\":7709:7776   */\n      tag_369\n        /* \"#utility.yul\":7773:7775   */\n      0x14\n        /* \"#utility.yul\":7768:7771   */\n      dup4\n        /* \"#utility.yul\":7709:7776   */\n      tag_246\n      jump\t// in\n    tag_369:\n        /* \"#utility.yul\":7702:7776   */\n      swap2\n      pop\n        /* \"#utility.yul\":7785:7878   */\n      tag_370\n        /* \"#utility.yul\":7874:7877   */\n      dup3\n        /* \"#utility.yul\":7785:7878   */\n      tag_247\n      jump\t// in\n    tag_370:\n        /* \"#utility.yul\":7903:7905   */\n      0x20\n        /* \"#utility.yul\":7898:7901   */\n      dup3\n        /* \"#utility.yul\":7894:7906   */\n      add\n        /* \"#utility.yul\":7887:7906   */\n      swap1\n      pop\n        /* \"#utility.yul\":7546:7912   */\n      swap2\n      swap1\n      pop\n      jump\t// out\n        /* \"#utility.yul\":7918:8337   */\n    tag_84:\n        /* \"#utility.yul\":8084:8088   */\n      0x00\n        /* \"#utility.yul\":8122:8124   */\n      0x20\n        /* \"#utility.yul\":8111:8120   */\n      dup3\n        /* \"#utility.yul\":8107:8125   */\n      add\n        /* \"#utility.yul\":8099:8125   */\n      swap1\n      pop\n        /* \"#utility.yul\":8171:8180   */\n      dup2\n        /* \"#utility.yul\":8165:8169   */\n      dup2\n        /* \"#utility.yul\":8161:8181   */\n      sub\n        /* \"#utility.yul\":8157:8158   */\n      0x00\n        /* \"#utility.yul\":8146:8155   */\n      dup4\n        /* \"#utility.yul\":8142:8159   */\n      add\n        /* \"#utility.yul\":8135:8182   */\n      mstore\n        /* \"#utility.yul\":8199:8330   */\n      tag_372\n        /* \"#utility.yul\":8325:8329   */\n      dup2\n        /* \"#utility.yul\":8199:8330   */\n      tag_248\n      jump\t// in\n    tag_372:\n        /* \"#utility.yul\":8191:8330   */\n      swap1\n      pop\n        /* \"#utility.yul\":7918:8337   */\n      swap2\n      swap1\n      pop\n      jump\t// out\n        /* \"#utility.yul\":8343:8508   */\n    tag_249:\n        /* \"#utility.yul\":8483:8500   */\n      0x4e6f74207374616c6c206f776e65720000000000000000000000000000000000\n        /* \"#utility.yul\":8479:8480   */\n      0x00\n        /* \"#utility.yul\":8471:8477   */\n      dup3\n        /* \"#utility.yul\":8467:8481   */\n      add\n        /* \"#utility.yul\":8460:8501   */\n      mstore\n        /* \"#utility.yul\":8343:8508   */\n      pop\n      jump\t// out\n        /* \"#utility.yul\":8514:8880   */\n    tag_250:\n        /* \"#utility.yul\":8656:8659   */\n      0x00\n        /* \"#utility.yul\":8677:8744   */\n      tag_375\n        /* \"#utility.yul\":8741:8743   */\n      0x0f\n        /* \"#utility.yul\":8736:8739   */\n      dup4\n        /* \"#utility.yul\":8677:8744   */\n      tag_246\n      jump\t// in\n    tag_375:\n        /* \"#utility.yul\":8670:8744   */\n      swap2\n      pop\n        /* \"#utility.yul\":8753:8846   */\n      tag_376\n        /* \"#utility.yul\":8842:8845   */\n      dup3\n        /* \"#utility.yul\":8753:8846   */\n      tag_249\n      jump\t// in\n    tag_376:\n        /* \"#utility.yul\":8871:8873   */\n      0x20\n        /* \"#utility.yul\":8866:8869   */\n      dup3\n        /* \"#utility.yul\":8862:8874   */\n      add\n        /* \"#utility.yul\":8855:8874   */\n      swap1\n      pop\n        /* \"#utility.yul\":8514:8880   */\n      swap2\n      swap1\n      pop\n      jump\t// out\n        /* \"#utility.yul\":8886:9305   */\n    tag_88:\n        /* \"#utility.yul\":9052:9056   */\n      0x00\n        /* \"#utility.yul\":9090:9092   */\n      0x20\n        /* \"#utility.yul\":9079:9088   */\n      dup3\n        /* \"#utility.yul\":9075:9093   */\n      add\n        /* \"#utility.yul\":9067:9093   */\n      swap1\n      pop\n        /* \"#utility.yul\":9139:9148   */\n      dup2\n        /* \"#utility.yul\":9133:9137   */\n      dup2\n        /* \"#utility.yul\":9129:9149   */\n      sub\n        /* \"#utility.yul\":9125:9126   */\n      0x00\n        /* \"#utility.yul\":9114:9123   */\n      dup4\n        /* \"#utility.yul\":9110:9127   */\n      add\n        /* \"#utility.yul\":9103:9150   */\n      mstore\n        /* \"#utility.yul\":9167:9298   */\n      tag_378\n        /* \"#utility.yul\":9293:9297   */\n      dup2\n        /* \"#utility.yul\":9167:9298   */\n      tag_250\n      jump\t// in\n    tag_378:\n        /* \"#utility.yul\":9159:9298   */\n      swap1\n      pop\n        /* \"#utility.yul\":8886:9305   */\n      swap2\n      swap1\n      pop\n      jump\t// out\n        /* \"#utility.yul\":9311:9478   */\n    tag_251:\n        /* \"#utility.yul\":9451:9470   */\n      0x416c72656164792077697468647261776e000000000000000000000000000000\n        /* \"#utility.yul\":9447:9448   */\n      0x00\n        /* \"#utility.yul\":9439:9445   */\n      dup3\n        /* \"#utility.yul\":9435:9449   */\n      add\n        /* \"#utility.yul\":9428:9471   */\n      mstore\n        /* \"#utility.yul\":9311:9478   */\n      pop\n      jump\t// out\n        /* \"#utility.yul\":9484:9850   */\n    tag_252:\n        /* \"#utility.yul\":9626:9629   */\n      0x00\n        /* \"#utility.yul\":9647:9714   */\n      tag_381\n        /* \"#utility.yul\":9711:9713   */\n      0x11\n        /* \"#utility.yul\":9706:9709   */\n      dup4\n        /* \"#utility.yul\":9647:9714   */\n      tag_246\n      jump\t// in\n    tag_381:\n        /* \"#utility.yul\":9640:9714   */\n      swap2\n      pop\n        /* \"#utility.yul\":9723:9816   */\n      tag_382\n        /* \"#utility.yul\":9812:9815   */\n      dup3\n        /* \"#utility.yul\":9723:9816   */\n      tag_251\n      jump\t// in\n    tag_382:\n        /* \"#utility.yul\":9841:9843   */\n      0x20\n        /* \"#utility.yul\":9836:9839   */\n      dup3\n        /* \"#utility.yul\":9832:9844   */\n      add\n        /* \"#utility.yul\":9825:9844   */\n      swap1\n      pop\n        /* \"#utility.yul\":9484:9850   */\n      swap2\n      swap1\n      pop\n      jump\t// out\n        /* \"#utility.yul\":9856:10275   */\n    tag_91:\n        /* \"#utility.yul\":10022:10026   */\n      0x00\n        /* \"#utility.yul\":10060:10062   */\n      0x20\n        /* \"#utility.yul\":10049:10058   */\n      dup3\n        /* \"#utility.yul\":10045:10063   */\n      add\n        /* \"#utility.yul\":10037:10063   */\n      swap1\n      pop\n        /* \"#utility.yul\":10109:10118   */\n      dup2\n        /* \"#utility.yul\":10103:10107   */\n      dup2\n        /* \"#utility.yul\":10099:10119   */\n      sub\n        /* \"#utility.yul\":10095:10096   */\n      0x00\n        /* \"#utility.yul\":10084:10093   */\n      dup4\n        /* \"#utility.yul\":10080:10097   */\n      add\n        /* \"#utility.yul\":10073:10120   */\n      mstore\n        /* \"#utility.yul\":10137:10268   */\n      tag_384\n        /* \"#utility.yul\":10263:10267   */\n      dup2\n        /* \"#utility.yul\":10137:10268   */\n      tag_252\n      jump\t// in\n    tag_384:\n        /* \"#utility.yul\":10129:10268   */\n      swap1\n      pop\n        /* \"#utility.yul\":9856:10275   */\n      swap2\n      swap1\n      pop\n      jump\t// out\n        /* \"#utility.yul\":10281:10428   */\n    tag_253:\n        /* \"#utility.yul\":10382:10393   */\n      0x00\n        /* \"#utility.yul\":10419:10422   */\n      dup2\n        /* \"#utility.yul\":10404:10422   */\n      swap1\n      pop\n        /* \"#utility.yul\":10281:10428   */\n      swap3\n      swap2\n      pop\n      pop\n      jump\t// out\n        /* \"#utility.yul\":10434:10548   */\n    tag_254:\n      pop\n      jump\t// out\n        /* \"#utility.yul\":10554:10952   */\n    tag_255:\n        /* \"#utility.yul\":10713:10716   */\n      0x00\n        /* \"#utility.yul\":10734:10817   */\n      tag_388\n        /* \"#utility.yul\":10815:10816   */\n      0x00\n        /* \"#utility.yul\":10810:10813   */\n      dup4\n        /* \"#utility.yul\":10734:10817   */\n      tag_253\n      jump\t// in\n    tag_388:\n        /* \"#utility.yul\":10727:10817   */\n      swap2\n      pop\n        /* \"#utility.yul\":10826:10919   */\n      tag_389\n        /* \"#utility.yul\":10915:10918   */\n      dup3\n        /* \"#utility.yul\":10826:10919   */\n      tag_254\n      jump\t// in\n    tag_389:\n        /* \"#utility.yul\":10944:10945   */\n      0x00\n        /* \"#utility.yul\":10939:10942   */\n      dup3\n        /* \"#utility.yul\":10935:10946   */\n      add\n        /* \"#utility.yul\":10928:10946   */\n      swap1\n      pop\n        /* \"#utility.yul\":10554:10952   */\n      swap2\n      swap1\n      pop\n      jump\t// out\n        /* \"#utility.yul\":10958:11337   */\n    tag_93:\n        /* \"#utility.yul\":11142:11145   */\n      0x00\n        /* \"#utility.yul\":11164:11311   */\n      tag_391\n        /* \"#utility.yul\":11307:11310   */\n      dup3\n        /* \"#utility.yul\":11164:11311   */\n      tag_255\n      jump\t// in\n    tag_391:\n        /* \"#utility.yul\":11157:11311   */\n      swap2\n      pop\n        /* \"#utility.yul\":11328:11331   */\n      dup2\n        /* \"#utility.yul\":11321:11331   */\n      swap1\n      pop\n        /* \"#utility.yul\":10958:11337   */\n      swap2\n      swap1\n      pop\n      jump\t// out\n        /* \"#utility.yul\":11343:11519   */\n    tag_256:\n        /* \"#utility.yul\":11483:11511   */\n      0x5769746864726177616c207472616e73666572206661696c6564000000000000\n        /* \"#utility.yul\":11479:11480   */\n      0x00\n        /* \"#utility.yul\":11471:11477   */\n      dup3\n        /* \"#utility.yul\":11467:11481   */\n      add\n        /* \"#utility.yul\":11460:11512   */\n      mstore\n        /* \"#utility.yul\":11343:11519   */\n      pop\n      jump\t// out\n        /* \"#utility.yul\":11525:11891   */\n    tag_257:\n        /* \"#utility.yul\":11667:11670   */\n      0x00\n        /* \"#utility.yul\":11688:11755   */\n      tag_394\n        /* \"#utility.yul\":11752:11754   */\n      0x1a\n        /* \"#utility.yul\":11747:11750   */\n      dup4\n        /* \"#utility.yul\":11688:11755   */\n      tag_246\n      jump\t// in\n    tag_394:\n        /* \"#utility.yul\":11681:11755   */\n      swap2\n      pop\n        /* \"#utility.yul\":11764:11857   */\n      tag_395\n        /* \"#utility.yul\":11853:11856   */\n      dup3\n        /* \"#utility.yul\":11764:11857   */\n      tag_256\n      jump\t// in\n    tag_395:\n        /* \"#utility.yul\":11882:11884   */\n      0x20\n        /* \"#utility.yul\":11877:11880   */\n      dup3\n        /* \"#utility.yul\":11873:11885   */\n      add\n        /* \"#utility.yul\":11866:11885   */\n      swap1\n      pop\n        /* \"#utility.yul\":11525:11891   */\n      swap2\n      swap1\n      pop\n      jump\t// out\n        /* \"#utility.yul\":11897:12316   */\n    tag_99:\n        /* \"#utility.yul\":12063:12067   */\n      0x00\n        /* \"#utility.yul\":12101:12103   */\n      0x20\n        /* \"#utility.yul\":12090:12099   */\n      dup3\n        /* \"#utility.yul\":12086:12104   */\n      add\n        /* \"#utility.yul\":12078:12104   */\n      swap1\n      pop\n        /* \"#utility.yul\":12150:12159   */\n      dup2\n        /* \"#utility.yul\":12144:12148   */\n      dup2\n        /* \"#utility.yul\":12140:12160   */\n      sub\n        /* \"#utility.yul\":12136:12137   */\n      0x00\n        /* \"#utility.yul\":12125:12134   */\n      dup4\n        /* \"#utility.yul\":12121:12138   */\n      add\n        /* \"#utility.yul\":12114:12161   */\n      mstore\n        /* \"#utility.yul\":12178:12309   */\n      tag_397\n        /* \"#utility.yul\":12304:12308   */\n      dup2\n        /* \"#utility.yul\":12178:12309   */\n      tag_257\n      jump\t// in\n    tag_397:\n        /* \"#utility.yul\":12170:12309   */\n      swap1\n      pop\n        /* \"#utility.yul\":11897:12316   */\n      swap2\n      swap1\n      pop\n      jump\t// out\n        /* \"#utility.yul\":12322:12382   */\n    tag_258:\n        /* \"#utility.yul\":12350:12353   */\n      0x00\n        /* \"#utility.yul\":12371:12376   */\n      dup2\n        /* \"#utility.yul\":12364:12376   */\n      swap1\n      pop\n        /* \"#utility.yul\":12322:12382   */\n      swap2\n      swap1\n      pop\n      jump\t// out\n        /* \"#utility.yul\":12388:12530   */\n    tag_259:\n        /* \"#utility.yul\":12438:12447   */\n      0x00\n        /* \"#utility.yul\":12471:12524   */\n      tag_400\n        /* \"#utility.yul\":12489:12523   */\n      tag_401\n        /* \"#utility.yul\":12498:12522   */\n      tag_402\n        /* \"#utility.yul\":12516:12521   */\n      dup5\n        /* \"#utility.yul\":12498:12522   */\n      tag_224\n      jump\t// in\n    tag_402:\n        /* \"#utility.yul\":12489:12523   */\n      tag_258\n      jump\t// in\n    tag_401:\n        /* \"#utility.yul\":12471:12524   */\n      tag_224\n      jump\t// in\n    tag_400:\n        /* \"#utility.yul\":12458:12524   */\n      swap1\n      pop\n        /* \"#utility.yul\":12388:12530   */\n      swap2\n      swap1\n      pop\n      jump\t// out\n        /* \"#utility.yul\":12536:12662   */\n    tag_260:\n        /* \"#utility.yul\":12586:12595   */\n      0x00\n        /* \"#utility.yul\":12619:12656   */\n      tag_404\n        /* \"#utility.yul\":12650:12655   */\n      dup3\n        /* \"#utility.yul\":12619:12656   */\n      tag_259\n      jump\t// in\n    tag_404:\n        /* \"#utility.yul\":12606:12656   */\n      swap1\n      pop\n        /* \"#utility.yul\":12536:12662   */\n      swap2\n      swap1\n      pop\n      jump\t// out\n        /* \"#utility.yul\":12668:12802   */\n    tag_261:\n        /* \"#utility.yul\":12726:12735   */\n      0x00\n        /* \"#utility.yul\":12759:12796   */\n      tag_406\n        /* \"#utility.yul\":12790:12795   */\n      dup3\n        /* \"#utility.yul\":12759:12796   */\n      tag_260\n      jump\t// in\n    tag_406:\n        /* \"#utility.yul\":12746:12796   */\n      swap1\n      pop\n        /* \"#utility.yul\":12668:12802   */\n      swap2\n      swap1\n      pop\n      jump\t// out\n        /* \"#utility.yul\":12808:12955   */\n    tag_262:\n        /* \"#utility.yul\":12903:12948   */\n      tag_408\n        /* \"#utility.yul\":12942:12947   */\n      dup2\n        /* \"#utility.yul\":12903:12948   */\n      tag_261\n      jump\t// in\n    tag_408:\n        /* \"#utility.yul\":12898:12901   */\n      dup3\n        /* \"#utility.yul\":12891:12949   */\n      mstore\n        /* \"#utility.yul\":12808:12955   */\n      pop\n      pop\n      jump\t// out\n        /* \"#utility.yul\":12961:13419   */\n    tag_101:\n        /* \"#utility.yul\":13118:13122   */\n      0x00\n        /* \"#utility.yul\":13156:13158   */\n      0x60\n        /* \"#utility.yul\":13145:13154   */\n      dup3\n        /* \"#utility.yul\":13141:13159   */\n      add\n        /* \"#utility.yul\":13133:13159   */\n      swap1\n      pop\n        /* \"#utility.yul\":13169:13240   */\n      tag_410\n        /* \"#utility.yul\":13237:13238   */\n      0x00\n        /* \"#utility.yul\":13226:13235   */\n      dup4\n        /* \"#utility.yul\":13222:13239   */\n      add\n        /* \"#utility.yul\":13213:13219   */\n      dup7\n        /* \"#utility.yul\":13169:13240   */\n      tag_230\n      jump\t// in\n    tag_410:\n        /* \"#utility.yul\":13250:13330   */\n      tag_411\n        /* \"#utility.yul\":13326:13328   */\n      0x20\n        /* \"#utility.yul\":13315:13324   */\n      dup4\n        /* \"#utility.yul\":13311:13329   */\n      add\n        /* \"#utility.yul\":13302:13308   */\n      dup6\n        /* \"#utility.yul\":13250:13330   */\n      tag_262\n      jump\t// in\n    tag_411:\n        /* \"#utility.yul\":13340:13412   */\n      tag_412\n        /* \"#utility.yul\":13408:13410   */\n      0x40\n        /* \"#utility.yul\":13397:13406   */\n      dup4\n        /* \"#utility.yul\":13393:13411   */\n      add\n        /* \"#utility.yul\":13384:13390   */\n      dup5\n        /* \"#utility.yul\":13340:13412   */\n      tag_230\n      jump\t// in\n    tag_412:\n        /* \"#utility.yul\":12961:13419   */\n      swap5\n      swap4\n      pop\n      pop\n      pop\n      pop\n      jump\t// out\n        /* \"#utility.yul\":13425:13594   */\n    tag_263:\n        /* \"#utility.yul\":13565:13586   */\n      0x4e6f20726566756e642072657175657374656400000000000000000000000000\n        /* \"#utility.yul\":13561:13562   */\n      0x00\n        /* \"#utility.yul\":13553:13559   */\n      dup3\n        /* \"#utility.yul\":13549:13563   */\n      add\n        /* \"#utility.yul\":13542:13587   */\n      mstore\n        /* \"#utility.yul\":13425:13594   */\n      pop\n      jump\t// out\n        /* \"#utility.yul\":13600:13966   */\n    tag_264:\n        /* \"#utility.yul\":13742:13745   */\n      0x00\n        /* \"#utility.yul\":13763:13830   */\n      tag_415\n        /* \"#utility.yul\":13827:13829   */\n      0x13\n        /* \"#utility.yul\":13822:13825   */\n      dup4\n        /* \"#utility.yul\":13763:13830   */\n      tag_246\n      jump\t// in\n    tag_415:\n        /* \"#utility.yul\":13756:13830   */\n      swap2\n      pop\n        /* \"#utility.yul\":13839:13932   */\n      tag_416\n        /* \"#utility.yul\":13928:13931   */\n      dup3\n        /* \"#utility.yul\":13839:13932   */\n      tag_263\n      jump\t// in\n    tag_416:\n        /* \"#utility.yul\":13957:13959   */\n      0x20\n        /* \"#utility.yul\":13952:13955   */\n      dup3\n        /* \"#utility.yul\":13948:13960   */\n      add\n        /* \"#utility.yul\":13941:13960   */\n      swap1\n      pop\n        /* \"#utility.yul\":13600:13966   */\n      swap2\n      swap1\n      pop\n      jump\t// out\n        /* \"#utility.yul\":13972:14391   */\n    tag_111:\n        /* \"#utility.yul\":14138:14142   */\n      0x00\n        /* \"#utility.yul\":14176:14178   */\n      0x20\n        /* \"#utility.yul\":14165:14174   */\n      dup3\n        /* \"#utility.yul\":14161:14179   */\n      add\n        /* \"#utility.yul\":14153:14179   */\n      swap1\n      pop\n        /* \"#utility.yul\":14225:14234   */\n      dup2\n        /* \"#utility.yul\":14219:14223   */\n      dup2\n        /* \"#utility.yul\":14215:14235   */\n      sub\n        /* \"#utility.yul\":14211:14212   */\n      0x00\n        /* \"#utility.yul\":14200:14209   */\n      dup4\n        /* \"#utility.yul\":14196:14213   */\n      add\n        /* \"#utility.yul\":14189:14236   */\n      mstore\n        /* \"#utility.yul\":14253:14384   */\n      tag_418\n        /* \"#utility.yul\":14379:14383   */\n      dup2\n        /* \"#utility.yul\":14253:14384   */\n      tag_264\n      jump\t// in\n    tag_418:\n        /* \"#utility.yul\":14245:14384   */\n      swap1\n      pop\n        /* \"#utility.yul\":13972:14391   */\n      swap2\n      swap1\n      pop\n      jump\t// out\n        /* \"#utility.yul\":14397:14515   */\n    tag_265:\n        /* \"#utility.yul\":14484:14508   */\n      tag_420\n        /* \"#utility.yul\":14502:14507   */\n      dup2\n        /* \"#utility.yul\":14484:14508   */\n      tag_225\n      jump\t// in\n    tag_420:\n        /* \"#utility.yul\":14479:14482   */\n      dup3\n        /* \"#utility.yul\":14472:14509   */\n      mstore\n        /* \"#utility.yul\":14397:14515   */\n      pop\n      pop\n      jump\t// out\n        /* \"#utility.yul\":14521:14853   */\n    tag_113:\n        /* \"#utility.yul\":14642:14646   */\n      0x00\n        /* \"#utility.yul\":14680:14682   */\n      0x40\n        /* \"#utility.yul\":14669:14678   */\n      dup3\n        /* \"#utility.yul\":14665:14683   */\n      add\n        /* \"#utility.yul\":14657:14683   */\n      swap1\n      pop\n        /* \"#utility.yul\":14693:14764   */\n      tag_422\n        /* \"#utility.yul\":14761:14762   */\n      0x00\n        /* \"#utility.yul\":14750:14759   */\n      dup4\n        /* \"#utility.yul\":14746:14763   */\n      add\n        /* \"#utility.yul\":14737:14743   */\n      dup6\n        /* \"#utility.yul\":14693:14764   */\n      tag_230\n      jump\t// in\n    tag_422:\n        /* \"#utility.yul\":14774:14846   */\n      tag_423\n        /* \"#utility.yul\":14842:14844   */\n      0x20\n        /* \"#utility.yul\":14831:14840   */\n      dup4\n        /* \"#utility.yul\":14827:14845   */\n      add\n        /* \"#utility.yul\":14818:14824   */\n      dup5\n        /* \"#utility.yul\":14774:14846   */\n      tag_265\n      jump\t// in\n    tag_423:\n        /* \"#utility.yul\":14521:14853   */\n      swap4\n      swap3\n      pop\n      pop\n      pop\n      jump\t// out\n        /* \"#utility.yul\":14859:15024   */\n    tag_266:\n        /* \"#utility.yul\":14999:15016   */\n      0x5374616c6c206e6f7420666f756e640000000000000000000000000000000000\n        /* \"#utility.yul\":14995:14996   */\n      0x00\n        /* \"#utility.yul\":14987:14993   */\n      dup3\n        /* \"#utility.yul\":14983:14997   */\n      add\n        /* \"#utility.yul\":14976:15017   */\n      mstore\n        /* \"#utility.yul\":14859:15024   */\n      pop\n      jump\t// out\n        /* \"#utility.yul\":15030:15396   */\n    tag_267:\n        /* \"#utility.yul\":15172:15175   */\n      0x00\n        /* \"#utility.yul\":15193:15260   */\n      tag_426\n        /* \"#utility.yul\":15257:15259   */\n      0x0f\n        /* \"#utility.yul\":15252:15255   */\n      dup4\n        /* \"#utility.yul\":15193:15260   */\n      tag_246\n      jump\t// in\n    tag_426:\n        /* \"#utility.yul\":15186:15260   */\n      swap2\n      pop\n        /* \"#utility.yul\":15269:15362   */\n      tag_427\n        /* \"#utility.yul\":15358:15361   */\n      dup3\n        /* \"#utility.yul\":15269:15362   */\n      tag_266\n      jump\t// in\n    tag_427:\n        /* \"#utility.yul\":15387:15389   */\n      0x20\n        /* \"#utility.yul\":15382:15385   */\n      dup3\n        /* \"#utility.yul\":15378:15390   */\n      add\n        /* \"#utility.yul\":15371:15390   */\n      swap1\n      pop\n        /* \"#utility.yul\":15030:15396   */\n      swap2\n      swap1\n      pop\n      jump\t// out\n        /* \"#utility.yul\":15402:15821   */\n    tag_121:\n        /* \"#utility.yul\":15568:15572   */\n      0x00\n        /* \"#utility.yul\":15606:15608   */\n      0x20\n        /* \"#utility.yul\":15595:15604   */\n      dup3\n        /* \"#utility.yul\":15591:15609   */\n      add\n        /* \"#utility.yul\":15583:15609   */\n      swap1\n      pop\n        /* \"#utility.yul\":15655:15664   */\n      dup2\n        /* \"#utility.yul\":15649:15653   */\n      dup2\n        /* \"#utility.yul\":15645:15665   */\n      sub\n        /* \"#utility.yul\":15641:15642   */\n      0x00\n        /* \"#utility.yul\":15630:15639   */\n      dup4\n        /* \"#utility.yul\":15626:15643   */\n      add\n        /* \"#utility.yul\":15619:15666   */\n      mstore\n        /* \"#utility.yul\":15683:15814   */\n      tag_429\n        /* \"#utility.yul\":15809:15813   */\n      dup2\n        /* \"#utility.yul\":15683:15814   */\n      tag_267\n      jump\t// in\n    tag_429:\n        /* \"#utility.yul\":15675:15814   */\n      swap1\n      pop\n        /* \"#utility.yul\":15402:15821   */\n      swap2\n      swap1\n      pop\n      jump\t// out\n        /* \"#utility.yul\":15827:16053   */\n    tag_268:\n        /* \"#utility.yul\":15967:16001   */\n      0x5374616c6c2066756e64732077697468647261776e2c206e6f206d6f72652070\n        /* \"#utility.yul\":15963:15964   */\n      0x00\n        /* \"#utility.yul\":15955:15961   */\n      dup3\n        /* \"#utility.yul\":15951:15965   */\n      add\n        /* \"#utility.yul\":15944:16002   */\n      mstore\n        /* \"#utility.yul\":16036:16045   */\n      0x61796d656e747300000000000000000000000000000000000000000000000000\n        /* \"#utility.yul\":16031:16033   */\n      0x20\n        /* \"#utility.yul\":16023:16029   */\n      dup3\n        /* \"#utility.yul\":16019:16034   */\n      add\n        /* \"#utility.yul\":16012:16046   */\n      mstore\n        /* \"#utility.yul\":15827:16053   */\n      pop\n      jump\t// out\n        /* \"#utility.yul\":16059:16425   */\n    tag_269:\n        /* \"#utility.yul\":16201:16204   */\n      0x00\n        /* \"#utility.yul\":16222:16289   */\n      tag_432\n        /* \"#utility.yul\":16286:16288   */\n      0x27\n        /* \"#utility.yul\":16281:16284   */\n      dup4\n        /* \"#utility.yul\":16222:16289   */\n      tag_246\n      jump\t// in\n    tag_432:\n        /* \"#utility.yul\":16215:16289   */\n      swap2\n      pop\n        /* \"#utility.yul\":16298:16391   */\n      tag_433\n        /* \"#utility.yul\":16387:16390   */\n      dup3\n        /* \"#utility.yul\":16298:16391   */\n      tag_268\n      jump\t// in\n    tag_433:\n        /* \"#utility.yul\":16416:16418   */\n      0x40\n        /* \"#utility.yul\":16411:16414   */\n      dup3\n        /* \"#utility.yul\":16407:16419   */\n      add\n        /* \"#utility.yul\":16400:16419   */\n      swap1\n      pop\n        /* \"#utility.yul\":16059:16425   */\n      swap2\n      swap1\n      pop\n      jump\t// out\n        /* \"#utility.yul\":16431:16850   */\n    tag_124:\n        /* \"#utility.yul\":16597:16601   */\n      0x00\n        /* \"#utility.yul\":16635:16637   */\n      0x20\n        /* \"#utility.yul\":16624:16633   */\n      dup3\n        /* \"#utility.yul\":16620:16638   */\n      add\n        /* \"#utility.yul\":16612:16638   */\n      swap1\n      pop\n        /* \"#utility.yul\":16684:16693   */\n      dup2\n        /* \"#utility.yul\":16678:16682   */\n      dup2\n        /* \"#utility.yul\":16674:16694   */\n      sub\n        /* \"#utility.yul\":16670:16671   */\n      0x00\n        /* \"#utility.yul\":16659:16668   */\n      dup4\n        /* \"#utility.yul\":16655:16672   */\n      add\n        /* \"#utility.yul\":16648:16695   */\n      mstore\n        /* \"#utility.yul\":16712:16843   */\n      tag_435\n        /* \"#utility.yul\":16838:16842   */\n      dup2\n        /* \"#utility.yul\":16712:16843   */\n      tag_269\n      jump\t// in\n    tag_435:\n        /* \"#utility.yul\":16704:16843   */\n      swap1\n      pop\n        /* \"#utility.yul\":16431:16850   */\n      swap2\n      swap1\n      pop\n      jump\t// out\n        /* \"#utility.yul\":16856:17019   */\n    tag_270:\n        /* \"#utility.yul\":16996:17011   */\n      0x4d7573742073656e642045544800000000000000000000000000000000000000\n        /* \"#utility.yul\":16992:16993   */\n      0x00\n        /* \"#utility.yul\":16984:16990   */\n      dup3\n        /* \"#utility.yul\":16980:16994   */\n      add\n        /* \"#utility.yul\":16973:17012   */\n      mstore\n        /* \"#utility.yul\":16856:17019   */\n      pop\n      jump\t// out\n        /* \"#utility.yul\":17025:17391   */\n    tag_271:\n        /* \"#utility.yul\":17167:17170   */\n      0x00\n        /* \"#utility.yul\":17188:17255   */\n      tag_438\n        /* \"#utility.yul\":17252:17254   */\n      0x0d\n        /* \"#utility.yul\":17247:17250   */\n      dup4\n        /* \"#utility.yul\":17188:17255   */\n      tag_246\n      jump\t// in\n    tag_438:\n        /* \"#utility.yul\":17181:17255   */\n      swap2\n      pop\n        /* \"#utility.yul\":17264:17357   */\n      tag_439\n        /* \"#utility.yul\":17353:17356   */\n      dup3\n        /* \"#utility.yul\":17264:17357   */\n      tag_270\n      jump\t// in\n    tag_439:\n        /* \"#utility.yul\":17382:17384   */\n      0x20\n        /* \"#utility.yul\":17377:17380   */\n      dup3\n        /* \"#utility.yul\":17373:17385   */\n      add\n        /* \"#utility.yul\":17366:17385   */\n      swap1\n      pop\n        /* \"#utility.yul\":17025:17391   */\n      swap2\n      swap1\n      pop\n      jump\t// out\n        /* \"#utility.yul\":17397:17816   */\n    tag_127:\n        /* \"#utility.yul\":17563:17567   */\n      0x00\n        /* \"#utility.yul\":17601:17603   */\n      0x20\n        /* \"#utility.yul\":17590:17599   */\n      dup3\n        /* \"#utility.yul\":17586:17604   */\n      add\n        /* \"#utility.yul\":17578:17604   */\n      swap1\n      pop\n        /* \"#utility.yul\":17650:17659   */\n      dup2\n        /* \"#utility.yul\":17644:17648   */\n      dup2\n        /* \"#utility.yul\":17640:17660   */\n      sub\n        /* \"#utility.yul\":17636:17637   */\n      0x00\n        /* \"#utility.yul\":17625:17634   */\n      dup4\n        /* \"#utility.yul\":17621:17638   */\n      add\n        /* \"#utility.yul\":17614:17661   */\n      mstore\n        /* \"#utility.yul\":17678:17809   */\n      tag_441\n        /* \"#utility.yul\":17804:17808   */\n      dup2\n        /* \"#utility.yul\":17678:17809   */\n      tag_271\n      jump\t// in\n    tag_441:\n        /* \"#utility.yul\":17670:17809   */\n      swap1\n      pop\n        /* \"#utility.yul\":17397:17816   */\n      swap2\n      swap1\n      pop\n      jump\t// out\n        /* \"#utility.yul\":17822:18002   */\n    tag_272:\n        /* \"#utility.yul\":17870:17947   */\n      0x4e487b7100000000000000000000000000000000000000000000000000000000\n        /* \"#utility.yul\":17867:17868   */\n      0x00\n        /* \"#utility.yul\":17860:17948   */\n      mstore\n        /* \"#utility.yul\":17967:17971   */\n      0x11\n        /* \"#utility.yul\":17964:17965   */\n      0x04\n        /* \"#utility.yul\":17957:17972   */\n      mstore\n        /* \"#utility.yul\":17991:17995   */\n      0x24\n        /* \"#utility.yul\":17988:17989   */\n      0x00\n        /* \"#utility.yul\":17981:17996   */\n      revert\n        /* \"#utility.yul\":18008:18199   */\n    tag_129:\n        /* \"#utility.yul\":18048:18051   */\n      0x00\n        /* \"#utility.yul\":18067:18087   */\n      tag_444\n        /* \"#utility.yul\":18085:18086   */\n      dup3\n        /* \"#utility.yul\":18067:18087   */\n      tag_221\n      jump\t// in\n    tag_444:\n        /* \"#utility.yul\":18062:18087   */\n      swap2\n      pop\n        /* \"#utility.yul\":18101:18121   */\n      tag_445\n        /* \"#utility.yul\":18119:18120   */\n      dup4\n        /* \"#utility.yul\":18101:18121   */\n      tag_221\n      jump\t// in\n    tag_445:\n        /* \"#utility.yul\":18096:18121   */\n      swap3\n      pop\n        /* \"#utility.yul\":18144:18145   */\n      dup3\n        /* \"#utility.yul\":18141:18142   */\n      dup3\n        /* \"#utility.yul\":18137:18146   */\n      add\n        /* \"#utility.yul\":18130:18146   */\n      swap1\n      pop\n        /* \"#utility.yul\":18165:18168   */\n      dup1\n        /* \"#utility.yul\":18162:18163   */\n      dup3\n        /* \"#utility.yul\":18159:18169   */\n      gt\n        /* \"#utility.yul\":18156:18192   */\n      iszero\n      tag_446\n      jumpi\n        /* \"#utility.yul\":18172:18190   */\n      tag_447\n      tag_272\n      jump\t// in\n    tag_447:\n        /* \"#utility.yul\":18156:18192   */\n    tag_446:\n        /* \"#utility.yul\":18008:18199   */\n      swap3\n      swap2\n      pop\n      pop\n      jump\t// out\n        /* \"#utility.yul\":18205:18647   */\n    tag_134:\n        /* \"#utility.yul\":18354:18358   */\n      0x00\n        /* \"#utility.yul\":18392:18394   */\n      0x60\n        /* \"#utility.yul\":18381:18390   */\n      dup3\n        /* \"#utility.yul\":18377:18395   */\n      add\n        /* \"#utility.yul\":18369:18395   */\n      swap1\n      pop\n        /* \"#utility.yul\":18405:18476   */\n      tag_449\n        /* \"#utility.yul\":18473:18474   */\n      0x00\n        /* \"#utility.yul\":18462:18471   */\n      dup4\n        /* \"#utility.yul\":18458:18475   */\n      add\n        /* \"#utility.yul\":18449:18455   */\n      dup7\n        /* \"#utility.yul\":18405:18476   */\n      tag_230\n      jump\t// in\n    tag_449:\n        /* \"#utility.yul\":18486:18558   */\n      tag_450\n        /* \"#utility.yul\":18554:18556   */\n      0x20\n        /* \"#utility.yul\":18543:18552   */\n      dup4\n        /* \"#utility.yul\":18539:18557   */\n      add\n        /* \"#utility.yul\":18530:18536   */\n      dup6\n        /* \"#utility.yul\":18486:18558   */\n      tag_265\n      jump\t// in\n    tag_450:\n        /* \"#utility.yul\":18568:18640   */\n      tag_451\n        /* \"#utility.yul\":18636:18638   */\n      0x40\n        /* \"#utility.yul\":18625:18634   */\n      dup4\n        /* \"#utility.yul\":18621:18639   */\n      add\n        /* \"#utility.yul\":18612:18618   */\n      dup5\n        /* \"#utility.yul\":18568:18640   */\n      tag_230\n      jump\t// in\n    tag_451:\n        /* \"#utility.yul\":18205:18647   */\n      swap5\n      swap4\n      pop\n      pop\n      pop\n      pop\n      jump\t// out\n        /* \"#utility.yul\":18653:18818   */\n    tag_273:\n        /* \"#utility.yul\":18793:18810   */\n      0x4e6f207061796d656e74206d6164650000000000000000000000000000000000\n        /* \"#utility.yul\":18789:18790   */\n      0x00\n        /* \"#utility.yul\":18781:18787   */\n      dup3\n        /* \"#utility.yul\":18777:18791   */\n      add\n        /* \"#utility.yul\":18770:18811   */\n      mstore\n        /* \"#utility.yul\":18653:18818   */\n      pop\n      jump\t// out\n        /* \"#utility.yul\":18824:19190   */\n    tag_274:\n        /* \"#utility.yul\":18966:18969   */\n      0x00\n        /* \"#utility.yul\":18987:19054   */\n      tag_454\n        /* \"#utility.yul\":19051:19053   */\n      0x0f\n        /* \"#utility.yul\":19046:19049   */\n      dup4\n        /* \"#utility.yul\":18987:19054   */\n      tag_246\n      jump\t// in\n    tag_454:\n        /* \"#utility.yul\":18980:19054   */\n      swap2\n      pop\n        /* \"#utility.yul\":19063:19156   */\n      tag_455\n        /* \"#utility.yul\":19152:19155   */\n      dup3\n        /* \"#utility.yul\":19063:19156   */\n      tag_273\n      jump\t// in\n    tag_455:\n        /* \"#utility.yul\":19181:19183   */\n      0x20\n        /* \"#utility.yul\":19176:19179   */\n      dup3\n        /* \"#utility.yul\":19172:19184   */\n      add\n        /* \"#utility.yul\":19165:19184   */\n      swap1\n      pop\n        /* \"#utility.yul\":18824:19190   */\n      swap2\n      swap1\n      pop\n      jump\t// out\n        /* \"#utility.yul\":19196:19615   */\n    tag_149:\n        /* \"#utility.yul\":19362:19366   */\n      0x00\n        /* \"#utility.yul\":19400:19402   */\n      0x20\n        /* \"#utility.yul\":19389:19398   */\n      dup3\n        /* \"#utility.yul\":19385:19403   */\n      add\n        /* \"#utility.yul\":19377:19403   */\n      swap1\n      pop\n        /* \"#utility.yul\":19449:19458   */\n      dup2\n        /* \"#utility.yul\":19443:19447   */\n      dup2\n        /* \"#utility.yul\":19439:19459   */\n      sub\n        /* \"#utility.yul\":19435:19436   */\n      0x00\n        /* \"#utility.yul\":19424:19433   */\n      dup4\n        /* \"#utility.yul\":19420:19437   */\n      add\n        /* \"#utility.yul\":19413:19460   */\n      mstore\n        /* \"#utility.yul\":19477:19608   */\n      tag_457\n        /* \"#utility.yul\":19603:19607   */\n      dup2\n        /* \"#utility.yul\":19477:19608   */\n      tag_274\n      jump\t// in\n    tag_457:\n        /* \"#utility.yul\":19469:19608   */\n      swap1\n      pop\n        /* \"#utility.yul\":19196:19615   */\n      swap2\n      swap1\n      pop\n      jump\t// out\n        /* \"#utility.yul\":19621:19795   */\n    tag_275:\n        /* \"#utility.yul\":19761:19787   */\n      0x526566756e6420616c7265616479207265717565737465640000000000000000\n        /* \"#utility.yul\":19757:19758   */\n      0x00\n        /* \"#utility.yul\":19749:19755   */\n      dup3\n        /* \"#utility.yul\":19745:19759   */\n      add\n        /* \"#utility.yul\":19738:19788   */\n      mstore\n        /* \"#utility.yul\":19621:19795   */\n      pop\n      jump\t// out\n        /* \"#utility.yul\":19801:20167   */\n    tag_276:\n        /* \"#utility.yul\":19943:19946   */\n      0x00\n        /* \"#utility.yul\":19964:20031   */\n      tag_460\n        /* \"#utility.yul\":20028:20030   */\n      0x18\n        /* \"#utility.yul\":20023:20026   */\n      dup4\n        /* \"#utility.yul\":19964:20031   */\n      tag_246\n      jump\t// in\n    tag_460:\n        /* \"#utility.yul\":19957:20031   */\n      swap2\n      pop\n        /* \"#utility.yul\":20040:20133   */\n      tag_461\n        /* \"#utility.yul\":20129:20132   */\n      dup3\n        /* \"#utility.yul\":20040:20133   */\n      tag_275\n      jump\t// in\n    tag_461:\n        /* \"#utility.yul\":20158:20160   */\n      0x20\n        /* \"#utility.yul\":20153:20156   */\n      dup3\n        /* \"#utility.yul\":20149:20161   */\n      add\n        /* \"#utility.yul\":20142:20161   */\n      swap1\n      pop\n        /* \"#utility.yul\":19801:20167   */\n      swap2\n      swap1\n      pop\n      jump\t// out\n        /* \"#utility.yul\":20173:20592   */\n    tag_152:\n        /* \"#utility.yul\":20339:20343   */\n      0x00\n        /* \"#utility.yul\":20377:20379   */\n      0x20\n        /* \"#utility.yul\":20366:20375   */\n      dup3\n        /* \"#utility.yul\":20362:20380   */\n      add\n        /* \"#utility.yul\":20354:20380   */\n      swap1\n      pop\n        /* \"#utility.yul\":20426:20435   */\n      dup2\n        /* \"#utility.yul\":20420:20424   */\n      dup2\n        /* \"#utility.yul\":20416:20436   */\n      sub\n        /* \"#utility.yul\":20412:20413   */\n      0x00\n        /* \"#utility.yul\":20401:20410   */\n      dup4\n        /* \"#utility.yul\":20397:20414   */\n      add\n        /* \"#utility.yul\":20390:20437   */\n      mstore\n        /* \"#utility.yul\":20454:20585   */\n      tag_463\n        /* \"#utility.yul\":20580:20584   */\n      dup2\n        /* \"#utility.yul\":20454:20585   */\n      tag_276\n      jump\t// in\n    tag_463:\n        /* \"#utility.yul\":20446:20585   */\n      swap1\n      pop\n        /* \"#utility.yul\":20173:20592   */\n      swap2\n      swap1\n      pop\n      jump\t// out\n        /* \"#utility.yul\":20598:20768   */\n    tag_277:\n        /* \"#utility.yul\":20738:20760   */\n      0x4e6f207061796d656e7420746f20726566756e64000000000000000000000000\n        /* \"#utility.yul\":20734:20735   */\n      0x00\n        /* \"#utility.yul\":20726:20732   */\n      dup3\n        /* \"#utility.yul\":20722:20736   */\n      add\n        /* \"#utility.yul\":20715:20761   */\n      mstore\n        /* \"#utility.yul\":20598:20768   */\n      pop\n      jump\t// out\n        /* \"#utility.yul\":20774:21140   */\n    tag_278:\n        /* \"#utility.yul\":20916:20919   */\n      0x00\n        /* \"#utility.yul\":20937:21004   */\n      tag_466\n        /* \"#utility.yul\":21001:21003   */\n      0x14\n        /* \"#utility.yul\":20996:20999   */\n      dup4\n        /* \"#utility.yul\":20937:21004   */\n      tag_246\n      jump\t// in\n    tag_466:\n        /* \"#utility.yul\":20930:21004   */\n      swap2\n      pop\n        /* \"#utility.yul\":21013:21106   */\n      tag_467\n        /* \"#utility.yul\":21102:21105   */\n      dup3\n        /* \"#utility.yul\":21013:21106   */\n      tag_277\n      jump\t// in\n    tag_467:\n        /* \"#utility.yul\":21131:21133   */\n      0x20\n        /* \"#utility.yul\":21126:21129   */\n      dup3\n        /* \"#utility.yul\":21122:21134   */\n      add\n        /* \"#utility.yul\":21115:21134   */\n      swap1\n      pop\n        /* \"#utility.yul\":20774:21140   */\n      swap2\n      swap1\n      pop\n      jump\t// out\n        /* \"#utility.yul\":21146:21565   */\n    tag_174:\n        /* \"#utility.yul\":21312:21316   */\n      0x00\n        /* \"#utility.yul\":21350:21352   */\n      0x20\n        /* \"#utility.yul\":21339:21348   */\n      dup3\n        /* \"#utility.yul\":21335:21353   */\n      add\n        /* \"#utility.yul\":21327:21353   */\n      swap1\n      pop\n        /* \"#utility.yul\":21399:21408   */\n      dup2\n        /* \"#utility.yul\":21393:21397   */\n      dup2\n        /* \"#utility.yul\":21389:21409   */\n      sub\n        /* \"#utility.yul\":21385:21386   */\n      0x00\n        /* \"#utility.yul\":21374:21383   */\n      dup4\n        /* \"#utility.yul\":21370:21387   */\n      add\n        /* \"#utility.yul\":21363:21410   */\n      mstore\n        /* \"#utility.yul\":21427:21558   */\n      tag_469\n        /* \"#utility.yul\":21553:21557   */\n      dup2\n        /* \"#utility.yul\":21427:21558   */\n      tag_278\n      jump\t// in\n    tag_469:\n        /* \"#utility.yul\":21419:21558   */\n      swap1\n      pop\n        /* \"#utility.yul\":21146:21565   */\n      swap2\n      swap1\n      pop\n      jump\t// out\n        /* \"#utility.yul\":21571:21749   */\n    tag_279:\n        /* \"#utility.yul\":21711:21741   */\n      0x526566756e642065786365656473207374616c6c2062616c616e636500000000\n        /* \"#utility.yul\":21707:21708   */\n      0x00\n        /* \"#utility.yul\":21699:21705   */\n      dup3\n        /* \"#utility.yul\":21695:21709   */\n      add\n        /* \"#utility.yul\":21688:21742   */\n      mstore\n        /* \"#utility.yul\":21571:21749   */\n      pop\n      jump\t// out\n        /* \"#utility.yul\":21755:22121   */\n    tag_280:\n        /* \"#utility.yul\":21897:21900   */\n      0x00\n        /* \"#utility.yul\":21918:21985   */\n      tag_472\n        /* \"#utility.yul\":21982:21984   */\n      0x1c\n        /* \"#utility.yul\":21977:21980   */\n      dup4\n        /* \"#utility.yul\":21918:21985   */\n      tag_246\n      jump\t// in\n    tag_472:\n        /* \"#utility.yul\":21911:21985   */\n      swap2\n      pop\n        /* \"#utility.yul\":21994:22087   */\n      tag_473\n        /* \"#utility.yul\":22083:22086   */\n      dup3\n        /* \"#utility.yul\":21994:22087   */\n      tag_279\n      jump\t// in\n    tag_473:\n        /* \"#utility.yul\":22112:22114   */\n      0x20\n        /* \"#utility.yul\":22107:22110   */\n      dup3\n        /* \"#utility.yul\":22103:22115   */\n      add\n        /* \"#utility.yul\":22096:22115   */\n      swap1\n      pop\n        /* \"#utility.yul\":21755:22121   */\n      swap2\n      swap1\n      pop\n      jump\t// out\n        /* \"#utility.yul\":22127:22546   */\n    tag_177:\n        /* \"#utility.yul\":22293:22297   */\n      0x00\n        /* \"#utility.yul\":22331:22333   */\n      0x20\n        /* \"#utility.yul\":22320:22329   */\n      dup3\n        /* \"#utility.yul\":22316:22334   */\n      add\n        /* \"#utility.yul\":22308:22334   */\n      swap1\n      pop\n        /* \"#utility.yul\":22380:22389   */\n      dup2\n        /* \"#utility.yul\":22374:22378   */\n      dup2\n        /* \"#utility.yul\":22370:22390   */\n      sub\n        /* \"#utility.yul\":22366:22367   */\n      0x00\n        /* \"#utility.yul\":22355:22364   */\n      dup4\n        /* \"#utility.yul\":22351:22368   */\n      add\n        /* \"#utility.yul\":22344:22391   */\n      mstore\n        /* \"#utility.yul\":22408:22539   */\n      tag_475\n        /* \"#utility.yul\":22534:22538   */\n      dup2\n        /* \"#utility.yul\":22408:22539   */\n      tag_280\n      jump\t// in\n    tag_475:\n        /* \"#utility.yul\":22400:22539   */\n      swap1\n      pop\n        /* \"#utility.yul\":22127:22546   */\n      swap2\n      swap1\n      pop\n      jump\t// out\n        /* \"#utility.yul\":22552:22746   */\n    tag_179:\n        /* \"#utility.yul\":22592:22596   */\n      0x00\n        /* \"#utility.yul\":22612:22632   */\n      tag_477\n        /* \"#utility.yul\":22630:22631   */\n      dup3\n        /* \"#utility.yul\":22612:22632   */\n      tag_221\n      jump\t// in\n    tag_477:\n        /* \"#utility.yul\":22607:22632   */\n      swap2\n      pop\n        /* \"#utility.yul\":22646:22666   */\n      tag_478\n        /* \"#utility.yul\":22664:22665   */\n      dup4\n        /* \"#utility.yul\":22646:22666   */\n      tag_221\n      jump\t// in\n    tag_478:\n        /* \"#utility.yul\":22641:22666   */\n      swap3\n      pop\n        /* \"#utility.yul\":22690:22691   */\n      dup3\n        /* \"#utility.yul\":22687:22688   */\n      dup3\n        /* \"#utility.yul\":22683:22692   */\n      sub\n        /* \"#utility.yul\":22675:22692   */\n      swap1\n      pop\n        /* \"#utility.yul\":22714:22715   */\n      dup2\n        /* \"#utility.yul\":22708:22712   */\n      dup2\n        /* \"#utility.yul\":22705:22716   */\n      gt\n        /* \"#utility.yul\":22702:22739   */\n      iszero\n      tag_479\n      jumpi\n        /* \"#utility.yul\":22719:22737   */\n      tag_480\n      tag_272\n      jump\t// in\n    tag_480:\n        /* \"#utility.yul\":22702:22739   */\n    tag_479:\n        /* \"#utility.yul\":22552:22746   */\n      swap3\n      swap2\n      pop\n      pop\n      jump\t// out\n        /* \"#utility.yul\":22752:22924   */\n    tag_281:\n        /* \"#utility.yul\":22892:22916   */\n      0x526566756e64207472616e73666572206661696c656400000000000000000000\n        /* \"#utility.yul\":22888:22889   */\n      0x00\n        /* \"#utility.yul\":22880:22886   */\n      dup3\n        /* \"#utility.yul\":22876:22890   */\n      add\n        /* \"#utility.yul\":22869:22917   */\n      mstore\n        /* \"#utility.yul\":22752:22924   */\n      pop\n      jump\t// out\n        /* \"#utility.yul\":22930:23296   */\n    tag_282:\n        /* \"#utility.yul\":23072:23075   */\n      0x00\n        /* \"#utility.yul\":23093:23160   */\n      tag_483\n        /* \"#utility.yul\":23157:23159   */\n      0x16\n        /* \"#utility.yul\":23152:23155   */\n      dup4\n        /* \"#utility.yul\":23093:23160   */\n      tag_246\n      jump\t// in\n    tag_483:\n        /* \"#utility.yul\":23086:23160   */\n      swap2\n      pop\n        /* \"#utility.yul\":23169:23262   */\n      tag_484\n        /* \"#utility.yul\":23258:23261   */\n      dup3\n        /* \"#utility.yul\":23169:23262   */\n      tag_281\n      jump\t// in\n    tag_484:\n        /* \"#utility.yul\":23287:23289   */\n      0x20\n        /* \"#utility.yul\":23282:23285   */\n      dup3\n        /* \"#utility.yul\":23278:23290   */\n      add\n        /* \"#utility.yul\":23271:23290   */\n      swap1\n      pop\n        /* \"#utility.yul\":22930:23296   */\n      swap2\n      swap1\n      pop\n      jump\t// out\n        /* \"#utility.yul\":23302:23721   */\n    tag_186:\n        /* \"#utility.yul\":23468:23472   */\n      0x00\n        /* \"#utility.yul\":23506:23508   */\n      0x20\n        /* \"#utility.yul\":23495:23504   */\n      dup3\n        /* \"#utility.yul\":23491:23509   */\n      add\n        /* \"#utility.yul\":23483:23509   */\n      swap1\n      pop\n        /* \"#utility.yul\":23555:23564   */\n      dup2\n        /* \"#utility.yul\":23549:23553   */\n      dup2\n        /* \"#utility.yul\":23545:23565   */\n      sub\n        /* \"#utility.yul\":23541:23542   */\n      0x00\n        /* \"#utility.yul\":23530:23539   */\n      dup4\n        /* \"#utility.yul\":23526:23543   */\n      add\n        /* \"#utility.yul\":23519:23566   */\n      mstore\n        /* \"#utility.yul\":23583:23714   */\n      tag_486\n        /* \"#utility.yul\":23709:23713   */\n      dup2\n        /* \"#utility.yul\":23583:23714   */\n      tag_282\n      jump\t// in\n    tag_486:\n        /* \"#utility.yul\":23575:23714   */\n      swap1\n      pop\n        /* \"#utility.yul\":23302:23721   */\n      swap2\n      swap1\n      pop\n      jump\t// out\n        /* \"#utility.yul\":23727:23960   */\n    tag_211:\n        /* \"#utility.yul\":23766:23769   */\n      0x00\n        /* \"#utility.yul\":23789:23813   */\n      tag_488\n        /* \"#utility.yul\":23807:23812   */\n      dup3\n        /* \"#utility.yul\":23789:23813   */\n      tag_221\n      jump\t// in\n    tag_488:\n        /* \"#utility.yul\":23780:23813   */\n      swap2\n      pop\n        /* \"#utility.yul\":23835:23901   */\n      0xffffffffffffffffffffffffffffffffffffffffffffffffffffffffffffffff\n        /* \"#utility.yul\":23828:23833   */\n      dup3\n        /* \"#utility.yul\":23825:23902   */\n      sub\n        /* \"#utility.yul\":23822:23925   */\n      tag_489\n      jumpi\n        /* \"#utility.yul\":23905:23923   */\n      tag_490\n      tag_272\n      jump\t// in\n    tag_490:\n        /* \"#utility.yul\":23822:23925   */\n    tag_489:\n        /* \"#utility.yul\":23952:23953   */\n      0x01\n        /* \"#utility.yul\":23945:23950   */\n      dup3\n        /* \"#utility.yul\":23941:23954   */\n      add\n        /* \"#utility.yul\":23934:23954   */\n      swap1\n      pop\n        /* \"#utility.yul\":23727:23960   */\n      swap2\n      swap1\n      pop\n      jump\t// out\n        /* \"#utility.yul\":23966:24434   */\n    tag_217:\n        /* \"#utility.yul\":24128:24132   */\n      0x00\n        /* \"#utility.yul\":24166:24168   */\n      0x60\n        /* \"#utility.yul\":24155:24164   */\n      dup3\n        /* \"#utility.yul\":24151:24169   */\n      add\n        /* \"#utility.yul\":24143:24169   */\n      swap1\n      pop\n        /* \"#utility.yul\":24179:24250   */\n      tag_492\n        /* \"#utility.yul\":24247:24248   */\n      0x00\n        /* \"#utility.yul\":24236:24245   */\n      dup4\n        /* \"#utility.yul\":24232:24249   */\n      add\n        /* \"#utility.yul\":24223:24229   */\n      dup7\n        /* \"#utility.yul\":24179:24250   */\n      tag_230\n      jump\t// in\n    tag_492:\n        /* \"#utility.yul\":24260:24332   */\n      tag_493\n        /* \"#utility.yul\":24328:24330   */\n      0x20\n        /* \"#utility.yul\":24317:24326   */\n      dup4\n        /* \"#utility.yul\":24313:24331   */\n      add\n        /* \"#utility.yul\":24304:24310   */\n      dup6\n        /* \"#utility.yul\":24260:24332   */\n      tag_265\n      jump\t// in\n    tag_493:\n        /* \"#utility.yul\":24342:24427   */\n      tag_494\n        /* \"#utility.yul\":24423:24425   */\n      0x40\n        /* \"#utility.yul\":24412:24421   */\n      dup4\n        /* \"#utility.yul\":24408:24426   */\n      add\n        /* \"#utility.yul\":24399:24405   */\n      dup5\n        /* \"#utility.yul\":24342:24427   */\n      tag_243\n      jump\t// in\n    tag_494:\n        /* \"#utility.yul\":23966:24434   */\n      swap5\n      swap4\n      pop\n      pop\n      pop\n      pop\n      jump\t// out\n\n    auxdata: 0xa2646970667358221220db0f4bd7d44928b558eeebedd7b139296b6469f6d074fd19d23dc58af918522064736f6c634300081e0033\n}\n",
				"bytecode": {
					"linkReferences": {},
					"object": "6080604052348015600e575f5ffd5b506123578061001c5f395ff3fe6080604052600436106100c1575f3560e01c80636d0f94081161007e578063a532db9011610058578063a532db9014610277578063aa8695aa146102b3578063d5f8ab89146102db578063d8f4ee5b14610303576100c1565b80636d0f9408146101e557806399cb043a14610225578063a4b2409e1461024f576100c1565b80630a3b91d9146100c5578063155dd5ee146101015780634b8e3a17146101295780635114cb5214610151578063565834ee1461016d57806368209707146101a9575b5f5ffd5b3480156100d0575f5ffd5b506100eb60048036038101906100e6919061188b565b61032b565b6040516100f891906118e3565b60405180910390f35b34801561010c575f5ffd5b50610127600480360381019061012291906118fc565b610355565b005b348015610134575f5ffd5b5061014f600480360381019061014a919061188b565b6105f7565b005b61016b600480360381019061016691906118fc565b610825565b005b348015610178575f5ffd5b50610193600480360381019061018e919061188b565b610b5a565b6040516101a09190611936565b60405180910390f35b3480156101b4575f5ffd5b506101cf60048036038101906101ca91906118fc565b610b7a565b6040516101dc9190611a06565b60405180910390f35b3480156101f0575f5ffd5b5061020b600480360381019061020691906118fc565b610c68565b60405161021c959493929190611ab9565b60405180910390f35b348015610230575f5ffd5b50610239610cdd565b6040516102469190611936565b60405180910390f35b34801561025a575f5ffd5b50610275600480360381019061027091906118fc565b610ce3565b005b348015610282575f5ffd5b5061029d60048036038101906102989190611b2d565b610ec3565b6040516102aa9190611936565b60405180910390f35b3480156102be575f5ffd5b506102d960048036038101906102d4919061188b565b610f3d565b005b3480156102e6575f5ffd5b5061030160048036038101906102fc919061188b565b611260565b005b34801561030e575f5ffd5b5061032960048036038101906103249190611b2d565b61167e565b005b6004602052815f5260405f20602052805f5260405f205f915091509054906101000a900460ff1681565b805f8111801561036757506005548111155b6103a6576040517f08c379a000000000000000000000000000000000000000000000000000000000815260040161039d90611bb2565b60405180910390fd5b5f5f5f8481526020019081526020015f209050805f015f9054906101000a900473ffffffffffffffffffffffffffffffffffffffff1673ffffffffffffffffffffffffffffffffffffffff163373ffffffffffffffffffffffffffffffffffffffff1614610449576040517f08c379a000000000000000000000000000000000000000000000000000000000815260040161044090611c1a565b60405180910390fd5b8060020160019054906101000a900460ff161561049b576040517f08c379a000000000000000000000000000000000000000000000000000000000815260040161049290611c82565b60405180910390fd5b5f8160010154905060018260020160016101000a81548160ff0219169083151502179055505f82600101819055505f825f015f9054906101000a900473ffffffffffffffffffffffffffffffffffffffff1673ffffffffffffffffffffffffffffffffffffffff168260405161051090611ccd565b5f6040518083038185875af1925050503d805f811461054a576040519150601f19603f3d011682016040523d82523d5f602084013e61054f565b606091505b5050905080610593576040517f08c379a000000000000000000000000000000000000000000000000000000000815260040161058a90611d2b565b60405180910390fd5b7ff440aec6b52895984d061d622e6edeba6210f7c3e059be920663140c084560d785845f015f9054906101000a900473ffffffffffffffffffffffffffffffffffffffff16846040516105e893929190611da4565b60405180910390a15050505050565b815f8111801561060957506005548111155b610648576040517f08c379a000000000000000000000000000000000000000000000000000000000815260040161063f90611bb2565b60405180910390fd5b5f5f5f8581526020019081526020015f209050805f015f9054906101000a900473ffffffffffffffffffffffffffffffffffffffff1673ffffffffffffffffffffffffffffffffffffffff163373ffffffffffffffffffffffffffffffffffffffff16146106eb576040517f08c379a00000000000000000000000000000000000000000000000000000000081526004016106e290611c1a565b60405180910390fd5b60045f8581526020019081526020015f205f8473ffffffffffffffffffffffffffffffffffffffff1673ffffffffffffffffffffffffffffffffffffffff1681526020019081526020015f205f9054906101000a900460ff16610783576040517f08c379a000000000000000000000000000000000000000000000000000000000815260040161077a90611e23565b60405180910390fd5b5f60045f8681526020019081526020015f205f8573ffffffffffffffffffffffffffffffffffffffff1673ffffffffffffffffffffffffffffffffffffffff1681526020019081526020015f205f6101000a81548160ff0219169083151502179055507f043d0d9bf4e73c0519823631bd183a34bf9a8101ec7c12629b7021972b2be8d68484604051610817929190611e50565b60405180910390a150505050565b805f8111801561083757506005548111155b610876576040517f08c379a000000000000000000000000000000000000000000000000000000000815260040161086d90611bb2565b60405180910390fd5b5f5f5f8481526020019081526020015f209050806002015f9054906101000a900460ff166108d9576040517f08c379a00000000000000000000000000000000000000000000000000000000081526004016108d090611ec1565b60405180910390fd5b8060020160019054906101000a900460ff161561092b576040517f08c379a000000000000000000000000000000000000000000000000000000000815260040161092290611f4f565b60405180910390fd5b5f341161096d576040517f08c379a000000000000000000000000000000000000000000000000000000000815260040161096490611fb7565b60405180910390fd5b34816001015f8282546109809190612002565b925050819055503460015f8581526020019081526020015f205f3373ffffffffffffffffffffffffffffffffffffffff1673ffffffffffffffffffffffffffffffffffffffff1681526020019081526020015f205f8282546109e29190612002565b9250508190555060035f8481526020019081526020015f205f3373ffffffffffffffffffffffffffffffffffffffff1673ffffffffffffffffffffffffffffffffffffffff1681526020019081526020015f205f9054906101000a900460ff16610b1a5760025f8481526020019081526020015f2033908060018154018082558091505060019003905f5260205f20015f9091909190916101000a81548173ffffffffffffffffffffffffffffffffffffffff021916908373ffffffffffffffffffffffffffffffffffffffff160217905550600160035f8581526020019081526020015f205f3373ffffffffffffffffffffffffffffffffffffffff1673ffffffffffffffffffffffffffffffffffffffff1681526020019081526020015f205f6101000a81548160ff0219169083151502179055505b7f61ac8e9b735e72d1382cbf7d35f2ff3764dae09d7faf7d90787bf7f9ae76e4c8833334604051610b4d93929190612035565b60405180910390a1505050565b6001602052815f5260405f20602052805f5260405f205f91509150505481565b6060815f81118015610b8e57506005548111155b610bcd576040517f08c379a0000000000000000000000000000000000000000000000000000000008152600401610bc490611bb2565b60405180910390fd5b60025f8481526020019081526020015f20805480602002602001604051908101604052809291908181526020018280548015610c5b57602002820191905f5260205f20905b815f9054906101000a900473ffffffffffffffffffffffffffffffffffffffff1673ffffffffffffffffffffffffffffffffffffffff1681526020019060010190808311610c12575b5050505050915050919050565b5f602052805f5260405f205f91509050805f015f9054906101000a900473ffffffffffffffffffffffffffffffffffffffff1690805f0160149054906101000a900460ff1690806001015490806002015f9054906101000a900460ff16908060020160019054906101000a900460ff16905085565b60055481565b805f81118015610cf557506005548111155b610d34576040517f08c379a0000000000000000000000000000000000000000000000000000000008152600401610d2b90611bb2565b60405180910390fd5b5f60015f8481526020019081526020015f205f3373ffffffffffffffffffffffffffffffffffffffff1673ffffffffffffffffffffffffffffffffffffffff1681526020019081526020015f205411610dc2576040517f08c379a0000000000000000000000000000000000000000000000000000000008152600401610db9906120b4565b60405180910390fd5b60045f8381526020019081526020015f205f3373ffffffffffffffffffffffffffffffffffffffff1673ffffffffffffffffffffffffffffffffffffffff1681526020019081526020015f205f9054906101000a900460ff1615610e5b576040517f08c379a0000000000000000000000000000000000000000000000000000000008152600401610e529061211c565b60405180910390fd5b600160045f8481526020019081526020015f205f3373ffffffffffffffffffffffffffffffffffffffff1673ffffffffffffffffffffffffffffffffffffffff1681526020019081526020015f205f6101000a81548160ff0219169083151502179055505050565b5f5f6002811115610ed757610ed6611a46565b5b826002811115610eea57610ee9611a46565b5b03610efa57620151809050610f38565b60016002811115610f0e57610f0d611a46565b5b826002811115610f2157610f20611a46565b5b03610f31576202a3009050610f38565b6203f48090505b919050565b815f81118015610f4f57506005548111155b610f8e576040517f08c379a0000000000000000000000000000000000000000000000000000000008152600401610f8590611bb2565b60405180910390fd5b5f5f5f8581526020019081526020015f209050805f015f9054906101000a900473ffffffffffffffffffffffffffffffffffffffff1673ffffffffffffffffffffffffffffffffffffffff163373ffffffffffffffffffffffffffffffffffffffff1614611031576040517f08c379a000000000000000000000000000000000000000000000000000000000815260040161102890611c1a565b60405180910390fd5b5f60015f8681526020019081526020015f205f8573ffffffffffffffffffffffffffffffffffffffff1673ffffffffffffffffffffffffffffffffffffffff1681526020019081526020015f205490505f81116110c3576040517f08c379a00000000000000000000000000000000000000000000000000000000081526004016110ba90612184565b60405180910390fd5b816001015481111561110a576040517f08c379a0000000000000000000000000000000000000000000000000000000008152600401611101906121ec565b60405180910390fd5b80826001015f82825461111d919061220a565b925050819055505f60015f8781526020019081526020015f205f8673ffffffffffffffffffffffffffffffffffffffff1673ffffffffffffffffffffffffffffffffffffffff1681526020019081526020015f20819055505f8473ffffffffffffffffffffffffffffffffffffffff168260405161119a90611ccd565b5f6040518083038185875af1925050503d805f81146111d4576040519150601f19603f3d011682016040523d82523d5f602084013e6111d9565b606091505b505090508061121d576040517f08c379a000000000000000000000000000000000000000000000000000000000815260040161121490612287565b60405180910390fd5b7f7a482fdeb6bc9a1376f597068a214a7a39472bb2eff1b8cad21ba04f49ddca1b86868460405161125093929190612035565b60405180910390a1505050505050565b815f8111801561127257506005548111155b6112b1576040517f08c379a00000000000000000000000000000000000000000000000000000000081526004016112a890611bb2565b60405180910390fd5b5f5f5f8581526020019081526020015f209050805f015f9054906101000a900473ffffffffffffffffffffffffffffffffffffffff1673ffffffffffffffffffffffffffffffffffffffff163373ffffffffffffffffffffffffffffffffffffffff1614611354576040517f08c379a000000000000000000000000000000000000000000000000000000000815260040161134b90611c1a565b60405180910390fd5b60045f8581526020019081526020015f205f8473ffffffffffffffffffffffffffffffffffffffff1673ffffffffffffffffffffffffffffffffffffffff1681526020019081526020015f205f9054906101000a900460ff166113ec576040517f08c379a00000000000000000000000000000000000000000000000000000000081526004016113e390611e23565b60405180910390fd5b5f60015f8681526020019081526020015f205f8573ffffffffffffffffffffffffffffffffffffffff1673ffffffffffffffffffffffffffffffffffffffff1681526020019081526020015f205490505f811161147e576040517f08c379a000000000000000000000000000000000000000000000000000000000815260040161147590612184565b60405180910390fd5b81600101548111156114c5576040517f08c379a00000000000000000000000000000000000000000000000000000000081526004016114bc906121ec565b60405180910390fd5b5f60045f8781526020019081526020015f205f8673ffffffffffffffffffffffffffffffffffffffff1673ffffffffffffffffffffffffffffffffffffffff1681526020019081526020015f205f6101000a81548160ff02191690831515021790555080826001015f82825461153b919061220a565b925050819055505f60015f8781526020019081526020015f205f8673ffffffffffffffffffffffffffffffffffffffff1673ffffffffffffffffffffffffffffffffffffffff1681526020019081526020015f20819055505f8473ffffffffffffffffffffffffffffffffffffffff16826040516115b890611ccd565b5f6040518083038185875af1925050503d805f81146115f2576040519150601f19603f3d011682016040523d82523d5f602084013e6115f7565b606091505b505090508061163b576040517f08c379a000000000000000000000000000000000000000000000000000000000815260040161163290612287565b60405180910390fd5b7f7a482fdeb6bc9a1376f597068a214a7a39472bb2eff1b8cad21ba04f49ddca1b86868460405161166e93929190612035565b60405180910390a1505050505050565b60055f815480929190611690906122a5565b91905055506040518060a001604052803373ffffffffffffffffffffffffffffffffffffffff1681526020018260028111156116cf576116ce611a46565b5b81526020015f81526020016001151581526020015f15158152505f5f60055481526020019081526020015f205f820151815f015f6101000a81548173ffffffffffffffffffffffffffffffffffffffff021916908373ffffffffffffffffffffffffffffffffffffffff1602179055506020820151815f0160146101000a81548160ff0219169083600281111561176957611768611a46565b5b0217905550604082015181600101556060820151816002015f6101000a81548160ff02191690831515021790555060808201518160020160016101000a81548160ff0219169083151502179055509050507fc4afec621b00a8476c4eaa76d731dbaf984e16bd432f57543ac5e43615da1a9860055433836040516117ef939291906122ec565b60405180910390a150565b5f5ffd5b5f819050919050565b611810816117fe565b811461181a575f5ffd5b50565b5f8135905061182b81611807565b92915050565b5f73ffffffffffffffffffffffffffffffffffffffff82169050919050565b5f61185a82611831565b9050919050565b61186a81611850565b8114611874575f5ffd5b50565b5f8135905061188581611861565b92915050565b5f5f604083850312156118a1576118a06117fa565b5b5f6118ae8582860161181d565b92505060206118bf85828601611877565b9150509250929050565b5f8115159050919050565b6118dd816118c9565b82525050565b5f6020820190506118f65f8301846118d4565b92915050565b5f60208284031215611911576119106117fa565b5b5f61191e8482850161181d565b91505092915050565b611930816117fe565b82525050565b5f6020820190506119495f830184611927565b92915050565b5f81519050919050565b5f82825260208201905092915050565b5f819050602082019050919050565b61198181611850565b82525050565b5f6119928383611978565b60208301905092915050565b5f602082019050919050565b5f6119b48261194f565b6119be8185611959565b93506119c983611969565b805f5b838110156119f95781516119e08882611987565b97506119eb8361199e565b9250506001810190506119cc565b5085935050505092915050565b5f6020820190508181035f830152611a1e81846119aa565b905092915050565b5f611a3082611831565b9050919050565b611a4081611a26565b82525050565b7f4e487b71000000000000000000000000000000000000000000000000000000005f52602160045260245ffd5b60038110611a8457611a83611a46565b5b50565b5f819050611a9482611a73565b919050565b5f611aa382611a87565b9050919050565b611ab381611a99565b82525050565b5f60a082019050611acc5f830188611a37565b611ad96020830187611aaa565b611ae66040830186611927565b611af360608301856118d4565b611b0060808301846118d4565b9695505050505050565b60038110611b16575f5ffd5b50565b5f81359050611b2781611b0a565b92915050565b5f60208284031215611b4257611b416117fa565b5b5f611b4f84828501611b19565b91505092915050565b5f82825260208201905092915050565b7f5374616c6c20646f6573206e6f742065786973740000000000000000000000005f82015250565b5f611b9c601483611b58565b9150611ba782611b68565b602082019050919050565b5f6020820190508181035f830152611bc981611b90565b9050919050565b7f4e6f74207374616c6c206f776e657200000000000000000000000000000000005f82015250565b5f611c04600f83611b58565b9150611c0f82611bd0565b602082019050919050565b5f6020820190508181035f830152611c3181611bf8565b9050919050565b7f416c72656164792077697468647261776e0000000000000000000000000000005f82015250565b5f611c6c601183611b58565b9150611c7782611c38565b602082019050919050565b5f6020820190508181035f830152611c9981611c60565b9050919050565b5f81905092915050565b50565b5f611cb85f83611ca0565b9150611cc382611caa565b5f82019050919050565b5f611cd782611cad565b9150819050919050565b7f5769746864726177616c207472616e73666572206661696c65640000000000005f82015250565b5f611d15601a83611b58565b9150611d2082611ce1565b602082019050919050565b5f6020820190508181035f830152611d4281611d09565b9050919050565b5f819050919050565b5f611d6c611d67611d6284611831565b611d49565b611831565b9050919050565b5f611d7d82611d52565b9050919050565b5f611d8e82611d73565b9050919050565b611d9e81611d84565b82525050565b5f606082019050611db75f830186611927565b611dc46020830185611d95565b611dd16040830184611927565b949350505050565b7f4e6f20726566756e6420726571756573746564000000000000000000000000005f82015250565b5f611e0d601383611b58565b9150611e1882611dd9565b602082019050919050565b5f6020820190508181035f830152611e3a81611e01565b9050919050565b611e4a81611850565b82525050565b5f604082019050611e635f830185611927565b611e706020830184611e41565b9392505050565b7f5374616c6c206e6f7420666f756e6400000000000000000000000000000000005f82015250565b5f611eab600f83611b58565b9150611eb682611e77565b602082019050919050565b5f6020820190508181035f830152611ed881611e9f565b9050919050565b7f5374616c6c2066756e64732077697468647261776e2c206e6f206d6f726520705f8201527f61796d656e747300000000000000000000000000000000000000000000000000602082015250565b5f611f39602783611b58565b9150611f4482611edf565b604082019050919050565b5f6020820190508181035f830152611f6681611f2d565b9050919050565b7f4d7573742073656e6420455448000000000000000000000000000000000000005f82015250565b5f611fa1600d83611b58565b9150611fac82611f6d565b602082019050919050565b5f6020820190508181035f830152611fce81611f95565b9050919050565b7f4e487b71000000000000000000000000000000000000000000000000000000005f52601160045260245ffd5b5f61200c826117fe565b9150612017836117fe565b925082820190508082111561202f5761202e611fd5565b5b92915050565b5f6060820190506120485f830186611927565b6120556020830185611e41565b6120626040830184611927565b949350505050565b7f4e6f207061796d656e74206d61646500000000000000000000000000000000005f82015250565b5f61209e600f83611b58565b91506120a98261206a565b602082019050919050565b5f6020820190508181035f8301526120cb81612092565b9050919050565b7f526566756e6420616c72656164792072657175657374656400000000000000005f82015250565b5f612106601883611b58565b9150612111826120d2565b602082019050919050565b5f6020820190508181035f830152612133816120fa565b9050919050565b7f4e6f207061796d656e7420746f20726566756e640000000000000000000000005f82015250565b5f61216e601483611b58565b91506121798261213a565b602082019050919050565b5f6020820190508181035f83015261219b81612162565b9050919050565b7f526566756e642065786365656473207374616c6c2062616c616e6365000000005f82015250565b5f6121d6601c83611b58565b91506121e1826121a2565b602082019050919050565b5f6020820190508181035f830152612203816121ca565b9050919050565b5f612214826117fe565b915061221f836117fe565b925082820390508181111561223757612236611fd5565b5b92915050565b7f526566756e64207472616e73666572206661696c6564000000000000000000005f82015250565b5f612271601683611b58565b915061227c8261223d565b602082019050919050565b5f6020820190508181035f83015261229e81612265565b9050919050565b5f6122af826117fe565b91507fffffffffffffffffffffffffffffffffffffffffffffffffffffffffffffffff82036122e1576122e0611fd5565b5b600182019050919050565b5f6060820190506122ff5f830186611927565b61230c6020830185611e41565b6123196040830184611aaa565b94935050505056fea2646970667358221220db0f4bd7d44928b558eeebedd7b139296b6469f6d074fd19d23dc58af918522064736f6c634300081e0033",
					"opcodes": "PUSH1 0x80 PUSH1 0x40 MSTORE CALLVALUE DUP1 ISZERO PUSH1 0xE JUMPI PUSH0 PUSH0 REVERT JUMPDEST POP PUSH2 0x2357 DUP1 PUSH2 0x1C PUSH0 CODECOPY PUSH0 RETURN INVALID PUSH1 0x80 PUSH1 0x40 MSTORE PUSH1 0x4 CALLDATASIZE LT PUSH2 0xC1 JUMPI PUSH0 CALLDATALOAD PUSH1 0xE0 SHR DUP1 PUSH4 0x6D0F9408 GT PUSH2 0x7E JUMPI DUP1 PUSH4 0xA532DB90 GT PUSH2 0x58 JUMPI DUP1 PUSH4 0xA532DB90 EQ PUSH2 0x277 JUMPI DUP1 PUSH4 0xAA8695AA EQ PUSH2 0x2B3 JUMPI DUP1 PUSH4 0xD5F8AB89 EQ PUSH2 0x2DB JUMPI DUP1 PUSH4 0xD8F4EE5B EQ PUSH2 0x303 JUMPI PUSH2 0xC1 JUMP JUMPDEST DUP1 PUSH4 0x6D0F9408 EQ PUSH2 0x1E5 JUMPI DUP1 PUSH4 0x99CB043A EQ PUSH2 0x225 JUMPI DUP1 PUSH4 0xA4B2409E EQ PUSH2 0x24F JUMPI PUSH2 0xC1 JUMP JUMPDEST DUP1 PUSH4 0xA3B91D9 EQ PUSH2 0xC5 JUMPI DUP1 PUSH4 0x155DD5EE EQ PUSH2 0x101 JUMPI DUP1 PUSH4 0x4B8E3A17 EQ PUSH2 0x129 JUMPI DUP1 PUSH4 0x5114CB52 EQ PUSH2 0x151 JUMPI DUP1 PUSH4 0x565834EE EQ PUSH2 0x16D JUMPI DUP1 PUSH4 0x68209707 EQ PUSH2 0x1A9 JUMPI JUMPDEST PUSH0 PUSH0 REVERT JUMPDEST CALLVALUE DUP1 ISZERO PUSH2 0xD0 JUMPI PUSH0 PUSH0 REVERT JUMPDEST POP PUSH2 0xEB PUSH1 0x4 DUP1 CALLDATASIZE SUB DUP2 ADD SWAP1 PUSH2 0xE6 SWAP2 SWAP1 PUSH2 0x188B JUMP JUMPDEST PUSH2 0x32B JUMP JUMPDEST PUSH1 0x40 MLOAD PUSH2 0xF8 SWAP2 SWAP1 PUSH2 0x18E3 JUMP JUMPDEST PUSH1 0x40 MLOAD DUP1 SWAP2 SUB SWAP1 RETURN JUMPDEST CALLVALUE DUP1 ISZERO PUSH2 0x10C JUMPI PUSH0 PUSH0 REVERT JUMPDEST POP PUSH2 0x127 PUSH1 0x4 DUP1 CALLDATASIZE SUB DUP2 ADD SWAP1 PUSH2 0x122 SWAP2 SWAP1 PUSH2 0x18FC JUMP JUMPDEST PUSH2 0x355 JUMP JUMPDEST STOP JUMPDEST CALLVALUE DUP1 ISZERO PUSH2 0x134 JUMPI PUSH0 PUSH0 REVERT JUMPDEST POP PUSH2 0x14F PUSH1 0x4 DUP1 CALLDATASIZE SUB DUP2 ADD SWAP1 PUSH2 0x14A SWAP2 SWAP1 PUSH2 0x188B JUMP JUMPDEST PUSH2 0x5F7 JUMP JUMPDEST STOP JUMPDEST PUSH2 0x16B PUSH1 0x4 DUP1 CALLDATASIZE SUB DUP2 ADD SWAP1 PUSH2 0x166 SWAP2 SWAP1 PUSH2 0x18FC JUMP JUMPDEST PUSH2 0x825 JUMP JUMPDEST STOP JUMPDEST CALLVALUE DUP1 ISZERO PUSH2 0x178 JUMPI PUSH0 PUSH0 REVERT JUMPDEST POP PUSH2 0x193 PUSH1 0x4 DUP1 CALLDATASIZE SUB DUP2 ADD SWAP1 PUSH2 0x18E SWAP2 SWAP1 PUSH2 0x188B JUMP JUMPDEST PUSH2 0xB5A JUMP JUMPDEST PUSH1 0x40 MLOAD PUSH2 0x1A0 SWAP2 SWAP1 PUSH2 0x1936 JUMP JUMPDEST PUSH1 0x40 MLOAD DUP1 SWAP2 SUB SWAP1 RETURN JUMPDEST CALLVALUE DUP1 ISZERO PUSH2 0x1B4 JUMPI PUSH0 PUSH0 REVERT JUMPDEST POP PUSH2 0x1CF PUSH1 0x4 DUP1 CALLDATASIZE SUB DUP2 ADD SWAP1 PUSH2 0x1CA SWAP2 SWAP1 PUSH2 0x18FC JUMP JUMPDEST PUSH2 0xB7A JUMP JUMPDEST PUSH1 0x40 MLOAD PUSH2 0x1DC SWAP2 SWAP1 PUSH2 0x1A06 JUMP JUMPDEST PUSH1 0x40 MLOAD DUP1 SWAP2 SUB SWAP1 RETURN JUMPDEST CALLVALUE DUP1 ISZERO PUSH2 0x1F0 JUMPI PUSH0 PUSH0 REVERT JUMPDEST POP PUSH2 0x20B PUSH1 0x4 DUP1 CALLDATASIZE SUB DUP2 ADD SWAP1 PUSH2 0x206 SWAP2 SWAP1 PUSH2 0x18FC JUMP JUMPDEST PUSH2 0xC68 JUMP JUMPDEST PUSH1 0x40 MLOAD PUSH2 0x21C SWAP6 SWAP5 SWAP4 SWAP3 SWAP2 SWAP1 PUSH2 0x1AB9 JUMP JUMPDEST PUSH1 0x40 MLOAD DUP1 SWAP2 SUB SWAP1 RETURN JUMPDEST CALLVALUE DUP1 ISZERO PUSH2 0x230 JUMPI PUSH0 PUSH0 REVERT JUMPDEST POP PUSH2 0x239 PUSH2 0xCDD JUMP JUMPDEST PUSH1 0x40 MLOAD PUSH2 0x246 SWAP2 SWAP1 PUSH2 0x1936 JUMP JUMPDEST PUSH1 0x40 MLOAD DUP1 SWAP2 SUB SWAP1 RETURN JUMPDEST CALLVALUE DUP1 ISZERO PUSH2 0x25A JUMPI PUSH0 PUSH0 REVERT JUMPDEST POP PUSH2 0x275 PUSH1 0x4 DUP1 CALLDATASIZE SUB DUP2 ADD SWAP1 PUSH2 0x270 SWAP2 SWAP1 PUSH2 0x18FC JUMP JUMPDEST PUSH2 0xCE3 JUMP JUMPDEST STOP JUMPDEST CALLVALUE DUP1 ISZERO PUSH2 0x282 JUMPI PUSH0 PUSH0 REVERT JUMPDEST POP PUSH2 0x29D PUSH1 0x4 DUP1 CALLDATASIZE SUB DUP2 ADD SWAP1 PUSH2 0x298 SWAP2 SWAP1 PUSH2 0x1B2D JUMP JUMPDEST PUSH2 0xEC3 JUMP JUMPDEST PUSH1 0x40 MLOAD PUSH2 0x2AA SWAP2 SWAP1 PUSH2 0x1936 JUMP JUMPDEST PUSH1 0x40 MLOAD DUP1 SWAP2 SUB SWAP1 RETURN JUMPDEST CALLVALUE DUP1 ISZERO PUSH2 0x2BE JUMPI PUSH0 PUSH0 REVERT JUMPDEST POP PUSH2 0x2D9 PUSH1 0x4 DUP1 CALLDATASIZE SUB DUP2 ADD SWAP1 PUSH2 0x2D4 SWAP2 SWAP1 PUSH2 0x188B JUMP JUMPDEST PUSH2 0xF3D JUMP JUMPDEST STOP JUMPDEST CALLVALUE DUP1 ISZERO PUSH2 0x2E6 JUMPI PUSH0 PUSH0 REVERT JUMPDEST POP PUSH2 0x301 PUSH1 0x4 DUP1 CALLDATASIZE SUB DUP2 ADD SWAP1 PUSH2 0x2FC SWAP2 SWAP1 PUSH2 0x188B JUMP JUMPDEST PUSH2 0x1260 JUMP JUMPDEST STOP JUMPDEST CALLVALUE DUP1 ISZERO PUSH2 0x30E JUMPI PUSH0 PUSH0 REVERT JUMPDEST POP PUSH2 0x329 PUSH1 0x4 DUP1 CALLDATASIZE SUB DUP2 ADD SWAP1 PUSH2 0x324 SWAP2 SWAP1 PUSH2 0x1B2D JUMP JUMPDEST PUSH2 0x167E JUMP JUMPDEST STOP JUMPDEST PUSH1 0x4 PUSH1 0x20 MSTORE DUP2 PUSH0 MSTORE PUSH1 0x40 PUSH0 KECCAK256 PUSH1 0x20 MSTORE DUP1 PUSH0 MSTORE PUSH1 0x40 PUSH0 KECCAK256 PUSH0 SWAP2 POP SWAP2 POP SWAP1 SLOAD SWAP1 PUSH2 0x100 EXP SWAP1 DIV PUSH1 0xFF AND DUP2 JUMP JUMPDEST DUP1 PUSH0 DUP2 GT DUP1 ISZERO PUSH2 0x367 JUMPI POP PUSH1 0x5 SLOAD DUP2 GT ISZERO JUMPDEST PUSH2 0x3A6 JUMPI PUSH1 0x40 MLOAD PUSH32 0x8C379A000000000000000000000000000000000000000000000000000000000 DUP2 MSTORE PUSH1 0x4 ADD PUSH2 0x39D SWAP1 PUSH2 0x1BB2 JUMP JUMPDEST PUSH1 0x40 MLOAD DUP1 SWAP2 SUB SWAP1 REVERT JUMPDEST PUSH0 PUSH0 PUSH0 DUP5 DUP2 MSTORE PUSH1 0x20 ADD SWAP1 DUP2 MSTORE PUSH1 0x20 ADD PUSH0 KECCAK256 SWAP1 POP DUP1 PUSH0 ADD PUSH0 SWAP1 SLOAD SWAP1 PUSH2 0x100 EXP SWAP1 DIV PUSH20 0xFFFFFFFFFFFFFFFFFFFFFFFFFFFFFFFFFFFFFFFF AND PUSH20 0xFFFFFFFFFFFFFFFFFFFFFFFFFFFFFFFFFFFFFFFF AND CALLER PUSH20 0xFFFFFFFFFFFFFFFFFFFFFFFFFFFFFFFFFFFFFFFF AND EQ PUSH2 0x449 JUMPI PUSH1 0x40 MLOAD PUSH32 0x8C379A000000000000000000000000000000000000000000000000000000000 DUP2 MSTORE PUSH1 0x4 ADD PUSH2 0x440 SWAP1 PUSH2 0x1C1A JUMP JUMPDEST PUSH1 0x40 MLOAD DUP1 SWAP2 SUB SWAP1 REVERT JUMPDEST DUP1 PUSH1 0x2 ADD PUSH1 0x1 SWAP1 SLOAD SWAP1 PUSH2 0x100 EXP SWAP1 DIV PUSH1 0xFF AND ISZERO PUSH2 0x49B JUMPI PUSH1 0x40 MLOAD PUSH32 0x8C379A000000000000000000000000000000000000000000000000000000000 DUP2 MSTORE PUSH1 0x4 ADD PUSH2 0x492 SWAP1 PUSH2 0x1C82 JUMP JUMPDEST PUSH1 0x40 MLOAD DUP1 SWAP2 SUB SWAP1 REVERT JUMPDEST PUSH0 DUP2 PUSH1 0x1 ADD SLOAD SWAP1 POP PUSH1 0x1 DUP3 PUSH1 0x2 ADD PUSH1 0x1 PUSH2 0x100 EXP DUP2 SLOAD DUP2 PUSH1 0xFF MUL NOT AND SWAP1 DUP4 ISZERO ISZERO MUL OR SWAP1 SSTORE POP PUSH0 DUP3 PUSH1 0x1 ADD DUP2 SWAP1 SSTORE POP PUSH0 DUP3 PUSH0 ADD PUSH0 SWAP1 SLOAD SWAP1 PUSH2 0x100 EXP SWAP1 DIV PUSH20 0xFFFFFFFFFFFFFFFFFFFFFFFFFFFFFFFFFFFFFFFF AND PUSH20 0xFFFFFFFFFFFFFFFFFFFFFFFFFFFFFFFFFFFFFFFF AND DUP3 PUSH1 0x40 MLOAD PUSH2 0x510 SWAP1 PUSH2 0x1CCD JUMP JUMPDEST PUSH0 PUSH1 0x40 MLOAD DUP1 DUP4 SUB DUP2 DUP6 DUP8 GAS CALL SWAP3 POP POP POP RETURNDATASIZE DUP1 PUSH0 DUP2 EQ PUSH2 0x54A JUMPI PUSH1 0x40 MLOAD SWAP2 POP PUSH1 0x1F NOT PUSH1 0x3F RETURNDATASIZE ADD AND DUP3 ADD PUSH1 0x40 MSTORE RETURNDATASIZE DUP3 MSTORE RETURNDATASIZE PUSH0 PUSH1 0x20 DUP5 ADD RETURNDATACOPY PUSH2 0x54F JUMP JUMPDEST PUSH1 0x60 SWAP2 POP JUMPDEST POP POP SWAP1 POP DUP1 PUSH2 0x593 JUMPI PUSH1 0x40 MLOAD PUSH32 0x8C379A000000000000000000000000000000000000000000000000000000000 DUP2 MSTORE PUSH1 0x4 ADD PUSH2 0x58A SWAP1 PUSH2 0x1D2B JUMP JUMPDEST PUSH1 0x40 MLOAD DUP1 SWAP2 SUB SWAP1 REVERT JUMPDEST PUSH32 0xF440AEC6B52895984D061D622E6EDEBA6210F7C3E059BE920663140C084560D7 DUP6 DUP5 PUSH0 ADD PUSH0 SWAP1 SLOAD SWAP1 PUSH2 0x100 EXP SWAP1 DIV PUSH20 0xFFFFFFFFFFFFFFFFFFFFFFFFFFFFFFFFFFFFFFFF AND DUP5 PUSH1 0x40 MLOAD PUSH2 0x5E8 SWAP4 SWAP3 SWAP2 SWAP1 PUSH2 0x1DA4 JUMP JUMPDEST PUSH1 0x40 MLOAD DUP1 SWAP2 SUB SWAP1 LOG1 POP POP POP POP POP JUMP JUMPDEST DUP2 PUSH0 DUP2 GT DUP1 ISZERO PUSH2 0x609 JUMPI POP PUSH1 0x5 SLOAD DUP2 GT ISZERO JUMPDEST PUSH2 0x648 JUMPI PUSH1 0x40 MLOAD PUSH32 0x8C379A000000000000000000000000000000000000000000000000000000000 DUP2 MSTORE PUSH1 0x4 ADD PUSH2 0x63F SWAP1 PUSH2 0x1BB2 JUMP JUMPDEST PUSH1 0x40 MLOAD DUP1 SWAP2 SUB SWAP1 REVERT JUMPDEST PUSH0 PUSH0 PUSH0 DUP6 DUP2 MSTORE PUSH1 0x20 ADD SWAP1 DUP2 MSTORE PUSH1 0x20 ADD PUSH0 KECCAK256 SWAP1 POP DUP1 PUSH0 ADD PUSH0 SWAP1 SLOAD SWAP1 PUSH2 0x100 EXP SWAP1 DIV PUSH20 0xFFFFFFFFFFFFFFFFFFFFFFFFFFFFFFFFFFFFFFFF AND PUSH20 0xFFFFFFFFFFFFFFFFFFFFFFFFFFFFFFFFFFFFFFFF AND CALLER PUSH20 0xFFFFFFFFFFFFFFFFFFFFFFFFFFFFFFFFFFFFFFFF AND EQ PUSH2 0x6EB JUMPI PUSH1 0x40 MLOAD PUSH32 0x8C379A000000000000000000000000000000000000000000000000000000000 DUP2 MSTORE PUSH1 0x4 ADD PUSH2 0x6E2 SWAP1 PUSH2 0x1C1A JUMP JUMPDEST PUSH1 0x40 MLOAD DUP1 SWAP2 SUB SWAP1 REVERT JUMPDEST PUSH1 0x4 PUSH0 DUP6 DUP2 MSTORE PUSH1 0x20 ADD SWAP1 DUP2 MSTORE PUSH1 0x20 ADD PUSH0 KECCAK256 PUSH0 DUP5 PUSH20 0xFFFFFFFFFFFFFFFFFFFFFFFFFFFFFFFFFFFFFFFF AND PUSH20 0xFFFFFFFFFFFFFFFFFFFFFFFFFFFFFFFFFFFFFFFF AND DUP2 MSTORE PUSH1 0x20 ADD SWAP1 DUP2 MSTORE PUSH1 0x20 ADD PUSH0 KECCAK256 PUSH0 SWAP1 SLOAD SWAP1 PUSH2 0x100 EXP SWAP1 DIV PUSH1 0xFF AND PUSH2 0x783 JUMPI PUSH1 0x40 MLOAD PUSH32 0x8C379A000000000000000000000000000000000000000000000000000000000 DUP2 MSTORE PUSH1 0x4 ADD PUSH2 0x77A SWAP1 PUSH2 0x1E23 JUMP JUMPDEST PUSH1 0x40 MLOAD DUP1 SWAP2 SUB SWAP1 REVERT JUMPDEST PUSH0 PUSH1 0x4 PUSH0 DUP7 DUP2 MSTORE PUSH1 0x20 ADD SWAP1 DUP2 MSTORE PUSH1 0x20 ADD PUSH0 KECCAK256 PUSH0 DUP6 PUSH20 0xFFFFFFFFFFFFFFFFFFFFFFFFFFFFFFFFFFFFFFFF AND PUSH20 0xFFFFFFFFFFFFFFFFFFFFFFFFFFFFFFFFFFFFFFFF AND DUP2 MSTORE PUSH1 0x20 ADD SWAP1 DUP2 MSTORE PUSH1 0x20 ADD PUSH0 KECCAK256 PUSH0 PUSH2 0x100 EXP DUP2 SLOAD DUP2 PUSH1 0xFF MUL NOT AND SWAP1 DUP4 ISZERO ISZERO MUL OR SWAP1 SSTORE POP PUSH32 0x43D0D9BF4E73C0519823631BD183A34BF9A8101EC7C12629B7021972B2BE8D6 DUP5 DUP5 PUSH1 0x40 MLOAD PUSH2 0x817 SWAP3 SWAP2 SWAP1 PUSH2 0x1E50 JUMP JUMPDEST PUSH1 0x40 MLOAD DUP1 SWAP2 SUB SWAP1 LOG1 POP POP POP POP JUMP JUMPDEST DUP1 PUSH0 DUP2 GT DUP1 ISZERO PUSH2 0x837 JUMPI POP PUSH1 0x5 SLOAD DUP2 GT ISZERO JUMPDEST PUSH2 0x876 JUMPI PUSH1 0x40 MLOAD PUSH32 0x8C379A000000000000000000000000000000000000000000000000000000000 DUP2 MSTORE PUSH1 0x4 ADD PUSH2 0x86D SWAP1 PUSH2 0x1BB2 JUMP JUMPDEST PUSH1 0x40 MLOAD DUP1 SWAP2 SUB SWAP1 REVERT JUMPDEST PUSH0 PUSH0 PUSH0 DUP5 DUP2 MSTORE PUSH1 0x20 ADD SWAP1 DUP2 MSTORE PUSH1 0x20 ADD PUSH0 KECCAK256 SWAP1 POP DUP1 PUSH1 0x2 ADD PUSH0 SWAP1 SLOAD SWAP1 PUSH2 0x100 EXP SWAP1 DIV PUSH1 0xFF AND PUSH2 0x8D9 JUMPI PUSH1 0x40 MLOAD PUSH32 0x8C379A000000000000000000000000000000000000000000000000000000000 DUP2 MSTORE PUSH1 0x4 ADD PUSH2 0x8D0 SWAP1 PUSH2 0x1EC1 JUMP JUMPDEST PUSH1 0x40 MLOAD DUP1 SWAP2 SUB SWAP1 REVERT JUMPDEST DUP1 PUSH1 0x2 ADD PUSH1 0x1 SWAP1 SLOAD SWAP1 PUSH2 0x100 EXP SWAP1 DIV PUSH1 0xFF AND ISZERO PUSH2 0x92B JUMPI PUSH1 0x40 MLOAD PUSH32 0x8C379A000000000000000000000000000000000000000000000000000000000 DUP2 MSTORE PUSH1 0x4 ADD PUSH2 0x922 SWAP1 PUSH2 0x1F4F JUMP JUMPDEST PUSH1 0x40 MLOAD DUP1 SWAP2 SUB SWAP1 REVERT JUMPDEST PUSH0 CALLVALUE GT PUSH2 0x96D JUMPI PUSH1 0x40 MLOAD PUSH32 0x8C379A000000000000000000000000000000000000000000000000000000000 DUP2 MSTORE PUSH1 0x4 ADD PUSH2 0x964 SWAP1 PUSH2 0x1FB7 JUMP JUMPDEST PUSH1 0x40 MLOAD DUP1 SWAP2 SUB SWAP1 REVERT JUMPDEST CALLVALUE DUP2 PUSH1 0x1 ADD PUSH0 DUP3 DUP3 SLOAD PUSH2 0x980 SWAP2 SWAP1 PUSH2 0x2002 JUMP JUMPDEST SWAP3 POP POP DUP2 SWAP1 SSTORE POP CALLVALUE PUSH1 0x1 PUSH0 DUP6 DUP2 MSTORE PUSH1 0x20 ADD SWAP1 DUP2 MSTORE PUSH1 0x20 ADD PUSH0 KECCAK256 PUSH0 CALLER PUSH20 0xFFFFFFFFFFFFFFFFFFFFFFFFFFFFFFFFFFFFFFFF AND PUSH20 0xFFFFFFFFFFFFFFFFFFFFFFFFFFFFFFFFFFFFFFFF AND DUP2 MSTORE PUSH1 0x20 ADD SWAP1 DUP2 MSTORE PUSH1 0x20 ADD PUSH0 KECCAK256 PUSH0 DUP3 DUP3 SLOAD PUSH2 0x9E2 SWAP2 SWAP1 PUSH2 0x2002 JUMP JUMPDEST SWAP3 POP POP DUP2 SWAP1 SSTORE POP PUSH1 0x3 PUSH0 DUP5 DUP2 MSTORE PUSH1 0x20 ADD SWAP1 DUP2 MSTORE PUSH1 0x20 ADD PUSH0 KECCAK256 PUSH0 CALLER PUSH20 0xFFFFFFFFFFFFFFFFFFFFFFFFFFFFFFFFFFFFFFFF AND PUSH20 0xFFFFFFFFFFFFFFFFFFFFFFFFFFFFFFFFFFFFFFFF AND DUP2 MSTORE PUSH1 0x20 ADD SWAP1 DUP2 MSTORE PUSH1 0x20 ADD PUSH0 KECCAK256 PUSH0 SWAP1 SLOAD SWAP1 PUSH2 0x100 EXP SWAP1 DIV PUSH1 0xFF AND PUSH2 0xB1A JUMPI PUSH1 0x2 PUSH0 DUP5 DUP2 MSTORE PUSH1 0x20 ADD SWAP1 DUP2 MSTORE PUSH1 0x20 ADD PUSH0 KECCAK256 CALLER SWAP1 DUP1 PUSH1 0x1 DUP2 SLOAD ADD DUP1 DUP3 SSTORE DUP1 SWAP2 POP POP PUSH1 0x1 SWAP1 SUB SWAP1 PUSH0 MSTORE PUSH1 0x20 PUSH0 KECCAK256 ADD PUSH0 SWAP1 SWAP2 SWAP1 SWAP2 SWAP1 SWAP2 PUSH2 0x100 EXP DUP2 SLOAD DUP2 PUSH20 0xFFFFFFFFFFFFFFFFFFFFFFFFFFFFFFFFFFFFFFFF MUL NOT AND SWAP1 DUP4 PUSH20 0xFFFFFFFFFFFFFFFFFFFFFFFFFFFFFFFFFFFFFFFF AND MUL OR SWAP1 SSTORE POP PUSH1 0x1 PUSH1 0x3 PUSH0 DUP6 DUP2 MSTORE PUSH1 0x20 ADD SWAP1 DUP2 MSTORE PUSH1 0x20 ADD PUSH0 KECCAK256 PUSH0 CALLER PUSH20 0xFFFFFFFFFFFFFFFFFFFFFFFFFFFFFFFFFFFFFFFF AND PUSH20 0xFFFFFFFFFFFFFFFFFFFFFFFFFFFFFFFFFFFFFFFF AND DUP2 MSTORE PUSH1 0x20 ADD SWAP1 DUP2 MSTORE PUSH1 0x20 ADD PUSH0 KECCAK256 PUSH0 PUSH2 0x100 EXP DUP2 SLOAD DUP2 PUSH1 0xFF MUL NOT AND SWAP1 DUP4 ISZERO ISZERO MUL OR SWAP1 SSTORE POP JUMPDEST PUSH32 0x61AC8E9B735E72D1382CBF7D35F2FF3764DAE09D7FAF7D90787BF7F9AE76E4C8 DUP4 CALLER CALLVALUE PUSH1 0x40 MLOAD PUSH2 0xB4D SWAP4 SWAP3 SWAP2 SWAP1 PUSH2 0x2035 JUMP JUMPDEST PUSH1 0x40 MLOAD DUP1 SWAP2 SUB SWAP1 LOG1 POP POP POP JUMP JUMPDEST PUSH1 0x1 PUSH1 0x20 MSTORE DUP2 PUSH0 MSTORE PUSH1 0x40 PUSH0 KECCAK256 PUSH1 0x20 MSTORE DUP1 PUSH0 MSTORE PUSH1 0x40 PUSH0 KECCAK256 PUSH0 SWAP2 POP SWAP2 POP POP SLOAD DUP2 JUMP JUMPDEST PUSH1 0x60 DUP2 PUSH0 DUP2 GT DUP1 ISZERO PUSH2 0xB8E JUMPI POP PUSH1 0x5 SLOAD DUP2 GT ISZERO JUMPDEST PUSH2 0xBCD JUMPI PUSH1 0x40 MLOAD PUSH32 0x8C379A000000000000000000000000000000000000000000000000000000000 DUP2 MSTORE PUSH1 0x4 ADD PUSH2 0xBC4 SWAP1 PUSH2 0x1BB2 JUMP JUMPDEST PUSH1 0x40 MLOAD DUP1 SWAP2 SUB SWAP1 REVERT JUMPDEST PUSH1 0x2 PUSH0 DUP5 DUP2 MSTORE PUSH1 0x20 ADD SWAP1 DUP2 MSTORE PUSH1 0x20 ADD PUSH0 KECCAK256 DUP1 SLOAD DUP1 PUSH1 0x20 MUL PUSH1 0x20 ADD PUSH1 0x40 MLOAD SWAP1 DUP2 ADD PUSH1 0x40 MSTORE DUP1 SWAP3 SWAP2 SWAP1 DUP2 DUP2 MSTORE PUSH1 0x20 ADD DUP3 DUP1 SLOAD DUP1 ISZERO PUSH2 0xC5B JUMPI PUSH1 0x20 MUL DUP3 ADD SWAP2 SWAP1 PUSH0 MSTORE PUSH1 0x20 PUSH0 KECCAK256 SWAP1 JUMPDEST DUP2 PUSH0 SWAP1 SLOAD SWAP1 PUSH2 0x100 EXP SWAP1 DIV PUSH20 0xFFFFFFFFFFFFFFFFFFFFFFFFFFFFFFFFFFFFFFFF AND PUSH20 0xFFFFFFFFFFFFFFFFFFFFFFFFFFFFFFFFFFFFFFFF AND DUP2 MSTORE PUSH1 0x20 ADD SWAP1 PUSH1 0x1 ADD SWAP1 DUP1 DUP4 GT PUSH2 0xC12 JUMPI JUMPDEST POP POP POP POP POP SWAP2 POP POP SWAP2 SWAP1 POP JUMP JUMPDEST PUSH0 PUSH1 0x20 MSTORE DUP1 PUSH0 MSTORE PUSH1 0x40 PUSH0 KECCAK256 PUSH0 SWAP2 POP SWAP1 POP DUP1 PUSH0 ADD PUSH0 SWAP1 SLOAD SWAP1 PUSH2 0x100 EXP SWAP1 DIV PUSH20 0xFFFFFFFFFFFFFFFFFFFFFFFFFFFFFFFFFFFFFFFF AND SWAP1 DUP1 PUSH0 ADD PUSH1 0x14 SWAP1 SLOAD SWAP1 PUSH2 0x100 EXP SWAP1 DIV PUSH1 0xFF AND SWAP1 DUP1 PUSH1 0x1 ADD SLOAD SWAP1 DUP1 PUSH1 0x2 ADD PUSH0 SWAP1 SLOAD SWAP1 PUSH2 0x100 EXP SWAP1 DIV PUSH1 0xFF AND SWAP1 DUP1 PUSH1 0x2 ADD PUSH1 0x1 SWAP1 SLOAD SWAP1 PUSH2 0x100 EXP SWAP1 DIV PUSH1 0xFF AND SWAP1 POP DUP6 JUMP JUMPDEST PUSH1 0x5 SLOAD DUP2 JUMP JUMPDEST DUP1 PUSH0 DUP2 GT DUP1 ISZERO PUSH2 0xCF5 JUMPI POP PUSH1 0x5 SLOAD DUP2 GT ISZERO JUMPDEST PUSH2 0xD34 JUMPI PUSH1 0x40 MLOAD PUSH32 0x8C379A000000000000000000000000000000000000000000000000000000000 DUP2 MSTORE PUSH1 0x4 ADD PUSH2 0xD2B SWAP1 PUSH2 0x1BB2 JUMP JUMPDEST PUSH1 0x40 MLOAD DUP1 SWAP2 SUB SWAP1 REVERT JUMPDEST PUSH0 PUSH1 0x1 PUSH0 DUP5 DUP2 MSTORE PUSH1 0x20 ADD SWAP1 DUP2 MSTORE PUSH1 0x20 ADD PUSH0 KECCAK256 PUSH0 CALLER PUSH20 0xFFFFFFFFFFFFFFFFFFFFFFFFFFFFFFFFFFFFFFFF AND PUSH20 0xFFFFFFFFFFFFFFFFFFFFFFFFFFFFFFFFFFFFFFFF AND DUP2 MSTORE PUSH1 0x20 ADD SWAP1 DUP2 MSTORE PUSH1 0x20 ADD PUSH0 KECCAK256 SLOAD GT PUSH2 0xDC2 JUMPI PUSH1 0x40 MLOAD PUSH32 0x8C379A000000000000000000000000000000000000000000000000000000000 DUP2 MSTORE PUSH1 0x4 ADD PUSH2 0xDB9 SWAP1 PUSH2 0x20B4 JUMP JUMPDEST PUSH1 0x40 MLOAD DUP1 SWAP2 SUB SWAP1 REVERT JUMPDEST PUSH1 0x4 PUSH0 DUP4 DUP2 MSTORE PUSH1 0x20 ADD SWAP1 DUP2 MSTORE PUSH1 0x20 ADD PUSH0 KECCAK256 PUSH0 CALLER PUSH20 0xFFFFFFFFFFFFFFFFFFFFFFFFFFFFFFFFFFFFFFFF AND PUSH20 0xFFFFFFFFFFFFFFFFFFFFFFFFFFFFFFFFFFFFFFFF AND DUP2 MSTORE PUSH1 0x20 ADD SWAP1 DUP2 MSTORE PUSH1 0x20 ADD PUSH0 KECCAK256 PUSH0 SWAP1 SLOAD SWAP1 PUSH2 0x100 EXP SWAP1 DIV PUSH1 0xFF AND ISZERO PUSH2 0xE5B JUMPI PUSH1 0x40 MLOAD PUSH32 0x8C379A000000000000000000000000000000000000000000000000000000000 DUP2 MSTORE PUSH1 0x4 ADD PUSH2 0xE52 SWAP1 PUSH2 0x211C JUMP JUMPDEST PUSH1 0x40 MLOAD DUP1 SWAP2 SUB SWAP1 REVERT JUMPDEST PUSH1 0x1 PUSH1 0x4 PUSH0 DUP5 DUP2 MSTORE PUSH1 0x20 ADD SWAP1 DUP2 MSTORE PUSH1 0x20 ADD PUSH0 KECCAK256 PUSH0 CALLER PUSH20 0xFFFFFFFFFFFFFFFFFFFFFFFFFFFFFFFFFFFFFFFF AND PUSH20 0xFFFFFFFFFFFFFFFFFFFFFFFFFFFFFFFFFFFFFFFF AND DUP2 MSTORE PUSH1 0x20 ADD SWAP1 DUP2 MSTORE PUSH1 0x20 ADD PUSH0 KECCAK256 PUSH0 PUSH2 0x100 EXP DUP2 SLOAD DUP2 PUSH1 0xFF MUL NOT AND SWAP1 DUP4 ISZERO ISZERO MUL OR SWAP1 SSTORE POP POP POP JUMP JUMPDEST PUSH0 PUSH0 PUSH1 0x2 DUP2 GT ISZERO PUSH2 0xED7 JUMPI PUSH2 0xED6 PUSH2 0x1A46 JUMP JUMPDEST JUMPDEST DUP3 PUSH1 0x2 DUP2 GT ISZERO PUSH2 0xEEA JUMPI PUSH2 0xEE9 PUSH2 0x1A46 JUMP JUMPDEST JUMPDEST SUB PUSH2 0xEFA JUMPI PUSH3 0x15180 SWAP1 POP PUSH2 0xF38 JUMP JUMPDEST PUSH1 0x1 PUSH1 0x2 DUP2 GT ISZERO PUSH2 0xF0E JUMPI PUSH2 0xF0D PUSH2 0x1A46 JUMP JUMPDEST JUMPDEST DUP3 PUSH1 0x2 DUP2 GT ISZERO PUSH2 0xF21 JUMPI PUSH2 0xF20 PUSH2 0x1A46 JUMP JUMPDEST JUMPDEST SUB PUSH2 0xF31 JUMPI PUSH3 0x2A300 SWAP1 POP PUSH2 0xF38 JUMP JUMPDEST PUSH3 0x3F480 SWAP1 POP JUMPDEST SWAP2 SWAP1 POP JUMP JUMPDEST DUP2 PUSH0 DUP2 GT DUP1 ISZERO PUSH2 0xF4F JUMPI POP PUSH1 0x5 SLOAD DUP2 GT ISZERO JUMPDEST PUSH2 0xF8E JUMPI PUSH1 0x40 MLOAD PUSH32 0x8C379A000000000000000000000000000000000000000000000000000000000 DUP2 MSTORE PUSH1 0x4 ADD PUSH2 0xF85 SWAP1 PUSH2 0x1BB2 JUMP JUMPDEST PUSH1 0x40 MLOAD DUP1 SWAP2 SUB SWAP1 REVERT JUMPDEST PUSH0 PUSH0 PUSH0 DUP6 DUP2 MSTORE PUSH1 0x20 ADD SWAP1 DUP2 MSTORE PUSH1 0x20 ADD PUSH0 KECCAK256 SWAP1 POP DUP1 PUSH0 ADD PUSH0 SWAP1 SLOAD SWAP1 PUSH2 0x100 EXP SWAP1 DIV PUSH20 0xFFFFFFFFFFFFFFFFFFFFFFFFFFFFFFFFFFFFFFFF AND PUSH20 0xFFFFFFFFFFFFFFFFFFFFFFFFFFFFFFFFFFFFFFFF AND CALLER PUSH20 0xFFFFFFFFFFFFFFFFFFFFFFFFFFFFFFFFFFFFFFFF AND EQ PUSH2 0x1031 JUMPI PUSH1 0x40 MLOAD PUSH32 0x8C379A000000000000000000000000000000000000000000000000000000000 DUP2 MSTORE PUSH1 0x4 ADD PUSH2 0x1028 SWAP1 PUSH2 0x1C1A JUMP JUMPDEST PUSH1 0x40 MLOAD DUP1 SWAP2 SUB SWAP1 REVERT JUMPDEST PUSH0 PUSH1 0x1 PUSH0 DUP7 DUP2 MSTORE PUSH1 0x20 ADD SWAP1 DUP2 MSTORE PUSH1 0x20 ADD PUSH0 KECCAK256 PUSH0 DUP6 PUSH20 0xFFFFFFFFFFFFFFFFFFFFFFFFFFFFFFFFFFFFFFFF AND PUSH20 0xFFFFFFFFFFFFFFFFFFFFFFFFFFFFFFFFFFFFFFFF AND DUP2 MSTORE PUSH1 0x20 ADD SWAP1 DUP2 MSTORE PUSH1 0x20 ADD PUSH0 KECCAK256 SLOAD SWAP1 POP PUSH0 DUP2 GT PUSH2 0x10C3 JUMPI PUSH1 0x40 MLOAD PUSH32 0x8C379A000000000000000000000000000000000000000000000000000000000 DUP2 MSTORE PUSH1 0x4 ADD PUSH2 0x10BA SWAP1 PUSH2 0x2184 JUMP JUMPDEST PUSH1 0x40 MLOAD DUP1 SWAP2 SUB SWAP1 REVERT JUMPDEST DUP2 PUSH1 0x1 ADD SLOAD DUP2 GT ISZERO PUSH2 0x110A JUMPI PUSH1 0x40 MLOAD PUSH32 0x8C379A000000000000000000000000000000000000000000000000000000000 DUP2 MSTORE PUSH1 0x4 ADD PUSH2 0x1101 SWAP1 PUSH2 0x21EC JUMP JUMPDEST PUSH1 0x40 MLOAD DUP1 SWAP2 SUB SWAP1 REVERT JUMPDEST DUP1 DUP3 PUSH1 0x1 ADD PUSH0 DUP3 DUP3 SLOAD PUSH2 0x111D SWAP2 SWAP1 PUSH2 0x220A JUMP JUMPDEST SWAP3 POP POP DUP2 SWAP1 SSTORE POP PUSH0 PUSH1 0x1 PUSH0 DUP8 DUP2 MSTORE PUSH1 0x20 ADD SWAP1 DUP2 MSTORE PUSH1 0x20 ADD PUSH0 KECCAK256 PUSH0 DUP7 PUSH20 0xFFFFFFFFFFFFFFFFFFFFFFFFFFFFFFFFFFFFFFFF AND PUSH20 0xFFFFFFFFFFFFFFFFFFFFFFFFFFFFFFFFFFFFFFFF AND DUP2 MSTORE PUSH1 0x20 ADD SWAP1 DUP2 MSTORE PUSH1 0x20 ADD PUSH0 KECCAK256 DUP2 SWAP1 SSTORE POP PUSH0 DUP5 PUSH20 0xFFFFFFFFFFFFFFFFFFFFFFFFFFFFFFFFFFFFFFFF AND DUP3 PUSH1 0x40 MLOAD PUSH2 0x119A SWAP1 PUSH2 0x1CCD JUMP JUMPDEST PUSH0 PUSH1 0x40 MLOAD DUP1 DUP4 SUB DUP2 DUP6 DUP8 GAS CALL SWAP3 POP POP POP RETURNDATASIZE DUP1 PUSH0 DUP2 EQ PUSH2 0x11D4 JUMPI PUSH1 0x40 MLOAD SWAP2 POP PUSH1 0x1F NOT PUSH1 0x3F RETURNDATASIZE ADD AND DUP3 ADD PUSH1 0x40 MSTORE RETURNDATASIZE DUP3 MSTORE RETURNDATASIZE PUSH0 PUSH1 0x20 DUP5 ADD RETURNDATACOPY PUSH2 0x11D9 JUMP JUMPDEST PUSH1 0x60 SWAP2 POP JUMPDEST POP POP SWAP1 POP DUP1 PUSH2 0x121D JUMPI PUSH1 0x40 MLOAD PUSH32 0x8C379A000000000000000000000000000000000000000000000000000000000 DUP2 MSTORE PUSH1 0x4 ADD PUSH2 0x1214 SWAP1 PUSH2 0x2287 JUMP JUMPDEST PUSH1 0x40 MLOAD DUP1 SWAP2 SUB SWAP1 REVERT JUMPDEST PUSH32 0x7A482FDEB6BC9A1376F597068A214A7A39472BB2EFF1B8CAD21BA04F49DDCA1B DUP7 DUP7 DUP5 PUSH1 0x40 MLOAD PUSH2 0x1250 SWAP4 SWAP3 SWAP2 SWAP1 PUSH2 0x2035 JUMP JUMPDEST PUSH1 0x40 MLOAD DUP1 SWAP2 SUB SWAP1 LOG1 POP POP POP POP POP POP JUMP JUMPDEST DUP2 PUSH0 DUP2 GT DUP1 ISZERO PUSH2 0x1272 JUMPI POP PUSH1 0x5 SLOAD DUP2 GT ISZERO JUMPDEST PUSH2 0x12B1 JUMPI PUSH1 0x40 MLOAD PUSH32 0x8C379A000000000000000000000000000000000000000000000000000000000 DUP2 MSTORE PUSH1 0x4 ADD PUSH2 0x12A8 SWAP1 PUSH2 0x1BB2 JUMP JUMPDEST PUSH1 0x40 MLOAD DUP1 SWAP2 SUB SWAP1 REVERT JUMPDEST PUSH0 PUSH0 PUSH0 DUP6 DUP2 MSTORE PUSH1 0x20 ADD SWAP1 DUP2 MSTORE PUSH1 0x20 ADD PUSH0 KECCAK256 SWAP1 POP DUP1 PUSH0 ADD PUSH0 SWAP1 SLOAD SWAP1 PUSH2 0x100 EXP SWAP1 DIV PUSH20 0xFFFFFFFFFFFFFFFFFFFFFFFFFFFFFFFFFFFFFFFF AND PUSH20 0xFFFFFFFFFFFFFFFFFFFFFFFFFFFFFFFFFFFFFFFF AND CALLER PUSH20 0xFFFFFFFFFFFFFFFFFFFFFFFFFFFFFFFFFFFFFFFF AND EQ PUSH2 0x1354 JUMPI PUSH1 0x40 MLOAD PUSH32 0x8C379A000000000000000000000000000000000000000000000000000000000 DUP2 MSTORE PUSH1 0x4 ADD PUSH2 0x134B SWAP1 PUSH2 0x1C1A JUMP JUMPDEST PUSH1 0x40 MLOAD DUP1 SWAP2 SUB SWAP1 REVERT JUMPDEST PUSH1 0x4 PUSH0 DUP6 DUP2 MSTORE PUSH1 0x20 ADD SWAP1 DUP2 MSTORE PUSH1 0x20 ADD PUSH0 KECCAK256 PUSH0 DUP5 PUSH20 0xFFFFFFFFFFFFFFFFFFFFFFFFFFFFFFFFFFFFFFFF AND PUSH20 0xFFFFFFFFFFFFFFFFFFFFFFFFFFFFFFFFFFFFFFFF AND DUP2 MSTORE PUSH1 0x20 ADD SWAP1 DUP2 MSTORE PUSH1 0x20 ADD PUSH0 KECCAK256 PUSH0 SWAP1 SLOAD SWAP1 PUSH2 0x100 EXP SWAP1 DIV PUSH1 0xFF AND PUSH2 0x13EC JUMPI PUSH1 0x40 MLOAD PUSH32 0x8C379A000000000000000000000000000000000000000000000000000000000 DUP2 MSTORE PUSH1 0x4 ADD PUSH2 0x13E3 SWAP1 PUSH2 0x1E23 JUMP JUMPDEST PUSH1 0x40 MLOAD DUP1 SWAP2 SUB SWAP1 REVERT JUMPDEST PUSH0 PUSH1 0x1 PUSH0 DUP7 DUP2 MSTORE PUSH1 0x20 ADD SWAP1 DUP2 MSTORE PUSH1 0x20 ADD PUSH0 KECCAK256 PUSH0 DUP6 PUSH20 0xFFFFFFFFFFFFFFFFFFFFFFFFFFFFFFFFFFFFFFFF AND PUSH20 0xFFFFFFFFFFFFFFFFFFFFFFFFFFFFFFFFFFFFFFFF AND DUP2 MSTORE PUSH1 0x20 ADD SWAP1 DUP2 MSTORE PUSH1 0x20 ADD PUSH0 KECCAK256 SLOAD SWAP1 POP PUSH0 DUP2 GT PUSH2 0x147E JUMPI PUSH1 0x40 MLOAD PUSH32 0x8C379A000000000000000000000000000000000000000000000000000000000 DUP2 MSTORE PUSH1 0x4 ADD PUSH2 0x1475 SWAP1 PUSH2 0x2184 JUMP JUMPDEST PUSH1 0x40 MLOAD DUP1 SWAP2 SUB SWAP1 REVERT JUMPDEST DUP2 PUSH1 0x1 ADD SLOAD DUP2 GT ISZERO PUSH2 0x14C5 JUMPI PUSH1 0x40 MLOAD PUSH32 0x8C379A000000000000000000000000000000000000000000000000000000000 DUP2 MSTORE PUSH1 0x4 ADD PUSH2 0x14BC SWAP1 PUSH2 0x21EC JUMP JUMPDEST PUSH1 0x40 MLOAD DUP1 SWAP2 SUB SWAP1 REVERT JUMPDEST PUSH0 PUSH1 0x4 PUSH0 DUP8 DUP2 MSTORE PUSH1 0x20 ADD SWAP1 DUP2 MSTORE PUSH1 0x20 ADD PUSH0 KECCAK256 PUSH0 DUP7 PUSH20 0xFFFFFFFFFFFFFFFFFFFFFFFFFFFFFFFFFFFFFFFF AND PUSH20 0xFFFFFFFFFFFFFFFFFFFFFFFFFFFFFFFFFFFFFFFF AND DUP2 MSTORE PUSH1 0x20 ADD SWAP1 DUP2 MSTORE PUSH1 0x20 ADD PUSH0 KECCAK256 PUSH0 PUSH2 0x100 EXP DUP2 SLOAD DUP2 PUSH1 0xFF MUL NOT AND SWAP1 DUP4 ISZERO ISZERO MUL OR SWAP1 SSTORE POP DUP1 DUP3 PUSH1 0x1 ADD PUSH0 DUP3 DUP3 SLOAD PUSH2 0x153B SWAP2 SWAP1 PUSH2 0x220A JUMP JUMPDEST SWAP3 POP POP DUP2 SWAP1 SSTORE POP PUSH0 PUSH1 0x1 PUSH0 DUP8 DUP2 MSTORE PUSH1 0x20 ADD SWAP1 DUP2 MSTORE PUSH1 0x20 ADD PUSH0 KECCAK256 PUSH0 DUP7 PUSH20 0xFFFFFFFFFFFFFFFFFFFFFFFFFFFFFFFFFFFFFFFF AND PUSH20 0xFFFFFFFFFFFFFFFFFFFFFFFFFFFFFFFFFFFFFFFF AND DUP2 MSTORE PUSH1 0x20 ADD SWAP1 DUP2 MSTORE PUSH1 0x20 ADD PUSH0 KECCAK256 DUP2 SWAP1 SSTORE POP PUSH0 DUP5 PUSH20 0xFFFFFFFFFFFFFFFFFFFFFFFFFFFFFFFFFFFFFFFF AND DUP3 PUSH1 0x40 MLOAD PUSH2 0x15B8 SWAP1 PUSH2 0x1CCD JUMP JUMPDEST PUSH0 PUSH1 0x40 MLOAD DUP1 DUP4 SUB DUP2 DUP6 DUP8 GAS CALL SWAP3 POP POP POP RETURNDATASIZE DUP1 PUSH0 DUP2 EQ PUSH2 0x15F2 JUMPI PUSH1 0x40 MLOAD SWAP2 POP PUSH1 0x1F NOT PUSH1 0x3F RETURNDATASIZE ADD AND DUP3 ADD PUSH1 0x40 MSTORE RETURNDATASIZE DUP3 MSTORE RETURNDATASIZE PUSH0 PUSH1 0x20 DUP5 ADD RETURNDATACOPY PUSH2 0x15F7 JUMP JUMPDEST PUSH1 0x60 SWAP2 POP JUMPDEST POP POP SWAP1 POP DUP1 PUSH2 0x163B JUMPI PUSH1 0x40 MLOAD PUSH32 0x8C379A000000000000000000000000000000000000000000000000000000000 DUP2 MSTORE PUSH1 0x4 ADD PUSH2 0x1632 SWAP1 PUSH2 0x2287 JUMP JUMPDEST PUSH1 0x40 MLOAD DUP1 SWAP2 SUB SWAP1 REVERT JUMPDEST PUSH32 0x7A482FDEB6BC9A1376F597068A214A7A39472BB2EFF1B8CAD21BA04F49DDCA1B DUP7 DUP7 DUP5 PUSH1 0x40 MLOAD PUSH2 0x166E SWAP4 SWAP3 SWAP2 SWAP1 PUSH2 0x2035 JUMP JUMPDEST PUSH1 0x40 MLOAD DUP1 SWAP2 SUB SWAP1 LOG1 POP POP POP POP POP POP JUMP JUMPDEST PUSH1 0x5 PUSH0 DUP2 SLOAD DUP1 SWAP3 SWAP2 SWAP1 PUSH2 0x1690 SWAP1 PUSH2 0x22A5 JUMP JUMPDEST SWAP2 SWAP1 POP SSTORE POP PUSH1 0x40 MLOAD DUP1 PUSH1 0xA0 ADD PUSH1 0x40 MSTORE DUP1 CALLER PUSH20 0xFFFFFFFFFFFFFFFFFFFFFFFFFFFFFFFFFFFFFFFF AND DUP2 MSTORE PUSH1 0x20 ADD DUP3 PUSH1 0x2 DUP2 GT ISZERO PUSH2 0x16CF JUMPI PUSH2 0x16CE PUSH2 0x1A46 JUMP JUMPDEST JUMPDEST DUP2 MSTORE PUSH1 0x20 ADD PUSH0 DUP2 MSTORE PUSH1 0x20 ADD PUSH1 0x1 ISZERO ISZERO DUP2 MSTORE PUSH1 0x20 ADD PUSH0 ISZERO ISZERO DUP2 MSTORE POP PUSH0 PUSH0 PUSH1 0x5 SLOAD DUP2 MSTORE PUSH1 0x20 ADD SWAP1 DUP2 MSTORE PUSH1 0x20 ADD PUSH0 KECCAK256 PUSH0 DUP3 ADD MLOAD DUP2 PUSH0 ADD PUSH0 PUSH2 0x100 EXP DUP2 SLOAD DUP2 PUSH20 0xFFFFFFFFFFFFFFFFFFFFFFFFFFFFFFFFFFFFFFFF MUL NOT AND SWAP1 DUP4 PUSH20 0xFFFFFFFFFFFFFFFFFFFFFFFFFFFFFFFFFFFFFFFF AND MUL OR SWAP1 SSTORE POP PUSH1 0x20 DUP3 ADD MLOAD DUP2 PUSH0 ADD PUSH1 0x14 PUSH2 0x100 EXP DUP2 SLOAD DUP2 PUSH1 0xFF MUL NOT AND SWAP1 DUP4 PUSH1 0x2 DUP2 GT ISZERO PUSH2 0x1769 JUMPI PUSH2 0x1768 PUSH2 0x1A46 JUMP JUMPDEST JUMPDEST MUL OR SWAP1 SSTORE POP PUSH1 0x40 DUP3 ADD MLOAD DUP2 PUSH1 0x1 ADD SSTORE PUSH1 0x60 DUP3 ADD MLOAD DUP2 PUSH1 0x2 ADD PUSH0 PUSH2 0x100 EXP DUP2 SLOAD DUP2 PUSH1 0xFF MUL NOT AND SWAP1 DUP4 ISZERO ISZERO MUL OR SWAP1 SSTORE POP PUSH1 0x80 DUP3 ADD MLOAD DUP2 PUSH1 0x2 ADD PUSH1 0x1 PUSH2 0x100 EXP DUP2 SLOAD DUP2 PUSH1 0xFF MUL NOT AND SWAP1 DUP4 ISZERO ISZERO MUL OR SWAP1 SSTORE POP SWAP1 POP POP PUSH32 0xC4AFEC621B00A8476C4EAA76D731DBAF984E16BD432F57543AC5E43615DA1A98 PUSH1 0x5 SLOAD CALLER DUP4 PUSH1 0x40 MLOAD PUSH2 0x17EF SWAP4 SWAP3 SWAP2 SWAP1 PUSH2 0x22EC JUMP JUMPDEST PUSH1 0x40 MLOAD DUP1 SWAP2 SUB SWAP1 LOG1 POP JUMP JUMPDEST PUSH0 PUSH0 REVERT JUMPDEST PUSH0 DUP2 SWAP1 POP SWAP2 SWAP1 POP JUMP JUMPDEST PUSH2 0x1810 DUP2 PUSH2 0x17FE JUMP JUMPDEST DUP2 EQ PUSH2 0x181A JUMPI PUSH0 PUSH0 REVERT JUMPDEST POP JUMP JUMPDEST PUSH0 DUP2 CALLDATALOAD SWAP1 POP PUSH2 0x182B DUP2 PUSH2 0x1807 JUMP JUMPDEST SWAP3 SWAP2 POP POP JUMP JUMPDEST PUSH0 PUSH20 0xFFFFFFFFFFFFFFFFFFFFFFFFFFFFFFFFFFFFFFFF DUP3 AND SWAP1 POP SWAP2 SWAP1 POP JUMP JUMPDEST PUSH0 PUSH2 0x185A DUP3 PUSH2 0x1831 JUMP JUMPDEST SWAP1 POP SWAP2 SWAP1 POP JUMP JUMPDEST PUSH2 0x186A DUP2 PUSH2 0x1850 JUMP JUMPDEST DUP2 EQ PUSH2 0x1874 JUMPI PUSH0 PUSH0 REVERT JUMPDEST POP JUMP JUMPDEST PUSH0 DUP2 CALLDATALOAD SWAP1 POP PUSH2 0x1885 DUP2 PUSH2 0x1861 JUMP JUMPDEST SWAP3 SWAP2 POP POP JUMP JUMPDEST PUSH0 PUSH0 PUSH1 0x40 DUP4 DUP6 SUB SLT ISZERO PUSH2 0x18A1 JUMPI PUSH2 0x18A0 PUSH2 0x17FA JUMP JUMPDEST JUMPDEST PUSH0 PUSH2 0x18AE DUP6 DUP3 DUP7 ADD PUSH2 0x181D JUMP JUMPDEST SWAP3 POP POP PUSH1 0x20 PUSH2 0x18BF DUP6 DUP3 DUP7 ADD PUSH2 0x1877 JUMP JUMPDEST SWAP2 POP POP SWAP3 POP SWAP3 SWAP1 POP JUMP JUMPDEST PUSH0 DUP2 ISZERO ISZERO SWAP1 POP SWAP2 SWAP1 POP JUMP JUMPDEST PUSH2 0x18DD DUP2 PUSH2 0x18C9 JUMP JUMPDEST DUP3 MSTORE POP POP JUMP JUMPDEST PUSH0 PUSH1 0x20 DUP3 ADD SWAP1 POP PUSH2 0x18F6 PUSH0 DUP4 ADD DUP5 PUSH2 0x18D4 JUMP JUMPDEST SWAP3 SWAP2 POP POP JUMP JUMPDEST PUSH0 PUSH1 0x20 DUP3 DUP5 SUB SLT ISZERO PUSH2 0x1911 JUMPI PUSH2 0x1910 PUSH2 0x17FA JUMP JUMPDEST JUMPDEST PUSH0 PUSH2 0x191E DUP5 DUP3 DUP6 ADD PUSH2 0x181D JUMP JUMPDEST SWAP2 POP POP SWAP3 SWAP2 POP POP JUMP JUMPDEST PUSH2 0x1930 DUP2 PUSH2 0x17FE JUMP JUMPDEST DUP3 MSTORE POP POP JUMP JUMPDEST PUSH0 PUSH1 0x20 DUP3 ADD SWAP1 POP PUSH2 0x1949 PUSH0 DUP4 ADD DUP5 PUSH2 0x1927 JUMP JUMPDEST SWAP3 SWAP2 POP POP JUMP JUMPDEST PUSH0 DUP2 MLOAD SWAP1 POP SWAP2 SWAP1 POP JUMP JUMPDEST PUSH0 DUP3 DUP3 MSTORE PUSH1 0x20 DUP3 ADD SWAP1 POP SWAP3 SWAP2 POP POP JUMP JUMPDEST PUSH0 DUP2 SWAP1 POP PUSH1 0x20 DUP3 ADD SWAP1 POP SWAP2 SWAP1 POP JUMP JUMPDEST PUSH2 0x1981 DUP2 PUSH2 0x1850 JUMP JUMPDEST DUP3 MSTORE POP POP JUMP JUMPDEST PUSH0 PUSH2 0x1992 DUP4 DUP4 PUSH2 0x1978 JUMP JUMPDEST PUSH1 0x20 DUP4 ADD SWAP1 POP SWAP3 SWAP2 POP POP JUMP JUMPDEST PUSH0 PUSH1 0x20 DUP3 ADD SWAP1 POP SWAP2 SWAP1 POP JUMP JUMPDEST PUSH0 PUSH2 0x19B4 DUP3 PUSH2 0x194F JUMP JUMPDEST PUSH2 0x19BE DUP2 DUP6 PUSH2 0x1959 JUMP JUMPDEST SWAP4 POP PUSH2 0x19C9 DUP4 PUSH2 0x1969 JUMP JUMPDEST DUP1 PUSH0 JUMPDEST DUP4 DUP2 LT ISZERO PUSH2 0x19F9 JUMPI DUP2 MLOAD PUSH2 0x19E0 DUP9 DUP3 PUSH2 0x1987 JUMP JUMPDEST SWAP8 POP PUSH2 0x19EB DUP4 PUSH2 0x199E JUMP JUMPDEST SWAP3 POP POP PUSH1 0x1 DUP2 ADD SWAP1 POP PUSH2 0x19CC JUMP JUMPDEST POP DUP6 SWAP4 POP POP POP POP SWAP3 SWAP2 POP POP JUMP JUMPDEST PUSH0 PUSH1 0x20 DUP3 ADD SWAP1 POP DUP2 DUP2 SUB PUSH0 DUP4 ADD MSTORE PUSH2 0x1A1E DUP2 DUP5 PUSH2 0x19AA JUMP JUMPDEST SWAP1 POP SWAP3 SWAP2 POP POP JUMP JUMPDEST PUSH0 PUSH2 0x1A30 DUP3 PUSH2 0x1831 JUMP JUMPDEST SWAP1 POP SWAP2 SWAP1 POP JUMP JUMPDEST PUSH2 0x1A40 DUP2 PUSH2 0x1A26 JUMP JUMPDEST DUP3 MSTORE POP POP JUMP JUMPDEST PUSH32 0x4E487B7100000000000000000000000000000000000000000000000000000000 PUSH0 MSTORE PUSH1 0x21 PUSH1 0x4 MSTORE PUSH1 0x24 PUSH0 REVERT JUMPDEST PUSH1 0x3 DUP2 LT PUSH2 0x1A84 JUMPI PUSH2 0x1A83 PUSH2 0x1A46 JUMP JUMPDEST JUMPDEST POP JUMP JUMPDEST PUSH0 DUP2 SWAP1 POP PUSH2 0x1A94 DUP3 PUSH2 0x1A73 JUMP JUMPDEST SWAP2 SWAP1 POP JUMP JUMPDEST PUSH0 PUSH2 0x1AA3 DUP3 PUSH2 0x1A87 JUMP JUMPDEST SWAP1 POP SWAP2 SWAP1 POP JUMP JUMPDEST PUSH2 0x1AB3 DUP2 PUSH2 0x1A99 JUMP JUMPDEST DUP3 MSTORE POP POP JUMP JUMPDEST PUSH0 PUSH1 0xA0 DUP3 ADD SWAP1 POP PUSH2 0x1ACC PUSH0 DUP4 ADD DUP9 PUSH2 0x1A37 JUMP JUMPDEST PUSH2 0x1AD9 PUSH1 0x20 DUP4 ADD DUP8 PUSH2 0x1AAA JUMP JUMPDEST PUSH2 0x1AE6 PUSH1 0x40 DUP4 ADD DUP7 PUSH2 0x1927 JUMP JUMPDEST PUSH2 0x1AF3 PUSH1 0x60 DUP4 ADD DUP6 PUSH2 0x18D4 JUMP JUMPDEST PUSH2 0x1B00 PUSH1 0x80 DUP4 ADD DUP5 PUSH2 0x18D4 JUMP JUMPDEST SWAP7 SWAP6 POP POP POP POP POP POP JUMP JUMPDEST PUSH1 0x3 DUP2 LT PUSH2 0x1B16 JUMPI PUSH0 PUSH0 REVERT JUMPDEST POP JUMP JUMPDEST PUSH0 DUP2 CALLDATALOAD SWAP1 POP PUSH2 0x1B27 DUP2 PUSH2 0x1B0A JUMP JUMPDEST SWAP3 SWAP2 POP POP JUMP JUMPDEST PUSH0 PUSH1 0x20 DUP3 DUP5 SUB SLT ISZERO PUSH2 0x1B42 JUMPI PUSH2 0x1B41 PUSH2 0x17FA JUMP JUMPDEST JUMPDEST PUSH0 PUSH2 0x1B4F DUP5 DUP3 DUP6 ADD PUSH2 0x1B19 JUMP JUMPDEST SWAP2 POP POP SWAP3 SWAP2 POP POP JUMP JUMPDEST PUSH0 DUP3 DUP3 MSTORE PUSH1 0x20 DUP3 ADD SWAP1 POP SWAP3 SWAP2 POP POP JUMP JUMPDEST PUSH32 0x5374616C6C20646F6573206E6F74206578697374000000000000000000000000 PUSH0 DUP3 ADD MSTORE POP JUMP JUMPDEST PUSH0 PUSH2 0x1B9C PUSH1 0x14 DUP4 PUSH2 0x1B58 JUMP JUMPDEST SWAP2 POP PUSH2 0x1BA7 DUP3 PUSH2 0x1B68 JUMP JUMPDEST PUSH1 0x20 DUP3 ADD SWAP1 POP SWAP2 SWAP1 POP JUMP JUMPDEST PUSH0 PUSH1 0x20 DUP3 ADD SWAP1 POP DUP2 DUP2 SUB PUSH0 DUP4 ADD MSTORE PUSH2 0x1BC9 DUP2 PUSH2 0x1B90 JUMP JUMPDEST SWAP1 POP SWAP2 SWAP1 POP JUMP JUMPDEST PUSH32 0x4E6F74207374616C6C206F776E65720000000000000000000000000000000000 PUSH0 DUP3 ADD MSTORE POP JUMP JUMPDEST PUSH0 PUSH2 0x1C04 PUSH1 0xF DUP4 PUSH2 0x1B58 JUMP JUMPDEST SWAP2 POP PUSH2 0x1C0F DUP3 PUSH2 0x1BD0 JUMP JUMPDEST PUSH1 0x20 DUP3 ADD SWAP1 POP SWAP2 SWAP1 POP JUMP JUMPDEST PUSH0 PUSH1 0x20 DUP3 ADD SWAP1 POP DUP2 DUP2 SUB PUSH0 DUP4 ADD MSTORE PUSH2 0x1C31 DUP2 PUSH2 0x1BF8 JUMP JUMPDEST SWAP1 POP SWAP2 SWAP1 POP JUMP JUMPDEST PUSH32 0x416C72656164792077697468647261776E000000000000000000000000000000 PUSH0 DUP3 ADD MSTORE POP JUMP JUMPDEST PUSH0 PUSH2 0x1C6C PUSH1 0x11 DUP4 PUSH2 0x1B58 JUMP JUMPDEST SWAP2 POP PUSH2 0x1C77 DUP3 PUSH2 0x1C38 JUMP JUMPDEST PUSH1 0x20 DUP3 ADD SWAP1 POP SWAP2 SWAP1 POP JUMP JUMPDEST PUSH0 PUSH1 0x20 DUP3 ADD SWAP1 POP DUP2 DUP2 SUB PUSH0 DUP4 ADD MSTORE PUSH2 0x1C99 DUP2 PUSH2 0x1C60 JUMP JUMPDEST SWAP1 POP SWAP2 SWAP1 POP JUMP JUMPDEST PUSH0 DUP2 SWAP1 POP SWAP3 SWAP2 POP POP JUMP JUMPDEST POP JUMP JUMPDEST PUSH0 PUSH2 0x1CB8 PUSH0 DUP4 PUSH2 0x1CA0 JUMP JUMPDEST SWAP2 POP PUSH2 0x1CC3 DUP3 PUSH2 0x1CAA JUMP JUMPDEST PUSH0 DUP3 ADD SWAP1 POP SWAP2 SWAP1 POP JUMP JUMPDEST PUSH0 PUSH2 0x1CD7 DUP3 PUSH2 0x1CAD JUMP JUMPDEST SWAP2 POP DUP2 SWAP1 POP SWAP2 SWAP1 POP JUMP JUMPDEST PUSH32 0x5769746864726177616C207472616E73666572206661696C6564000000000000 PUSH0 DUP3 ADD MSTORE POP JUMP JUMPDEST PUSH0 PUSH2 0x1D15 PUSH1 0x1A DUP4 PUSH2 0x1B58 JUMP JUMPDEST SWAP2 POP PUSH2 0x1D20 DUP3 PUSH2 0x1CE1 JUMP JUMPDEST PUSH1 0x20 DUP3 ADD SWAP1 POP SWAP2 SWAP1 POP JUMP JUMPDEST PUSH0 PUSH1 0x20 DUP3 ADD SWAP1 POP DUP2 DUP2 SUB PUSH0 DUP4 ADD MSTORE PUSH2 0x1D42 DUP2 PUSH2 0x1D09 JUMP JUMPDEST SWAP1 POP SWAP2 SWAP1 POP JUMP JUMPDEST PUSH0 DUP2 SWAP1 POP SWAP2 SWAP1 POP JUMP JUMPDEST PUSH0 PUSH2 0x1D6C PUSH2 0x1D67 PUSH2 0x1D62 DUP5 PUSH2 0x1831 JUMP JUMPDEST PUSH2 0x1D49 JUMP JUMPDEST PUSH2 0x1831 JUMP JUMPDEST SWAP1 POP SWAP2 SWAP1 POP JUMP JUMPDEST PUSH0 PUSH2 0x1D7D DUP3 PUSH2 0x1D52 JUMP JUMPDEST SWAP1 POP SWAP2 SWAP1 POP JUMP JUMPDEST PUSH0 PUSH2 0x1D8E DUP3 PUSH2 0x1D73 JUMP JUMPDEST SWAP1 POP SWAP2 SWAP1 POP JUMP JUMPDEST PUSH2 0x1D9E DUP2 PUSH2 0x1D84 JUMP JUMPDEST DUP3 MSTORE POP POP JUMP JUMPDEST PUSH0 PUSH1 0x60 DUP3 ADD SWAP1 POP PUSH2 0x1DB7 PUSH0 DUP4 ADD DUP7 PUSH2 0x1927 JUMP JUMPDEST PUSH2 0x1DC4 PUSH1 0x20 DUP4 ADD DUP6 PUSH2 0x1D95 JUMP JUMPDEST PUSH2 0x1DD1 PUSH1 0x40 DUP4 ADD DUP5 PUSH2 0x1927 JUMP JUMPDEST SWAP5 SWAP4 POP POP POP POP JUMP JUMPDEST PUSH32 0x4E6F20726566756E642072657175657374656400000000000000000000000000 PUSH0 DUP3 ADD MSTORE POP JUMP JUMPDEST PUSH0 PUSH2 0x1E0D PUSH1 0x13 DUP4 PUSH2 0x1B58 JUMP JUMPDEST SWAP2 POP PUSH2 0x1E18 DUP3 PUSH2 0x1DD9 JUMP JUMPDEST PUSH1 0x20 DUP3 ADD SWAP1 POP SWAP2 SWAP1 POP JUMP JUMPDEST PUSH0 PUSH1 0x20 DUP3 ADD SWAP1 POP DUP2 DUP2 SUB PUSH0 DUP4 ADD MSTORE PUSH2 0x1E3A DUP2 PUSH2 0x1E01 JUMP JUMPDEST SWAP1 POP SWAP2 SWAP1 POP JUMP JUMPDEST PUSH2 0x1E4A DUP2 PUSH2 0x1850 JUMP JUMPDEST DUP3 MSTORE POP POP JUMP JUMPDEST PUSH0 PUSH1 0x40 DUP3 ADD SWAP1 POP PUSH2 0x1E63 PUSH0 DUP4 ADD DUP6 PUSH2 0x1927 JUMP JUMPDEST PUSH2 0x1E70 PUSH1 0x20 DUP4 ADD DUP5 PUSH2 0x1E41 JUMP JUMPDEST SWAP4 SWAP3 POP POP POP JUMP JUMPDEST PUSH32 0x5374616C6C206E6F7420666F756E640000000000000000000000000000000000 PUSH0 DUP3 ADD MSTORE POP JUMP JUMPDEST PUSH0 PUSH2 0x1EAB PUSH1 0xF DUP4 PUSH2 0x1B58 JUMP JUMPDEST SWAP2 POP PUSH2 0x1EB6 DUP3 PUSH2 0x1E77 JUMP JUMPDEST PUSH1 0x20 DUP3 ADD SWAP1 POP SWAP2 SWAP1 POP JUMP JUMPDEST PUSH0 PUSH1 0x20 DUP3 ADD SWAP1 POP DUP2 DUP2 SUB PUSH0 DUP4 ADD MSTORE PUSH2 0x1ED8 DUP2 PUSH2 0x1E9F JUMP JUMPDEST SWAP1 POP SWAP2 SWAP1 POP JUMP JUMPDEST PUSH32 0x5374616C6C2066756E64732077697468647261776E2C206E6F206D6F72652070 PUSH0 DUP3 ADD MSTORE PUSH32 0x61796D656E747300000000000000000000000000000000000000000000000000 PUSH1 0x20 DUP3 ADD MSTORE POP JUMP JUMPDEST PUSH0 PUSH2 0x1F39 PUSH1 0x27 DUP4 PUSH2 0x1B58 JUMP JUMPDEST SWAP2 POP PUSH2 0x1F44 DUP3 PUSH2 0x1EDF JUMP JUMPDEST PUSH1 0x40 DUP3 ADD SWAP1 POP SWAP2 SWAP1 POP JUMP JUMPDEST PUSH0 PUSH1 0x20 DUP3 ADD SWAP1 POP DUP2 DUP2 SUB PUSH0 DUP4 ADD MSTORE PUSH2 0x1F66 DUP2 PUSH2 0x1F2D JUMP JUMPDEST SWAP1 POP SWAP2 SWAP1 POP JUMP JUMPDEST PUSH32 0x4D7573742073656E642045544800000000000000000000000000000000000000 PUSH0 DUP3 ADD MSTORE POP JUMP JUMPDEST PUSH0 PUSH2 0x1FA1 PUSH1 0xD DUP4 PUSH2 0x1B58 JUMP JUMPDEST SWAP2 POP PUSH2 0x1FAC DUP3 PUSH2 0x1F6D JUMP JUMPDEST PUSH1 0x20 DUP3 ADD SWAP1 POP SWAP2 SWAP1 POP JUMP JUMPDEST PUSH0 PUSH1 0x20 DUP3 ADD SWAP1 POP DUP2 DUP2 SUB PUSH0 DUP4 ADD MSTORE PUSH2 0x1FCE DUP2 PUSH2 0x1F95 JUMP JUMPDEST SWAP1 POP SWAP2 SWAP1 POP JUMP JUMPDEST PUSH32 0x4E487B7100000000000000000000000000000000000000000000000000000000 PUSH0 MSTORE PUSH1 0x11 PUSH1 0x4 MSTORE PUSH1 0x24 PUSH0 REVERT JUMPDEST PUSH0 PUSH2 0x200C DUP3 PUSH2 0x17FE JUMP JUMPDEST SWAP2 POP PUSH2 0x2017 DUP4 PUSH2 0x17FE JUMP JUMPDEST SWAP3 POP DUP3 DUP3 ADD SWAP1 POP DUP1 DUP3 GT ISZERO PUSH2 0x202F JUMPI PUSH2 0x202E PUSH2 0x1FD5 JUMP JUMPDEST JUMPDEST SWAP3 SWAP2 POP POP JUMP JUMPDEST PUSH0 PUSH1 0x60 DUP3 ADD SWAP1 POP PUSH2 0x2048 PUSH0 DUP4 ADD DUP7 PUSH2 0x1927 JUMP JUMPDEST PUSH2 0x2055 PUSH1 0x20 DUP4 ADD DUP6 PUSH2 0x1E41 JUMP JUMPDEST PUSH2 0x2062 PUSH1 0x40 DUP4 ADD DUP5 PUSH2 0x1927 JUMP JUMPDEST SWAP5 SWAP4 POP POP POP POP JUMP JUMPDEST PUSH32 0x4E6F207061796D656E74206D6164650000000000000000000000000000000000 PUSH0 DUP3 ADD MSTORE POP JUMP JUMPDEST PUSH0 PUSH2 0x209E PUSH1 0xF DUP4 PUSH2 0x1B58 JUMP JUMPDEST SWAP2 POP PUSH2 0x20A9 DUP3 PUSH2 0x206A JUMP JUMPDEST PUSH1 0x20 DUP3 ADD SWAP1 POP SWAP2 SWAP1 POP JUMP JUMPDEST PUSH0 PUSH1 0x20 DUP3 ADD SWAP1 POP DUP2 DUP2 SUB PUSH0 DUP4 ADD MSTORE PUSH2 0x20CB DUP2 PUSH2 0x2092 JUMP JUMPDEST SWAP1 POP SWAP2 SWAP1 POP JUMP JUMPDEST PUSH32 0x526566756E6420616C7265616479207265717565737465640000000000000000 PUSH0 DUP3 ADD MSTORE POP JUMP JUMPDEST PUSH0 PUSH2 0x2106 PUSH1 0x18 DUP4 PUSH2 0x1B58 JUMP JUMPDEST SWAP2 POP PUSH2 0x2111 DUP3 PUSH2 0x20D2 JUMP JUMPDEST PUSH1 0x20 DUP3 ADD SWAP1 POP SWAP2 SWAP1 POP JUMP JUMPDEST PUSH0 PUSH1 0x20 DUP3 ADD SWAP1 POP DUP2 DUP2 SUB PUSH0 DUP4 ADD MSTORE PUSH2 0x2133 DUP2 PUSH2 0x20FA JUMP JUMPDEST SWAP1 POP SWAP2 SWAP1 POP JUMP JUMPDEST PUSH32 0x4E6F207061796D656E7420746F20726566756E64000000000000000000000000 PUSH0 DUP3 ADD MSTORE POP JUMP JUMPDEST PUSH0 PUSH2 0x216E PUSH1 0x14 DUP4 PUSH2 0x1B58 JUMP JUMPDEST SWAP2 POP PUSH2 0x2179 DUP3 PUSH2 0x213A JUMP JUMPDEST PUSH1 0x20 DUP3 ADD SWAP1 POP SWAP2 SWAP1 POP JUMP JUMPDEST PUSH0 PUSH1 0x20 DUP3 ADD SWAP1 POP DUP2 DUP2 SUB PUSH0 DUP4 ADD MSTORE PUSH2 0x219B DUP2 PUSH2 0x2162 JUMP JUMPDEST SWAP1 POP SWAP2 SWAP1 POP JUMP JUMPDEST PUSH32 0x526566756E642065786365656473207374616C6C2062616C616E636500000000 PUSH0 DUP3 ADD MSTORE POP JUMP JUMPDEST PUSH0 PUSH2 0x21D6 PUSH1 0x1C DUP4 PUSH2 0x1B58 JUMP JUMPDEST SWAP2 POP PUSH2 0x21E1 DUP3 PUSH2 0x21A2 JUMP JUMPDEST PUSH1 0x20 DUP3 ADD SWAP1 POP SWAP2 SWAP1 POP JUMP JUMPDEST PUSH0 PUSH1 0x20 DUP3 ADD SWAP1 POP DUP2 DUP2 SUB PUSH0 DUP4 ADD MSTORE PUSH2 0x2203 DUP2 PUSH2 0x21CA JUMP JUMPDEST SWAP1 POP SWAP2 SWAP1 POP JUMP JUMPDEST PUSH0 PUSH2 0x2214 DUP3 PUSH2 0x17FE JUMP JUMPDEST SWAP2 POP PUSH2 0x221F DUP4 PUSH2 0x17FE JUMP JUMPDEST SWAP3 POP DUP3 DUP3 SUB SWAP1 POP DUP2 DUP2 GT ISZERO PUSH2 0x2237 JUMPI PUSH2 0x2236 PUSH2 0x1FD5 JUMP JUMPDEST JUMPDEST SWAP3 SWAP2 POP POP JUMP JUMPDEST PUSH32 0x526566756E64207472616E73666572206661696C656400000000000000000000 PUSH0 DUP3 ADD MSTORE POP JUMP JUMPDEST PUSH0 PUSH2 0x2271 PUSH1 0x16 DUP4 PUSH2 0x1B58 JUMP JUMPDEST SWAP2 POP PUSH2 0x227C DUP3 PUSH2 0x223D JUMP JUMPDEST PUSH1 0x20 DUP3 ADD SWAP1 POP SWAP2 SWAP1 POP JUMP JUMPDEST PUSH0 PUSH1 0x20 DUP3 ADD SWAP1 POP DUP2 DUP2 SUB PUSH0 DUP4 ADD MSTORE PUSH2 0x229E DUP2 PUSH2 0x2265 JUMP JUMPDEST SWAP1 POP SWAP2 SWAP1 POP JUMP JUMPDEST PUSH0 PUSH2 0x22AF DUP3 PUSH2 0x17FE JUMP JUMPDEST SWAP2 POP PUSH32 0xFFFFFFFFFFFFFFFFFFFFFFFFFFFFFFFFFFFFFFFFFFFFFFFFFFFFFFFFFFFFFFFF DUP3 SUB PUSH2 0x22E1 JUMPI PUSH2 0x22E0 PUSH2 0x1FD5 JUMP JUMPDEST JUMPDEST PUSH1 0x1 DUP3 ADD SWAP1 POP SWAP2 SWAP1 POP JUMP JUMPDEST PUSH0 PUSH1 0x60 DUP3 ADD SWAP1 POP PUSH2 0x22FF PUSH0 DUP4 ADD DUP7 PUSH2 0x1927 JUMP JUMPDEST PUSH2 0x230C PUSH1 0x20 DUP4 ADD DUP6 PUSH2 0x1E41 JUMP JUMPDEST PUSH2 0x2319 PUSH1 0x40 DUP4 ADD DUP5 PUSH2 0x1AAA JUMP JUMPDEST SWAP5 SWAP4 POP POP POP POP JUMP INVALID LOG2 PUSH5 0x6970667358 0x22 SLT KECCAK256 0xDB 0xF 0x4B 0xD7 0xD4 BLOBHASH 0x28 0xB5 PC RETURNCONTRACT 0xEB 0xED 0xD7 0xB1 CODECOPY 0x29 PUSH12 0x6469F6D074FD19D23DC58AF9 XOR MSTORE KECCAK256 PUSH5 0x736F6C6343 STOP ADDMOD 0x1E STOP CALLER "
				},
				"gasEstimates": {
					"creation": {
						"codeDepositCost": "1809400",
						"executionCost": "1903",
						"totalCost": "1811303"
					},
					"external": {
						"approveRefund(uint256,address)": "infinite",
						"denyRefund(uint256,address)": "infinite",
						"getPayers(uint256)": "infinite",
						"getWithdrawalTime(uint8)": "733",
						"issueRefund(uint256,address)": "infinite",
						"makePayment(uint256)": "infinite",
						"payments(uint256,address)": "infinite",
						"refundRequested(uint256,address)": "3071",
						"registerStall(uint8)": "infinite",
						"requestRefund(uint256)": "31661",
						"stallCount()": "2470",
						"stalls(uint256)": "infinite",
						"withdrawFunds(uint256)": "infinite"
					}
				},
				"methodIdentifiers": {
					"approveRefund(uint256,address)": "d5f8ab89",
					"denyRefund(uint256,address)": "4b8e3a17",
					"getPayers(uint256)": "68209707",
					"getWithdrawalTime(uint8)": "a532db90",
					"issueRefund(uint256,address)": "aa8695aa",
					"makePayment(uint256)": "5114cb52",
					"payments(uint256,address)": "565834ee",
					"refundRequested(uint256,address)": "0a3b91d9",
					"registerStall(uint8)": "d8f4ee5b",
					"requestRefund(uint256)": "a4b2409e",
					"stallCount()": "99cb043a",
					"stalls(uint256)": "6d0f9408",
					"withdrawFunds(uint256)": "155dd5ee"
				}
			},
			"storageLayout": {
				"storage": [
					{
						"astId": 22,
						"contract": "contracts/CCNCarnival2025.sol:CCNCarnival2025",
						"label": "stalls",
						"offset": 0,
						"slot": "0",
						"type": "t_mapping(t_uint256,t_struct(Stall)17_storage)"
					},
					{
						"astId": 28,
						"contract": "contracts/CCNCarnival2025.sol:CCNCarnival2025",
						"label": "payments",
						"offset": 0,
						"slot": "1",
						"type": "t_mapping(t_uint256,t_mapping(t_address,t_uint256))"
					},
					{
						"astId": 33,
						"contract": "contracts/CCNCarnival2025.sol:CCNCarnival2025",
						"label": "stallPayers",
						"offset": 0,
						"slot": "2",
						"type": "t_mapping(t_uint256,t_array(t_address)dyn_storage)"
					},
					{
						"astId": 39,
						"contract": "contracts/CCNCarnival2025.sol:CCNCarnival2025",
						"label": "hasPaidBefore",
						"offset": 0,
						"slot": "3",
						"type": "t_mapping(t_uint256,t_mapping(t_address,t_bool))"
					},
					{
						"astId": 45,
						"contract": "contracts/CCNCarnival2025.sol:CCNCarnival2025",
						"label": "refundRequested",
						"offset": 0,
						"slot": "4",
						"type": "t_mapping(t_uint256,t_mapping(t_address,t_bool))"
					},
					{
						"astId": 47,
						"contract": "contracts/CCNCarnival2025.sol:CCNCarnival2025",
						"label": "stallCount",
						"offset": 0,
						"slot": "5",
						"type": "t_uint256"
					}
				],
				"types": {
					"t_address": {
						"encoding": "inplace",
						"label": "address",
						"numberOfBytes": "20"
					},
					"t_address_payable": {
						"encoding": "inplace",
						"label": "address payable",
						"numberOfBytes": "20"
					},
					"t_array(t_address)dyn_storage": {
						"base": "t_address",
						"encoding": "dynamic_array",
						"label": "address[]",
						"numberOfBytes": "32"
					},
					"t_bool": {
						"encoding": "inplace",
						"label": "bool",
						"numberOfBytes": "1"
					},
					"t_enum(OperatingDays)5": {
						"encoding": "inplace",
						"label": "enum CCNCarnival2025.OperatingDays",
						"numberOfBytes": "1"
					},
					"t_mapping(t_address,t_bool)": {
						"encoding": "mapping",
						"key": "t_address",
						"label": "mapping(address => bool)",
						"numberOfBytes": "32",
						"value": "t_bool"
					},
					"t_mapping(t_address,t_uint256)": {
						"encoding": "mapping",
						"key": "t_address",
						"label": "mapping(address => uint256)",
						"numberOfBytes": "32",
						"value": "t_uint256"
					},
					"t_mapping(t_uint256,t_array(t_address)dyn_storage)": {
						"encoding": "mapping",
						"key": "t_uint256",
						"label": "mapping(uint256 => address[])",
						"numberOfBytes": "32",
						"value": "t_array(t_address)dyn_storage"
					},
					"t_mapping(t_uint256,t_mapping(t_address,t_bool))": {
						"encoding": "mapping",
						"key": "t_uint256",
						"label": "mapping(uint256 => mapping(address => bool))",
						"numberOfBytes": "32",
						"value": "t_mapping(t_address,t_bool)"
					},
					"t_mapping(t_uint256,t_mapping(t_address,t_uint256))": {
						"encoding": "mapping",
						"key": "t_uint256",
						"label": "mapping(uint256 => mapping(address => uint256))",
						"numberOfBytes": "32",
						"value": "t_mapping(t_address,t_uint256)"
					},
					"t_mapping(t_uint256,t_struct(Stall)17_storage)": {
						"encoding": "mapping",
						"key": "t_uint256",
						"label": "mapping(uint256 => struct CCNCarnival2025.Stall)",
						"numberOfBytes": "32",
						"value": "t_struct(Stall)17_storage"
					},
					"t_struct(Stall)17_storage": {
						"encoding": "inplace",
						"label": "struct CCNCarnival2025.Stall",
						"members": [
							{
								"astId": 7,
								"contract": "contracts/CCNCarnival2025.sol:CCNCarnival2025",
								"label": "owner",
								"offset": 0,
								"slot": "0",
								"type": "t_address_payable"
							},
							{
								"astId": 10,
								"contract": "contracts/CCNCarnival2025.sol:CCNCarnival2025",
								"label": "duration",
								"offset": 20,
								"slot": "0",
								"type": "t_enum(OperatingDays)5"
							},
							{
								"astId": 12,
								"contract": "contracts/CCNCarnival2025.sol:CCNCarnival2025",
								"label": "balance",
								"offset": 0,
								"slot": "1",
								"type": "t_uint256"
							},
							{
								"astId": 14,
								"contract": "contracts/CCNCarnival2025.sol:CCNCarnival2025",
								"label": "registered",
								"offset": 0,
								"slot": "2",
								"type": "t_bool"
							},
							{
								"astId": 16,
								"contract": "contracts/CCNCarnival2025.sol:CCNCarnival2025",
								"label": "withdrawn",
								"offset": 1,
								"slot": "2",
								"type": "t_bool"
							}
						],
						"numberOfBytes": "96"
					},
					"t_uint256": {
						"encoding": "inplace",
						"label": "uint256",
						"numberOfBytes": "32"
					}
				}
			},
			"userdoc": {
				"kind": "user",
				"methods": {},
				"version": 1
			}
		}
	}
}